{
  "contractName": "BasicMarketplace",
  "abi": [
    {
      "constant": true,
      "inputs": [
        {
          "name": "_dataSourceName",
          "type": "bytes32"
        }
      ],
      "name": "isActiveDataSource",
      "outputs": [
        {
          "name": "isActive",
          "type": "bool"
        }
      ],
      "payable": false,
      "stateMutability": "view",
      "type": "function"
    },
    {
      "constant": true,
      "inputs": [],
      "name": "mBegin",
      "outputs": [
        {
          "name": "",
          "type": "bytes32"
        }
      ],
      "payable": false,
      "stateMutability": "view",
      "type": "function"
    },
    {
      "constant": true,
      "inputs": [],
      "name": "FIXED_SUBSCRIPTION_PERIOD",
      "outputs": [
        {
          "name": "",
          "type": "uint256"
        }
      ],
      "payable": false,
      "stateMutability": "view",
      "type": "function"
    },
    {
      "constant": true,
      "inputs": [
        {
          "name": "_dataSourceName",
          "type": "bytes32"
        }
      ],
      "name": "getDataProviderInfo",
      "outputs": [
        {
          "name": "owner",
          "type": "address"
        },
        {
          "name": "price",
          "type": "uint256"
        },
        {
          "name": "volume",
          "type": "uint256"
        },
        {
          "name": "subscriptionsNum",
          "type": "uint256"
        },
        {
          "name": "isProvider",
          "type": "bool"
        },
        {
          "name": "isActive",
          "type": "bool"
        },
        {
          "name": "isPunished",
          "type": "bool"
        }
      ],
      "payable": false,
      "stateMutability": "view",
      "type": "function"
    },
    {
      "constant": true,
      "inputs": [],
      "name": "mProvidersSize",
      "outputs": [
        {
          "name": "",
          "type": "uint256"
        }
      ],
      "payable": false,
      "stateMutability": "view",
      "type": "function"
    },
    {
      "constant": false,
      "inputs": [
        {
          "name": "_dataSourceName",
          "type": "bytes32"
        },
        {
          "name": "_newPrice",
          "type": "uint256"
        }
      ],
      "name": "updateDataSourcePrice",
      "outputs": [
        {
          "name": "success",
          "type": "bool"
        }
      ],
      "payable": false,
      "stateMutability": "nonpayable",
      "type": "function"
    },
    {
      "constant": true,
      "inputs": [],
      "name": "getAllProviders",
      "outputs": [
        {
          "name": "",
          "type": "bytes32[]"
        }
      ],
      "payable": false,
      "stateMutability": "view",
      "type": "function"
    },
    {
      "constant": true,
      "inputs": [],
      "name": "mCurrent",
      "outputs": [
        {
          "name": "",
          "type": "bytes32"
        }
      ],
      "payable": false,
      "stateMutability": "view",
      "type": "function"
    },
    {
      "constant": true,
      "inputs": [
        {
          "name": "_subscriber",
          "type": "address"
        },
        {
          "name": "_dataSourceName",
          "type": "bytes32"
        }
      ],
      "name": "checkAddressSubscription",
      "outputs": [
        {
          "name": "subscriber",
          "type": "address"
        },
        {
          "name": "dataSourceName",
          "type": "bytes32"
        },
        {
          "name": "price",
          "type": "uint256"
        },
        {
          "name": "startTime",
          "type": "uint256"
        },
        {
          "name": "endTime",
          "type": "uint256"
        },
        {
          "name": "isUnExpired",
          "type": "bool"
        },
        {
          "name": "isPaid",
          "type": "bool"
        },
        {
          "name": "isPunishedProvider",
          "type": "bool"
        },
        {
          "name": "isOrder",
          "type": "bool"
        }
      ],
      "payable": false,
      "stateMutability": "view",
      "type": "function"
    },
    {
      "constant": false,
      "inputs": [
        {
          "name": "_dataSourceName",
          "type": "bytes32"
        },
        {
          "name": "_isActive",
          "type": "bool"
        }
      ],
      "name": "changeDataSourceActivityStatus",
      "outputs": [
        {
          "name": "success",
          "type": "bool"
        }
      ],
      "payable": false,
      "stateMutability": "nonpayable",
      "type": "function"
    },
    {
      "constant": true,
      "inputs": [
        {
          "name": "",
          "type": "bytes32"
        }
      ],
      "name": "mProviders",
      "outputs": [
        {
          "name": "owner",
          "type": "address"
        },
        {
          "name": "volume",
          "type": "uint256"
        },
        {
          "name": "subscriptionsNum",
          "type": "uint256"
        },
        {
          "name": "name",
          "type": "bytes32"
        },
        {
          "name": "price",
          "type": "uint256"
        },
        {
          "name": "isPunished",
          "type": "bool"
        },
        {
          "name": "punishTimeStamp",
          "type": "uint256"
        },
        {
          "name": "isProvider",
          "type": "bool"
        },
        {
          "name": "isActive",
          "type": "bool"
        },
        {
          "name": "nextProvider",
          "type": "bytes32"
        }
      ],
      "payable": false,
      "stateMutability": "view",
      "type": "function"
    },
    {
      "constant": true,
      "inputs": [
        {
          "name": "",
          "type": "bytes32"
        },
        {
          "name": "",
          "type": "uint256"
        }
      ],
      "name": "mOrders",
      "outputs": [
        {
          "name": "dataSourceName",
          "type": "bytes32"
        },
        {
          "name": "subscriber",
          "type": "address"
        },
        {
          "name": "provider",
          "type": "address"
        },
        {
          "name": "price",
          "type": "uint256"
        },
        {
          "name": "startTime",
          "type": "uint256"
        },
        {
          "name": "endTime",
          "type": "uint256"
        },
        {
          "name": "isPaid",
          "type": "bool"
        },
        {
          "name": "isOrder",
          "type": "bool"
        },
        {
          "name": "isRefundPaid",
          "type": "bool"
        }
      ],
      "payable": false,
      "stateMutability": "view",
      "type": "function"
    },
    {
      "constant": true,
      "inputs": [],
      "name": "mToken",
      "outputs": [
        {
          "name": "",
          "type": "address"
        }
      ],
      "payable": false,
      "stateMutability": "view",
      "type": "function"
    },
    {
      "constant": true,
      "inputs": [
        {
          "name": "_dataSourceName",
          "type": "bytes32"
        }
      ],
      "name": "getOwnerFromName",
      "outputs": [
        {
          "name": "owner",
          "type": "address"
        }
      ],
      "payable": false,
      "stateMutability": "view",
      "type": "function"
    },
    {
      "constant": true,
      "inputs": [],
      "name": "mOwner",
      "outputs": [
        {
          "name": "",
          "type": "address"
        }
      ],
      "payable": false,
      "stateMutability": "view",
      "type": "function"
    },
    {
      "constant": true,
      "inputs": [],
      "name": "MARKETPLACE_VERSION",
      "outputs": [
        {
          "name": "",
          "type": "string"
        }
      ],
      "payable": false,
      "stateMutability": "view",
      "type": "function"
    },
    {
      "constant": true,
      "inputs": [
        {
          "name": "_subscriber",
          "type": "address"
        },
        {
          "name": "_dataSourceName",
          "type": "bytes32"
        }
      ],
      "name": "isExpiredSubscription",
      "outputs": [
        {
          "name": "isExpired",
          "type": "bool"
        }
      ],
      "payable": false,
      "stateMutability": "view",
      "type": "function"
    },
    {
      "constant": false,
      "inputs": [
        {
          "name": "_newOwner",
          "type": "address"
        }
      ],
      "name": "transferOwnership",
      "outputs": [],
      "payable": false,
      "stateMutability": "nonpayable",
      "type": "function"
    },
    {
      "inputs": [
        {
          "name": "_tokenAddress",
          "type": "address"
        }
      ],
      "payable": false,
      "stateMutability": "nonpayable",
      "type": "constructor"
    },
    {
      "anonymous": false,
      "inputs": [
        {
          "indexed": true,
          "name": "previousOwner",
          "type": "address"
        },
        {
          "indexed": true,
          "name": "newOwner",
          "type": "address"
        }
      ],
      "name": "OwnershipTransferred",
      "type": "event"
    },
    {
      "anonymous": false,
      "inputs": [
        {
          "indexed": true,
          "name": "editor",
          "type": "address"
        },
        {
          "indexed": true,
          "name": "dataSourceName",
          "type": "bytes32"
        },
        {
          "indexed": false,
          "name": "newPrice",
          "type": "uint256"
        }
      ],
      "name": "PriceUpdate",
      "type": "event"
    },
    {
      "anonymous": false,
      "inputs": [
        {
          "indexed": true,
          "name": "editor",
          "type": "address"
        },
        {
          "indexed": true,
          "name": "dataSourceName",
          "type": "bytes32"
        },
        {
          "indexed": false,
          "name": "newStatus",
          "type": "bool"
        }
      ],
      "name": "ActivityUpdate",
      "type": "event"
    }
  ],
  "bytecode": "0x6060604052341561000f57600080fd5b6040516020806117f683398101604052808051906020019091905050336000806101000a81548173ffffffffffffffffffffffffffffffffffffffff021916908373ffffffffffffffffffffffffffffffffffffffff160217905550600073ffffffffffffffffffffffffffffffffffffffff168173ffffffffffffffffffffffffffffffffffffffff16141515156100a757600080fd5b80600460006101000a81548173ffffffffffffffffffffffffffffffffffffffff021916908373ffffffffffffffffffffffffffffffffffffffff1602179055506000600560008060010260001916815260200190815260200160002060080181600019169055506000600102600560008060010260001916815260200190815260200160002060030181600019169055506005600080600102600019168152602001908152602001600020600301546002816000191690555060056000806001026000191681526020019081526020016000206003015460018160001916905550600160038190555050611655806101a16000396000f3006060604052600436106100fc576000357c0100000000000000000000000000000000000000000000000000000000900463ffffffff1680630cf23b1f146101015780631225318c1461014057806326277bf2146101715780632f95949a1461019a57806332b9c88c14610237578063340b4ed4146102605780633bb4497c146102a857806352e0ca79146103125780637b788613146103435780638d149e5c14610419578063b618c75614610463578063c216d4a814610525578063c3b6f9391461060d578063c94d14ad14610662578063dcda4bf3146106c9578063e93818e41461071e578063ea97bac1146107ac578063f2fde38b1461080a575b600080fd5b341561010c57600080fd5b610126600480803560001916906020019091905050610843565b604051808215151515815260200191505060405180910390f35b341561014b57600080fd5b610153610878565b60405180826000191660001916815260200191505060405180910390f35b341561017c57600080fd5b61018461087e565b6040518082815260200191505060405180910390f35b34156101a557600080fd5b6101bf600480803560001916906020019091905050610885565b604051808873ffffffffffffffffffffffffffffffffffffffff1673ffffffffffffffffffffffffffffffffffffffff16815260200187815260200186815260200185815260200184151515158152602001831515151581526020018215151515815260200197505050505050505060405180910390f35b341561024257600080fd5b61024a6109c9565b6040518082815260200191505060405180910390f35b341561026b57600080fd5b61028e6004808035600019169060200190919080359060200190919050506109cf565b604051808215151515815260200191505060405180910390f35b34156102b357600080fd5b6102bb610b25565b6040518080602001828103825283818151815260200191508051906020019060200280838360005b838110156102fe5780820151818401526020810190506102e3565b505050509050019250505060405180910390f35b341561031d57600080fd5b610325610be9565b60405180826000191660001916815260200191505060405180910390f35b341561034e57600080fd5b610387600480803573ffffffffffffffffffffffffffffffffffffffff1690602001909190803560001916906020019091905050610bef565b604051808a73ffffffffffffffffffffffffffffffffffffffff1673ffffffffffffffffffffffffffffffffffffffff168152602001896000191660001916815260200188815260200187815260200186815260200185151515158152602001841515151581526020018315151515815260200182151515158152602001995050505050505050505060405180910390f35b341561042457600080fd5b6104496004808035600019169060200190919080351515906020019091905050610f6d565b604051808215151515815260200191505060405180910390f35b341561046e57600080fd5b6104886004808035600019169060200190919050506110b7565b604051808b73ffffffffffffffffffffffffffffffffffffffff1673ffffffffffffffffffffffffffffffffffffffff1681526020018a8152602001898152602001886000191660001916815260200187815260200186151515158152602001858152602001841515151581526020018315151515815260200182600019166000191681526020019a505050505050505050505060405180910390f35b341561053057600080fd5b610553600480803560001916906020019091908035906020019091905050611152565b604051808a600019166000191681526020018973ffffffffffffffffffffffffffffffffffffffff1673ffffffffffffffffffffffffffffffffffffffff1681526020018873ffffffffffffffffffffffffffffffffffffffff1673ffffffffffffffffffffffffffffffffffffffff168152602001878152602001868152602001858152602001841515151581526020018315151515815260200182151515158152602001995050505050505050505060405180910390f35b341561061857600080fd5b610620611223565b604051808273ffffffffffffffffffffffffffffffffffffffff1673ffffffffffffffffffffffffffffffffffffffff16815260200191505060405180910390f35b341561066d57600080fd5b610687600480803560001916906020019091905050611249565b604051808273ffffffffffffffffffffffffffffffffffffffff1673ffffffffffffffffffffffffffffffffffffffff16815260200191505060405180910390f35b34156106d457600080fd5b6106dc611291565b604051808273ffffffffffffffffffffffffffffffffffffffff1673ffffffffffffffffffffffffffffffffffffffff16815260200191505060405180910390f35b341561072957600080fd5b6107316112b6565b6040518080602001828103825283818151815260200191508051906020019080838360005b83811015610771578082015181840152602081019050610756565b50505050905090810190601f16801561079e5780820380516001836020036101000a031916815260200191505b509250505060405180910390f35b34156107b757600080fd5b6107f0600480803573ffffffffffffffffffffffffffffffffffffffff16906020019091908035600019169060200190919050506112ef565b604051808215151515815260200191505060405180910390f35b341561081557600080fd5b610841600480803573ffffffffffffffffffffffffffffffffffffffff169060200190919050506114a2565b005b600060056000836000191660001916815260200190815260200160002060070160019054906101000a900460ff169050919050565b60015481565b62278d0081565b600080600080600080600060056000896000191660001916815260200190815260200160002060000160009054906101000a900473ffffffffffffffffffffffffffffffffffffffff16965060056000896000191660001916815260200190815260200160002060040154955060056000896000191660001916815260200190815260200160002060010154945060056000896000191660001916815260200190815260200160002060020154935060056000896000191660001916815260200190815260200160002060070160009054906101000a900460ff16925060056000896000191660001916815260200190815260200160002060070160019054906101000a900460ff16915060056000896000191660001916815260200190815260200160002060050160009054906101000a900460ff169050919395979092949650565b60035481565b60008260056000826000191660001916815260200190815260200160002060070160009054906101000a900460ff161515610a0957600080fd5b3373ffffffffffffffffffffffffffffffffffffffff1660056000836000191660001916815260200190815260200160002060000160009054906101000a900473ffffffffffffffffffffffffffffffffffffffff1673ffffffffffffffffffffffffffffffffffffffff16141515610a8157600080fd5b8280610a976001836115f790919063ffffffff16565b111515610aa357600080fd5b836005600087600019166000191681526020019081526020016000206004018190555084600019163373ffffffffffffffffffffffffffffffffffffffff167fd6d44e0931d3eff0a69c277b94480024f00d36b25216cf69d54965c1ecb7f4a3866040518082815260200191505060405180910390a360019250505092915050565b610b2d611615565b610b35611615565b600080600354604051805910610b485750595b908082528060200260200182016040525092506001549150600090505b600354811015610be057600560008360001916600019168152602001908152602001600020600301548382815181101515610b9c57fe5b906020019060200201906000191690816000191681525050600560008360001916600019168152602001908152602001600020600801549150806001019050610b65565b82935050505090565b60025481565b6000806000806000806000806000806000600660008d60001916600019168152602001908152602001600020805490509150600082111515610c3057600080fd5b8c73ffffffffffffffffffffffffffffffffffffffff16600073ffffffffffffffffffffffffffffffffffffffff1614151515610c6c57600080fd5b600560008d6000191660001916815260200190815260200160002060070160009054906101000a900460ff161515610ca357600080fd5b6001820390505b600081101515610f43578c73ffffffffffffffffffffffffffffffffffffffff16600660008e6000191660001916815260200190815260200160002082815481101515610cf357fe5b906000526020600020906007020160010160009054906101000a900473ffffffffffffffffffffffffffffffffffffffff1673ffffffffffffffffffffffffffffffffffffffff161415610f2757600660008d6000191660001916815260200190815260200160002081815481101515610d6957fe5b906000526020600020906007020160010160009054906101000a900473ffffffffffffffffffffffffffffffffffffffff169a50600660008d6000191660001916815260200190815260200160002081815481101515610dc557fe5b9060005260206000209060070201600301549850600660008d6000191660001916815260200190815260200160002081815481101515610e0157fe5b9060005260206000209060070201600401549750600660008d6000191660001916815260200190815260200160002081815481101515610e3d57fe5b9060005260206000209060070201600501549650610e5b8b8d6112ef565b159550600660008d6000191660001916815260200190815260200160002081815481101515610e8657fe5b906000526020600020906007020160060160009054906101000a900460ff169450600560008d6000191660001916815260200190815260200160002060050160009054906101000a900460ff169350600660008d6000191660001916815260200190815260200160002081815481101515610efd57fe5b906000526020600020906007020160060160019054906101000a900460ff16925060009050610f43565b6000811415610f3557610f43565b808060019003915050610caa565b8a8c8a8a8a8a8a8a8a9a509a509a509a509a509a509a509a509a5050509295985092959850929598565b60008260056000826000191660001916815260200190815260200160002060070160009054906101000a900460ff161515610fa757600080fd5b3373ffffffffffffffffffffffffffffffffffffffff1660056000836000191660001916815260200190815260200160002060000160009054906101000a900473ffffffffffffffffffffffffffffffffffffffff1673ffffffffffffffffffffffffffffffffffffffff1614151561101f57600080fd5b8260056000866000191660001916815260200190815260200160002060070160016101000a81548160ff02191690831515021790555083600019163373ffffffffffffffffffffffffffffffffffffffff167feb7e8fd639953c98dc1baecd9f72cc41075f4cf712755141cbbdd572181680c485604051808215151515815260200191505060405180910390a3600191505092915050565b60056020528060005260406000206000915090508060000160009054906101000a900473ffffffffffffffffffffffffffffffffffffffff16908060010154908060020154908060030154908060040154908060050160009054906101000a900460ff16908060060154908060070160009054906101000a900460ff16908060070160019054906101000a900460ff1690806008015490508a565b60066020528160005260406000208181548110151561116d57fe5b9060005260206000209060070201600091509150508060000154908060010160009054906101000a900473ffffffffffffffffffffffffffffffffffffffff16908060020160009054906101000a900473ffffffffffffffffffffffffffffffffffffffff16908060030154908060040154908060050154908060060160009054906101000a900460ff16908060060160019054906101000a900460ff16908060060160029054906101000a900460ff16905089565b600460009054906101000a900473ffffffffffffffffffffffffffffffffffffffff1681565b600060056000836000191660001916815260200190815260200160002060000160009054906101000a900473ffffffffffffffffffffffffffffffffffffffff169050919050565b6000809054906101000a900473ffffffffffffffffffffffffffffffffffffffff1681565b6040805190810160405280600181526020017f310000000000000000000000000000000000000000000000000000000000000081525081565b600080600060066000856000191660001916815260200190815260200160002080549050915060008211151561132457600080fd5b60056000856000191660001916815260200190815260200160002060070160009054906101000a900460ff16151561135b57600080fd5b8473ffffffffffffffffffffffffffffffffffffffff16600073ffffffffffffffffffffffffffffffffffffffff161415151561139757600080fd5b6001820390505b600081101515611495578473ffffffffffffffffffffffffffffffffffffffff16600660008660001916600019168152602001908152602001600020828154811015156113e757fe5b906000526020600020906007020160010160009054906101000a900473ffffffffffffffffffffffffffffffffffffffff1673ffffffffffffffffffffffffffffffffffffffff161415611479576006600085600019166000191681526020019081526020016000208181548110151561145d57fe5b906000526020600020906007020160050154421015925061149a565b600081141561148757611495565b80806001900391505061139e565b600192505b505092915050565b6000809054906101000a900473ffffffffffffffffffffffffffffffffffffffff1673ffffffffffffffffffffffffffffffffffffffff163373ffffffffffffffffffffffffffffffffffffffff161415156114fd57600080fd5b600073ffffffffffffffffffffffffffffffffffffffff168173ffffffffffffffffffffffffffffffffffffffff161415151561153957600080fd5b8073ffffffffffffffffffffffffffffffffffffffff166000809054906101000a900473ffffffffffffffffffffffffffffffffffffffff1673ffffffffffffffffffffffffffffffffffffffff167f8be0079c531659141344cd1fd0a4f28419497f9722a3daafe3b4186f6b6457e060405160405180910390a3806000806101000a81548173ffffffffffffffffffffffffffffffffffffffff021916908373ffffffffffffffffffffffffffffffffffffffff16021790555050565b600080828401905083811015151561160b57fe5b8091505092915050565b6020604051908101604052806000815250905600a165627a7a72305820a88fa837e9544a363cc7eac7069d23cfa9767e43a2470d952d5e01716a7b1ac90029",
  "source": "pragma solidity 0.4.18;\n\nimport \"./zeppelin-solidity/SafeMath.sol\";\nimport \"./zeppelin-solidity/Ownable.sol\";\nimport \"./IBasicMarketplace.sol\";\ncontract IERC20 {\n  function balanceOf(address who) public constant returns (uint256);\n  function transfer(address to, uint256 value) public returns (bool);\n  function allowance(address owner, address spender) public constant returns (uint256);\n  function transferFrom(address from, address to, uint256 value) public returns (bool);\n  function approve(address spender, uint256 value) public returns (bool);\n  event Transfer(address indexed from, address indexed to, uint256 value);\n  event Approval(address indexed owner, address indexed spender, uint256 value);\n}\n\n\ncontract BasicMarketplace is IBasicMarketplace,Ownable{\n\n\tusing SafeMath for uint256;\n\tusing SafeMath for uint;\n\n\t/*Data structures */\n\n\tstruct Order{\n        bytes32 dataSourceName;\n        address subscriber;\n        address provider;\n        uint price;\n        uint startTime;\n        uint endTime;\n        bool isPaid;\n        bool isOrder;\n        bool isRefundPaid;\n    }\n    struct Provider{\n        address owner;\n        uint volume;\n        uint subscriptionsNum;\n        bytes32 name;\n        uint price;\n        bool isPunished;\n        uint punishTimeStamp;\n        bool isProvider;\n        bool isActive;\n        bytes32 nextProvider;\n    }\n    // pointers to linked list of Providers\n    bytes32 public mBegin; \n    bytes32 public mCurrent;\n    // number of providers\n    uint public mProvidersSize;\n\t// Enigma Token\n\tIERC20 public mToken;\n\t// Fixed time defined (unixTimeStamp)\n\tuint public constant FIXED_SUBSCRIPTION_PERIOD = 30 days;\n    // version number \n    string public constant MARKETPLACE_VERSION = \"1\";\n    // all providers\n    mapping(bytes32=>Provider) public mProviders;\n    // provider name = > all orders \n    mapping(bytes32=>Order[]) public mOrders;\n\n\tfunction BasicMarketplace(address _tokenAddress) public {\n\t\trequire(_tokenAddress != address(0));\n\t\tmToken = IERC20(_tokenAddress);\n        // initiate linked map \n        mProviders[0x0].nextProvider = \"\";\n        mProviders[0x0].name = 0x0;\n        mCurrent = mProviders[0x0].name;\n        mBegin = mProviders[0x0].name;\n        mProvidersSize = 1;\n\t}\n\n    /*external functioins*/\n\n    function updateDataSourcePrice(bytes32 _dataSourceName, uint256 _newPrice) \n    external \n    onlyDataProvider(_dataSourceName)\n    validPrice(_newPrice)\n    returns (bool success){\n        mProviders[_dataSourceName].price = _newPrice;\n        PriceUpdate(msg.sender, _dataSourceName,_newPrice);\n        success = true;\n    }\n    function changeDataSourceActivityStatus(bytes32 _dataSourceName,bool _isActive) \n    external \n    onlyDataProvider(_dataSourceName) \n    returns (bool success){\n        mProviders[_dataSourceName].isActive = _isActive;\n        ActivityUpdate(msg.sender, _dataSourceName, _isActive);\n        success = true;\n    }\n\n    function isActiveDataSource(bytes32 _dataSourceName) external view returns (bool isActive){\n        isActive =  mProviders[_dataSourceName].isActive;\n    }\n\n    /* public functions */\n\n    function checkAddressSubscription(address _subscriber, bytes32 _dataSourceName) \n    public \n    view \n    returns (address subscriber,\n        bytes32 dataSourceName,\n        uint price,\n        uint startTime,\n        uint endTime,\n        bool isUnExpired,\n        bool isPaid, \n        bool isPunishedProvider,\n        bool isOrder){\n        uint256 size = mOrders[_dataSourceName].length;\n        require(size>0);\n        require(address(0) != _subscriber);\n        require(mProviders[_dataSourceName].isProvider);\n        for(uint i=size-1;i>=0;i--){\n            if(mOrders[_dataSourceName][i].subscriber == _subscriber){\n                subscriber = mOrders[_dataSourceName][i].subscriber;\n                price = mOrders[_dataSourceName][i].price;\n                startTime = mOrders[_dataSourceName][i].startTime;\n                endTime = mOrders[_dataSourceName][i].endTime;\n                isUnExpired = !isExpiredSubscription(subscriber,_dataSourceName);\n                isPaid = mOrders[_dataSourceName][i].isPaid;\n                isPunishedProvider = mProviders[_dataSourceName].isPunished;\n                isOrder = mOrders[_dataSourceName][i].isOrder;\n                i = 0;\n                break;\n            }\n            if( i==0 ){\n                break;\n            }\n        }\n        return (subscriber,_dataSourceName,price,startTime,endTime,isUnExpired,isPaid,isPunishedProvider,isOrder);\n    }\n    function getAllProviders() public view returns (bytes32[]){\n        bytes32[] memory names = new bytes32[](mProvidersSize);\n        bytes32 iterator = mBegin;\n        for(uint i=0; i< mProvidersSize; ++i){\n            names[i] = mProviders[iterator].name;\n            iterator = mProviders[iterator].nextProvider;\n        }\n        return names;\n    }\n\n    function getOwnerFromName(bytes32 _dataSourceName) public view returns(address owner){\n        owner = mProviders[_dataSourceName].owner;\n    }    \n    function getDataProviderInfo(bytes32 _dataSourceName) \n    public \n    view \n    returns(\n        address owner,\n        uint256 price,\n        uint256 volume,\n        uint256 subscriptionsNum,\n        bool isProvider,\n        bool isActive,\n        bool isPunished){\n        owner = mProviders[_dataSourceName].owner;\n        price = mProviders[_dataSourceName].price;\n        volume = mProviders[_dataSourceName].volume;\n        subscriptionsNum = mProviders[_dataSourceName].subscriptionsNum;\n        isProvider = mProviders[_dataSourceName].isProvider;\n        isActive = mProviders[_dataSourceName].isActive;\n        isPunished = mProviders[_dataSourceName].isPunished;\n    }\n    function isExpiredSubscription(address _subscriber, bytes32 _dataSourceName) \n    public\n    view \n    returns \n    (bool isExpired){\n        uint256 size = mOrders[_dataSourceName].length;\n        require(size>0);\n        require(mProviders[_dataSourceName].isProvider);\n        require(address(0) != _subscriber);\n        for(uint i=size-1;i>=0;i--){\n            if(mOrders[_dataSourceName][i].subscriber == _subscriber){\n                return now >= mOrders[_dataSourceName][i].endTime;\n            }\n            if( i==0 ){\n                break;\n            }\n        }\n        isExpired = true;\n    }\n\n    /* modifiers */\n    modifier validDataProvider(bytes32 _dataSourceName){\n        require(mProviders[_dataSourceName].isProvider);\n        require(mProviders[_dataSourceName].isActive);\n        require(!mProviders[_dataSourceName].isPunished);  \n        _;      \n    }\n    modifier uniqueDataName(bytes32 _dataSourceName) {\n        require(_dataSourceName.length > 0);\n        require(!mProviders[_dataSourceName].isProvider);\n        _;\n    }\n    modifier validPrice (uint256 _price){\n        require(_price.add(1) > _price); //overflow\n        _;\n    }\n    modifier onlyDataProvider(bytes32 _dataSourceName){\n        require(mProviders[_dataSourceName].isProvider);\n        require(mProviders[_dataSourceName].owner == msg.sender);\n        _;\n    }\n}",
  "sourcePath": "/home/wilder/Desktop/Enigma/DataMarketProject/marketPlace_WS/smart_contract_marketplace/contracts/BasicMarketplace.sol",
  "compiler": {
    "name": "solc",
    "version": "0.4.18+commit.9cf6e910.Emscripten.clang"
  },
  "schemaVersion": "1.0.1",
  "updatedAt": "2018-02-04T14:12:57.383Z"
}