{
  "contractName": "EnigmaToken",
  "abi": [
    {
      "constant": true,
      "inputs": [],
      "name": "name",
      "outputs": [
        {
          "name": "",
          "type": "string"
        }
      ],
      "payable": false,
      "stateMutability": "view",
      "type": "function"
    },
    {
      "constant": false,
      "inputs": [
        {
          "name": "_spender",
          "type": "address"
        },
        {
          "name": "_value",
          "type": "uint256"
        }
      ],
      "name": "approve",
      "outputs": [
        {
          "name": "",
          "type": "bool"
        }
      ],
      "payable": false,
      "stateMutability": "nonpayable",
      "type": "function"
    },
    {
      "constant": true,
      "inputs": [],
      "name": "totalSupply",
      "outputs": [
        {
          "name": "",
          "type": "uint256"
        }
      ],
      "payable": false,
      "stateMutability": "view",
      "type": "function"
    },
    {
      "constant": false,
      "inputs": [
        {
          "name": "_from",
          "type": "address"
        },
        {
          "name": "_to",
          "type": "address"
        },
        {
          "name": "_value",
          "type": "uint256"
        }
      ],
      "name": "transferFrom",
      "outputs": [
        {
          "name": "",
          "type": "bool"
        }
      ],
      "payable": false,
      "stateMutability": "nonpayable",
      "type": "function"
    },
    {
      "constant": true,
      "inputs": [],
      "name": "INITIAL_SUPPLY",
      "outputs": [
        {
          "name": "",
          "type": "uint256"
        }
      ],
      "payable": false,
      "stateMutability": "view",
      "type": "function"
    },
    {
      "constant": true,
      "inputs": [],
      "name": "decimals",
      "outputs": [
        {
          "name": "",
          "type": "uint8"
        }
      ],
      "payable": false,
      "stateMutability": "view",
      "type": "function"
    },
    {
      "constant": false,
      "inputs": [],
      "name": "unpause",
      "outputs": [],
      "payable": false,
      "stateMutability": "nonpayable",
      "type": "function"
    },
    {
      "constant": true,
      "inputs": [],
      "name": "paused",
      "outputs": [
        {
          "name": "",
          "type": "bool"
        }
      ],
      "payable": false,
      "stateMutability": "view",
      "type": "function"
    },
    {
      "constant": false,
      "inputs": [
        {
          "name": "_spender",
          "type": "address"
        },
        {
          "name": "_subtractedValue",
          "type": "uint256"
        }
      ],
      "name": "decreaseApproval",
      "outputs": [
        {
          "name": "success",
          "type": "bool"
        }
      ],
      "payable": false,
      "stateMutability": "nonpayable",
      "type": "function"
    },
    {
      "constant": true,
      "inputs": [
        {
          "name": "_owner",
          "type": "address"
        }
      ],
      "name": "balanceOf",
      "outputs": [
        {
          "name": "balance",
          "type": "uint256"
        }
      ],
      "payable": false,
      "stateMutability": "view",
      "type": "function"
    },
    {
      "constant": false,
      "inputs": [],
      "name": "pause",
      "outputs": [],
      "payable": false,
      "stateMutability": "nonpayable",
      "type": "function"
    },
    {
      "constant": true,
      "inputs": [],
      "name": "owner",
      "outputs": [
        {
          "name": "",
          "type": "address"
        }
      ],
      "payable": false,
      "stateMutability": "view",
      "type": "function"
    },
    {
      "constant": true,
      "inputs": [],
      "name": "symbol",
      "outputs": [
        {
          "name": "",
          "type": "string"
        }
      ],
      "payable": false,
      "stateMutability": "view",
      "type": "function"
    },
    {
      "constant": false,
      "inputs": [],
      "name": "getTest",
      "outputs": [
        {
          "name": "",
          "type": "address"
        }
      ],
      "payable": false,
      "stateMutability": "nonpayable",
      "type": "function"
    },
    {
      "constant": false,
      "inputs": [
        {
          "name": "_to",
          "type": "address"
        },
        {
          "name": "_value",
          "type": "uint256"
        }
      ],
      "name": "transfer",
      "outputs": [
        {
          "name": "",
          "type": "bool"
        }
      ],
      "payable": false,
      "stateMutability": "nonpayable",
      "type": "function"
    },
    {
      "constant": false,
      "inputs": [
        {
          "name": "_spender",
          "type": "address"
        },
        {
          "name": "_addedValue",
          "type": "uint256"
        }
      ],
      "name": "increaseApproval",
      "outputs": [
        {
          "name": "success",
          "type": "bool"
        }
      ],
      "payable": false,
      "stateMutability": "nonpayable",
      "type": "function"
    },
    {
      "constant": true,
      "inputs": [
        {
          "name": "_owner",
          "type": "address"
        },
        {
          "name": "_spender",
          "type": "address"
        }
      ],
      "name": "allowance",
      "outputs": [
        {
          "name": "remaining",
          "type": "uint256"
        }
      ],
      "payable": false,
      "stateMutability": "view",
      "type": "function"
    },
    {
      "constant": false,
      "inputs": [
        {
          "name": "newOwner",
          "type": "address"
        }
      ],
      "name": "transferOwnership",
      "outputs": [],
      "payable": false,
      "stateMutability": "nonpayable",
      "type": "function"
    },
    {
      "constant": true,
      "inputs": [],
      "name": "test",
      "outputs": [
        {
          "name": "",
          "type": "address"
        }
      ],
      "payable": false,
      "stateMutability": "view",
      "type": "function"
    },
    {
      "inputs": [
        {
          "name": "testValue",
          "type": "address"
        }
      ],
      "payable": false,
      "stateMutability": "nonpayable",
      "type": "constructor"
    },
    {
      "anonymous": false,
      "inputs": [],
      "name": "Pause",
      "type": "event"
    },
    {
      "anonymous": false,
      "inputs": [],
      "name": "Unpause",
      "type": "event"
    },
    {
      "anonymous": false,
      "inputs": [
        {
          "indexed": true,
          "name": "previousOwner",
          "type": "address"
        },
        {
          "indexed": true,
          "name": "newOwner",
          "type": "address"
        }
      ],
      "name": "OwnershipTransferred",
      "type": "event"
    },
    {
      "anonymous": false,
      "inputs": [
        {
          "indexed": true,
          "name": "owner",
          "type": "address"
        },
        {
          "indexed": true,
          "name": "spender",
          "type": "address"
        },
        {
          "indexed": false,
          "name": "value",
          "type": "uint256"
        }
      ],
      "name": "Approval",
      "type": "event"
    },
    {
      "anonymous": false,
      "inputs": [
        {
          "indexed": true,
          "name": "from",
          "type": "address"
        },
        {
          "indexed": true,
          "name": "to",
          "type": "address"
        },
        {
          "indexed": false,
          "name": "value",
          "type": "uint256"
        }
      ],
      "name": "Transfer",
      "type": "event"
    }
  ],
  "bytecode": "0x60606040526000600360146101000a81548160ff021916908315150217905550341561002a57600080fd5b6040516020806119cf8339810160405280805190602001909190505033600360006101000a81548173ffffffffffffffffffffffffffffffffffffffff021916908373ffffffffffffffffffffffffffffffffffffffff160217905550612710600081905550612710600160003373ffffffffffffffffffffffffffffffffffffffff1673ffffffffffffffffffffffffffffffffffffffff168152602001908152602001600020819055503373ffffffffffffffffffffffffffffffffffffffff1660007fddf252ad1be2c89b69c2b068fc378daa952ba7f163c4a11628f55a4df523b3ef6127106040518082815260200191505060405180910390a350611897806101386000396000f300606060405260043610610107576000357c0100000000000000000000000000000000000000000000000000000000900463ffffffff16806306fdde031461010c578063095ea7b31461019a57806318160ddd146101f457806323b872dd1461021d5780632ff2e9dc14610296578063313ce567146102bf5780633f4ba83a146102ee5780635c975abb14610303578063661884631461033057806370a082311461038a5780638456cb59146103d75780638da5cb5b146103ec57806395d89b4114610441578063a8cd0a80146104cf578063a9059cbb14610524578063d73dd6231461057e578063dd62ed3e146105d8578063f2fde38b14610644578063f8a8fd6d1461067d575b600080fd5b341561011757600080fd5b61011f6106d2565b6040518080602001828103825283818151815260200191508051906020019080838360005b8381101561015f578082015181840152602081019050610144565b50505050905090810190601f16801561018c5780820380516001836020036101000a031916815260200191505b509250505060405180910390f35b34156101a557600080fd5b6101da600480803573ffffffffffffffffffffffffffffffffffffffff1690602001909190803590602001909190505061070b565b604051808215151515815260200191505060405180910390f35b34156101ff57600080fd5b61020761073b565b6040518082815260200191505060405180910390f35b341561022857600080fd5b61027c600480803573ffffffffffffffffffffffffffffffffffffffff1690602001909190803573ffffffffffffffffffffffffffffffffffffffff16906020019091908035906020019091905050610741565b604051808215151515815260200191505060405180910390f35b34156102a157600080fd5b6102a96107af565b6040518082815260200191505060405180910390f35b34156102ca57600080fd5b6102d26107b5565b604051808260ff1660ff16815260200191505060405180910390f35b34156102f957600080fd5b6103016107ba565b005b341561030e57600080fd5b61031661087a565b604051808215151515815260200191505060405180910390f35b341561033b57600080fd5b610370600480803573ffffffffffffffffffffffffffffffffffffffff1690602001909190803590602001909190505061088d565b604051808215151515815260200191505060405180910390f35b341561039557600080fd5b6103c1600480803573ffffffffffffffffffffffffffffffffffffffff16906020019091905050610b1e565b6040518082815260200191505060405180910390f35b34156103e257600080fd5b6103ea610b67565b005b34156103f757600080fd5b6103ff610c28565b604051808273ffffffffffffffffffffffffffffffffffffffff1673ffffffffffffffffffffffffffffffffffffffff16815260200191505060405180910390f35b341561044c57600080fd5b610454610c4e565b6040518080602001828103825283818151815260200191508051906020019080838360005b83811015610494578082015181840152602081019050610479565b50505050905090810190601f1680156104c15780820380516001836020036101000a031916815260200191505b509250505060405180910390f35b34156104da57600080fd5b6104e2610c87565b604051808273ffffffffffffffffffffffffffffffffffffffff1673ffffffffffffffffffffffffffffffffffffffff16815260200191505060405180910390f35b341561052f57600080fd5b610564600480803573ffffffffffffffffffffffffffffffffffffffff16906020019091908035906020019091905050610cb1565b604051808215151515815260200191505060405180910390f35b341561058957600080fd5b6105be600480803573ffffffffffffffffffffffffffffffffffffffff16906020019091908035906020019091905050610d5e565b604051808215151515815260200191505060405180910390f35b34156105e357600080fd5b61062e600480803573ffffffffffffffffffffffffffffffffffffffff1690602001909190803573ffffffffffffffffffffffffffffffffffffffff16906020019091905050610f5a565b6040518082815260200191505060405180910390f35b341561064f57600080fd5b61067b600480803573ffffffffffffffffffffffffffffffffffffffff16906020019091905050610fe1565b005b341561068857600080fd5b610690611139565b604051808273ffffffffffffffffffffffffffffffffffffffff1673ffffffffffffffffffffffffffffffffffffffff16815260200191505060405180910390f35b6040805190810160405280600681526020017f456e69676d61000000000000000000000000000000000000000000000000000081525081565b6000600360149054906101000a900460ff1615151561072957600080fd5b610733838361115f565b905092915050565b60005481565b6000600360149054906101000a900460ff1615151561075f57600080fd5b600073ffffffffffffffffffffffffffffffffffffffff168373ffffffffffffffffffffffffffffffffffffffff161415151561079b57600080fd5b6107a6848484611251565b90509392505050565b61271081565b600881565b600360009054906101000a900473ffffffffffffffffffffffffffffffffffffffff1673ffffffffffffffffffffffffffffffffffffffff163373ffffffffffffffffffffffffffffffffffffffff1614151561081657600080fd5b600360149054906101000a900460ff16151561083157600080fd5b6000600360146101000a81548160ff0219169083151502179055507f7805862f689e2f13df9f062ff482ad3ad112aca9e0847911ed832e158c525b3360405160405180910390a1565b600360149054906101000a900460ff1681565b600080600260003373ffffffffffffffffffffffffffffffffffffffff1673ffffffffffffffffffffffffffffffffffffffff16815260200190815260200160002060008573ffffffffffffffffffffffffffffffffffffffff1673ffffffffffffffffffffffffffffffffffffffff1681526020019081526020016000205490508083111561099e576000600260003373ffffffffffffffffffffffffffffffffffffffff1673ffffffffffffffffffffffffffffffffffffffff16815260200190815260200160002060008673ffffffffffffffffffffffffffffffffffffffff1673ffffffffffffffffffffffffffffffffffffffff16815260200190815260200160002081905550610a32565b6109b1838261161090919063ffffffff16565b600260003373ffffffffffffffffffffffffffffffffffffffff1673ffffffffffffffffffffffffffffffffffffffff16815260200190815260200160002060008673ffffffffffffffffffffffffffffffffffffffff1673ffffffffffffffffffffffffffffffffffffffff168152602001908152602001600020819055505b8373ffffffffffffffffffffffffffffffffffffffff163373ffffffffffffffffffffffffffffffffffffffff167f8c5be1e5ebec7d5bd14f71427d1e84f3dd0314c0f7b2291e5b200ac8c7c3b925600260003373ffffffffffffffffffffffffffffffffffffffff1673ffffffffffffffffffffffffffffffffffffffff16815260200190815260200160002060008873ffffffffffffffffffffffffffffffffffffffff1673ffffffffffffffffffffffffffffffffffffffff168152602001908152602001600020546040518082815260200191505060405180910390a3600191505092915050565b6000600160008373ffffffffffffffffffffffffffffffffffffffff1673ffffffffffffffffffffffffffffffffffffffff168152602001908152602001600020549050919050565b600360009054906101000a900473ffffffffffffffffffffffffffffffffffffffff1673ffffffffffffffffffffffffffffffffffffffff163373ffffffffffffffffffffffffffffffffffffffff16141515610bc357600080fd5b600360149054906101000a900460ff16151515610bdf57600080fd5b6001600360146101000a81548160ff0219169083151502179055507f6985a02210a168e66602d3235cb6db0e70f92b3ba4d376a33c0f3d9434bff62560405160405180910390a1565b600360009054906101000a900473ffffffffffffffffffffffffffffffffffffffff1681565b6040805190810160405280600381526020017f454e47000000000000000000000000000000000000000000000000000000000081525081565b6000600460009054906101000a900473ffffffffffffffffffffffffffffffffffffffff16905090565b6000600360149054906101000a900460ff16151515610ccf57600080fd5b600073ffffffffffffffffffffffffffffffffffffffff168373ffffffffffffffffffffffffffffffffffffffff1614151515610d0b57600080fd5b33600460006101000a81548173ffffffffffffffffffffffffffffffffffffffff021916908373ffffffffffffffffffffffffffffffffffffffff160217905550610d568383611629565b905092915050565b6000610def82600260003373ffffffffffffffffffffffffffffffffffffffff1673ffffffffffffffffffffffffffffffffffffffff16815260200190815260200160002060008673ffffffffffffffffffffffffffffffffffffffff1673ffffffffffffffffffffffffffffffffffffffff1681526020019081526020016000205461184d90919063ffffffff16565b600260003373ffffffffffffffffffffffffffffffffffffffff1673ffffffffffffffffffffffffffffffffffffffff16815260200190815260200160002060008573ffffffffffffffffffffffffffffffffffffffff1673ffffffffffffffffffffffffffffffffffffffff168152602001908152602001600020819055508273ffffffffffffffffffffffffffffffffffffffff163373ffffffffffffffffffffffffffffffffffffffff167f8c5be1e5ebec7d5bd14f71427d1e84f3dd0314c0f7b2291e5b200ac8c7c3b925600260003373ffffffffffffffffffffffffffffffffffffffff1673ffffffffffffffffffffffffffffffffffffffff16815260200190815260200160002060008773ffffffffffffffffffffffffffffffffffffffff1673ffffffffffffffffffffffffffffffffffffffff168152602001908152602001600020546040518082815260200191505060405180910390a36001905092915050565b6000600260008473ffffffffffffffffffffffffffffffffffffffff1673ffffffffffffffffffffffffffffffffffffffff16815260200190815260200160002060008373ffffffffffffffffffffffffffffffffffffffff1673ffffffffffffffffffffffffffffffffffffffff16815260200190815260200160002054905092915050565b600360009054906101000a900473ffffffffffffffffffffffffffffffffffffffff1673ffffffffffffffffffffffffffffffffffffffff163373ffffffffffffffffffffffffffffffffffffffff1614151561103d57600080fd5b600073ffffffffffffffffffffffffffffffffffffffff168173ffffffffffffffffffffffffffffffffffffffff161415151561107957600080fd5b8073ffffffffffffffffffffffffffffffffffffffff16600360009054906101000a900473ffffffffffffffffffffffffffffffffffffffff1673ffffffffffffffffffffffffffffffffffffffff167f8be0079c531659141344cd1fd0a4f28419497f9722a3daafe3b4186f6b6457e060405160405180910390a380600360006101000a81548173ffffffffffffffffffffffffffffffffffffffff021916908373ffffffffffffffffffffffffffffffffffffffff16021790555050565b600460009054906101000a900473ffffffffffffffffffffffffffffffffffffffff1681565b600081600260003373ffffffffffffffffffffffffffffffffffffffff1673ffffffffffffffffffffffffffffffffffffffff16815260200190815260200160002060008573ffffffffffffffffffffffffffffffffffffffff1673ffffffffffffffffffffffffffffffffffffffff168152602001908152602001600020819055508273ffffffffffffffffffffffffffffffffffffffff163373ffffffffffffffffffffffffffffffffffffffff167f8c5be1e5ebec7d5bd14f71427d1e84f3dd0314c0f7b2291e5b200ac8c7c3b925846040518082815260200191505060405180910390a36001905092915050565b60008073ffffffffffffffffffffffffffffffffffffffff168373ffffffffffffffffffffffffffffffffffffffff161415151561128e57600080fd5b600160008573ffffffffffffffffffffffffffffffffffffffff1673ffffffffffffffffffffffffffffffffffffffff1681526020019081526020016000205482111515156112dc57600080fd5b600260008573ffffffffffffffffffffffffffffffffffffffff1673ffffffffffffffffffffffffffffffffffffffff16815260200190815260200160002060003373ffffffffffffffffffffffffffffffffffffffff1673ffffffffffffffffffffffffffffffffffffffff16815260200190815260200160002054821115151561136757600080fd5b6113b982600160008773ffffffffffffffffffffffffffffffffffffffff1673ffffffffffffffffffffffffffffffffffffffff1681526020019081526020016000205461161090919063ffffffff16565b600160008673ffffffffffffffffffffffffffffffffffffffff1673ffffffffffffffffffffffffffffffffffffffff1681526020019081526020016000208190555061144e82600160008673ffffffffffffffffffffffffffffffffffffffff1673ffffffffffffffffffffffffffffffffffffffff1681526020019081526020016000205461184d90919063ffffffff16565b600160008573ffffffffffffffffffffffffffffffffffffffff1673ffffffffffffffffffffffffffffffffffffffff1681526020019081526020016000208190555061152082600260008773ffffffffffffffffffffffffffffffffffffffff1673ffffffffffffffffffffffffffffffffffffffff16815260200190815260200160002060003373ffffffffffffffffffffffffffffffffffffffff1673ffffffffffffffffffffffffffffffffffffffff1681526020019081526020016000205461161090919063ffffffff16565b600260008673ffffffffffffffffffffffffffffffffffffffff1673ffffffffffffffffffffffffffffffffffffffff16815260200190815260200160002060003373ffffffffffffffffffffffffffffffffffffffff1673ffffffffffffffffffffffffffffffffffffffff168152602001908152602001600020819055508273ffffffffffffffffffffffffffffffffffffffff168473ffffffffffffffffffffffffffffffffffffffff167fddf252ad1be2c89b69c2b068fc378daa952ba7f163c4a11628f55a4df523b3ef846040518082815260200191505060405180910390a3600190509392505050565b600082821115151561161e57fe5b818303905092915050565b60008073ffffffffffffffffffffffffffffffffffffffff168373ffffffffffffffffffffffffffffffffffffffff161415151561166657600080fd5b600160003373ffffffffffffffffffffffffffffffffffffffff1673ffffffffffffffffffffffffffffffffffffffff1681526020019081526020016000205482111515156116b457600080fd5b61170682600160003373ffffffffffffffffffffffffffffffffffffffff1673ffffffffffffffffffffffffffffffffffffffff1681526020019081526020016000205461161090919063ffffffff16565b600160003373ffffffffffffffffffffffffffffffffffffffff1673ffffffffffffffffffffffffffffffffffffffff1681526020019081526020016000208190555061179b82600160008673ffffffffffffffffffffffffffffffffffffffff1673ffffffffffffffffffffffffffffffffffffffff1681526020019081526020016000205461184d90919063ffffffff16565b600160008573ffffffffffffffffffffffffffffffffffffffff1673ffffffffffffffffffffffffffffffffffffffff168152602001908152602001600020819055508273ffffffffffffffffffffffffffffffffffffffff163373ffffffffffffffffffffffffffffffffffffffff167fddf252ad1be2c89b69c2b068fc378daa952ba7f163c4a11628f55a4df523b3ef846040518082815260200191505060405180910390a36001905092915050565b600080828401905083811015151561186157fe5b80915050929150505600a165627a7a723058205bab8487fb0925fcccd0bda1e07ddf63276bc11b2e1f88396fb6887bd419cc520029",
  "source": "pragma solidity ^0.4.18;\n\n\nimport \"../zeppelin-solidity/StandardToken.sol\";\nimport \"../zeppelin-solidity/Pausable.sol\";\n\n\n/**\n * @title Enigma Token\n * @dev ERC20 Enigma Token (ENG)\n *\n * ENG Tokens are divisible by 1e8 (100,000,000) base\n * units referred to as 'Grains'.\n *\n * ENG are displayed using 8 decimal places of precision.\n *\n * 1 ENG is equivalent to:\n *   100000000 == 1 * 10**8 == 1e8 == One Hundred Million Grains\n *\n * 150 million ENG (total supply) is equivalent to:\n *   15000000000000000 == 150000000 * 10**8 == 1e17\n *\n * All initial ENG Grains are assigned to the creator of\n * this contract.\n *\n */\ncontract EnigmaToken is StandardToken, Pausable {\n\n  string public constant name = 'Enigma';                                      // Set the token name for display\n  string public constant symbol = 'ENG';                                       // Set the token symbol for display\n  uint8 public constant decimals = 8;                                          // Set the number of decimals for display\n  uint256 public constant INITIAL_SUPPLY = 10000;  // 150 million ENG specified in Grains\n   address public test;\n  /**\n   * @dev SesnseToken Constructor\n   * Runs only on initial contract creation.\n   */\n  function EnigmaToken(address testValue) {\n    totalSupply = INITIAL_SUPPLY;                               // Set the total supply\n    balances[msg.sender] = INITIAL_SUPPLY;                      // Creator address is assigned all\n    Transfer(0x0, msg.sender, INITIAL_SUPPLY);\n  }\n\n  /**\n   * @dev Transfer token for a specified address when not paused\n   * @param _to The address to transfer to.\n   * @param _value The amount to be transferred.\n   */\n  function transfer(address _to, uint256 _value) whenNotPaused returns (bool) {\n    require(_to != address(0));\n    test= msg.sender;\n    return super.transfer(_to, _value);\n  }\n\n  /**\n   * @dev Transfer tokens from one address to another when not paused\n   * @param _from address The address which you want to send tokens from\n   * @param _to address The address which you want to transfer to\n   * @param _value uint256 the amount of tokens to be transferred\n   */\n  function transferFrom(address _from, address _to, uint256 _value) whenNotPaused returns (bool) {\n    require(_to != address(0));\n    return super.transferFrom(_from, _to, _value);\n  }\n\n  /**\n   * @dev Aprove the passed address to spend the specified amount of tokens on behalf of msg.sender when not paused.\n   * @param _spender The address which will spend the funds.\n   * @param _value The amount of tokens to be spent.\n   */\n  function approve(address _spender, uint256 _value) whenNotPaused returns (bool) {\n    return super.approve(_spender, _value);\n  }\n\n\n  // TEST METHODS - DELETE \n  function getTest() public returns (address){\n    return test;\n  }\n}",
  "sourcePath": "/home/wilder/Desktop/Enigma/DataMarketProject/marketPlace_WS/smart_contract_marketplace/contracts/token/EnigmaToken.sol",
  "compiler": {
    "name": "solc",
    "version": "0.4.18+commit.9cf6e910.Emscripten.clang"
  },
  "schemaVersion": "1.0.1",
  "updatedAt": "2018-01-18T21:58:24.409Z"
}