{
  "contractName": "Marketplace",
  "abi": [
    {
      "constant": true,
      "inputs": [
        {
          "name": "_dataSourceName",
          "type": "bytes32"
        }
      ],
      "name": "isActiveDataSource",
      "outputs": [
        {
          "name": "isActive",
          "type": "bool"
        }
      ],
      "payable": false,
      "stateMutability": "view",
      "type": "function"
    },
    {
      "constant": true,
      "inputs": [],
      "name": "mBegin",
      "outputs": [
        {
          "name": "",
          "type": "bytes32"
        }
      ],
      "payable": false,
      "stateMutability": "view",
      "type": "function"
    },
    {
      "constant": true,
      "inputs": [],
      "name": "FIXED_SUBSCRIPTION_PERIOD",
      "outputs": [
        {
          "name": "",
          "type": "uint256"
        }
      ],
      "payable": false,
      "stateMutability": "view",
      "type": "function"
    },
    {
      "constant": false,
      "inputs": [
        {
          "name": "_dataSourceName",
          "type": "bytes32"
        },
        {
          "name": "_isPunished",
          "type": "bool"
        }
      ],
      "name": "setPunishProvider",
      "outputs": [
        {
          "name": "success",
          "type": "bool"
        }
      ],
      "payable": false,
      "stateMutability": "nonpayable",
      "type": "function"
    },
    {
      "constant": true,
      "inputs": [
        {
          "name": "_dataSourceName",
          "type": "bytes32"
        }
      ],
      "name": "getDataProviderInfo",
      "outputs": [
        {
          "name": "owner",
          "type": "address"
        },
        {
          "name": "price",
          "type": "uint256"
        },
        {
          "name": "volume",
          "type": "uint256"
        },
        {
          "name": "subscriptionsNum",
          "type": "uint256"
        },
        {
          "name": "isProvider",
          "type": "bool"
        },
        {
          "name": "isActive",
          "type": "bool"
        },
        {
          "name": "isPunished",
          "type": "bool"
        }
      ],
      "payable": false,
      "stateMutability": "view",
      "type": "function"
    },
    {
      "constant": false,
      "inputs": [
        {
          "name": "_dataSourceName",
          "type": "bytes32"
        }
      ],
      "name": "subscribe",
      "outputs": [
        {
          "name": "success",
          "type": "bool"
        }
      ],
      "payable": false,
      "stateMutability": "nonpayable",
      "type": "function"
    },
    {
      "constant": true,
      "inputs": [],
      "name": "mProvidersSize",
      "outputs": [
        {
          "name": "",
          "type": "uint256"
        }
      ],
      "payable": false,
      "stateMutability": "view",
      "type": "function"
    },
    {
      "constant": false,
      "inputs": [
        {
          "name": "_dataSourceName",
          "type": "bytes32"
        },
        {
          "name": "_newPrice",
          "type": "uint256"
        }
      ],
      "name": "updateDataSourcePrice",
      "outputs": [
        {
          "name": "success",
          "type": "bool"
        }
      ],
      "payable": false,
      "stateMutability": "nonpayable",
      "type": "function"
    },
    {
      "constant": false,
      "inputs": [
        {
          "name": "_dataSourceName",
          "type": "bytes32"
        }
      ],
      "name": "withdrawProvider",
      "outputs": [
        {
          "name": "success",
          "type": "bool"
        }
      ],
      "payable": false,
      "stateMutability": "nonpayable",
      "type": "function"
    },
    {
      "constant": true,
      "inputs": [],
      "name": "getAllProviders",
      "outputs": [
        {
          "name": "",
          "type": "bytes32[]"
        }
      ],
      "payable": false,
      "stateMutability": "view",
      "type": "function"
    },
    {
      "constant": true,
      "inputs": [],
      "name": "getMarketplaceTotalBalance",
      "outputs": [
        {
          "name": "totalBalance",
          "type": "uint256"
        }
      ],
      "payable": false,
      "stateMutability": "view",
      "type": "function"
    },
    {
      "constant": false,
      "inputs": [
        {
          "name": "_dataSourceName",
          "type": "bytes32"
        }
      ],
      "name": "refundSubscriber",
      "outputs": [
        {
          "name": "success",
          "type": "bool"
        }
      ],
      "payable": false,
      "stateMutability": "nonpayable",
      "type": "function"
    },
    {
      "constant": false,
      "inputs": [
        {
          "name": "_dataSourceName",
          "type": "bytes32"
        },
        {
          "name": "_price",
          "type": "uint256"
        },
        {
          "name": "_dataOwner",
          "type": "address"
        }
      ],
      "name": "register",
      "outputs": [
        {
          "name": "success",
          "type": "bool"
        }
      ],
      "payable": false,
      "stateMutability": "nonpayable",
      "type": "function"
    },
    {
      "constant": true,
      "inputs": [],
      "name": "mCurrent",
      "outputs": [
        {
          "name": "",
          "type": "bytes32"
        }
      ],
      "payable": false,
      "stateMutability": "view",
      "type": "function"
    },
    {
      "constant": true,
      "inputs": [
        {
          "name": "_dataSourceName",
          "type": "bytes32"
        }
      ],
      "name": "getWithdrawAmount",
      "outputs": [
        {
          "name": "withdrawAmount",
          "type": "uint256"
        }
      ],
      "payable": false,
      "stateMutability": "view",
      "type": "function"
    },
    {
      "constant": true,
      "inputs": [
        {
          "name": "_subscriber",
          "type": "address"
        },
        {
          "name": "_dataSourceName",
          "type": "bytes32"
        }
      ],
      "name": "checkAddressSubscription",
      "outputs": [
        {
          "name": "subscriber",
          "type": "address"
        },
        {
          "name": "dataSourceName",
          "type": "bytes32"
        },
        {
          "name": "price",
          "type": "uint256"
        },
        {
          "name": "startTime",
          "type": "uint256"
        },
        {
          "name": "endTime",
          "type": "uint256"
        },
        {
          "name": "isUnExpired",
          "type": "bool"
        },
        {
          "name": "isPaid",
          "type": "bool"
        },
        {
          "name": "isPunishedProvider",
          "type": "bool"
        },
        {
          "name": "isOrder",
          "type": "bool"
        }
      ],
      "payable": false,
      "stateMutability": "view",
      "type": "function"
    },
    {
      "constant": false,
      "inputs": [
        {
          "name": "_dataSourceName",
          "type": "bytes32"
        },
        {
          "name": "_isActive",
          "type": "bool"
        }
      ],
      "name": "changeDataSourceActivityStatus",
      "outputs": [
        {
          "name": "success",
          "type": "bool"
        }
      ],
      "payable": false,
      "stateMutability": "nonpayable",
      "type": "function"
    },
    {
      "constant": true,
      "inputs": [
        {
          "name": "",
          "type": "bytes32"
        }
      ],
      "name": "mProviders",
      "outputs": [
        {
          "name": "owner",
          "type": "address"
        },
        {
          "name": "volume",
          "type": "uint256"
        },
        {
          "name": "subscriptionsNum",
          "type": "uint256"
        },
        {
          "name": "name",
          "type": "bytes32"
        },
        {
          "name": "price",
          "type": "uint256"
        },
        {
          "name": "isPunished",
          "type": "bool"
        },
        {
          "name": "punishTimeStamp",
          "type": "uint256"
        },
        {
          "name": "isProvider",
          "type": "bool"
        },
        {
          "name": "isActive",
          "type": "bool"
        },
        {
          "name": "nextProvider",
          "type": "bytes32"
        }
      ],
      "payable": false,
      "stateMutability": "view",
      "type": "function"
    },
    {
      "constant": true,
      "inputs": [
        {
          "name": "",
          "type": "bytes32"
        },
        {
          "name": "",
          "type": "uint256"
        }
      ],
      "name": "mOrders",
      "outputs": [
        {
          "name": "dataSourceName",
          "type": "bytes32"
        },
        {
          "name": "subscriber",
          "type": "address"
        },
        {
          "name": "provider",
          "type": "address"
        },
        {
          "name": "price",
          "type": "uint256"
        },
        {
          "name": "startTime",
          "type": "uint256"
        },
        {
          "name": "endTime",
          "type": "uint256"
        },
        {
          "name": "isPaid",
          "type": "bool"
        },
        {
          "name": "isOrder",
          "type": "bool"
        },
        {
          "name": "isRefundPaid",
          "type": "bool"
        }
      ],
      "payable": false,
      "stateMutability": "view",
      "type": "function"
    },
    {
      "constant": true,
      "inputs": [],
      "name": "mToken",
      "outputs": [
        {
          "name": "",
          "type": "address"
        }
      ],
      "payable": false,
      "stateMutability": "view",
      "type": "function"
    },
    {
      "constant": true,
      "inputs": [
        {
          "name": "_dataSourceName",
          "type": "bytes32"
        }
      ],
      "name": "getOwnerFromName",
      "outputs": [
        {
          "name": "owner",
          "type": "address"
        }
      ],
      "payable": false,
      "stateMutability": "view",
      "type": "function"
    },
    {
      "constant": true,
      "inputs": [
        {
          "name": "_subscriber",
          "type": "address"
        },
        {
          "name": "_dataSourceName",
          "type": "bytes32"
        }
      ],
      "name": "getRefundAmount",
      "outputs": [
        {
          "name": "refundAmount",
          "type": "uint256"
        }
      ],
      "payable": false,
      "stateMutability": "view",
      "type": "function"
    },
    {
      "constant": true,
      "inputs": [],
      "name": "mOwner",
      "outputs": [
        {
          "name": "",
          "type": "address"
        }
      ],
      "payable": false,
      "stateMutability": "view",
      "type": "function"
    },
    {
      "constant": true,
      "inputs": [],
      "name": "MARKETPLACE_VERSION",
      "outputs": [
        {
          "name": "",
          "type": "string"
        }
      ],
      "payable": false,
      "stateMutability": "view",
      "type": "function"
    },
    {
      "constant": true,
      "inputs": [
        {
          "name": "_subscriber",
          "type": "address"
        },
        {
          "name": "_dataSourceName",
          "type": "bytes32"
        }
      ],
      "name": "isExpiredSubscription",
      "outputs": [
        {
          "name": "isExpired",
          "type": "bool"
        }
      ],
      "payable": false,
      "stateMutability": "view",
      "type": "function"
    },
    {
      "constant": false,
      "inputs": [
        {
          "name": "_newOwner",
          "type": "address"
        }
      ],
      "name": "transferOwnership",
      "outputs": [],
      "payable": false,
      "stateMutability": "nonpayable",
      "type": "function"
    },
    {
      "inputs": [
        {
          "name": "_tokenAddress",
          "type": "address"
        }
      ],
      "payable": false,
      "stateMutability": "nonpayable",
      "type": "constructor"
    },
    {
      "anonymous": false,
      "inputs": [
        {
          "indexed": true,
          "name": "previousOwner",
          "type": "address"
        },
        {
          "indexed": true,
          "name": "newOwner",
          "type": "address"
        }
      ],
      "name": "OwnershipTransferred",
      "type": "event"
    },
    {
      "anonymous": false,
      "inputs": [
        {
          "indexed": true,
          "name": "editor",
          "type": "address"
        },
        {
          "indexed": true,
          "name": "dataSourceName",
          "type": "bytes32"
        },
        {
          "indexed": false,
          "name": "newPrice",
          "type": "uint256"
        }
      ],
      "name": "PriceUpdate",
      "type": "event"
    },
    {
      "anonymous": false,
      "inputs": [
        {
          "indexed": true,
          "name": "editor",
          "type": "address"
        },
        {
          "indexed": true,
          "name": "dataSourceName",
          "type": "bytes32"
        },
        {
          "indexed": false,
          "name": "newStatus",
          "type": "bool"
        }
      ],
      "name": "ActivityUpdate",
      "type": "event"
    },
    {
      "anonymous": false,
      "inputs": [
        {
          "indexed": true,
          "name": "dataOwner",
          "type": "address"
        },
        {
          "indexed": true,
          "name": "dataSourceName",
          "type": "bytes32"
        },
        {
          "indexed": false,
          "name": "price",
          "type": "uint256"
        },
        {
          "indexed": false,
          "name": "success",
          "type": "bool"
        }
      ],
      "name": "Registered",
      "type": "event"
    },
    {
      "anonymous": false,
      "inputs": [
        {
          "indexed": true,
          "name": "from",
          "type": "address"
        },
        {
          "indexed": true,
          "name": "to",
          "type": "address"
        },
        {
          "indexed": false,
          "name": "value",
          "type": "uint256"
        }
      ],
      "name": "SubscriptionDeposited",
      "type": "event"
    },
    {
      "anonymous": false,
      "inputs": [
        {
          "indexed": true,
          "name": "subscriber",
          "type": "address"
        },
        {
          "indexed": true,
          "name": "dataSourceName",
          "type": "bytes32"
        },
        {
          "indexed": true,
          "name": "dataOwner",
          "type": "address"
        },
        {
          "indexed": false,
          "name": "price",
          "type": "uint256"
        },
        {
          "indexed": false,
          "name": "success",
          "type": "bool"
        }
      ],
      "name": "Subscribed",
      "type": "event"
    },
    {
      "anonymous": false,
      "inputs": [
        {
          "indexed": true,
          "name": "dataOwner",
          "type": "address"
        },
        {
          "indexed": true,
          "name": "dataSourceName",
          "type": "bytes32"
        },
        {
          "indexed": false,
          "name": "amount",
          "type": "uint256"
        }
      ],
      "name": "TransferToProvider",
      "type": "event"
    },
    {
      "anonymous": false,
      "inputs": [
        {
          "indexed": true,
          "name": "dataOwner",
          "type": "address"
        },
        {
          "indexed": true,
          "name": "dataSourceName",
          "type": "bytes32"
        },
        {
          "indexed": false,
          "name": "amount",
          "type": "uint256"
        }
      ],
      "name": "ProviderWithdraw",
      "type": "event"
    },
    {
      "anonymous": false,
      "inputs": [
        {
          "indexed": true,
          "name": "dataOwner",
          "type": "address"
        },
        {
          "indexed": true,
          "name": "dataSourceName",
          "type": "bytes32"
        },
        {
          "indexed": false,
          "name": "isPunished",
          "type": "bool"
        }
      ],
      "name": "ProviderPunishStatus",
      "type": "event"
    },
    {
      "anonymous": false,
      "inputs": [
        {
          "indexed": true,
          "name": "subscriber",
          "type": "address"
        },
        {
          "indexed": true,
          "name": "dataSourceName",
          "type": "bytes32"
        },
        {
          "indexed": false,
          "name": "refundAmount",
          "type": "uint256"
        }
      ],
      "name": "SubscriberRefund",
      "type": "event"
    }
  ],
  "bytecode": "0x6060604052341561000f57600080fd5b604051602080613d728339810160405280805190602001909190505080336000806101000a81548173ffffffffffffffffffffffffffffffffffffffff021916908373ffffffffffffffffffffffffffffffffffffffff160217905550600073ffffffffffffffffffffffffffffffffffffffff168173ffffffffffffffffffffffffffffffffffffffff16141515156100a857600080fd5b80600460006101000a81548173ffffffffffffffffffffffffffffffffffffffff021916908373ffffffffffffffffffffffffffffffffffffffff160217905550600060056000806001026000191681526020019081526020016000206008018160001916905550600060010260056000806001026000191681526020019081526020016000206003018160001916905550600560008060010260001916815260200190815260200160002060030154600281600019169055506005600080600102600019168152602001908152602001600020600301546001816000191690555060016003819055505050613bcf806101a36000396000f300606060405260043610610154576000357c0100000000000000000000000000000000000000000000000000000000900463ffffffff1680630cf23b1f146101595780631225318c1461019857806326277bf2146101c95780632f10aabb146101f25780632f95949a1461023c5780632faf44f6146102d957806332b9c88c14610318578063340b4ed4146103415780633b8f5dbd146103895780633bb4497c146103c8578063445f00951461043257806345e3f7961461045b5780635164fab41461049a57806352e0ca79146105015780636210c254146105325780637b7886131461056d5780638d149e5c14610643578063b618c7561461068d578063c216d4a81461074f578063c3b6f93914610837578063c94d14ad1461088c578063ca6a467b146108f3578063dcda4bf31461094d578063e93818e4146109a2578063ea97bac114610a30578063f2fde38b14610a8e575b600080fd5b341561016457600080fd5b61017e600480803560001916906020019091905050610ac7565b604051808215151515815260200191505060405180910390f35b34156101a357600080fd5b6101ab610afc565b60405180826000191660001916815260200191505060405180910390f35b34156101d457600080fd5b6101dc610b02565b6040518082815260200191505060405180910390f35b34156101fd57600080fd5b6102226004808035600019169060200190919080351515906020019091905050610b09565b604051808215151515815260200191505060405180910390f35b341561024757600080fd5b610261600480803560001916906020019091905050610cc5565b604051808873ffffffffffffffffffffffffffffffffffffffff1673ffffffffffffffffffffffffffffffffffffffff16815260200187815260200186815260200185815260200184151515158152602001831515151581526020018215151515815260200197505050505050505060405180910390f35b34156102e457600080fd5b6102fe600480803560001916906020019091905050610e09565b604051808215151515815260200191505060405180910390f35b341561032357600080fd5b61032b6112c5565b6040518082815260200191505060405180910390f35b341561034c57600080fd5b61036f6004808035600019169060200190919080359060200190919050506112cb565b604051808215151515815260200191505060405180910390f35b341561039457600080fd5b6103ae600480803560001916906020019091905050611421565b604051808215151515815260200191505060405180910390f35b34156103d357600080fd5b6103db611807565b6040518080602001828103825283818151815260200191508051906020019060200280838360005b8381101561041e578082015181840152602081019050610403565b505050509050019250505060405180910390f35b341561043d57600080fd5b6104456118cb565b6040518082815260200191505060405180910390f35b341561046657600080fd5b6104806004808035600019169060200190919050506119b2565b604051808215151515815260200191505060405180910390f35b34156104a557600080fd5b6104e760048080356000191690602001909190803590602001909190803573ffffffffffffffffffffffffffffffffffffffff16906020019091905050611d6e565b604051808215151515815260200191505060405180910390f35b341561050c57600080fd5b6105146120d5565b60405180826000191660001916815260200191505060405180910390f35b341561053d57600080fd5b6105576004808035600019169060200190919050506120db565b6040518082815260200191505060405180910390f35b341561057857600080fd5b6105b1600480803573ffffffffffffffffffffffffffffffffffffffff16906020019091908035600019169060200190919050506122ec565b604051808a73ffffffffffffffffffffffffffffffffffffffff1673ffffffffffffffffffffffffffffffffffffffff168152602001896000191660001916815260200188815260200187815260200186815260200185151515158152602001841515151581526020018315151515815260200182151515158152602001995050505050505050505060405180910390f35b341561064e57600080fd5b6106736004808035600019169060200190919080351515906020019091905050612665565b604051808215151515815260200191505060405180910390f35b341561069857600080fd5b6106b26004808035600019169060200190919050506127af565b604051808b73ffffffffffffffffffffffffffffffffffffffff1673ffffffffffffffffffffffffffffffffffffffff1681526020018a8152602001898152602001886000191660001916815260200187815260200186151515158152602001858152602001841515151581526020018315151515815260200182600019166000191681526020019a505050505050505050505060405180910390f35b341561075a57600080fd5b61077d60048080356000191690602001909190803590602001909190505061284a565b604051808a600019166000191681526020018973ffffffffffffffffffffffffffffffffffffffff1673ffffffffffffffffffffffffffffffffffffffff1681526020018873ffffffffffffffffffffffffffffffffffffffff1673ffffffffffffffffffffffffffffffffffffffff168152602001878152602001868152602001858152602001841515151581526020018315151515815260200182151515158152602001995050505050505050505060405180910390f35b341561084257600080fd5b61084a61291b565b604051808273ffffffffffffffffffffffffffffffffffffffff1673ffffffffffffffffffffffffffffffffffffffff16815260200191505060405180910390f35b341561089757600080fd5b6108b1600480803560001916906020019091905050612941565b604051808273ffffffffffffffffffffffffffffffffffffffff1673ffffffffffffffffffffffffffffffffffffffff16815260200191505060405180910390f35b34156108fe57600080fd5b610937600480803573ffffffffffffffffffffffffffffffffffffffff1690602001909190803560001916906020019091905050612989565b6040518082815260200191505060405180910390f35b341561095857600080fd5b610960612c64565b604051808273ffffffffffffffffffffffffffffffffffffffff1673ffffffffffffffffffffffffffffffffffffffff16815260200191505060405180910390f35b34156109ad57600080fd5b6109b5612c89565b6040518080602001828103825283818151815260200191508051906020019080838360005b838110156109f55780820151818401526020810190506109da565b50505050905090810190601f168015610a225780820380516001836020036101000a031916815260200191505b509250505060405180910390f35b3415610a3b57600080fd5b610a74600480803573ffffffffffffffffffffffffffffffffffffffff1690602001909190803560001916906020019091905050612cc2565b604051808215151515815260200191505060405180910390f35b3415610a9957600080fd5b610ac5600480803573ffffffffffffffffffffffffffffffffffffffff16906020019091905050612e70565b005b600060056000836000191660001916815260200190815260200160002060070160019054906101000a900460ff169050919050565b60015481565b62278d0081565b60008060009054906101000a900473ffffffffffffffffffffffffffffffffffffffff1673ffffffffffffffffffffffffffffffffffffffff163373ffffffffffffffffffffffffffffffffffffffff16141515610b6657600080fd5b60056000846000191660001916815260200190815260200160002060070160009054906101000a900460ff161515610b9d57600080fd5b8160056000856000191660001916815260200190815260200160002060050160006101000a81548160ff0219169083151502179055508115610c01574260056000856000191660001916815260200190815260200160002060060181905550610c26565b6000600560008560001916600019168152602001908152602001600020600601819055505b826000191660056000856000191660001916815260200190815260200160002060000160009054906101000a900473ffffffffffffffffffffffffffffffffffffffff1673ffffffffffffffffffffffffffffffffffffffff167fb5dd3ecc8eaa1fb9460a4088b3872f93a68855f913c6bfc3f3c6c7ebf0f326b684604051808215151515815260200191505060405180910390a36001905092915050565b600080600080600080600060056000896000191660001916815260200190815260200160002060000160009054906101000a900473ffffffffffffffffffffffffffffffffffffffff16965060056000896000191660001916815260200190815260200160002060040154955060056000896000191660001916815260200190815260200160002060010154945060056000896000191660001916815260200190815260200160002060020154935060056000896000191660001916815260200190815260200160002060070160009054906101000a900460ff16925060056000896000191660001916815260200190815260200160002060070160019054906101000a900460ff16915060056000896000191660001916815260200190815260200160002060050160009054906101000a900460ff169050919395979092949650565b60008160056000826000191660001916815260200190815260200160002060070160009054906101000a900460ff161515610e4357600080fd5b60056000826000191660001916815260200190815260200160002060070160019054906101000a900460ff161515610e7a57600080fd5b60056000826000191660001916815260200190815260200160002060050160009054906101000a900460ff16151515610eb257600080fd5b610edb333060056000876000191660001916815260200190815260200160002060040154612fc5565b1515610ee657600080fd5b6006600084600019166000191681526020019081526020016000208054806001018281610f139190613a94565b9160005260206000209060070201600061012060405190810160405280876000191681526020013373ffffffffffffffffffffffffffffffffffffffff16815260200160056000896000191660001916815260200190815260200160002060000160009054906101000a900473ffffffffffffffffffffffffffffffffffffffff1673ffffffffffffffffffffffffffffffffffffffff16815260200160056000896000191660001916815260200190815260200160002060040154815260200142815260200162278d00420181526020016000151581526020016001151581526020016000151581525090919091506000820151816000019060001916905560208201518160010160006101000a81548173ffffffffffffffffffffffffffffffffffffffff021916908373ffffffffffffffffffffffffffffffffffffffff16021790555060408201518160020160006101000a81548173ffffffffffffffffffffffffffffffffffffffff021916908373ffffffffffffffffffffffffffffffffffffffff160217905550606082015181600301556080820151816004015560a0820151816005015560c08201518160060160006101000a81548160ff02191690831515021790555060e08201518160060160016101000a81548160ff0219169083151502179055506101008201518160060160026101000a81548160ff021916908315150217905550505050611172600560008560001916600019168152602001908152602001600020600401546005600086600019166000191681526020019081526020016000206001015461331690919063ffffffff16565b600560008560001916600019168152602001908152602001600020600101819055506111c660016005600086600019166000191681526020019081526020016000206002015461331690919063ffffffff16565b6005600085600019166000191681526020019081526020016000206002018190555060056000846000191660001916815260200190815260200160002060000160009054906101000a900473ffffffffffffffffffffffffffffffffffffffff1673ffffffffffffffffffffffffffffffffffffffff1683600019163373ffffffffffffffffffffffffffffffffffffffff167f7a3f54da83d294e3b226e50ae5a65e87cff0f43f8699003833a1ee6670c800e660056000886000191660001916815260200190815260200160002060040154600160405180838152602001821515151581526020019250505060405180910390a46001915050919050565b60035481565b60008260056000826000191660001916815260200190815260200160002060070160009054906101000a900460ff16151561130557600080fd5b3373ffffffffffffffffffffffffffffffffffffffff1660056000836000191660001916815260200190815260200160002060000160009054906101000a900473ffffffffffffffffffffffffffffffffffffffff1673ffffffffffffffffffffffffffffffffffffffff1614151561137d57600080fd5b828061139360018361331690919063ffffffff16565b11151561139f57600080fd5b836005600087600019166000191681526020019081526020016000206004018190555084600019163373ffffffffffffffffffffffffffffffffffffffff167fd6d44e0931d3eff0a69c277b94480024f00d36b25216cf69d54965c1ecb7f4a3866040518082815260200191505060405180910390a360019250505092915050565b60008060008060008560056000826000191660001916815260200190815260200160002060070160009054906101000a900460ff16151561146157600080fd5b3373ffffffffffffffffffffffffffffffffffffffff1660056000836000191660001916815260200190815260200160002060000160009054906101000a900473ffffffffffffffffffffffffffffffffffffffff1673ffffffffffffffffffffffffffffffffffffffff161415156114d957600080fd5b60009450600660008860001916600019168152602001908152602001600020805490509350600092505b83831015611753576116836006600089600019166000191681526020019081526020016000208481548110151561153657fe5b906000526020600020906007020161012060405190810160405290816000820154600019166000191681526020016001820160009054906101000a900473ffffffffffffffffffffffffffffffffffffffff1673ffffffffffffffffffffffffffffffffffffffff1673ffffffffffffffffffffffffffffffffffffffff1681526020016002820160009054906101000a900473ffffffffffffffffffffffffffffffffffffffff1673ffffffffffffffffffffffffffffffffffffffff1673ffffffffffffffffffffffffffffffffffffffff1681526020016003820154815260200160048201548152602001600582015481526020016006820160009054906101000a900460ff161515151581526020016006820160019054906101000a900460ff161515151581526020016006820160029054906101000a900460ff161515151581525050613334565b91506000821180156116d95750600660008860001916600019168152602001908152602001600020838154811015156116b857fe5b906000526020600020906007020160060160009054906101000a900460ff16155b156117465760016006600089600019166000191681526020019081526020016000208481548110151561170857fe5b906000526020600020906007020160060160006101000a81548160ff021916908315150217905550611743828661331690919063ffffffff16565b94505b8280600101935050611503565b61175d87866133ef565b151561176857600080fd5b866000191660056000896000191660001916815260200190815260200160002060000160009054906101000a900473ffffffffffffffffffffffffffffffffffffffff1673ffffffffffffffffffffffffffffffffffffffff167fceb5682fafb74ca2d33476486c7dee53205f9c8aff48d68f47456a90abd536a8876040518082815260200191505060405180910390a3600195505050505050919050565b61180f613ac6565b611817613ac6565b60008060035460405180591061182a5750595b908082528060200260200182016040525092506001549150600090505b6003548110156118c25760056000836000191660001916815260200190815260200160002060030154838281518110151561187e57fe5b906020019060200201906000191690816000191681525050600560008360001916600019168152602001908152602001600020600801549150806001019050611847565b82935050505090565b6000600460009054906101000a900473ffffffffffffffffffffffffffffffffffffffff1673ffffffffffffffffffffffffffffffffffffffff166370a08231306000604051602001526040518263ffffffff167c0100000000000000000000000000000000000000000000000000000000028152600401808273ffffffffffffffffffffffffffffffffffffffff1673ffffffffffffffffffffffffffffffffffffffff168152602001915050602060405180830381600087803b151561199257600080fd5b6102c65a03f115156119a357600080fd5b50505060405180519050905090565b600080600080600060056000876000191660001916815260200190815260200160002060070160009054906101000a900460ff1615156119f157600080fd5b60009350600660008760001916600019168152602001908152602001600020805490509250600091505b82821015611cf9573373ffffffffffffffffffffffffffffffffffffffff1660066000886000191660001916815260200190815260200160002083815481101515611a6257fe5b906000526020600020906007020160010160009054906101000a900473ffffffffffffffffffffffffffffffffffffffff1673ffffffffffffffffffffffffffffffffffffffff161415611cec57611c2860066000886000191660001916815260200190815260200160002083815481101515611adb57fe5b906000526020600020906007020161012060405190810160405290816000820154600019166000191681526020016001820160009054906101000a900473ffffffffffffffffffffffffffffffffffffffff1673ffffffffffffffffffffffffffffffffffffffff1673ffffffffffffffffffffffffffffffffffffffff1681526020016002820160009054906101000a900473ffffffffffffffffffffffffffffffffffffffff1673ffffffffffffffffffffffffffffffffffffffff1673ffffffffffffffffffffffffffffffffffffffff1681526020016003820154815260200160048201548152602001600582015481526020016006820160009054906101000a900460ff161515151581526020016006820160019054906101000a900460ff161515151581526020016006820160029054906101000a900460ff16151515158152505061371a565b9050600081118015611c7e575060066000876000191660001916815260200190815260200160002082815481101515611c5d57fe5b906000526020600020906007020160060160029054906101000a900460ff16155b15611ceb57600160066000886000191660001916815260200190815260200160002083815481101515611cad57fe5b906000526020600020906007020160060160026101000a81548160ff021916908315150217905550611ce8818561331690919063ffffffff16565b93505b5b8180600101925050611a1b565b611d0333856137eb565b1515611d0e57600080fd5b85600019163373ffffffffffffffffffffffffffffffffffffffff167f794aa82b6db54e01dab1d1dfda90d863bf89a700f3fe0fc4f98bfd504f71bf5d866040518082815260200191505060405180910390a36001945050505050919050565b6000836000602060ff16111515611d8457600080fd5b60056000826000191660001916815260200190815260200160002060070160009054906101000a900460ff16151515611dbc57600080fd5b8380611dd260018361331690919063ffffffff16565b111515611dde57600080fd5b600073ffffffffffffffffffffffffffffffffffffffff168473ffffffffffffffffffffffffffffffffffffffff1614151515611e1a57600080fd5b8360056000886000191660001916815260200190815260200160002060000160006101000a81548173ffffffffffffffffffffffffffffffffffffffff021916908373ffffffffffffffffffffffffffffffffffffffff1602179055506000600560008860001916600019168152602001908152602001600020600101819055506000600560008860001916600019168152602001908152602001600020600201819055508560056000886000191660001916815260200190815260200160002060030181600019169055508460056000886000191660001916815260200190815260200160002060040181905550600060056000886000191660001916815260200190815260200160002060050160006101000a81548160ff021916908315150217905550600060056000886000191660001916815260200190815260200160002060060181905550600160056000886000191660001916815260200190815260200160002060070160006101000a81548160ff021916908315150217905550600160056000886000191660001916815260200190815260200160002060070160016101000a81548160ff0219169083151502179055506000600560008860001916600019168152602001908152602001600020600801816000191690555085600560006002546000191660001916815260200190815260200160002060080181600019169055506005600087600019166000191681526020019081526020016000206003015460028160001916905550612062600160035461331690919063ffffffff16565b60038190555085600019168473ffffffffffffffffffffffffffffffffffffffff167f32362a6c8f018375704733c0f0c66d6e2d1d6a96d031af978ccc46aaf2d2547e87600160405180838152602001821515151581526020019250505060405180910390a36001925050509392505050565b60025481565b600080600060056000856000191660001916815260200190815260200160002060070160009054906101000a900460ff16151561211757600080fd5b60009250600660008560001916600019168152602001908152602001600020805490509150600090505b818110156122e2576122d36122c46006600087600019166000191681526020019081526020016000208381548110151561217757fe5b906000526020600020906007020161012060405190810160405290816000820154600019166000191681526020016001820160009054906101000a900473ffffffffffffffffffffffffffffffffffffffff1673ffffffffffffffffffffffffffffffffffffffff1673ffffffffffffffffffffffffffffffffffffffff1681526020016002820160009054906101000a900473ffffffffffffffffffffffffffffffffffffffff1673ffffffffffffffffffffffffffffffffffffffff1673ffffffffffffffffffffffffffffffffffffffff1681526020016003820154815260200160048201548152602001600582015481526020016006820160009054906101000a900460ff161515151581526020016006820160019054906101000a900460ff161515151581526020016006820160029054906101000a900460ff161515151581525050613334565b8461331690919063ffffffff16565b92508080600101915050612141565b8292505050919050565b6000806000806000806000806000806000600660008d600019166000191681526020019081526020016000208054905091508c73ffffffffffffffffffffffffffffffffffffffff16600073ffffffffffffffffffffffffffffffffffffffff161415151561235a57600080fd5b600560008d6000191660001916815260200190815260200160002060070160009054906101000a900460ff16151561239157600080fd5b600082111561263b576001820390505b60008110151561263a578c73ffffffffffffffffffffffffffffffffffffffff16600660008e60001916600019168152602001908152602001600020828154811015156123ea57fe5b906000526020600020906007020160010160009054906101000a900473ffffffffffffffffffffffffffffffffffffffff1673ffffffffffffffffffffffffffffffffffffffff16141561261e57600660008d600019166000191681526020019081526020016000208181548110151561246057fe5b906000526020600020906007020160010160009054906101000a900473ffffffffffffffffffffffffffffffffffffffff169a50600660008d60001916600019168152602001908152602001600020818154811015156124bc57fe5b9060005260206000209060070201600301549850600660008d60001916600019168152602001908152602001600020818154811015156124f857fe5b9060005260206000209060070201600401549750600660008d600019166000191681526020019081526020016000208181548110151561253457fe5b90600052602060002090600702016005015496506125528b8d612cc2565b159550600660008d600019166000191681526020019081526020016000208181548110151561257d57fe5b906000526020600020906007020160060160009054906101000a900460ff169450600560008d6000191660001916815260200190815260200160002060050160009054906101000a900460ff169350600660008d60001916600019168152602001908152602001600020818154811015156125f457fe5b906000526020600020906007020160060160019054906101000a900460ff1692506000905061263a565b600081141561262c5761263a565b8080600190039150506123a1565b5b8a8c8a8a8a8a8a8a8a9a509a509a509a509a509a509a509a509a5050509295985092959850929598565b60008260056000826000191660001916815260200190815260200160002060070160009054906101000a900460ff16151561269f57600080fd5b3373ffffffffffffffffffffffffffffffffffffffff1660056000836000191660001916815260200190815260200160002060000160009054906101000a900473ffffffffffffffffffffffffffffffffffffffff1673ffffffffffffffffffffffffffffffffffffffff1614151561271757600080fd5b8260056000866000191660001916815260200190815260200160002060070160016101000a81548160ff02191690831515021790555083600019163373ffffffffffffffffffffffffffffffffffffffff167feb7e8fd639953c98dc1baecd9f72cc41075f4cf712755141cbbdd572181680c485604051808215151515815260200191505060405180910390a3600191505092915050565b60056020528060005260406000206000915090508060000160009054906101000a900473ffffffffffffffffffffffffffffffffffffffff16908060010154908060020154908060030154908060040154908060050160009054906101000a900460ff16908060060154908060070160009054906101000a900460ff16908060070160019054906101000a900460ff1690806008015490508a565b60066020528160005260406000208181548110151561286557fe5b9060005260206000209060070201600091509150508060000154908060010160009054906101000a900473ffffffffffffffffffffffffffffffffffffffff16908060020160009054906101000a900473ffffffffffffffffffffffffffffffffffffffff16908060030154908060040154908060050154908060060160009054906101000a900460ff16908060060160019054906101000a900460ff16908060060160029054906101000a900460ff16905089565b600460009054906101000a900473ffffffffffffffffffffffffffffffffffffffff1681565b600060056000836000191660001916815260200190815260200160002060000160009054906101000a900473ffffffffffffffffffffffffffffffffffffffff169050919050565b60008060008073ffffffffffffffffffffffffffffffffffffffff168573ffffffffffffffffffffffffffffffffffffffff16141515156129c957600080fd5b60056000856000191660001916815260200190815260200160002060070160009054906101000a900460ff161515612a0057600080fd5b60009250600660008560001916600019168152602001908152602001600020805490509150600090505b81811015612c59578473ffffffffffffffffffffffffffffffffffffffff1660066000866000191660001916815260200190815260200160002082815481101515612a7157fe5b906000526020600020906007020160010160009054906101000a900473ffffffffffffffffffffffffffffffffffffffff1673ffffffffffffffffffffffffffffffffffffffff161415612c4c57612c49612c3a60066000876000191660001916815260200190815260200160002083815481101515612aed57fe5b906000526020600020906007020161012060405190810160405290816000820154600019166000191681526020016001820160009054906101000a900473ffffffffffffffffffffffffffffffffffffffff1673ffffffffffffffffffffffffffffffffffffffff1673ffffffffffffffffffffffffffffffffffffffff1681526020016002820160009054906101000a900473ffffffffffffffffffffffffffffffffffffffff1673ffffffffffffffffffffffffffffffffffffffff1673ffffffffffffffffffffffffffffffffffffffff1681526020016003820154815260200160048201548152602001600582015481526020016006820160009054906101000a900460ff161515151581526020016006820160019054906101000a900460ff161515151581526020016006820160029054906101000a900460ff16151515158152505061371a565b8461331690919063ffffffff16565b92505b8080600101915050612a2a565b829250505092915050565b6000809054906101000a900473ffffffffffffffffffffffffffffffffffffffff1681565b6040805190810160405280600181526020017f310000000000000000000000000000000000000000000000000000000000000081525081565b600080600060066000856000191660001916815260200190815260200160002080549050915060056000856000191660001916815260200190815260200160002060070160009054906101000a900460ff161515612d1f57600080fd5b8473ffffffffffffffffffffffffffffffffffffffff16600073ffffffffffffffffffffffffffffffffffffffff1614151515612d5b57600080fd5b6000821115612e63576001820390505b600081101515612e62578473ffffffffffffffffffffffffffffffffffffffff1660066000866000191660001916815260200190815260200160002082815481101515612db457fe5b906000526020600020906007020160010160009054906101000a900473ffffffffffffffffffffffffffffffffffffffff1673ffffffffffffffffffffffffffffffffffffffff161415612e465760066000856000191660001916815260200190815260200160002081815481101515612e2a57fe5b9060005260206000209060070201600501544210159250612e68565b6000811415612e5457612e62565b808060019003915050612d6b565b5b600192505b505092915050565b6000809054906101000a900473ffffffffffffffffffffffffffffffffffffffff1673ffffffffffffffffffffffffffffffffffffffff163373ffffffffffffffffffffffffffffffffffffffff16141515612ecb57600080fd5b600073ffffffffffffffffffffffffffffffffffffffff168173ffffffffffffffffffffffffffffffffffffffff1614151515612f0757600080fd5b8073ffffffffffffffffffffffffffffffffffffffff166000809054906101000a900473ffffffffffffffffffffffffffffffffffffffff1673ffffffffffffffffffffffffffffffffffffffff167f8be0079c531659141344cd1fd0a4f28419497f9722a3daafe3b4186f6b6457e060405160405180910390a3806000806101000a81548173ffffffffffffffffffffffffffffffffffffffff021916908373ffffffffffffffffffffffffffffffffffffffff16021790555050565b60008180612fdd60018361331690919063ffffffff16565b111515612fe957600080fd5b600073ffffffffffffffffffffffffffffffffffffffff168573ffffffffffffffffffffffffffffffffffffffff161415801561305157503073ffffffffffffffffffffffffffffffffffffffff168473ffffffffffffffffffffffffffffffffffffffff16145b151561305c57600080fd5b82600460009054906101000a900473ffffffffffffffffffffffffffffffffffffffff1673ffffffffffffffffffffffffffffffffffffffff1663dd62ed3e87876000604051602001526040518363ffffffff167c0100000000000000000000000000000000000000000000000000000000028152600401808373ffffffffffffffffffffffffffffffffffffffff1673ffffffffffffffffffffffffffffffffffffffff1681526020018273ffffffffffffffffffffffffffffffffffffffff1673ffffffffffffffffffffffffffffffffffffffff16815260200192505050602060405180830381600087803b151561315657600080fd5b6102c65a03f1151561316757600080fd5b505050604051805190501015151561317e57600080fd5b600460009054906101000a900473ffffffffffffffffffffffffffffffffffffffff1673ffffffffffffffffffffffffffffffffffffffff166323b872dd8686866000604051602001526040518463ffffffff167c0100000000000000000000000000000000000000000000000000000000028152600401808473ffffffffffffffffffffffffffffffffffffffff1673ffffffffffffffffffffffffffffffffffffffff1681526020018373ffffffffffffffffffffffffffffffffffffffff1673ffffffffffffffffffffffffffffffffffffffff1681526020018281526020019350505050602060405180830381600087803b151561327f57600080fd5b6102c65a03f1151561329057600080fd5b5050506040518051905015156132a557600080fd5b8373ffffffffffffffffffffffffffffffffffffffff168573ffffffffffffffffffffffffffffffffffffffff167f6f990e2a71bc9526905da97b737d1ccb2bf854118a41fee0eb7811bb22d3eea4856040518082815260200191505060405180910390a360019150509392505050565b600080828401905083811015151561332a57fe5b8091505092915050565b60008090508160c0015115156133e65761334d82613956565b156133de576005600083600001516000191660001916815260200190815260200160002060050160009054906101000a900460ff16156133d2578160a0015160056000846000015160001916600019168152602001908152602001600020600601541015156133c257816060015190506133ea565b6133cb82613967565b90506133ea565b816060015190506133ea565b8090506133ea565b8090505b919050565b6000818061340760018361331690919063ffffffff16565b11151561341357600080fd5b8360056000826000191660001916815260200190815260200160002060070160009054906101000a900460ff16151561344b57600080fd5b3373ffffffffffffffffffffffffffffffffffffffff1660056000836000191660001916815260200190815260200160002060000160009054906101000a900473ffffffffffffffffffffffffffffffffffffffff1673ffffffffffffffffffffffffffffffffffffffff161415156134c357600080fd5b6000841115156134d257600080fd5b600073ffffffffffffffffffffffffffffffffffffffff1660056000876000191660001916815260200190815260200160002060000160009054906101000a900473ffffffffffffffffffffffffffffffffffffffff1673ffffffffffffffffffffffffffffffffffffffff161415151561354c57600080fd5b600460009054906101000a900473ffffffffffffffffffffffffffffffffffffffff1673ffffffffffffffffffffffffffffffffffffffff1663a9059cbb60056000886000191660001916815260200190815260200160002060000160009054906101000a900473ffffffffffffffffffffffffffffffffffffffff16866000604051602001526040518363ffffffff167c0100000000000000000000000000000000000000000000000000000000028152600401808373ffffffffffffffffffffffffffffffffffffffff1673ffffffffffffffffffffffffffffffffffffffff16815260200182815260200192505050602060405180830381600087803b151561365757600080fd5b6102c65a03f1151561366857600080fd5b50505060405180519050151561367d57600080fd5b846000191660056000876000191660001916815260200190815260200160002060000160009054906101000a900473ffffffffffffffffffffffffffffffffffffffff1673ffffffffffffffffffffffffffffffffffffffff167f4b4186a4b549df09e37908f0b17747e961a0ecd8d675b2993e5933811870991b866040518082815260200191505060405180910390a360019250505092915050565b600080905081610100015115156137e3576005600083600001516000191660001916815260200190815260200160002060050160009054906101000a900460ff16156137e257816080015160056000846000015160001916600019168152602001908152602001600020600601541180156137ba57508160a001516005600084600001516000191660001916815260200190815260200160002060060154105b156137e1576137de6137cb83613967565b8360600151613a2d90919063ffffffff16565b90505b5b5b809050919050565b6000818061380360018361331690919063ffffffff16565b11151561380f57600080fd5b60008311151561381e57600080fd5b3373ffffffffffffffffffffffffffffffffffffffff168473ffffffffffffffffffffffffffffffffffffffff1614151561385857600080fd5b600460009054906101000a900473ffffffffffffffffffffffffffffffffffffffff1673ffffffffffffffffffffffffffffffffffffffff1663a9059cbb33856000604051602001526040518363ffffffff167c0100000000000000000000000000000000000000000000000000000000028152600401808373ffffffffffffffffffffffffffffffffffffffff1673ffffffffffffffffffffffffffffffffffffffff16815260200182815260200192505050602060405180830381600087803b151561392557600080fd5b6102c65a03f1151561393657600080fd5b50505060405180519050151561394b57600080fd5b600191505092915050565b6000428260a0015111159050919050565b6000806000806005600086600001516000191660001916815260200190815260200160002060050160009054906101000a900460ff1615156139a857600080fd5b846060015192506139fa836139ec8760800151600560008a600001516000191660001916815260200190815260200160002060060154613a2d90919063ffffffff16565b613a4690919063ffffffff16565b9150613a1785608001518660a00151613a2d90919063ffffffff16565b9050613a238282613a79565b9350505050919050565b6000828211151515613a3b57fe5b818303905092915050565b60008082840290506000841480613a675750828482811515613a6457fe5b04145b1515613a6f57fe5b8091505092915050565b6000808284811515613a8757fe5b0490508091505092915050565b815481835581811511613ac157600702816007028360005260206000209182019101613ac09190613ada565b5b505050565b602060405190810160405280600081525090565b613ba091905b80821115613b9c576000808201600090556001820160006101000a81549073ffffffffffffffffffffffffffffffffffffffff02191690556002820160006101000a81549073ffffffffffffffffffffffffffffffffffffffff02191690556003820160009055600482016000905560058201600090556006820160006101000a81549060ff02191690556006820160016101000a81549060ff02191690556006820160026101000a81549060ff021916905550600701613ae0565b5090565b905600a165627a7a7230582003c94b5c93b2f45abfb32c742e22b077db0ab49b437f2d8a4b5324c512608cf70029",
  "source": "pragma solidity 0.4.18;\n\n\nimport \"./IMarketplace.sol\";\nimport \"./BasicMarketplace.sol\";\n\n/*\n*@title MarketPlace contract\n*@dev This is the Marketplace contract. extending BasicMarketplace.\n*/\n\ncontract Marketplace is IMarketplace,BasicMarketplace{\n\n\tfunction Marketplace(address _tokenAddress) BasicMarketplace(_tokenAddress) public {}\n\n    /* public*/\n    \n    function setPunishProvider(bytes32 _dataSourceName, bool _isPunished) \n    public \n    onlyOwner \n    returns (bool success){\n        require(mProviders[_dataSourceName].isProvider);\n        mProviders[_dataSourceName].isPunished = _isPunished;\n        if(_isPunished){\n            mProviders[_dataSourceName].punishTimeStamp = now;\n        }else{\n            mProviders[_dataSourceName].punishTimeStamp = 0;\n        }\n        ProviderPunishStatus(mProviders[_dataSourceName].owner,_dataSourceName,_isPunished);\n        success = true;\n    }\n\n    function refundSubscriber(bytes32 _dataSourceName) \n    public \n    returns\n    (bool success){\n        require(mProviders[_dataSourceName].isProvider);\n        uint256 refundAmount = 0;\n        uint size = mOrders[_dataSourceName].length;\n        for(uint i=0; i<size ;i++){\n            if(mOrders[_dataSourceName][i].subscriber == msg.sender){\n                uint256 refund = handleOrderRefundCalc(mOrders[_dataSourceName][i]);\n                if(refund > 0 && !mOrders[_dataSourceName][i].isRefundPaid){ // double check payment\n                    mOrders[_dataSourceName][i].isRefundPaid = true;// mark refund as paid\n                    refundAmount = refundAmount.add(refund);\n                }\n            }\n        }\n        require(safeToSubscriberTransfer(msg.sender,refundAmount));\n        SubscriberRefund(msg.sender,_dataSourceName,refundAmount);\n        success = true;\n    }\n    function getRefundAmount(address _subscriber , bytes32 _dataSourceName) \n    public \n    view \n    returns(uint256 refundAmount){\n        require(_subscriber != address(0));\n        require(mProviders[_dataSourceName].isProvider);\n        refundAmount = 0;\n        uint size = mOrders[_dataSourceName].length;\n        for(uint i=0; i< size ; i++){\n            if(mOrders[_dataSourceName][i].subscriber == _subscriber){\n                refundAmount = refundAmount.add(handleOrderRefundCalc(mOrders[_dataSourceName][i]));\n            }\n        }\n        return refundAmount;\n    }\n\n    function withdrawProvider(bytes32 _dataSourceName) \n    public \n    onlyDataProvider(_dataSourceName) \n    returns (bool success){\n        // calculate the withdraw amount \n        uint256 withdrawAmount = 0;\n        uint orderSize = mOrders[_dataSourceName].length;\n        for(uint i=0;i<orderSize;i++){\n            uint256 withdraw = handleOrderWithdrawCalc(mOrders[_dataSourceName][i]);\n            if(withdraw > 0 && !mOrders[_dataSourceName][i].isPaid){ // double check\n                mOrders[_dataSourceName][i].isPaid = true; // mark order as paid \n                withdrawAmount = withdrawAmount.add(withdraw); \n            }\n            \n        }\n        // transfer ENG's to the provider -revert state if faild\n        require(safeToProviderTransfer(_dataSourceName,withdrawAmount)); \n        ProviderWithdraw(mProviders[_dataSourceName].owner,_dataSourceName,withdrawAmount);\n        return true;\n    }\n    function getWithdrawAmount(bytes32 _dataSourceName) \n    public \n    view \n    returns(uint256 withdrawAmount){\n        require(mProviders[_dataSourceName].isProvider);\n        withdrawAmount = 0;\n        uint orderSize = mOrders[_dataSourceName].length;\n        for(uint i=0;i<orderSize;i++){\n            withdrawAmount = withdrawAmount.add(handleOrderWithdrawCalc(mOrders[_dataSourceName][i])); \n        }\n        return withdrawAmount;\n    }\n\n    function register(bytes32 _dataSourceName, uint256 _price, address _dataOwner) \n    public\n    uniqueDataName(_dataSourceName)\n    validPrice(_price)\n    returns (bool success){\n        require(_dataOwner != address(0));\n        mProviders[_dataSourceName].owner = _dataOwner;\n        mProviders[_dataSourceName].volume = 0;\n        mProviders[_dataSourceName].subscriptionsNum = 0;\n        mProviders[_dataSourceName].name = _dataSourceName;\n        mProviders[_dataSourceName].price = _price;\n        mProviders[_dataSourceName].isPunished = false;\n        mProviders[_dataSourceName].punishTimeStamp = 0;\n        mProviders[_dataSourceName].isProvider = true;\n        mProviders[_dataSourceName].isActive = true;\n        mProviders[_dataSourceName].nextProvider = \"\";\n        mProviders[mCurrent].nextProvider = _dataSourceName;\n        mCurrent = mProviders[_dataSourceName].name;\n        mProvidersSize = mProvidersSize.add(1);\n        Registered(_dataOwner,_dataSourceName,_price,true);\n        success =  true;\n    }\n    function subscribe(bytes32 _dataSourceName) \n    public \n    validDataProvider(_dataSourceName)\n    returns (bool success){\n        require(safeToMarketPlaceTransfer(msg.sender,this,mProviders[_dataSourceName].price)); // revet state if failed\n        // update order\n        mOrders[_dataSourceName].push(Order({\n            dataSourceName : _dataSourceName,\n            subscriber : msg.sender,\n            provider : mProviders[_dataSourceName].owner,\n            price : mProviders[_dataSourceName].price,\n            startTime : now,\n            endTime : now + FIXED_SUBSCRIPTION_PERIOD,\n            isPaid : false,\n            isOrder : true,\n            isRefundPaid : false\n            }));\n        // update provider data \n        mProviders[_dataSourceName].volume = mProviders[_dataSourceName].volume.add(mProviders[_dataSourceName].price);\n        mProviders[_dataSourceName].subscriptionsNum = mProviders[_dataSourceName].subscriptionsNum.add(1);\n        Subscribed(msg.sender,\n            _dataSourceName,\n            mProviders[_dataSourceName].owner,\n            mProviders[_dataSourceName].price,\n            true);\n        success = true;\n    }\n    function getMarketplaceTotalBalance() public view returns (uint256 totalBalance){\n        return mToken.balanceOf(this);\n    }\n    /*internal */\n\n    function handleOrderWithdrawCalc(Order order) internal view returns(uint256 orderAmount){\n        orderAmount = 0;\n        if(!order.isPaid){ // if not paid yet \n            if(isOrderExpired(order)){ // expired\n                if(mProviders[order.dataSourceName].isPunished){ // if punished\n                    if(mProviders[order.dataSourceName].punishTimeStamp >= order.endTime){ // punished after expiration date\n                        return order.price;\n                    }else{ // punished before expiration date\n                        return calcRelativeWithdraw(order); //(punishtime / endtime) * amount\n                    }\n                }else{ // not punished - return full amount\n                    return order.price;\n                }\n            }else{ // not expired\n                return orderAmount;\n            }\n        }\n        return orderAmount;\n    }\n    function handleOrderRefundCalc(Order order) internal view returns(uint256 refundAmount){\n        refundAmount = 0;\n        if(!order.isRefundPaid){ //order not paid \n            if(mProviders[order.dataSourceName].isPunished){ // provider is punished\n                if(mProviders[order.dataSourceName].punishTimeStamp > order.startTime && mProviders[order.dataSourceName].punishTimeStamp < order.endTime){ // punished before the subscription is expired\n                   refundAmount = order.price.sub(calcRelativeWithdraw(order)); // price - withdrawPrice\n                }\n            }\n        }\n        return refundAmount;\n    }\n    function calcRelativeWithdraw(Order order) internal view returns(uint256 relativeAmount){\n        require(mProviders[order.dataSourceName].isPunished);\n         // (punishTime- startTime) * PRICE / (endTime - startTime);\n        uint256 price = order.price;\n        uint256 a = (mProviders[order.dataSourceName].punishTimeStamp.sub(order.startTime)).mul(price);\n        uint256 b = order.endTime.sub(order.startTime);\n        return SafeMath.div(a,b);\n    }\n    function isOrderExpired(Order order) internal view returns (bool isExpired){\n        return order.endTime <= now;\n    }\n    function safeToMarketPlaceTransfer(address _from, address _to, uint256 _amount) \n    internal\n    validPrice(_amount)\n    returns (bool){\n         require(_from != address(0) && _to == address(this));\n         require(mToken.allowance(_from,_to) >= _amount);\n         require(mToken.transferFrom(_from,_to,_amount));\n         SubscriptionDeposited(_from, _to, _amount);\n         return true;\n    }\n    function safeToProviderTransfer(bytes32 _dataSourceName,uint256 _amount) \n    internal \n    validPrice(_amount)\n    onlyDataProvider(_dataSourceName) \n    returns (bool){\n         require(_amount > 0);\n         require(mProviders[_dataSourceName].owner != address(0));\n         require(mToken.transfer(mProviders[_dataSourceName].owner,_amount));\n         TransferToProvider(mProviders[_dataSourceName].owner,_dataSourceName,_amount);\n         return true;\n     }\n    function safeToSubscriberTransfer(address _subscriber,uint256 _amount) \n    internal \n    validPrice(_amount)\n    returns (bool){\n        require(_amount > 0);\n        require(_subscriber == msg.sender);\n        require(mToken.transfer(msg.sender, _amount));\n        return true;\n    }\n\n}",
  "sourcePath": "/home/wilder/Desktop/Enigma/DataMarketProject/marketPlace_WS/smart_contract_marketplace/contracts/Marketplace.sol",
  "compiler": {
    "name": "solc",
    "version": "0.4.18+commit.9cf6e910.Emscripten.clang"
  },
  "schemaVersion": "1.0.1",
  "updatedAt": "2018-02-10T15:34:52.553Z"
}