{
  "contractName": "MarketPlace",
  "abi": [
    {
      "constant": false,
      "inputs": [
        {
          "name": "_dataSourceName",
          "type": "bytes32"
        }
      ],
      "name": "subscribe",
      "outputs": [
        {
          "name": "",
          "type": "bool"
        }
      ],
      "payable": false,
      "stateMutability": "nonpayable",
      "type": "function"
    },
    {
      "constant": false,
      "inputs": [
        {
          "name": "_dataSourceName",
          "type": "bytes32"
        },
        {
          "name": "_price",
          "type": "uint256"
        },
        {
          "name": "_dataOwner",
          "type": "address"
        }
      ],
      "name": "register",
      "outputs": [
        {
          "name": "",
          "type": "bool"
        }
      ],
      "payable": false,
      "stateMutability": "nonpayable",
      "type": "function"
    },
    {
      "constant": true,
      "inputs": [
        {
          "name": "who",
          "type": "address"
        }
      ],
      "name": "balanceOf",
      "outputs": [
        {
          "name": "",
          "type": "uint256"
        }
      ],
      "payable": false,
      "stateMutability": "view",
      "type": "function"
    },
    {
      "constant": false,
      "inputs": [
        {
          "name": "_subscriber",
          "type": "address"
        },
        {
          "name": "_dataSourceName",
          "type": "bytes32"
        }
      ],
      "name": "checkAddressSubscription",
      "outputs": [
        {
          "name": "",
          "type": "bool"
        }
      ],
      "payable": false,
      "stateMutability": "nonpayable",
      "type": "function"
    },
    {
      "constant": true,
      "inputs": [],
      "name": "getTest",
      "outputs": [
        {
          "name": "",
          "type": "address"
        }
      ],
      "payable": false,
      "stateMutability": "view",
      "type": "function"
    },
    {
      "constant": false,
      "inputs": [
        {
          "name": "to",
          "type": "address"
        },
        {
          "name": "value",
          "type": "uint256"
        }
      ],
      "name": "transfer",
      "outputs": [
        {
          "name": "",
          "type": "bool"
        }
      ],
      "payable": false,
      "stateMutability": "nonpayable",
      "type": "function"
    },
    {
      "constant": true,
      "inputs": [],
      "name": "mToken",
      "outputs": [
        {
          "name": "",
          "type": "address"
        }
      ],
      "payable": false,
      "stateMutability": "view",
      "type": "function"
    },
    {
      "constant": true,
      "inputs": [],
      "name": "mFixedSubscriptionPeriod",
      "outputs": [
        {
          "name": "",
          "type": "uint256"
        }
      ],
      "payable": false,
      "stateMutability": "view",
      "type": "function"
    },
    {
      "constant": true,
      "inputs": [
        {
          "name": "_dataSourceName",
          "type": "bytes32"
        }
      ],
      "name": "getOwnerAddressByDataSourceName",
      "outputs": [
        {
          "name": "",
          "type": "address"
        }
      ],
      "payable": false,
      "stateMutability": "view",
      "type": "function"
    },
    {
      "inputs": [
        {
          "name": "_tokenAddress",
          "type": "address"
        },
        {
          "name": "_fixedSubscriptionPeriod",
          "type": "uint256"
        }
      ],
      "payable": false,
      "stateMutability": "nonpayable",
      "type": "constructor"
    },
    {
      "anonymous": false,
      "inputs": [
        {
          "indexed": true,
          "name": "subscriber",
          "type": "address"
        },
        {
          "indexed": true,
          "name": "dataSourceName",
          "type": "bytes32"
        },
        {
          "indexed": true,
          "name": "dataOwner",
          "type": "address"
        },
        {
          "indexed": false,
          "name": "price",
          "type": "uint256"
        },
        {
          "indexed": false,
          "name": "success",
          "type": "bool"
        }
      ],
      "name": "Subscribed",
      "type": "event"
    },
    {
      "anonymous": false,
      "inputs": [
        {
          "indexed": true,
          "name": "dataOwner",
          "type": "address"
        },
        {
          "indexed": true,
          "name": "dataSourceName",
          "type": "bytes32"
        },
        {
          "indexed": false,
          "name": "price",
          "type": "uint256"
        },
        {
          "indexed": false,
          "name": "success",
          "type": "bool"
        }
      ],
      "name": "Registered",
      "type": "event"
    },
    {
      "anonymous": false,
      "inputs": [
        {
          "indexed": true,
          "name": "from",
          "type": "address"
        },
        {
          "indexed": true,
          "name": "to",
          "type": "address"
        },
        {
          "indexed": false,
          "name": "value",
          "type": "uint256"
        }
      ],
      "name": "SubscriptionPaid",
      "type": "event"
    },
    {
      "anonymous": false,
      "inputs": [
        {
          "indexed": false,
          "name": "addr1",
          "type": "address"
        },
        {
          "indexed": false,
          "name": "addr2",
          "type": "address"
        },
        {
          "indexed": false,
          "name": "data",
          "type": "string"
        }
      ],
      "name": "TestLog",
      "type": "event"
    }
  ],
  "bytecode": "0x6060604052341561000f57600080fd5b604051604080611d788339810160405280805190602001909190805190602001909190505080600181905550816000806101000a81548173ffffffffffffffffffffffffffffffffffffffff021916908373ffffffffffffffffffffffffffffffffffffffff1602179055505050611cec8061008c6000396000f300606060405260043610610099576000357c0100000000000000000000000000000000000000000000000000000000900463ffffffff1680632faf44f61461009e5780635164fab4146100dd57806370a08231146101445780637b78861314610191578063a8cd0a80146101ef578063a9059cbb14610244578063c3b6f9391461029e578063df21b6f6146102f3578063fd3353821461031c575b600080fd5b34156100a957600080fd5b6100c3600480803560001916906020019091905050610383565b604051808215151515815260200191505060405180910390f35b34156100e857600080fd5b61012a60048080356000191690602001909190803590602001909190803573ffffffffffffffffffffffffffffffffffffffff16906020019091905050610df8565b604051808215151515815260200191505060405180910390f35b341561014f57600080fd5b61017b600480803573ffffffffffffffffffffffffffffffffffffffff16906020019091905050611520565b6040518082815260200191505060405180910390f35b341561019c57600080fd5b6101d5600480803573ffffffffffffffffffffffffffffffffffffffff1690602001909190803560001916906020019091905050611608565b604051808215151515815260200191505060405180910390f35b34156101fa57600080fd5b61020261164f565b604051808273ffffffffffffffffffffffffffffffffffffffff1673ffffffffffffffffffffffffffffffffffffffff16815260200191505060405180910390f35b341561024f57600080fd5b610284600480803573ffffffffffffffffffffffffffffffffffffffff169060200190919080359060200190919050506116fe565b604051808215151515815260200191505060405180910390f35b34156102a957600080fd5b6102b16117ef565b604051808273ffffffffffffffffffffffffffffffffffffffff1673ffffffffffffffffffffffffffffffffffffffff16815260200191505060405180910390f35b34156102fe57600080fd5b610306611814565b6040518082815260200191505060405180910390f35b341561032757600080fd5b61034160048080356000191690602001909190505061181a565b604051808273ffffffffffffffffffffffffffffffffffffffff1673ffffffffffffffffffffffffffffffffffffffff16815260200191505060405180910390f35b600061038d611933565b60008060008086600060046000836000191660001916815260200190815260200160002060009054906101000a900473ffffffffffffffffffffffffffffffffffffffff1673ffffffffffffffffffffffffffffffffffffffff16141515156103f557600080fd5b6040805190810160405280601981526020017f456e746572642066756e6374696f6e207375627363726962650000000000000081525095507f384f94cf8aadf04b8c95f3019e847f9b4cc367463b059bd2a1cba81af0a6d00d333388604051808473ffffffffffffffffffffffffffffffffffffffff1673ffffffffffffffffffffffffffffffffffffffff1681526020018373ffffffffffffffffffffffffffffffffffffffff1673ffffffffffffffffffffffffffffffffffffffff16815260200180602001828103825283818151815260200191508051906020019080838360005b838110156104f55780820151818401526020810190506104da565b50505050905090810190601f1680156105225780820380516001836020036101000a031916815260200191505b5094505050505060405180910390a160046000896000191660001916815260200190815260200160002060009054906101000a900473ffffffffffffffffffffffffffffffffffffffff1694506105788561185f565b15151561058457600080fd5b600260008673ffffffffffffffffffffffffffffffffffffffff1673ffffffffffffffffffffffffffffffffffffffff1681526020019081526020016000206002016000896000191660001916815260200190815260200160002093508360020160149054906101000a900460ff1615156105fe57600080fd5b6000809054906101000a900473ffffffffffffffffffffffffffffffffffffffff1673ffffffffffffffffffffffffffffffffffffffff1663a9059cbb8686600101546000604051602001526040518363ffffffff167c0100000000000000000000000000000000000000000000000000000000028152600401808373ffffffffffffffffffffffffffffffffffffffff1673ffffffffffffffffffffffffffffffffffffffff16815260200182815260200192505050602060405180830381600087803b15156106ce57600080fd5b6102c65a03f115156106df57600080fd5b5050506040518051905015156106f457600080fd5b838360000160008201548160000190600019169055600182015481600101556002820160009054906101000a900473ffffffffffffffffffffffffffffffffffffffff168160020160006101000a81548173ffffffffffffffffffffffffffffffffffffffff021916908373ffffffffffffffffffffffffffffffffffffffff1602179055506002820160149054906101000a900460ff168160020160146101000a81548160ff021916908315150217905550905050428360030181905550600154420183600401819055506107c9336118c9565b15610b0957338260000160006101000a81548173ffffffffffffffffffffffffffffffffffffffff021916908373ffffffffffffffffffffffffffffffffffffffff16021790555060018260000160146101000a81548160ff0219169083151502179055508160010180548060010182816108449190611947565b91600052602060002090600502016000859091909150600082018160000160008201548160000190600019169055600182015481600101556002820160009054906101000a900473ffffffffffffffffffffffffffffffffffffffff168160020160006101000a81548173ffffffffffffffffffffffffffffffffffffffff021916908373ffffffffffffffffffffffffffffffffffffffff1602179055506002820160149054906101000a900460ff168160020160146101000a81548160ff02191690831515021790555050506003820154816003015560048201548160040155505050828260020160008a60001916600019168152602001908152602001600020600082018160000160008201548160000190600019169055600182015481600101556002820160009054906101000a900473ffffffffffffffffffffffffffffffffffffffff168160020160006101000a81548173ffffffffffffffffffffffffffffffffffffffff021916908373ffffffffffffffffffffffffffffffffffffffff1602179055506002820160149054906101000a900460ff168160020160146101000a81548160ff0219169083151502179055505050600382015481600301556004820154816004015590505081600360003373ffffffffffffffffffffffffffffffffffffffff1673ffffffffffffffffffffffffffffffffffffffff1681526020019081526020016000206000820160009054906101000a900473ffffffffffffffffffffffffffffffffffffffff168160000160006101000a81548173ffffffffffffffffffffffffffffffffffffffff021916908373ffffffffffffffffffffffffffffffffffffffff1602179055506000820160149054906101000a900460ff168160000160146101000a81548160ff0219169083151502179055506001820181600101908054610b00929190611979565b50905050610d6e565b600360003373ffffffffffffffffffffffffffffffffffffffff1673ffffffffffffffffffffffffffffffffffffffff1681526020019081526020016000206001018054806001018281610b5d9190611947565b91600052602060002090600502016000859091909150600082018160000160008201548160000190600019169055600182015481600101556002820160009054906101000a900473ffffffffffffffffffffffffffffffffffffffff168160020160006101000a81548173ffffffffffffffffffffffffffffffffffffffff021916908373ffffffffffffffffffffffffffffffffffffffff1602179055506002820160149054906101000a900460ff168160020160146101000a81548160ff0219169083151502179055505050600382015481600301556004820154816004015550505082600360003373ffffffffffffffffffffffffffffffffffffffff1673ffffffffffffffffffffffffffffffffffffffff16815260200190815260200160002060020160008a60001916600019168152602001908152602001600020600082018160000160008201548160000190600019169055600182015481600101556002820160009054906101000a900473ffffffffffffffffffffffffffffffffffffffff168160020160006101000a81548173ffffffffffffffffffffffffffffffffffffffff021916908373ffffffffffffffffffffffffffffffffffffffff1602179055506002820160149054906101000a900460ff168160020160146101000a81548160ff021916908315150217905550505060038201548160030155600482015481600401559050505b8473ffffffffffffffffffffffffffffffffffffffff1688600019163373ffffffffffffffffffffffffffffffffffffffff167f7a3f54da83d294e3b226e50ae5a65e87cff0f43f8699003833a1ee6670c800e68760010154600160405180838152602001821515151581526020019250505060405180910390a460019650505050505050919050565b60008060008460008110151515610e0e57600080fd5b86600060046000836000191660001916815260200190815260200160002060009054906101000a900473ffffffffffffffffffffffffffffffffffffffff1673ffffffffffffffffffffffffffffffffffffffff16141515610e6f57600080fd5b600073ffffffffffffffffffffffffffffffffffffffff168673ffffffffffffffffffffffffffffffffffffffff1614151515610eab57600080fd5b85600460008a6000191660001916815260200190815260200160002060006101000a81548173ffffffffffffffffffffffffffffffffffffffff021916908373ffffffffffffffffffffffffffffffffffffffff16021790555087846000018160001916905550868460010181905550858460020160006101000a81548173ffffffffffffffffffffffffffffffffffffffff021916908373ffffffffffffffffffffffffffffffffffffffff16021790555060018460020160146101000a81548160ff021916908315150217905550610f848661185f565b1561128857858360000160006101000a81548173ffffffffffffffffffffffffffffffffffffffff021916908373ffffffffffffffffffffffffffffffffffffffff16021790555060018360000160146101000a81548160ff021916908315150217905550826001018054806001018281610fff9190611a9d565b9160005260206000209060030201600086909190915060008201548160000190600019169055600182015481600101556002820160009054906101000a900473ffffffffffffffffffffffffffffffffffffffff168160020160006101000a81548173ffffffffffffffffffffffffffffffffffffffff021916908373ffffffffffffffffffffffffffffffffffffffff1602179055506002820160149054906101000a900460ff168160020160146101000a81548160ff021916908315150217905550505050838360020160008a6000191660001916815260200190815260200160002060008201548160000190600019169055600182015481600101556002820160009054906101000a900473ffffffffffffffffffffffffffffffffffffffff168160020160006101000a81548173ffffffffffffffffffffffffffffffffffffffff021916908373ffffffffffffffffffffffffffffffffffffffff1602179055506002820160149054906101000a900460ff168160020160146101000a81548160ff02191690831515021790555090505082600260008873ffffffffffffffffffffffffffffffffffffffff1673ffffffffffffffffffffffffffffffffffffffff1681526020019081526020016000206000820160009054906101000a900473ffffffffffffffffffffffffffffffffffffffff168160000160006101000a81548173ffffffffffffffffffffffffffffffffffffffff021916908373ffffffffffffffffffffffffffffffffffffffff1602179055506000820160149054906101000a900460ff168160000160146101000a81548160ff021916908315150217905550600182018160010190805461127f929190611acf565b509050506114b1565b600260008773ffffffffffffffffffffffffffffffffffffffff1673ffffffffffffffffffffffffffffffffffffffff16815260200190815260200160002060010180548060010182816112dc9190611a9d565b9160005260206000209060030201600086909190915060008201548160000190600019169055600182015481600101556002820160009054906101000a900473ffffffffffffffffffffffffffffffffffffffff168160020160006101000a81548173ffffffffffffffffffffffffffffffffffffffff021916908373ffffffffffffffffffffffffffffffffffffffff1602179055506002820160149054906101000a900460ff168160020160146101000a81548160ff02191690831515021790555050505083600260008873ffffffffffffffffffffffffffffffffffffffff1673ffffffffffffffffffffffffffffffffffffffff16815260200190815260200160002060020160008a6000191660001916815260200190815260200160002060008201548160000190600019169055600182015481600101556002820160009054906101000a900473ffffffffffffffffffffffffffffffffffffffff168160020160006101000a81548173ffffffffffffffffffffffffffffffffffffffff021916908373ffffffffffffffffffffffffffffffffffffffff1602179055506002820160149054906101000a900460ff168160020160146101000a81548160ff0219169083151502179055509050505b87600019168673ffffffffffffffffffffffffffffffffffffffff167f32362a6c8f018375704733c0f0c66d6e2d1d6a96d031af978ccc46aaf2d2547e89600160405180838152602001821515151581526020019250505060405180910390a360019450505050509392505050565b60008060009054906101000a900473ffffffffffffffffffffffffffffffffffffffff1673ffffffffffffffffffffffffffffffffffffffff166370a08231836000604051602001526040518263ffffffff167c0100000000000000000000000000000000000000000000000000000000028152600401808273ffffffffffffffffffffffffffffffffffffffff1673ffffffffffffffffffffffffffffffffffffffff168152602001915050602060405180830381600087803b15156115e657600080fd5b6102c65a03f115156115f757600080fd5b505050604051805190509050919050565b60008073ffffffffffffffffffffffffffffffffffffffff168373ffffffffffffffffffffffffffffffffffffffff161415151561164557600080fd5b6001905092915050565b60008060009054906101000a900473ffffffffffffffffffffffffffffffffffffffff1673ffffffffffffffffffffffffffffffffffffffff1663a8cd0a806000604051602001526040518163ffffffff167c0100000000000000000000000000000000000000000000000000000000028152600401602060405180830381600087803b15156116de57600080fd5b6102c65a03f115156116ef57600080fd5b50505060405180519050905090565b60008060009054906101000a900473ffffffffffffffffffffffffffffffffffffffff1673ffffffffffffffffffffffffffffffffffffffff1663a9059cbb84846000604051602001526040518363ffffffff167c0100000000000000000000000000000000000000000000000000000000028152600401808373ffffffffffffffffffffffffffffffffffffffff1673ffffffffffffffffffffffffffffffffffffffff16815260200182815260200192505050602060405180830381600087803b15156117cc57600080fd5b6102c65a03f115156117dd57600080fd5b50505060405180519050905092915050565b6000809054906101000a900473ffffffffffffffffffffffffffffffffffffffff1681565b60015481565b600060046000836000191660001916815260200190815260200160002060009054906101000a900473ffffffffffffffffffffffffffffffffffffffff169050919050565b6000600260008373ffffffffffffffffffffffffffffffffffffffff1673ffffffffffffffffffffffffffffffffffffffff16815260200190815260200160002060000160149054906101000a900460ff16156118bf57600090506118c4565b600190505b919050565b6000600360008373ffffffffffffffffffffffffffffffffffffffff1673ffffffffffffffffffffffffffffffffffffffff16815260200190815260200160002060000160149054906101000a900460ff1615611929576000905061192e565b600190505b919050565b602060405190810160405280600081525090565b815481835581811511611974576005028160050283600052602060002091820191016119739190611bd5565b5b505050565b828054828255906000526020600020906005028101928215611a8c5760005260206000209160050282015b82811115611a8b578282600082018160000160008201548160000190600019169055600182015481600101556002820160009054906101000a900473ffffffffffffffffffffffffffffffffffffffff168160020160006101000a81548173ffffffffffffffffffffffffffffffffffffffff021916908373ffffffffffffffffffffffffffffffffffffffff1602179055506002820160149054906101000a900460ff168160020160146101000a81548160ff021916908315150217905550505060038201548160030155600482015481600401555050916005019190600501906119a4565b5b509050611a999190611bd5565b5090565b815481835581811511611aca57600302816003028360005260206000209182019101611ac99190611c56565b5b505050565b828054828255906000526020600020906003028101928215611bc45760005260206000209160030282015b82811115611bc357828260008201548160000190600019169055600182015481600101556002820160009054906101000a900473ffffffffffffffffffffffffffffffffffffffff168160020160006101000a81548173ffffffffffffffffffffffffffffffffffffffff021916908373ffffffffffffffffffffffffffffffffffffffff1602179055506002820160149054906101000a900460ff168160020160146101000a81548160ff021916908315150217905550505091600301919060030190611afa565b5b509050611bd19190611c56565b5090565b611c5391905b80821115611c4f57600080820160008082016000905560018201600090556002820160006101000a81549073ffffffffffffffffffffffffffffffffffffffff02191690556002820160146101000a81549060ff021916905550506003820160009055600482016000905550600501611bdb565b5090565b90565b611cbd91905b80821115611cb95760008082016000905560018201600090556002820160006101000a81549073ffffffffffffffffffffffffffffffffffffffff02191690556002820160146101000a81549060ff021916905550600301611c5c565b5090565b905600a165627a7a72305820214602feeb888a4c126e782a35d27454928feda45543c429ec19d639a076730b0029",
  "source": "pragma solidity ^0.4.18;\n\n\nimport \"./MarketPlaceInterface.sol\";\n\ncontract ERC20 {\n  uint256 public totalSupply;\n  function balanceOf(address who) public constant returns (uint256);\n  function transfer(address to, uint256 value) public returns (bool);\n  function getTest() public view returns (address);\n  event Transfer(address indexed from, address indexed to, uint256 value);\n}\n\n\ncontract MarketPlace is MarketPlaceInterface\n{\n\t/*Data structures */\n\n\t/* A provider can have many DataSource's*/\n\tstruct DataSource{\n\t\tbytes32 name;\n\t\tuint monthlyPrice;\n\t\taddress owner;\n\t\tbool isData;\n\t}\n\t/* A Provider is unique per address*/\n\tstruct DataProvider{\n\t\taddress owner;\n\t\tbool isProvider;\n\t\tDataSource[] sourcesList;\n\t\tmapping(bytes32=>DataSource) sourcesMap;\n\t}\n\t/* A Subscriber can have many SubscribedDataSource's*/\n\tstruct SubscribedDataSource{\n\t\tDataSource dataSource;\n\t\tuint startTime;\n\t\tuint endTime;\n\t}\n\t/* Subscriber is Unique per address*/\n\tstruct Subscriber{\n\t\taddress subscriber;\n\t\tbool isSubscriber;\n\t\tSubscribedDataSource[] sourcesList;\n\t\tmapping(bytes32=>SubscribedDataSource) sourcesMap;\n\t}\n\t/* State variables */\n\t\n\t// Enigma Token\n\tERC20 public mToken;\n\t// Fixed time defined in the C'tor (unixTimeStamp)\n\tuint public mFixedSubscriptionPeriod;\n\t// Mapping addres owner to DataProvider - Names must be unique\n\tmapping(address => DataProvider) mDataProviders;\n\t// Mapping Address to Subscription\n\tmapping(address => Subscriber) mSubscribers;\n\t// Names map - works like a hashshet.\n\tmapping(bytes32 => address) mNameMap;\n\n\tfunction MarketPlace(address _tokenAddress, uint _fixedSubscriptionPeriod) public \n\t{\n\t\tmFixedSubscriptionPeriod = _fixedSubscriptionPeriod;\n\t\tmToken = ERC20(_tokenAddress);\n\t}\n\n\tfunction subscribe(bytes32 _dataSourceName) \n\tpublic \n\tdataSourceNameExist(_dataSourceName) \n\treturns (bool)\n\t{\n\t\tstring memory testData = \"Enterd function subscribe\";\n\t\tTestLog(msg.sender,msg.sender, testData);\n\t\t// pay and verify\n\t\taddress providerAddress = mNameMap[_dataSourceName];\n\t\trequire(!isNewProvider(providerAddress));\n\t\tDataSource ds = mDataProviders[providerAddress].sourcesMap[_dataSourceName];\n\t\trequire(ds.isData);\n\t\tSubscribedDataSource storage sds;\n\t\trequire(mToken.transfer(providerAddress,ds.monthlyPrice));\n\t\t\n\t\t// update subscription details\n\t\tsds.dataSource = ds;\n\t\tsds.startTime = now; \n\t\tsds.endTime = now + mFixedSubscriptionPeriod;\n\n\t\tif(isNewSubscriber(msg.sender))\n\t\t{\n\t\t\tSubscriber subscriber;\n\t\t\tsubscriber.subscriber = msg.sender;\n\t\t\tsubscriber.isSubscriber = true;\n\t\t\tsubscriber.sourcesList.push(sds);\n\t\t\tsubscriber.sourcesMap[_dataSourceName] = sds;\t\t\n\t\t\tmSubscribers[msg.sender] = subscriber;\n\t\t}\n\t\telse\n\t\t{\n\t\t\tmSubscribers[msg.sender].sourcesList.push(sds);\n\t\t\tmSubscribers[msg.sender].sourcesMap[_dataSourceName] = sds;\n\t\t}\n\t\tSubscribed(msg.sender,_dataSourceName, providerAddress, ds.monthlyPrice, true);\n\t\treturn true;\n\t}\n\tfunction register(bytes32 _dataSourceName, uint _price, address _dataOwner) \n\tpublic \n\tvalidPrice(_price)\n\tuniqueDataSourceName(_dataSourceName) \n\treturns (bool)\n\t{\n\t\trequire(_dataOwner != address(0));\n\n\t\t// create a data source\n\t\tmNameMap[_dataSourceName] = _dataOwner;\t\n\t\tDataSource storage ds;\n\t\tds.name = _dataSourceName;\n\t\tds.monthlyPrice = _price;\n\t\tds.owner = _dataOwner;\n\t\tds.isData = true;\n\n\t\tif(isNewProvider(_dataOwner)) // New Provider (Address identifier)\n\t\t{\n\t\t\t// create a data provider \n\t\t\tDataProvider storage dp;\n\t\t\tdp.owner = _dataOwner;\n\t\t\tdp.isProvider = true;\n\t\t\tdp.sourcesList.push(ds);\n\t\t\tdp.sourcesMap[_dataSourceName] = ds;\n\t\t\tmDataProviders[_dataOwner] = dp;\n\t\t}\n\t\telse // Existing Provider (New DataSource)\n\t\t{\n\t\t\tmDataProviders[_dataOwner].sourcesList.push(ds);\n\t\t\tmDataProviders[_dataOwner].sourcesMap[_dataSourceName] = ds;\n\t\t}\n\t\tRegistered(_dataOwner, _dataSourceName, _price, true);\n\t\treturn true;\n\t}\n\n\tfunction checkAddressSubscription(address _subscriber, bytes32 _dataSourceName) public returns (bool)\n\t{\n\t\trequire(_subscriber != address(0));\n\t\treturn true;\n\t}\n\n\tfunction getOwnerAddressByDataSourceName(bytes32 _dataSourceName) public view returns(address){\n\t\treturn mNameMap[_dataSourceName];\n\t}\n\t/*\n\t\tInternal Functions\n\t*/\n\tfunction isNewProvider(address _testProvider) internal view returns (bool)\n\t{\n\t\tif(mDataProviders[_testProvider].isProvider)\n\t\t\treturn false;\n\t\telse\n\t\t\treturn true;\n\t}\n\tfunction isNewSubscriber(address _testSubscriber) internal view returns (bool)\n\t{\n\t\tif(mSubscribers[_testSubscriber].isSubscriber)\n\t\t\treturn false;\n\t\telse\n\t\t\treturn true;\n\t}\n\t/*\n\t\tModifiers\n\t*/\n\tmodifier uniqueDataSourceName(bytes32 _testName)\n\t{\n\t\trequire(mNameMap[_testName]==0);\n\t\t_;\n\t}\n\tmodifier validPrice(uint _testPrice)\n\t{\n\t\trequire(_testPrice>=0);\n\t\t_;\n\t}\n\tmodifier dataSourceNameExist(bytes32 _testName)\n\t{\n\t\trequire(mNameMap[_testName] != 0);\n\t\t_;\n\t}\n\t/* TO BE DELETED */\n\tfunction getTest() public view returns (address){\n\t\treturn mToken.getTest();\n\t}\n\tfunction balanceOf(address who) public constant returns (uint256){\n\t\treturn mToken.balanceOf(who);\n\t}\n\tfunction transfer(address to, uint256 value) public returns (bool){\n\t\treturn mToken.transfer(to,value);\n\t}\n}",
  "sourcePath": "/home/wilder/Desktop/Enigma/DataMarketProject/marketPlace_WS/smart_contract_marketplace/contracts/MarketPlace.sol",
  "compiler": {
    "name": "solc",
    "version": "0.4.18+commit.9cf6e910.Emscripten.clang"
  },
  "schemaVersion": "1.0.1",
  "updatedAt": "2018-01-18T20:32:59.212Z"
}