{
  "contractName": "Marketplace",
  "abi": [
    {
      "constant": true,
      "inputs": [],
      "name": "mTotalBalance",
      "outputs": [
        {
          "name": "",
          "type": "uint256"
        }
      ],
      "payable": false,
      "stateMutability": "view",
      "type": "function"
    },
    {
      "constant": true,
      "inputs": [],
      "name": "FIXED_SUBSCRIPTION_PERIOD",
      "outputs": [
        {
          "name": "",
          "type": "uint256"
        }
      ],
      "payable": false,
      "stateMutability": "view",
      "type": "function"
    },
    {
      "constant": false,
      "inputs": [
        {
          "name": "_dataProviderName",
          "type": "bytes32"
        },
        {
          "name": "_isPunished",
          "type": "bool"
        }
      ],
      "name": "setPenalty",
      "outputs": [
        {
          "name": "",
          "type": "bool"
        }
      ],
      "payable": false,
      "stateMutability": "nonpayable",
      "type": "function"
    },
    {
      "constant": true,
      "inputs": [
        {
          "name": "_subscriber",
          "type": "address"
        }
      ],
      "name": "getRefundAmount",
      "outputs": [
        {
          "name": "available",
          "type": "uint256"
        }
      ],
      "payable": false,
      "stateMutability": "view",
      "type": "function"
    },
    {
      "constant": true,
      "inputs": [
        {
          "name": "dataName",
          "type": "bytes32"
        }
      ],
      "name": "getWithdrawAmount",
      "outputs": [
        {
          "name": "available",
          "type": "uint256"
        }
      ],
      "payable": false,
      "stateMutability": "view",
      "type": "function"
    },
    {
      "constant": true,
      "inputs": [
        {
          "name": "_dataProviderName",
          "type": "bytes32"
        }
      ],
      "name": "isPunished",
      "outputs": [
        {
          "name": "",
          "type": "bool"
        }
      ],
      "payable": false,
      "stateMutability": "view",
      "type": "function"
    },
    {
      "constant": true,
      "inputs": [],
      "name": "mToken",
      "outputs": [
        {
          "name": "",
          "type": "address"
        }
      ],
      "payable": false,
      "stateMutability": "view",
      "type": "function"
    },
    {
      "inputs": [
        {
          "name": "_tokenAddress",
          "type": "address"
        }
      ],
      "payable": false,
      "stateMutability": "nonpayable",
      "type": "constructor"
    }
  ],
  "bytecode": "0x6060604052341561000f57600080fd5b604051602080610b5f83398101604052808051906020019091905050600073ffffffffffffffffffffffffffffffffffffffff168173ffffffffffffffffffffffffffffffffffffffff161415151561006757600080fd5b806000806101000a81548173ffffffffffffffffffffffffffffffffffffffff021916908373ffffffffffffffffffffffffffffffffffffffff16021790555033600160006101000a81548173ffffffffffffffffffffffffffffffffffffffff021916908373ffffffffffffffffffffffffffffffffffffffff16021790555050610a67806100f86000396000f300606060405260043610610083576000357c0100000000000000000000000000000000000000000000000000000000900463ffffffff1680630b26ce841461008857806326277bf2146100b15780633a051ea7146100da5780635d306f34146101245780636210c25414610171578063c10add16146101ac578063c3b6f939146101eb575b600080fd5b341561009357600080fd5b61009b610240565b6040518082815260200191505060405180910390f35b34156100bc57600080fd5b6100c4610246565b6040518082815260200191505060405180910390f35b34156100e557600080fd5b61010a600480803560001916906020019091908035151590602001909190505061024d565b604051808215151515815260200191505060405180910390f35b341561012f57600080fd5b61015b600480803573ffffffffffffffffffffffffffffffffffffffff16906020019091905050610347565b6040518082815260200191505060405180910390f35b341561017c57600080fd5b610196600480803560001916906020019091905050610651565b6040518082815260200191505060405180910390f35b34156101b757600080fd5b6101d16004808035600019169060200190919050506108f3565b604051808215151515815260200191505060405180910390f35b34156101f657600080fd5b6101fe610928565b604051808273ffffffffffffffffffffffffffffffffffffffff1673ffffffffffffffffffffffffffffffffffffffff16815260200191505060405180910390f35b60025481565b62278d0081565b6000600160009054906101000a900473ffffffffffffffffffffffffffffffffffffffff1673ffffffffffffffffffffffffffffffffffffffff163373ffffffffffffffffffffffffffffffffffffffff161415156102ab57600080fd5b8260046000826000191660001916815260200190815260200160002060070160009054906101000a900460ff1615156102e357600080fd5b8260046000866000191660001916815260200190815260200160002060050160006101000a81548160ff0219169083151502179055504260046000866000191660001916815260200190815260200160002060060181905550600191505092915050565b60008060008060008092505b6003805490508310156106455760038381548110151561036f57fe5b906000526020600020906007020191506004600083600001546000191660001916815260200190815260200160002090508573ffffffffffffffffffffffffffffffffffffffff168260010160009054906101000a900473ffffffffffffffffffffffffffffffffffffffff1673ffffffffffffffffffffffffffffffffffffffff1614801561040e57508160060160019054906101000a900460ff16155b156106385761042081600301546108f3565b1561063757816005015481600601541015610636576106318261010060405190810160405290816000820154600019166000191681526020016001820160009054906101000a900473ffffffffffffffffffffffffffffffffffffffff1673ffffffffffffffffffffffffffffffffffffffff1673ffffffffffffffffffffffffffffffffffffffff1681526020016002820160009054906101000a900473ffffffffffffffffffffffffffffffffffffffff1673ffffffffffffffffffffffffffffffffffffffff1673ffffffffffffffffffffffffffffffffffffffff1681526020016003820154815260200160048201548152602001600582015481526020016006820160009054906101000a900460ff161515151581526020016006820160019054906101000a900460ff1615151515815250508261010060405190810160405290816000820160009054906101000a900473ffffffffffffffffffffffffffffffffffffffff1673ffffffffffffffffffffffffffffffffffffffff1673ffffffffffffffffffffffffffffffffffffffff1681526020016001820154815260200160028201548152602001600382015460001916600019168152602001600482015481526020016005820160009054906101000a900460ff16151515158152602001600682015481526020016007820160009054906101000a900460ff16151515158152505061094d565b840193505b5b5b8280600101935050610353565b83945050505050919050565b60008060008060008092505b6003805490508310156108e75760038381548110151561067957fe5b9060005260206000209060070201915060046000836000015460001916600019168152602001908152602001600020905085600019168260000154600019161480156106d45750806003015460001916826000015460001916145b156108da576108d58261010060405190810160405290816000820154600019166000191681526020016001820160009054906101000a900473ffffffffffffffffffffffffffffffffffffffff1673ffffffffffffffffffffffffffffffffffffffff1673ffffffffffffffffffffffffffffffffffffffff1681526020016002820160009054906101000a900473ffffffffffffffffffffffffffffffffffffffff1673ffffffffffffffffffffffffffffffffffffffff1673ffffffffffffffffffffffffffffffffffffffff1681526020016003820154815260200160048201548152602001600582015481526020016006820160009054906101000a900460ff161515151581526020016006820160019054906101000a900460ff1615151515815250508261010060405190810160405290816000820160009054906101000a900473ffffffffffffffffffffffffffffffffffffffff1673ffffffffffffffffffffffffffffffffffffffff1673ffffffffffffffffffffffffffffffffffffffff1681526020016001820154815260200160028201548152602001600382015460001916600019168152602001600482015481526020016005820160009054906101000a900460ff16151515158152602001600682015481526020016007820160009054906101000a900460ff161515151581525050610974565b840193505b828060010193505061065d565b83945050505050919050565b600060046000836000191660001916815260200190815260200160002060050160009054906101000a900460ff169050919050565b6000809054906101000a900473ffffffffffffffffffffffffffffffffffffffff1681565b600081608001518360a001518360c0015181151561096757fe5b0460010302905092915050565b600081606001516000191683600001516000191614801561099757508260e00151155b156109da576109a5836109e5565b156109d9576109b782606001516108f3565b156109cd576109c683836109fa565b90506109df565b826060015190506109df565b5b600090505b92915050565b600062278d0082608001510142119050919050565b60008260a001518260c001511115610a185782606001519050610a35565b82606001518360a001518360c00151811515610a3057fe5b040290505b929150505600a165627a7a72305820b97229882a4448ceb2720329773028b57a2347435ffafa6b37e3ba4d75c1e12f0029",
  "source": "pragma solidity ^0.4.18;\n\n\n//import \"./IMarketplace.sol\";\nimport \"./zeppelin-solidity/SafeMath.sol\";\n\ncontract IERC20 {\n  function balanceOf(address who) public constant returns (uint256);\n  function transfer(address to, uint256 value) public returns (bool);\n  function allowance(address owner, address spender) public constant returns (uint256);\n  function transferFrom(address from, address to, uint256 value) public returns (bool);\n  function approve(address spender, uint256 value) public returns (bool);\n  function getTest() public view returns (address);\n  event Transfer(address indexed from, address indexed to, uint256 value);\n  event Approval(address indexed owner, address indexed spender, uint256 value);\n}\n\n\ncontract Marketplace{ //is IMarketplace{\n\n\tusing SafeMath for uint256;\n\tusing SafeMath for uint;\n\n\t/*Data structures */\n\tstruct Order{\n        bytes32 providerName;\n        address subscriber;\n        address provider;\n        uint price;\n        uint startTime;\n        uint endTime;\n        bool isPunished;\n        bool isPaid;\n    }\n    struct Provider{\n        address owner;\n        uint volume;\n        uint subscriptionsNum;\n        bytes32 name;\n        uint price;\n        bool isPunished;\n        uint punishTime;\n        bool isProvider;\n    }\n\n\t// Enigma Token\n\tIERC20 public mToken;\n\t// Fixed time defined (unixTimeStamp)\n\tuint public constant FIXED_SUBSCRIPTION_PERIOD = 30 days;\n\t// the Contract deployer\n\taddress mMarketPlaceOwner;\n    // contracts total balance\n    uint256 public mTotalBalance;\n    // all open/closed orders\n    Order [] mOrders;\n    // all providers\n    mapping(bytes32 => Provider) mProviders;\n\n\tfunction Marketplace(address _tokenAddress) public {\n\t\trequire(_tokenAddress != address(0));\n\t\tmToken = IERC20(_tokenAddress);\n\t\tmMarketPlaceOwner = msg.sender;\n\t}\n    /* penallty,punishment logic */\n    function setPenalty(bytes32 _dataProviderName, bool _isPunished) external ownerOnly providerExist(_dataProviderName) returns(bool){\n        mProviders[_dataProviderName].isPunished = _isPunished;\n        mProviders[_dataProviderName].punishTime = now;\n        return true;\n    }\n    /* subscriber refund logic */\n    \n    function getRefundAmount(address _subscriber) external view returns (uint256 available){\n        uint accumulated;\n        for(uint i=0; i<mOrders.length;i++){\n            Order storage order = mOrders[i];\n            Provider storage provider = mProviders[order.providerName];\n            if(order.subscriber == _subscriber && !order.isPaid){ // not paid yet\n                if(isPunished(provider.name)){ // provider punished\n                    if(provider.punishTime < order.endTime){ //provider punished before subscription expired \n                        accumulated += calcRelativeRefund(order,provider);\n                    }\n                }\n            }\n        }\n        return accumulated;\n    }\n    function calcRelativeRefund(Order _order, Provider _provider) internal view returns(uint256 amount){\n        return (1 - _provider.punishTime/ _order.endTime)  * _provider.price;\n    }\n    /* provider withdraw logic */\n    function getWithdrawAmount(bytes32 dataName) external view returns (uint256 available){\n        uint256  accumulated;\n        for(uint i=0; i<mOrders.length; i++){\n            Order storage order = mOrders[i];\n            Provider storage provider = mProviders[order.providerName];\n            if(order.providerName == dataName && order.providerName == provider.name){\n                accumulated += handleGetWithdraw(order,provider);   \n            }\n        }\n        return accumulated;\n    }\n    function handleGetWithdraw(Order _order, Provider _provider) private view returns(uint256 amount){\n        if(_order.providerName == _provider.name && !_order.isPaid){\n                if(isExpired(_order)){\n                    if(isPunished(_provider.name)){\n                        return calcRelativeWithdraw(_order,_provider);\n                    }else{\n                        return _order.price;\n                    }\n                }\n            }\n            return 0;\n    }\n    function isExpired(Order _order) internal view returns (bool){\n        return now > _order.startTime + FIXED_SUBSCRIPTION_PERIOD; \n    }\n    function isPunished(bytes32 _dataProviderName) public view returns(bool){\n        return mProviders[_dataProviderName].isPunished;\n    }\n    function calcRelativeWithdraw(Order _order,Provider _provider) internal view returns (uint256 amount){\n        if(_provider.punishTime > _order.endTime){\n            return _order.price;   \n        }\n        return (_provider.punishTime / _order.endTime) * _order.price;\n    }\n    /* modifiers*/\n    modifier ownerOnly(){\n        require(msg.sender == mMarketPlaceOwner);\n        _;\n    }\n    modifier providerExist(bytes32 _dataProviderName){\n        require(mProviders[_dataProviderName].isProvider);\n        _;\n    }\n}",
  "sourcePath": "/home/wilder/Desktop/Enigma/DataMarketProject/marketPlace_WS/smart_contract_marketplace/contracts/Marketplace.sol",
  "compiler": {
    "name": "solc",
    "version": "0.4.18+commit.9cf6e910.Emscripten.clang"
  },
  "schemaVersion": "1.0.1",
  "updatedAt": "2018-01-24T11:01:26.247Z"
}