{
  "contractName": "Marketplace",
  "abi": [
    {
      "constant": true,
      "inputs": [
        {
          "name": "_dataSourceName",
          "type": "bytes32"
        }
      ],
      "name": "isActiveDataSource",
      "outputs": [
        {
          "name": "isActive",
          "type": "bool"
        }
      ],
      "payable": false,
      "stateMutability": "view",
      "type": "function"
    },
    {
      "constant": true,
      "inputs": [],
      "name": "FIXED_SUBSCRIPTION_PERIOD",
      "outputs": [
        {
          "name": "",
          "type": "uint256"
        }
      ],
      "payable": false,
      "stateMutability": "view",
      "type": "function"
    },
    {
      "constant": false,
      "inputs": [
        {
          "name": "_dataSourceName",
          "type": "bytes32"
        },
        {
          "name": "_isPunished",
          "type": "bool"
        }
      ],
      "name": "setPunishProvider",
      "outputs": [
        {
          "name": "success",
          "type": "bool"
        }
      ],
      "payable": false,
      "stateMutability": "nonpayable",
      "type": "function"
    },
    {
      "constant": true,
      "inputs": [
        {
          "name": "_dataSourceName",
          "type": "bytes32"
        }
      ],
      "name": "getDataProviderInfo",
      "outputs": [
        {
          "name": "owner",
          "type": "address"
        },
        {
          "name": "price",
          "type": "uint256"
        },
        {
          "name": "volume",
          "type": "uint256"
        },
        {
          "name": "subscriptionsNum",
          "type": "uint256"
        },
        {
          "name": "isProvider",
          "type": "bool"
        },
        {
          "name": "isActive",
          "type": "bool"
        },
        {
          "name": "isPunished",
          "type": "bool"
        }
      ],
      "payable": false,
      "stateMutability": "view",
      "type": "function"
    },
    {
      "constant": false,
      "inputs": [
        {
          "name": "_dataSourceName",
          "type": "bytes32"
        }
      ],
      "name": "subscribe",
      "outputs": [
        {
          "name": "",
          "type": "bool"
        }
      ],
      "payable": false,
      "stateMutability": "nonpayable",
      "type": "function"
    },
    {
      "constant": false,
      "inputs": [
        {
          "name": "_dataSourceName",
          "type": "bytes32"
        },
        {
          "name": "_newPrice",
          "type": "uint256"
        }
      ],
      "name": "updateDataSourcePrice",
      "outputs": [
        {
          "name": "success",
          "type": "bool"
        }
      ],
      "payable": false,
      "stateMutability": "nonpayable",
      "type": "function"
    },
    {
      "constant": false,
      "inputs": [
        {
          "name": "_dataSourceName",
          "type": "bytes32"
        }
      ],
      "name": "withdrawProvider",
      "outputs": [
        {
          "name": "success",
          "type": "bool"
        }
      ],
      "payable": false,
      "stateMutability": "nonpayable",
      "type": "function"
    },
    {
      "constant": true,
      "inputs": [],
      "name": "getAllProviders",
      "outputs": [
        {
          "name": "",
          "type": "bytes32[]"
        }
      ],
      "payable": false,
      "stateMutability": "view",
      "type": "function"
    },
    {
      "constant": true,
      "inputs": [],
      "name": "getMarketplaceTotalBalance",
      "outputs": [
        {
          "name": "totalBalance",
          "type": "uint256"
        }
      ],
      "payable": false,
      "stateMutability": "view",
      "type": "function"
    },
    {
      "constant": false,
      "inputs": [
        {
          "name": "_dataSourceName",
          "type": "bytes32"
        },
        {
          "name": "_price",
          "type": "uint256"
        },
        {
          "name": "_dataOwner",
          "type": "address"
        }
      ],
      "name": "register",
      "outputs": [
        {
          "name": "",
          "type": "bool"
        }
      ],
      "payable": false,
      "stateMutability": "nonpayable",
      "type": "function"
    },
    {
      "constant": true,
      "inputs": [
        {
          "name": "_dataSourceName",
          "type": "bytes32"
        }
      ],
      "name": "getWithdrawAmount",
      "outputs": [
        {
          "name": "withdrawAmount",
          "type": "uint256"
        }
      ],
      "payable": false,
      "stateMutability": "view",
      "type": "function"
    },
    {
      "constant": true,
      "inputs": [
        {
          "name": "_subscriber",
          "type": "address"
        },
        {
          "name": "_dataSourceName",
          "type": "bytes32"
        }
      ],
      "name": "checkAddressSubscription",
      "outputs": [
        {
          "name": "subscriber",
          "type": "address"
        },
        {
          "name": "dataSourceName",
          "type": "bytes32"
        },
        {
          "name": "price",
          "type": "uint256"
        },
        {
          "name": "startTime",
          "type": "uint256"
        },
        {
          "name": "endTime",
          "type": "uint256"
        },
        {
          "name": "isExpired",
          "type": "bool"
        },
        {
          "name": "isPaid",
          "type": "bool"
        },
        {
          "name": "isPunishedProvider",
          "type": "bool"
        },
        {
          "name": "isOrder",
          "type": "bool"
        }
      ],
      "payable": false,
      "stateMutability": "view",
      "type": "function"
    },
    {
      "constant": false,
      "inputs": [
        {
          "name": "_dataSourceName",
          "type": "bytes32"
        },
        {
          "name": "_isActive",
          "type": "bool"
        }
      ],
      "name": "changeDataSourceActivityStatus",
      "outputs": [
        {
          "name": "success",
          "type": "bool"
        }
      ],
      "payable": false,
      "stateMutability": "nonpayable",
      "type": "function"
    },
    {
      "constant": false,
      "inputs": [
        {
          "name": "_dataSourceName",
          "type": "bytes32"
        },
        {
          "name": "_price",
          "type": "uint256"
        },
        {
          "name": "_dataOwner",
          "type": "address"
        },
        {
          "name": "isPunished",
          "type": "bool"
        }
      ],
      "name": "mockPayableProvider",
      "outputs": [
        {
          "name": "",
          "type": "bool"
        }
      ],
      "payable": false,
      "stateMutability": "nonpayable",
      "type": "function"
    },
    {
      "constant": true,
      "inputs": [],
      "name": "mToken",
      "outputs": [
        {
          "name": "",
          "type": "address"
        }
      ],
      "payable": false,
      "stateMutability": "view",
      "type": "function"
    },
    {
      "constant": true,
      "inputs": [
        {
          "name": "_subscriber",
          "type": "address"
        },
        {
          "name": "_dataSourceName",
          "type": "bytes32"
        }
      ],
      "name": "isExpiredSubscription",
      "outputs": [
        {
          "name": "isExpired",
          "type": "bool"
        }
      ],
      "payable": false,
      "stateMutability": "view",
      "type": "function"
    },
    {
      "inputs": [
        {
          "name": "_tokenAddress",
          "type": "address"
        }
      ],
      "payable": false,
      "stateMutability": "nonpayable",
      "type": "constructor"
    },
    {
      "anonymous": false,
      "inputs": [
        {
          "indexed": true,
          "name": "dataOwner",
          "type": "address"
        },
        {
          "indexed": true,
          "name": "dataSourceName",
          "type": "bytes32"
        },
        {
          "indexed": false,
          "name": "price",
          "type": "uint256"
        },
        {
          "indexed": false,
          "name": "success",
          "type": "bool"
        }
      ],
      "name": "Registered",
      "type": "event"
    },
    {
      "anonymous": false,
      "inputs": [
        {
          "indexed": true,
          "name": "from",
          "type": "address"
        },
        {
          "indexed": true,
          "name": "to",
          "type": "address"
        },
        {
          "indexed": false,
          "name": "value",
          "type": "uint256"
        }
      ],
      "name": "SubscriptionDeposited",
      "type": "event"
    },
    {
      "anonymous": false,
      "inputs": [
        {
          "indexed": true,
          "name": "subscriber",
          "type": "address"
        },
        {
          "indexed": true,
          "name": "dataSourceName",
          "type": "bytes32"
        },
        {
          "indexed": true,
          "name": "dataOwner",
          "type": "address"
        },
        {
          "indexed": false,
          "name": "price",
          "type": "uint256"
        },
        {
          "indexed": false,
          "name": "success",
          "type": "bool"
        }
      ],
      "name": "Subscribed",
      "type": "event"
    },
    {
      "anonymous": false,
      "inputs": [
        {
          "indexed": true,
          "name": "editor",
          "type": "address"
        },
        {
          "indexed": true,
          "name": "dataSourceName",
          "type": "bytes32"
        },
        {
          "indexed": false,
          "name": "newPrice",
          "type": "uint256"
        }
      ],
      "name": "PriceUpdate",
      "type": "event"
    },
    {
      "anonymous": false,
      "inputs": [
        {
          "indexed": true,
          "name": "editor",
          "type": "address"
        },
        {
          "indexed": true,
          "name": "dataSourceName",
          "type": "bytes32"
        },
        {
          "indexed": false,
          "name": "newStatus",
          "type": "bool"
        }
      ],
      "name": "ActivityUpdate",
      "type": "event"
    },
    {
      "anonymous": false,
      "inputs": [
        {
          "indexed": true,
          "name": "dataOwner",
          "type": "address"
        },
        {
          "indexed": true,
          "name": "dataSourceName",
          "type": "bytes32"
        },
        {
          "indexed": false,
          "name": "amount",
          "type": "uint256"
        }
      ],
      "name": "TransferToProvider",
      "type": "event"
    },
    {
      "anonymous": false,
      "inputs": [
        {
          "indexed": true,
          "name": "dataOwner",
          "type": "address"
        },
        {
          "indexed": true,
          "name": "dataSourceName",
          "type": "bytes32"
        },
        {
          "indexed": false,
          "name": "amount",
          "type": "uint256"
        }
      ],
      "name": "ProviderWithdraw",
      "type": "event"
    },
    {
      "anonymous": false,
      "inputs": [
        {
          "indexed": true,
          "name": "dataOwner",
          "type": "address"
        },
        {
          "indexed": true,
          "name": "dataSourceName",
          "type": "bytes32"
        },
        {
          "indexed": false,
          "name": "isPunished",
          "type": "bool"
        }
      ],
      "name": "ProviderPunishStatus",
      "type": "event"
    }
  ],
  "bytecode": "0x6060604052341561000f57600080fd5b60405160208061309083398101604052808051906020019091905050600073ffffffffffffffffffffffffffffffffffffffff168173ffffffffffffffffffffffffffffffffffffffff161415151561006757600080fd5b80600360006101000a81548173ffffffffffffffffffffffffffffffffffffffff021916908373ffffffffffffffffffffffffffffffffffffffff16021790555033600460006101000a81548173ffffffffffffffffffffffffffffffffffffffff021916908373ffffffffffffffffffffffffffffffffffffffff1602179055506000600560008060010260001916815260200190815260200160002060080181600019169055506000600102600560008060010260001916815260200190815260200160002060030181600019169055506005600080600102600019168152602001908152602001600020600301546001816000191690555060056000806001026000191681526020019081526020016000206003015460008160001916905550600160028190555050612eee806101a26000396000f3006060604052600436106100e6576000357c0100000000000000000000000000000000000000000000000000000000900463ffffffff1680630cf23b1f146100eb57806326277bf21461012a5780632f10aabb146101535780632f95949a1461019d5780632faf44f61461023a578063340b4ed4146102795780633b8f5dbd146102c15780633bb4497c14610300578063445f00951461036a5780635164fab4146103935780636210c254146103fa5780637b788613146104355780638d149e5c1461050b578063aaa0ca7214610555578063c3b6f939146105c7578063ea97bac11461061c575b600080fd5b34156100f657600080fd5b61011060048080356000191690602001909190505061067a565b604051808215151515815260200191505060405180910390f35b341561013557600080fd5b61013d6106af565b6040518082815260200191505060405180910390f35b341561015e57600080fd5b61018360048080356000191690602001909190803515159060200190919050506106b6565b604051808215151515815260200191505060405180910390f35b34156101a857600080fd5b6101c2600480803560001916906020019091905050610820565b604051808873ffffffffffffffffffffffffffffffffffffffff1673ffffffffffffffffffffffffffffffffffffffff16815260200187815260200186815260200185815260200184151515158152602001831515151581526020018215151515815260200197505050505050505060405180910390f35b341561024557600080fd5b61025f600480803560001916906020019091905050610964565b604051808215151515815260200191505060405180910390f35b341561028457600080fd5b6102a7600480803560001916906020019091908035906020019091905050610df6565b604051808215151515815260200191505060405180910390f35b34156102cc57600080fd5b6102e6600480803560001916906020019091905050610f4c565b604051808215151515815260200191505060405180910390f35b341561030b57600080fd5b6103136112c7565b6040518080602001828103825283818151815260200191508051906020019060200280838360005b8381101561035657808201518184015260208101905061033b565b505050509050019250505060405180910390f35b341561037557600080fd5b61037d61138b565b6040518082815260200191505060405180910390f35b341561039e57600080fd5b6103e060048080356000191690602001909190803590602001909190803573ffffffffffffffffffffffffffffffffffffffff16906020019091905050611472565b604051808215151515815260200191505060405180910390f35b341561040557600080fd5b61041f6004808035600019169060200190919050506117c6565b6040518082815260200191505060405180910390f35b341561044057600080fd5b610479600480803573ffffffffffffffffffffffffffffffffffffffff16906020019091908035600019169060200190919050506119bc565b604051808a73ffffffffffffffffffffffffffffffffffffffff1673ffffffffffffffffffffffffffffffffffffffff168152602001896000191660001916815260200188815260200187815260200186815260200185151515158152602001841515151581526020018315151515815260200182151515158152602001995050505050505050505060405180910390f35b341561051657600080fd5b61053b6004808035600019169060200190919080351515906020019091905050611d39565b604051808215151515815260200191505060405180910390f35b341561056057600080fd5b6105ad60048080356000191690602001909190803590602001909190803573ffffffffffffffffffffffffffffffffffffffff169060200190919080351515906020019091905050611e83565b604051808215151515815260200191505060405180910390f35b34156105d257600080fd5b6105da6123ea565b604051808273ffffffffffffffffffffffffffffffffffffffff1673ffffffffffffffffffffffffffffffffffffffff16815260200191505060405180910390f35b341561062757600080fd5b610660600480803573ffffffffffffffffffffffffffffffffffffffff1690602001909190803560001916906020019091905050612410565b604051808215151515815260200191505060405180910390f35b600060056000836000191660001916815260200190815260200160002060070160019054906101000a900460ff169050919050565b62278d0081565b6000600460009054906101000a900473ffffffffffffffffffffffffffffffffffffffff1673ffffffffffffffffffffffffffffffffffffffff163373ffffffffffffffffffffffffffffffffffffffff1614151561071457600080fd5b60056000846000191660001916815260200190815260200160002060070160009054906101000a900460ff16151561074b57600080fd5b8160056000856000191660001916815260200190815260200160002060050160006101000a81548160ff021916908315150217905550826000191660056000856000191660001916815260200190815260200160002060000160009054906101000a900473ffffffffffffffffffffffffffffffffffffffff1673ffffffffffffffffffffffffffffffffffffffff167fb5dd3ecc8eaa1fb9460a4088b3872f93a68855f913c6bfc3f3c6c7ebf0f326b684604051808215151515815260200191505060405180910390a36001905092915050565b600080600080600080600060056000896000191660001916815260200190815260200160002060000160009054906101000a900473ffffffffffffffffffffffffffffffffffffffff16965060056000896000191660001916815260200190815260200160002060040154955060056000896000191660001916815260200190815260200160002060010154945060056000896000191660001916815260200190815260200160002060020154935060056000896000191660001916815260200190815260200160002060070160009054906101000a900460ff16925060056000896000191660001916815260200190815260200160002060070160019054906101000a900460ff16915060056000896000191660001916815260200190815260200160002060050160009054906101000a900460ff169050919395979092949650565b60008160056000826000191660001916815260200190815260200160002060070160009054906101000a900460ff16151561099e57600080fd5b60056000826000191660001916815260200190815260200160002060070160019054906101000a900460ff1615156109d557600080fd5b60056000826000191660001916815260200190815260200160002060050160009054906101000a900460ff16151515610a0d57600080fd5b610a363330600560008760001916600019168152602001908152602001600020600401546125c3565b1515610a4157600080fd5b6006600084600019166000191681526020019081526020016000208054806001018281610a6e9190612dc7565b9160005260206000209060070201600061010060405190810160405280876000191681526020013373ffffffffffffffffffffffffffffffffffffffff16815260200160056000896000191660001916815260200190815260200160002060000160009054906101000a900473ffffffffffffffffffffffffffffffffffffffff1673ffffffffffffffffffffffffffffffffffffffff16815260200160056000896000191660001916815260200190815260200160002060040154815260200142815260200162278d00420181526020016000151581526020016001151581525090919091506000820151816000019060001916905560208201518160010160006101000a81548173ffffffffffffffffffffffffffffffffffffffff021916908373ffffffffffffffffffffffffffffffffffffffff16021790555060408201518160020160006101000a81548173ffffffffffffffffffffffffffffffffffffffff021916908373ffffffffffffffffffffffffffffffffffffffff160217905550606082015181600301556080820151816004015560a0820151816005015560c08201518160060160006101000a81548160ff02191690831515021790555060e08201518160060160016101000a81548160ff021916908315150217905550505050610ca360056000856000191660001916815260200190815260200160002060040154600560008660001916600019168152602001908152602001600020600101546128f290919063ffffffff16565b60056000856000191660001916815260200190815260200160002060010181905550610cf76001600560008660001916600019168152602001908152602001600020600201546128f290919063ffffffff16565b6005600085600019166000191681526020019081526020016000206002018190555060056000846000191660001916815260200190815260200160002060000160009054906101000a900473ffffffffffffffffffffffffffffffffffffffff1673ffffffffffffffffffffffffffffffffffffffff1683600019163373ffffffffffffffffffffffffffffffffffffffff167f7a3f54da83d294e3b226e50ae5a65e87cff0f43f8699003833a1ee6670c800e660056000886000191660001916815260200190815260200160002060040154600160405180838152602001821515151581526020019250505060405180910390a46001915050919050565b60008260056000826000191660001916815260200190815260200160002060070160009054906101000a900460ff161515610e3057600080fd5b3373ffffffffffffffffffffffffffffffffffffffff1660056000836000191660001916815260200190815260200160002060000160009054906101000a900473ffffffffffffffffffffffffffffffffffffffff1673ffffffffffffffffffffffffffffffffffffffff16141515610ea857600080fd5b8280610ebe6001836128f290919063ffffffff16565b111515610eca57600080fd5b836005600087600019166000191681526020019081526020016000206004018190555084600019163373ffffffffffffffffffffffffffffffffffffffff167fd6d44e0931d3eff0a69c277b94480024f00d36b25216cf69d54965c1ecb7f4a3866040518082815260200191505060405180910390a360019250505092915050565b60008060008060008560056000826000191660001916815260200190815260200160002060070160009054906101000a900460ff161515610f8c57600080fd5b3373ffffffffffffffffffffffffffffffffffffffff1660056000836000191660001916815260200190815260200160002060000160009054906101000a900473ffffffffffffffffffffffffffffffffffffffff1673ffffffffffffffffffffffffffffffffffffffff1614151561100457600080fd5b60009450600660008860001916600019168152602001908152602001600020805490509350600092505b83831015611213576111936006600089600019166000191681526020019081526020016000208481548110151561106157fe5b906000526020600020906007020161010060405190810160405290816000820154600019166000191681526020016001820160009054906101000a900473ffffffffffffffffffffffffffffffffffffffff1673ffffffffffffffffffffffffffffffffffffffff1673ffffffffffffffffffffffffffffffffffffffff1681526020016002820160009054906101000a900473ffffffffffffffffffffffffffffffffffffffff1673ffffffffffffffffffffffffffffffffffffffff1673ffffffffffffffffffffffffffffffffffffffff1681526020016003820154815260200160048201548152602001600582015481526020016006820160009054906101000a900460ff161515151581526020016006820160019054906101000a900460ff161515151581525050612910565b915060008211156111f1576001600660008960001916600019168152602001908152602001600020848154811015156111c857fe5b906000526020600020906007020160060160006101000a81548160ff0219169083151502179055505b61120482866128f290919063ffffffff16565b9450828060010193505061102e565b61121d87866129cb565b151561122857600080fd5b866000191660056000896000191660001916815260200190815260200160002060000160009054906101000a900473ffffffffffffffffffffffffffffffffffffffff1673ffffffffffffffffffffffffffffffffffffffff167fceb5682fafb74ca2d33476486c7dee53205f9c8aff48d68f47456a90abd536a8876040518082815260200191505060405180910390a3600195505050505050919050565b6112cf612df9565b6112d7612df9565b6000806002546040518059106112ea5750595b908082528060200260200182016040525092506000549150600090505b6002548110156113825760056000836000191660001916815260200190815260200160002060030154838281518110151561133e57fe5b906020019060200201906000191690816000191681525050600560008360001916600019168152602001908152602001600020600801549150806001019050611307565b82935050505090565b6000600360009054906101000a900473ffffffffffffffffffffffffffffffffffffffff1673ffffffffffffffffffffffffffffffffffffffff166370a08231306000604051602001526040518263ffffffff167c0100000000000000000000000000000000000000000000000000000000028152600401808273ffffffffffffffffffffffffffffffffffffffff1673ffffffffffffffffffffffffffffffffffffffff168152602001915050602060405180830381600087803b151561145257600080fd5b6102c65a03f1151561146357600080fd5b50505060405180519050905090565b60008360056000826000191660001916815260200190815260200160002060070160009054906101000a900460ff161515156114ad57600080fd5b83806114c36001836128f290919063ffffffff16565b1115156114cf57600080fd5b600073ffffffffffffffffffffffffffffffffffffffff168473ffffffffffffffffffffffffffffffffffffffff161415151561150b57600080fd5b8360056000886000191660001916815260200190815260200160002060000160006101000a81548173ffffffffffffffffffffffffffffffffffffffff021916908373ffffffffffffffffffffffffffffffffffffffff1602179055506000600560008860001916600019168152602001908152602001600020600101819055506000600560008860001916600019168152602001908152602001600020600201819055508560056000886000191660001916815260200190815260200160002060030181600019169055508460056000886000191660001916815260200190815260200160002060040181905550600060056000886000191660001916815260200190815260200160002060050160006101000a81548160ff021916908315150217905550600060056000886000191660001916815260200190815260200160002060060181905550600160056000886000191660001916815260200190815260200160002060070160006101000a81548160ff021916908315150217905550600160056000886000191660001916815260200190815260200160002060070160016101000a81548160ff021916908315150217905550600060056000886000191660001916815260200190815260200160002060080181600019169055508560056000600154600019166000191681526020019081526020016000206008018160001916905550600560008760001916600019168152602001908152602001600020600301546001816000191690555061175360016002546128f290919063ffffffff16565b60028190555085600019168473ffffffffffffffffffffffffffffffffffffffff167f32362a6c8f018375704733c0f0c66d6e2d1d6a96d031af978ccc46aaf2d2547e87600160405180838152602001821515151581526020019250505060405180910390a36001925050509392505050565b600080600060056000856000191660001916815260200190815260200160002060070160009054906101000a900460ff16151561180257600080fd5b60009250600660008560001916600019168152602001908152602001600020805490509150600090505b818110156119b2576119a36119946006600087600019166000191681526020019081526020016000208381548110151561186257fe5b906000526020600020906007020161010060405190810160405290816000820154600019166000191681526020016001820160009054906101000a900473ffffffffffffffffffffffffffffffffffffffff1673ffffffffffffffffffffffffffffffffffffffff1673ffffffffffffffffffffffffffffffffffffffff1681526020016002820160009054906101000a900473ffffffffffffffffffffffffffffffffffffffff1673ffffffffffffffffffffffffffffffffffffffff1673ffffffffffffffffffffffffffffffffffffffff1681526020016003820154815260200160048201548152602001600582015481526020016006820160009054906101000a900460ff161515151581526020016006820160019054906101000a900460ff161515151581525050612910565b846128f290919063ffffffff16565b9250808060010191505061182c565b8292505050919050565b6000806000806000806000806000806000600660008d600019166000191681526020019081526020016000208054905091506000821115156119fd57600080fd5b8c73ffffffffffffffffffffffffffffffffffffffff16600073ffffffffffffffffffffffffffffffffffffffff1614151515611a3957600080fd5b600560008d6000191660001916815260200190815260200160002060070160009054906101000a900460ff161515611a7057600080fd5b6001820390505b600081101515611d0f578c73ffffffffffffffffffffffffffffffffffffffff16600660008e6000191660001916815260200190815260200160002082815481101515611ac057fe5b906000526020600020906007020160010160009054906101000a900473ffffffffffffffffffffffffffffffffffffffff1673ffffffffffffffffffffffffffffffffffffffff161415611cf357600660008d6000191660001916815260200190815260200160002081815481101515611b3657fe5b906000526020600020906007020160010160009054906101000a900473ffffffffffffffffffffffffffffffffffffffff169a50600660008d6000191660001916815260200190815260200160002081815481101515611b9257fe5b9060005260206000209060070201600301549850600660008d6000191660001916815260200190815260200160002081815481101515611bce57fe5b9060005260206000209060070201600401549750600660008d6000191660001916815260200190815260200160002081815481101515611c0a57fe5b9060005260206000209060070201600501549650611c288b8d612410565b9550600660008d6000191660001916815260200190815260200160002081815481101515611c5257fe5b906000526020600020906007020160060160009054906101000a900460ff169450600560008d6000191660001916815260200190815260200160002060050160009054906101000a900460ff169350600660008d6000191660001916815260200190815260200160002081815481101515611cc957fe5b906000526020600020906007020160060160019054906101000a900460ff16925060009050611d0f565b6000811415611d0157611d0f565b808060019003915050611a77565b8a8c8a8a8a8a8a8a8a9a509a509a509a509a509a509a509a509a5050509295985092959850929598565b60008260056000826000191660001916815260200190815260200160002060070160009054906101000a900460ff161515611d7357600080fd5b3373ffffffffffffffffffffffffffffffffffffffff1660056000836000191660001916815260200190815260200160002060000160009054906101000a900473ffffffffffffffffffffffffffffffffffffffff1673ffffffffffffffffffffffffffffffffffffffff16141515611deb57600080fd5b8260056000866000191660001916815260200190815260200160002060070160016101000a81548160ff02191690831515021790555083600019163373ffffffffffffffffffffffffffffffffffffffff167feb7e8fd639953c98dc1baecd9f72cc41075f4cf712755141cbbdd572181680c485604051808215151515815260200191505060405180910390a3600191505092915050565b60008260056000876000191660001916815260200190815260200160002060000160006101000a81548173ffffffffffffffffffffffffffffffffffffffff021916908373ffffffffffffffffffffffffffffffffffffffff16021790555060006005600087600019166000191681526020019081526020016000206001018190555060006005600087600019166000191681526020019081526020016000206002018190555084600560008760001916600019168152602001908152602001600020600301816000191690555083600560008760001916600019168152602001908152602001600020600401819055508160056000876000191660001916815260200190815260200160002060050160006101000a81548160ff021916908315150217905550600262278d00811515611fb957fe5b04600242811515611fc657fe5b040360056000876000191660001916815260200190815260200160002060060181905550600160056000876000191660001916815260200190815260200160002060070160006101000a81548160ff021916908315150217905550600160056000876000191660001916815260200190815260200160002060070160016101000a81548160ff02191690831515021790555060006005600087600019166000191681526020019081526020016000206008018160001916905550846005600060015460001916600019168152602001908152602001600020600801816000191690555060056000866000191660001916815260200190815260200160002060030154600181600019169055506120e860016002546128f290919063ffffffff16565b600281905550600660008660001916600019168152602001908152602001600020805480600101828161211b9190612dc7565b9160005260206000209060070201600061010060405190810160405280896000191681526020013373ffffffffffffffffffffffffffffffffffffffff168152602001600560008b6000191660001916815260200190815260200160002060000160009054906101000a900473ffffffffffffffffffffffffffffffffffffffff1673ffffffffffffffffffffffffffffffffffffffff168152602001600560008b6000191660001916815260200190815260200160002060040154815260200162278d006002428115156121ec57fe5b040381526020016002428115156121ff57fe5b0481526020016000151581526020016001151581525090919091506000820151816000019060001916905560208201518160010160006101000a81548173ffffffffffffffffffffffffffffffffffffffff021916908373ffffffffffffffffffffffffffffffffffffffff16021790555060408201518160020160006101000a81548173ffffffffffffffffffffffffffffffffffffffff021916908373ffffffffffffffffffffffffffffffffffffffff160217905550606082015181600301556080820151816004015560a0820151816005015560c08201518160060160006101000a81548160ff02191690831515021790555060e08201518160060160016101000a81548160ff02191690831515021790555050505061236860056000876000191660001916815260200190815260200160002060040154600560008860001916600019168152602001908152602001600020600101546128f290919063ffffffff16565b600560008760001916600019168152602001908152602001600020600101819055506123bc6001600560008860001916600019168152602001908152602001600020600201546128f290919063ffffffff16565b6005600087600019166000191681526020019081526020016000206002018190555060019050949350505050565b600360009054906101000a900473ffffffffffffffffffffffffffffffffffffffff1681565b600080600060066000856000191660001916815260200190815260200160002080549050915060008211151561244557600080fd5b60056000856000191660001916815260200190815260200160002060070160009054906101000a900460ff16151561247c57600080fd5b8473ffffffffffffffffffffffffffffffffffffffff16600073ffffffffffffffffffffffffffffffffffffffff16141515156124b857600080fd5b6001820390505b6000811015156125b6578473ffffffffffffffffffffffffffffffffffffffff166006600086600019166000191681526020019081526020016000208281548110151561250857fe5b906000526020600020906007020160010160009054906101000a900473ffffffffffffffffffffffffffffffffffffffff1673ffffffffffffffffffffffffffffffffffffffff16141561259a576006600085600019166000191681526020019081526020016000208181548110151561257e57fe5b90600052602060002090600702016005015442101592506125bb565b60008114156125a8576125b6565b8080600190039150506124bf565b600192505b505092915050565b60008073ffffffffffffffffffffffffffffffffffffffff168473ffffffffffffffffffffffffffffffffffffffff161415801561262e5750600073ffffffffffffffffffffffffffffffffffffffff168373ffffffffffffffffffffffffffffffffffffffff1614155b151561263957600080fd5b81600360009054906101000a900473ffffffffffffffffffffffffffffffffffffffff1673ffffffffffffffffffffffffffffffffffffffff1663dd62ed3e86306000604051602001526040518363ffffffff167c0100000000000000000000000000000000000000000000000000000000028152600401808373ffffffffffffffffffffffffffffffffffffffff1673ffffffffffffffffffffffffffffffffffffffff1681526020018273ffffffffffffffffffffffffffffffffffffffff1673ffffffffffffffffffffffffffffffffffffffff16815260200192505050602060405180830381600087803b151561273357600080fd5b6102c65a03f1151561274457600080fd5b505050604051805190501015151561275b57600080fd5b600360009054906101000a900473ffffffffffffffffffffffffffffffffffffffff1673ffffffffffffffffffffffffffffffffffffffff166323b872dd8585856000604051602001526040518463ffffffff167c0100000000000000000000000000000000000000000000000000000000028152600401808473ffffffffffffffffffffffffffffffffffffffff1673ffffffffffffffffffffffffffffffffffffffff1681526020018373ffffffffffffffffffffffffffffffffffffffff1673ffffffffffffffffffffffffffffffffffffffff1681526020018281526020019350505050602060405180830381600087803b151561285c57600080fd5b6102c65a03f1151561286d57600080fd5b50505060405180519050151561288257600080fd5b8273ffffffffffffffffffffffffffffffffffffffff168473ffffffffffffffffffffffffffffffffffffffff167f6f990e2a71bc9526905da97b737d1ccb2bf854118a41fee0eb7811bb22d3eea4846040518082815260200191505060405180910390a3600190509392505050565b600080828401905083811015151561290657fe5b8091505092915050565b60008090508160c0015115156129c25761292982612cc4565b156129ba576005600083600001516000191660001916815260200190815260200160002060050160009054906101000a900460ff16156129ae578160a00151600560008460000151600019166000191681526020019081526020016000206006015410151561299e57816060015190506129c6565b6129a782612cd5565b90506129c6565b816060015190506129c6565b8090506129c6565b8090505b919050565b60008260056000826000191660001916815260200190815260200160002060070160009054906101000a900460ff161515612a0557600080fd5b3373ffffffffffffffffffffffffffffffffffffffff1660056000836000191660001916815260200190815260200160002060000160009054906101000a900473ffffffffffffffffffffffffffffffffffffffff1673ffffffffffffffffffffffffffffffffffffffff16141515612a7d57600080fd5b600073ffffffffffffffffffffffffffffffffffffffff1660056000866000191660001916815260200190815260200160002060000160009054906101000a900473ffffffffffffffffffffffffffffffffffffffff1673ffffffffffffffffffffffffffffffffffffffff1614151515612af757600080fd5b600360009054906101000a900473ffffffffffffffffffffffffffffffffffffffff1673ffffffffffffffffffffffffffffffffffffffff1663a9059cbb60056000876000191660001916815260200190815260200160002060000160009054906101000a900473ffffffffffffffffffffffffffffffffffffffff16856000604051602001526040518363ffffffff167c0100000000000000000000000000000000000000000000000000000000028152600401808373ffffffffffffffffffffffffffffffffffffffff1673ffffffffffffffffffffffffffffffffffffffff16815260200182815260200192505050602060405180830381600087803b1515612c0257600080fd5b6102c65a03f11515612c1357600080fd5b505050604051805190501515612c2857600080fd5b836000191660056000866000191660001916815260200190815260200160002060000160009054906101000a900473ffffffffffffffffffffffffffffffffffffffff1673ffffffffffffffffffffffffffffffffffffffff167f4b4186a4b549df09e37908f0b17747e961a0ecd8d675b2993e5933811870991b856040518082815260200191505060405180910390a3600191505092915050565b6000428260a0015111159050919050565b60008060008084606001519250612d2d83612d1f8760800151600560008a600001516000191660001916815260200190815260200160002060060154612d6090919063ffffffff16565b612d7990919063ffffffff16565b9150612d4a85608001518660a00151612d6090919063ffffffff16565b9050612d568282612dac565b9350505050919050565b6000828211151515612d6e57fe5b818303905092915050565b60008082840290506000841480612d9a5750828482811515612d9757fe5b04145b1515612da257fe5b8091505092915050565b6000808284811515612dba57fe5b0490508091505092915050565b815481835581811511612df457600702816007028360005260206000209182019101612df39190612e0d565b5b505050565b602060405190810160405280600081525090565b612ebf91905b80821115612ebb576000808201600090556001820160006101000a81549073ffffffffffffffffffffffffffffffffffffffff02191690556002820160006101000a81549073ffffffffffffffffffffffffffffffffffffffff02191690556003820160009055600482016000905560058201600090556006820160006101000a81549060ff02191690556006820160016101000a81549060ff021916905550600701612e13565b5090565b905600a165627a7a7230582073b500356706859f7c10f53963aba855ffaacccdff59c837f051939fc2ef58020029",
  "source": "pragma solidity ^0.4.18;\n\n\n//import \"./IMarketplace.sol\";\nimport \"./zeppelin-solidity/SafeMath.sol\";\n\ncontract IERC20 {\n  function balanceOf(address who) public constant returns (uint256);\n  function transfer(address to, uint256 value) public returns (bool);\n  function allowance(address owner, address spender) public constant returns (uint256);\n  function transferFrom(address from, address to, uint256 value) public returns (bool);\n  function approve(address spender, uint256 value) public returns (bool);\n  function getTest() public view returns (address);\n  event Transfer(address indexed from, address indexed to, uint256 value);\n  event Approval(address indexed owner, address indexed spender, uint256 value);\n}\n\n\ncontract Marketplace{ //is IMarketplace{\n\n\tusing SafeMath for uint256;\n\tusing SafeMath for uint;\n\n\t/*Data structures */\n\n\tstruct Order{\n        bytes32 dataSourceName;\n        address subscriber;\n        address provider;\n        uint price;\n        uint startTime;\n        uint endTime;\n        bool isPaid;\n        bool isOrder;\n    }\n    struct Provider{\n        address owner;\n        uint volume;\n        uint subscriptionsNum;\n        bytes32 name;\n        uint price;\n        bool isPunished;\n        uint punishTimeStamp;\n        bool isProvider;\n        bool isActive;\n        bytes32 nextProvider;\n    }\n\n    // pointer to linked listen \n    bytes32 mBegin; \n    bytes32 mCurrent;\n    uint mProvidersSize;\n\t// Enigma Token\n\tIERC20 public mToken;\n\t// Fixed time defined (unixTimeStamp)\n\tuint public constant FIXED_SUBSCRIPTION_PERIOD = 30 days;\n\t// the Contract deployer\n\taddress mMarketPlaceOwner;\n    // all providers\n    mapping(bytes32=>Provider) mProviders;\n    mapping(bytes32=>Order[]) mOrders;\n\n\tfunction Marketplace(address _tokenAddress) public {\n\t\trequire(_tokenAddress != address(0));\n\t\tmToken = IERC20(_tokenAddress);\n\t\tmMarketPlaceOwner = msg.sender;\n        mProviders[0x0].nextProvider = \"\";\n        mProviders[0x0].name = 0x0;\n        mCurrent = mProviders[0x0].name;\n        mBegin = mProviders[0x0].name;\n        mProvidersSize = 1;\n\t}\n    function setPunishProvider(bytes32 _dataSourceName, bool _isPunished) \n    public \n    onlyOwner \n    returns (bool success){\n        require(mProviders[_dataSourceName].isProvider);\n        mProviders[_dataSourceName].isPunished = _isPunished;\n        ProviderPunishStatus(mProviders[_dataSourceName].owner,_dataSourceName,_isPunished);\n        success = true;\n    }\n    // mock temp func\n    function mockPayableProvider(bytes32 _dataSourceName, uint _price, address _dataOwner, bool isPunished)\n    public returns(bool){\n        // add mock provider \n        mProviders[_dataSourceName].owner = _dataOwner;\n        mProviders[_dataSourceName].volume = 0;\n        mProviders[_dataSourceName].subscriptionsNum = 0;\n        mProviders[_dataSourceName].name = _dataSourceName;\n        mProviders[_dataSourceName].price = _price;\n        mProviders[_dataSourceName].isPunished = isPunished;\n        mProviders[_dataSourceName].punishTimeStamp = now/2 - FIXED_SUBSCRIPTION_PERIOD/2;\n        mProviders[_dataSourceName].isProvider = true;\n        mProviders[_dataSourceName].isActive = true;\n        mProviders[_dataSourceName].nextProvider = \"\";\n        mProviders[mCurrent].nextProvider = _dataSourceName;\n        mCurrent = mProviders[_dataSourceName].name;\n        mProvidersSize = mProvidersSize.add(1);\n        // add order \n            mOrders[_dataSourceName].push(Order({\n            dataSourceName : _dataSourceName,\n            subscriber : msg.sender,\n            provider : mProviders[_dataSourceName].owner,\n            price : mProviders[_dataSourceName].price,\n            startTime : now/2 - FIXED_SUBSCRIPTION_PERIOD,\n            endTime : now/2,\n            isPaid : false,\n            isOrder : true\n            }));\n        // update provider data \n        mProviders[_dataSourceName].volume = mProviders[_dataSourceName].volume.add(mProviders[_dataSourceName].price);\n        mProviders[_dataSourceName].subscriptionsNum = mProviders[_dataSourceName].subscriptionsNum.add(1);\n        return true;\n    }\n    function updateDataSourcePrice(bytes32 _dataSourceName, uint256 _newPrice) \n    external \n    onlyDataProvider(_dataSourceName)\n    validPrice(_newPrice)\n    returns (bool success){\n        mProviders[_dataSourceName].price = _newPrice;\n        PriceUpdate(msg.sender, _dataSourceName,_newPrice);\n        success = true;\n    }\n    function changeDataSourceActivityStatus(bytes32 _dataSourceName,bool _isActive) \n    external \n    onlyDataProvider(_dataSourceName) \n    returns (bool success){\n        mProviders[_dataSourceName].isActive = _isActive;\n        ActivityUpdate(msg.sender, _dataSourceName, _isActive);\n        success = true;\n    }\n\n    function withdrawProvider(bytes32 _dataSourceName) \n    public \n    onlyDataProvider(_dataSourceName) \n    returns (bool success){\n        // calculate the withdraw amount \n        uint256 withdrawAmount = 0;\n        uint orderSize = mOrders[_dataSourceName].length;\n        for(uint i=0;i<orderSize;i++){\n            uint256 withdraw = handleOrderWithdrawCalc(mOrders[_dataSourceName][i]);\n            if(withdraw > 0){ // mark order as paid \n                mOrders[_dataSourceName][i].isPaid = true;\n            }\n            withdrawAmount = withdrawAmount.add(withdraw); \n        }\n        // transfer ENG's to the provider\n        require(safeToProviderTransfer(_dataSourceName,withdrawAmount)); // revert state if faild\n        ProviderWithdraw(mProviders[_dataSourceName].owner,_dataSourceName,withdrawAmount);\n        return true;\n    }\n    function getWithdrawAmount(bytes32 _dataSourceName) \n    public \n    view \n    returns(uint256 withdrawAmount){\n        require(mProviders[_dataSourceName].isProvider);\n        withdrawAmount = 0;\n        uint orderSize = mOrders[_dataSourceName].length;\n        for(uint i=0;i<orderSize;i++){\n            withdrawAmount = withdrawAmount.add(handleOrderWithdrawCalc(mOrders[_dataSourceName][i])); \n        }\n        return withdrawAmount;\n    }\n    function handleOrderWithdrawCalc(Order order) internal view returns(uint256 orderAmount){\n        orderAmount = 0;\n        if(!order.isPaid){ // if not paid yet \n            if(isOrderExpired(order)){ // expired\n                if(mProviders[order.dataSourceName].isPunished){ // if punished\n                    if(mProviders[order.dataSourceName].punishTimeStamp >= order.endTime){ // punished after expiration date\n                        return order.price;\n                    }else{ // punished before expiration date\n                        return calcRelativeWithdraw(order); //(punishtime / endtime) * amount\n                    }\n                }else{ // not punished - return full amount\n                    return order.price;\n                }\n            }else{ // not expired\n                return orderAmount;\n            }\n        }\n        return orderAmount;\n    }\n    function calcRelativeWithdraw(Order order) internal view returns(uint256 relativeAmount){\n         // (punishTime- startTime) * PRICE / (endTime - startTime);\n        uint256 price = order.price;\n        uint256 a = (mProviders[order.dataSourceName].punishTimeStamp.sub(order.startTime)).mul(price);\n        uint256 b = order.endTime.sub(order.startTime);\n        return SafeMath.div(a,b);\n    }\n    function isOrderExpired(Order order) internal view returns (bool isExpired){\n        return order.endTime <= now;\n    }\n    function register(bytes32 _dataSourceName, uint _price, address _dataOwner) \n    public\n    uniqueDataName(_dataSourceName)\n    validPrice(_price)\n    returns (bool){\n        require(_dataOwner != address(0));\n        mProviders[_dataSourceName].owner = _dataOwner;\n        mProviders[_dataSourceName].volume = 0;\n        mProviders[_dataSourceName].subscriptionsNum = 0;\n        mProviders[_dataSourceName].name = _dataSourceName;\n        mProviders[_dataSourceName].price = _price;\n        mProviders[_dataSourceName].isPunished = false;\n        mProviders[_dataSourceName].punishTimeStamp = 0;\n        mProviders[_dataSourceName].isProvider = true;\n        mProviders[_dataSourceName].isActive = true;\n        mProviders[_dataSourceName].nextProvider = \"\";\n        mProviders[mCurrent].nextProvider = _dataSourceName;\n        mCurrent = mProviders[_dataSourceName].name;\n        mProvidersSize = mProvidersSize.add(1);\n        Registered(_dataOwner,_dataSourceName,_price,true);\n        return true;\n    }\n\n    function subscribe(bytes32 _dataSourceName) \n    public \n    validDataProvider(_dataSourceName)\n    returns (bool){\n        require(safeToMarketPlaceTransfer(msg.sender,this,mProviders[_dataSourceName].price)); // revet state if failed\n        // update order\n        mOrders[_dataSourceName].push(Order({\n            dataSourceName : _dataSourceName,\n            subscriber : msg.sender,\n            provider : mProviders[_dataSourceName].owner,\n            price : mProviders[_dataSourceName].price,\n            startTime : now,\n            endTime : now + FIXED_SUBSCRIPTION_PERIOD,\n            isPaid : false,\n            isOrder : true\n            }));\n        // update provider data \n        mProviders[_dataSourceName].volume = mProviders[_dataSourceName].volume.add(mProviders[_dataSourceName].price);\n        mProviders[_dataSourceName].subscriptionsNum = mProviders[_dataSourceName].subscriptionsNum.add(1);\n        Subscribed(msg.sender,\n            _dataSourceName,\n            mProviders[_dataSourceName].owner,\n            mProviders[_dataSourceName].price,\n            true);\n        return true;\n    }\n\n    function checkAddressSubscription(address _subscriber, bytes32 _dataSourceName) \n    public \n    view \n    returns (address subscriber,\n        bytes32 dataSourceName,\n        uint price,\n        uint startTime,\n        uint endTime,\n        bool isExpired,\n        bool isPaid, \n        bool isPunishedProvider,\n        bool isOrder){\n        uint256 size = mOrders[_dataSourceName].length;\n        require(size>0);\n        require(address(0) != _subscriber);\n        require(mProviders[_dataSourceName].isProvider);\n        for(uint i=size-1;i>=0;i--){\n            if(mOrders[_dataSourceName][i].subscriber == _subscriber){\n                subscriber = mOrders[_dataSourceName][i].subscriber;\n                price = mOrders[_dataSourceName][i].price;\n                startTime = mOrders[_dataSourceName][i].startTime;\n                endTime = mOrders[_dataSourceName][i].endTime;\n                isExpired = isExpiredSubscription(subscriber,_dataSourceName);\n                isPaid = mOrders[_dataSourceName][i].isPaid;\n                isPunishedProvider = mProviders[_dataSourceName].isPunished;\n                isOrder = mOrders[_dataSourceName][i].isOrder;\n                i = 0;\n                break;\n            }\n            if( i==0 ){\n                break;\n            }\n        }\n        return (subscriber,_dataSourceName,price,startTime,endTime,isExpired,isPaid,isPunishedProvider,isOrder);\n    }\n    // when a subscriber registers they move tokens to the contract\n    function safeToMarketPlaceTransfer(address _from, address _to, uint256 _amount) internal returns (bool){\n         require( _from != address(0) && _to != address(0));\n         require(mToken.allowance(_from,address(this)) >= _amount);\n         require(mToken.transferFrom(_from,_to,_amount));\n         SubscriptionDeposited(_from, _to, _amount);\n         return true;\n    }\n    function safeToProviderTransfer(bytes32 _dataSourceName,uint256 _amount) \n    internal \n    onlyDataProvider(_dataSourceName) \n    returns (bool){\n         require(mProviders[_dataSourceName].owner != address(0));\n         require(mToken.transfer(mProviders[_dataSourceName].owner,_amount));\n         TransferToProvider(mProviders[_dataSourceName].owner,_dataSourceName,_amount);\n         return true;\n     }\n    function getAllProviders() public view returns (bytes32[]){\n        bytes32[] memory names = new bytes32[](mProvidersSize);\n        bytes32 iterator = mBegin;\n        for(uint i=0; i< mProvidersSize; ++i){\n            names[i] = mProviders[iterator].name;\n            iterator = mProviders[iterator].nextProvider;\n        }\n        return names;\n    }\n    function isExpiredSubscription(address _subscriber, bytes32 _dataSourceName) \n    public\n    view \n    returns \n    (bool isExpired){\n        uint256 size = mOrders[_dataSourceName].length;\n        require(size>0);\n        require(mProviders[_dataSourceName].isProvider);\n        require(address(0) != _subscriber);\n        for(uint i=size-1;i>=0;i--){\n            if(mOrders[_dataSourceName][i].subscriber == _subscriber){\n                return now >= mOrders[_dataSourceName][i].endTime;\n            }\n            if( i==0 ){\n                break;\n            }\n        }\n        return true;\n    }\n    function getDataProviderInfo(bytes32 _dataSourceName) \n    public \n    view \n    returns(\n        address owner,\n        uint256 price,\n        uint256 volume,\n        uint256 subscriptionsNum,\n        bool isProvider,\n        bool isActive,\n        bool isPunished){\n        owner = mProviders[_dataSourceName].owner;\n        price = mProviders[_dataSourceName].price;\n        volume = mProviders[_dataSourceName].volume;\n        subscriptionsNum = mProviders[_dataSourceName].subscriptionsNum;\n        isProvider = mProviders[_dataSourceName].isProvider;\n        isActive = mProviders[_dataSourceName].isActive;\n        isPunished = mProviders[_dataSourceName].isPunished;\n    }\n    function getMarketplaceTotalBalance() public view returns (uint256 totalBalance){\n        return mToken.balanceOf(this);\n    }\n    function isActiveDataSource(bytes32 _dataSourceName) external view returns (bool isActive){\n        isActive =  mProviders[_dataSourceName].isActive;\n    }\n    /* modifiers */\n    modifier validDataProvider(bytes32 _dataSourceName){\n        require(mProviders[_dataSourceName].isProvider);\n        require(mProviders[_dataSourceName].isActive);\n        require(!mProviders[_dataSourceName].isPunished);  \n        _;      \n    }\n    modifier uniqueDataName(bytes32 _dataSourceName) {\n        require(!mProviders[_dataSourceName].isProvider);\n        _;\n    }\n    modifier validPrice (uint256 _price){\n        require(_price.add(1) > _price); //overflow\n        _;\n    }\n    modifier onlyOwner(){\n        require(msg.sender == mMarketPlaceOwner);\n        _;\n    }\n    modifier onlyDataProvider(bytes32 _dataSourceName){\n        require(mProviders[_dataSourceName].isProvider);\n        require(mProviders[_dataSourceName].owner == msg.sender);\n        _;\n    }\n    /* events - move to the interface later */\n    event Registered(address indexed dataOwner, bytes32 indexed dataSourceName, uint price, bool success);\n\tevent SubscriptionDeposited(address indexed from, address indexed to, uint256 value);\n\tevent Subscribed(address indexed subscriber,bytes32 indexed dataSourceName, address indexed dataOwner, uint price, bool success);\n\tevent PriceUpdate(address indexed editor, bytes32 indexed dataSourceName, uint256 newPrice);\n\tevent ActivityUpdate(address indexed editor, bytes32 indexed dataSourceName, bool newStatus);\n\t// new events \n\t// middle withdraw event -> means the provider got paid  \n\tevent TransferToProvider(address indexed dataOwner, bytes32 indexed dataSourceName, uint256 amount);\n\t// provider finished withdraw process and data update\n\tevent ProviderWithdraw(address indexed dataOwner, bytes32 indexed dataSourceName, uint amount);\n    // provider punished status changed - only marketplace owner\n    event ProviderPunishStatus(address indexed dataOwner, bytes32 indexed dataSourceName, bool isPunished);\n}",
  "sourcePath": "/home/wilder/Desktop/Enigma/DataMarketProject/marketPlace_WS/smart_contract_marketplace/contracts/Marketplace.sol",
  "compiler": {
    "name": "solc",
    "version": "0.4.18+commit.9cf6e910.Emscripten.clang"
  },
  "schemaVersion": "1.0.1",
  "updatedAt": "2018-01-31T13:16:02.197Z"
}