{
  "contractName": "Marketplace",
  "abi": [
    {
      "constant": true,
      "inputs": [
        {
          "name": "_dataSourceName",
          "type": "bytes32"
        }
      ],
      "name": "isActiveDataSource",
      "outputs": [
        {
          "name": "isActive",
          "type": "bool"
        }
      ],
      "payable": false,
      "stateMutability": "view",
      "type": "function"
    },
    {
      "constant": true,
      "inputs": [],
      "name": "FIXED_SUBSCRIPTION_PERIOD",
      "outputs": [
        {
          "name": "",
          "type": "uint256"
        }
      ],
      "payable": false,
      "stateMutability": "view",
      "type": "function"
    },
    {
      "constant": false,
      "inputs": [
        {
          "name": "_dataSourceName",
          "type": "bytes32"
        },
        {
          "name": "_isPunished",
          "type": "bool"
        }
      ],
      "name": "setPunishProvider",
      "outputs": [
        {
          "name": "success",
          "type": "bool"
        }
      ],
      "payable": false,
      "stateMutability": "nonpayable",
      "type": "function"
    },
    {
      "constant": true,
      "inputs": [
        {
          "name": "_dataSourceName",
          "type": "bytes32"
        }
      ],
      "name": "getDataProviderInfo",
      "outputs": [
        {
          "name": "owner",
          "type": "address"
        },
        {
          "name": "price",
          "type": "uint256"
        },
        {
          "name": "volume",
          "type": "uint256"
        },
        {
          "name": "subscriptionsNum",
          "type": "uint256"
        },
        {
          "name": "isProvider",
          "type": "bool"
        },
        {
          "name": "isActive",
          "type": "bool"
        },
        {
          "name": "isPunished",
          "type": "bool"
        }
      ],
      "payable": false,
      "stateMutability": "view",
      "type": "function"
    },
    {
      "constant": false,
      "inputs": [
        {
          "name": "_dataSourceName",
          "type": "bytes32"
        }
      ],
      "name": "subscribe",
      "outputs": [
        {
          "name": "success",
          "type": "bool"
        }
      ],
      "payable": false,
      "stateMutability": "nonpayable",
      "type": "function"
    },
    {
      "constant": false,
      "inputs": [
        {
          "name": "_dataSourceName",
          "type": "bytes32"
        },
        {
          "name": "_newPrice",
          "type": "uint256"
        }
      ],
      "name": "updateDataSourcePrice",
      "outputs": [
        {
          "name": "success",
          "type": "bool"
        }
      ],
      "payable": false,
      "stateMutability": "nonpayable",
      "type": "function"
    },
    {
      "constant": false,
      "inputs": [
        {
          "name": "_dataSourceName",
          "type": "bytes32"
        }
      ],
      "name": "withdrawProvider",
      "outputs": [
        {
          "name": "success",
          "type": "bool"
        }
      ],
      "payable": false,
      "stateMutability": "nonpayable",
      "type": "function"
    },
    {
      "constant": true,
      "inputs": [],
      "name": "getAllProviders",
      "outputs": [
        {
          "name": "",
          "type": "bytes32[]"
        }
      ],
      "payable": false,
      "stateMutability": "view",
      "type": "function"
    },
    {
      "constant": true,
      "inputs": [],
      "name": "getMarketplaceTotalBalance",
      "outputs": [
        {
          "name": "totalBalance",
          "type": "uint256"
        }
      ],
      "payable": false,
      "stateMutability": "view",
      "type": "function"
    },
    {
      "constant": false,
      "inputs": [
        {
          "name": "_dataSourceName",
          "type": "bytes32"
        }
      ],
      "name": "refundSubscriber",
      "outputs": [
        {
          "name": "success",
          "type": "bool"
        }
      ],
      "payable": false,
      "stateMutability": "nonpayable",
      "type": "function"
    },
    {
      "constant": false,
      "inputs": [
        {
          "name": "_dataSourceName",
          "type": "bytes32"
        },
        {
          "name": "_price",
          "type": "uint256"
        },
        {
          "name": "_dataOwner",
          "type": "address"
        }
      ],
      "name": "register",
      "outputs": [
        {
          "name": "success",
          "type": "bool"
        }
      ],
      "payable": false,
      "stateMutability": "nonpayable",
      "type": "function"
    },
    {
      "constant": true,
      "inputs": [
        {
          "name": "_dataSourceName",
          "type": "bytes32"
        }
      ],
      "name": "getWithdrawAmount",
      "outputs": [
        {
          "name": "withdrawAmount",
          "type": "uint256"
        }
      ],
      "payable": false,
      "stateMutability": "view",
      "type": "function"
    },
    {
      "constant": true,
      "inputs": [
        {
          "name": "_subscriber",
          "type": "address"
        },
        {
          "name": "_dataSourceName",
          "type": "bytes32"
        }
      ],
      "name": "checkAddressSubscription",
      "outputs": [
        {
          "name": "subscriber",
          "type": "address"
        },
        {
          "name": "dataSourceName",
          "type": "bytes32"
        },
        {
          "name": "price",
          "type": "uint256"
        },
        {
          "name": "startTime",
          "type": "uint256"
        },
        {
          "name": "endTime",
          "type": "uint256"
        },
        {
          "name": "isExpired",
          "type": "bool"
        },
        {
          "name": "isPaid",
          "type": "bool"
        },
        {
          "name": "isPunishedProvider",
          "type": "bool"
        },
        {
          "name": "isOrder",
          "type": "bool"
        }
      ],
      "payable": false,
      "stateMutability": "view",
      "type": "function"
    },
    {
      "constant": false,
      "inputs": [
        {
          "name": "_dataSourceName",
          "type": "bytes32"
        },
        {
          "name": "_isActive",
          "type": "bool"
        }
      ],
      "name": "changeDataSourceActivityStatus",
      "outputs": [
        {
          "name": "success",
          "type": "bool"
        }
      ],
      "payable": false,
      "stateMutability": "nonpayable",
      "type": "function"
    },
    {
      "constant": false,
      "inputs": [
        {
          "name": "_dataSourceName",
          "type": "bytes32"
        },
        {
          "name": "_price",
          "type": "uint256"
        },
        {
          "name": "_dataOwner",
          "type": "address"
        },
        {
          "name": "isPunished",
          "type": "bool"
        }
      ],
      "name": "mockPayableProvider",
      "outputs": [
        {
          "name": "",
          "type": "bool"
        }
      ],
      "payable": false,
      "stateMutability": "nonpayable",
      "type": "function"
    },
    {
      "constant": true,
      "inputs": [
        {
          "name": "",
          "type": "bytes32"
        }
      ],
      "name": "mProviders",
      "outputs": [
        {
          "name": "owner",
          "type": "address"
        },
        {
          "name": "volume",
          "type": "uint256"
        },
        {
          "name": "subscriptionsNum",
          "type": "uint256"
        },
        {
          "name": "name",
          "type": "bytes32"
        },
        {
          "name": "price",
          "type": "uint256"
        },
        {
          "name": "isPunished",
          "type": "bool"
        },
        {
          "name": "punishTimeStamp",
          "type": "uint256"
        },
        {
          "name": "isProvider",
          "type": "bool"
        },
        {
          "name": "isActive",
          "type": "bool"
        },
        {
          "name": "nextProvider",
          "type": "bytes32"
        }
      ],
      "payable": false,
      "stateMutability": "view",
      "type": "function"
    },
    {
      "constant": true,
      "inputs": [
        {
          "name": "",
          "type": "bytes32"
        },
        {
          "name": "",
          "type": "uint256"
        }
      ],
      "name": "mOrders",
      "outputs": [
        {
          "name": "dataSourceName",
          "type": "bytes32"
        },
        {
          "name": "subscriber",
          "type": "address"
        },
        {
          "name": "provider",
          "type": "address"
        },
        {
          "name": "price",
          "type": "uint256"
        },
        {
          "name": "startTime",
          "type": "uint256"
        },
        {
          "name": "endTime",
          "type": "uint256"
        },
        {
          "name": "isPaid",
          "type": "bool"
        },
        {
          "name": "isOrder",
          "type": "bool"
        }
      ],
      "payable": false,
      "stateMutability": "view",
      "type": "function"
    },
    {
      "constant": true,
      "inputs": [],
      "name": "mToken",
      "outputs": [
        {
          "name": "",
          "type": "address"
        }
      ],
      "payable": false,
      "stateMutability": "view",
      "type": "function"
    },
    {
      "constant": true,
      "inputs": [
        {
          "name": "_dataSourceName",
          "type": "bytes32"
        }
      ],
      "name": "getOwnerFromName",
      "outputs": [
        {
          "name": "owner",
          "type": "address"
        }
      ],
      "payable": false,
      "stateMutability": "view",
      "type": "function"
    },
    {
      "constant": true,
      "inputs": [
        {
          "name": "_subscriber",
          "type": "address"
        },
        {
          "name": "_dataSourceName",
          "type": "bytes32"
        }
      ],
      "name": "getRefundAmount",
      "outputs": [
        {
          "name": "refundAmount",
          "type": "uint256"
        }
      ],
      "payable": false,
      "stateMutability": "view",
      "type": "function"
    },
    {
      "constant": true,
      "inputs": [],
      "name": "mOwner",
      "outputs": [
        {
          "name": "",
          "type": "address"
        }
      ],
      "payable": false,
      "stateMutability": "view",
      "type": "function"
    },
    {
      "constant": true,
      "inputs": [],
      "name": "MARKETPLACE_VERSION",
      "outputs": [
        {
          "name": "",
          "type": "string"
        }
      ],
      "payable": false,
      "stateMutability": "view",
      "type": "function"
    },
    {
      "constant": true,
      "inputs": [
        {
          "name": "_subscriber",
          "type": "address"
        },
        {
          "name": "_dataSourceName",
          "type": "bytes32"
        }
      ],
      "name": "isExpiredSubscription",
      "outputs": [
        {
          "name": "isExpired",
          "type": "bool"
        }
      ],
      "payable": false,
      "stateMutability": "view",
      "type": "function"
    },
    {
      "constant": false,
      "inputs": [
        {
          "name": "_newOwner",
          "type": "address"
        }
      ],
      "name": "transferOwnership",
      "outputs": [],
      "payable": false,
      "stateMutability": "nonpayable",
      "type": "function"
    },
    {
      "inputs": [
        {
          "name": "_tokenAddress",
          "type": "address"
        }
      ],
      "payable": false,
      "stateMutability": "nonpayable",
      "type": "constructor"
    },
    {
      "anonymous": false,
      "inputs": [
        {
          "indexed": true,
          "name": "dataOwner",
          "type": "address"
        },
        {
          "indexed": true,
          "name": "dataSourceName",
          "type": "bytes32"
        },
        {
          "indexed": false,
          "name": "price",
          "type": "uint256"
        },
        {
          "indexed": false,
          "name": "success",
          "type": "bool"
        }
      ],
      "name": "Registered",
      "type": "event"
    },
    {
      "anonymous": false,
      "inputs": [
        {
          "indexed": true,
          "name": "from",
          "type": "address"
        },
        {
          "indexed": true,
          "name": "to",
          "type": "address"
        },
        {
          "indexed": false,
          "name": "value",
          "type": "uint256"
        }
      ],
      "name": "SubscriptionDeposited",
      "type": "event"
    },
    {
      "anonymous": false,
      "inputs": [
        {
          "indexed": true,
          "name": "subscriber",
          "type": "address"
        },
        {
          "indexed": true,
          "name": "dataSourceName",
          "type": "bytes32"
        },
        {
          "indexed": true,
          "name": "dataOwner",
          "type": "address"
        },
        {
          "indexed": false,
          "name": "price",
          "type": "uint256"
        },
        {
          "indexed": false,
          "name": "success",
          "type": "bool"
        }
      ],
      "name": "Subscribed",
      "type": "event"
    },
    {
      "anonymous": false,
      "inputs": [
        {
          "indexed": true,
          "name": "editor",
          "type": "address"
        },
        {
          "indexed": true,
          "name": "dataSourceName",
          "type": "bytes32"
        },
        {
          "indexed": false,
          "name": "newPrice",
          "type": "uint256"
        }
      ],
      "name": "PriceUpdate",
      "type": "event"
    },
    {
      "anonymous": false,
      "inputs": [
        {
          "indexed": true,
          "name": "editor",
          "type": "address"
        },
        {
          "indexed": true,
          "name": "dataSourceName",
          "type": "bytes32"
        },
        {
          "indexed": false,
          "name": "newStatus",
          "type": "bool"
        }
      ],
      "name": "ActivityUpdate",
      "type": "event"
    },
    {
      "anonymous": false,
      "inputs": [
        {
          "indexed": true,
          "name": "dataOwner",
          "type": "address"
        },
        {
          "indexed": true,
          "name": "dataSourceName",
          "type": "bytes32"
        },
        {
          "indexed": false,
          "name": "amount",
          "type": "uint256"
        }
      ],
      "name": "TransferToProvider",
      "type": "event"
    },
    {
      "anonymous": false,
      "inputs": [
        {
          "indexed": true,
          "name": "dataOwner",
          "type": "address"
        },
        {
          "indexed": true,
          "name": "dataSourceName",
          "type": "bytes32"
        },
        {
          "indexed": false,
          "name": "amount",
          "type": "uint256"
        }
      ],
      "name": "ProviderWithdraw",
      "type": "event"
    },
    {
      "anonymous": false,
      "inputs": [
        {
          "indexed": true,
          "name": "dataOwner",
          "type": "address"
        },
        {
          "indexed": true,
          "name": "dataSourceName",
          "type": "bytes32"
        },
        {
          "indexed": false,
          "name": "isPunished",
          "type": "bool"
        }
      ],
      "name": "ProviderPunishStatus",
      "type": "event"
    },
    {
      "anonymous": false,
      "inputs": [
        {
          "indexed": true,
          "name": "subscriber",
          "type": "address"
        },
        {
          "indexed": true,
          "name": "dataSourceName",
          "type": "bytes32"
        },
        {
          "indexed": false,
          "name": "refundAmount",
          "type": "uint256"
        }
      ],
      "name": "SubscriberRefund",
      "type": "event"
    },
    {
      "anonymous": false,
      "inputs": [
        {
          "indexed": true,
          "name": "previousOwner",
          "type": "address"
        },
        {
          "indexed": true,
          "name": "newOwner",
          "type": "address"
        }
      ],
      "name": "OwnershipTransferred",
      "type": "event"
    }
  ],
  "bytecode": "0x6060604052341561000f57600080fd5b60405160208061403f83398101604052808051906020019091905050336000806101000a81548173ffffffffffffffffffffffffffffffffffffffff021916908373ffffffffffffffffffffffffffffffffffffffff160217905550600073ffffffffffffffffffffffffffffffffffffffff168173ffffffffffffffffffffffffffffffffffffffff16141515156100a757600080fd5b80600460006101000a81548173ffffffffffffffffffffffffffffffffffffffff021916908373ffffffffffffffffffffffffffffffffffffffff1602179055506000600560008060010260001916815260200190815260200160002060080181600019169055506000600102600560008060010260001916815260200190815260200160002060030181600019169055506005600080600102600019168152602001908152602001600020600301546002816000191690555060056000806001026000191681526020019081526020016000206003015460018160001916905550600160038190555050613e9e806101a16000396000f30060606040526004361061013e576000357c0100000000000000000000000000000000000000000000000000000000900463ffffffff1680630cf23b1f1461014357806326277bf2146101825780632f10aabb146101ab5780632f95949a146101f55780632faf44f614610292578063340b4ed4146102d15780633b8f5dbd146103195780633bb4497c14610358578063445f0095146103c257806345e3f796146103eb5780635164fab41461042a5780636210c254146104915780637b788613146104cc5780638d149e5c146105a2578063aaa0ca72146105ec578063b618c7561461065e578063c216d4a814610720578063c3b6f939146107fd578063c94d14ad14610852578063ca6a467b146108b9578063dcda4bf314610913578063e93818e414610968578063ea97bac1146109f6578063f2fde38b14610a54575b600080fd5b341561014e57600080fd5b610168600480803560001916906020019091905050610a8d565b604051808215151515815260200191505060405180910390f35b341561018d57600080fd5b610195610ac2565b6040518082815260200191505060405180910390f35b34156101b657600080fd5b6101db6004808035600019169060200190919080351515906020019091905050610ac9565b604051808215151515815260200191505060405180910390f35b341561020057600080fd5b61021a600480803560001916906020019091905050610c32565b604051808873ffffffffffffffffffffffffffffffffffffffff1673ffffffffffffffffffffffffffffffffffffffff16815260200187815260200186815260200185815260200184151515158152602001831515151581526020018215151515815260200197505050505050505060405180910390f35b341561029d57600080fd5b6102b7600480803560001916906020019091905050610d76565b604051808215151515815260200191505060405180910390f35b34156102dc57600080fd5b6102ff600480803560001916906020019091908035906020019091905050611208565b604051808215151515815260200191505060405180910390f35b341561032457600080fd5b61033e60048080356000191690602001909190505061135e565b604051808215151515815260200191505060405180910390f35b341561036357600080fd5b61036b6116dd565b6040518080602001828103825283818151815260200191508051906020019060200280838360005b838110156103ae578082015181840152602081019050610393565b505050509050019250505060405180910390f35b34156103cd57600080fd5b6103d56117a1565b6040518082815260200191505060405180910390f35b34156103f657600080fd5b610410600480803560001916906020019091905050611888565b604051808215151515815260200191505060405180910390f35b341561043557600080fd5b61047760048080356000191690602001909190803590602001909190803573ffffffffffffffffffffffffffffffffffffffff16906020019091905050611b7d565b604051808215151515815260200191505060405180910390f35b341561049c57600080fd5b6104b6600480803560001916906020019091905050611ed1565b6040518082815260200191505060405180910390f35b34156104d757600080fd5b610510600480803573ffffffffffffffffffffffffffffffffffffffff16906020019091908035600019169060200190919050506120c7565b604051808a73ffffffffffffffffffffffffffffffffffffffff1673ffffffffffffffffffffffffffffffffffffffff168152602001896000191660001916815260200188815260200187815260200186815260200185151515158152602001841515151581526020018315151515815260200182151515158152602001995050505050505050505060405180910390f35b34156105ad57600080fd5b6105d26004808035600019169060200190919080351515906020019091905050612444565b604051808215151515815260200191505060405180910390f35b34156105f757600080fd5b61064460048080356000191690602001909190803590602001909190803573ffffffffffffffffffffffffffffffffffffffff16906020019091908035151590602001909190505061258e565b604051808215151515815260200191505060405180910390f35b341561066957600080fd5b610683600480803560001916906020019091905050612af5565b604051808b73ffffffffffffffffffffffffffffffffffffffff1673ffffffffffffffffffffffffffffffffffffffff1681526020018a8152602001898152602001886000191660001916815260200187815260200186151515158152602001858152602001841515151581526020018315151515815260200182600019166000191681526020019a505050505050505050505060405180910390f35b341561072b57600080fd5b61074e600480803560001916906020019091908035906020019091905050612b90565b6040518089600019166000191681526020018873ffffffffffffffffffffffffffffffffffffffff1673ffffffffffffffffffffffffffffffffffffffff1681526020018773ffffffffffffffffffffffffffffffffffffffff1673ffffffffffffffffffffffffffffffffffffffff16815260200186815260200185815260200184815260200183151515158152602001821515151581526020019850505050505050505060405180910390f35b341561080857600080fd5b610810612c4e565b604051808273ffffffffffffffffffffffffffffffffffffffff1673ffffffffffffffffffffffffffffffffffffffff16815260200191505060405180910390f35b341561085d57600080fd5b610877600480803560001916906020019091905050612c74565b604051808273ffffffffffffffffffffffffffffffffffffffff1673ffffffffffffffffffffffffffffffffffffffff16815260200191505060405180910390f35b34156108c457600080fd5b6108fd600480803573ffffffffffffffffffffffffffffffffffffffff1690602001909190803560001916906020019091905050612cbc565b6040518082815260200191505060405180910390f35b341561091e57600080fd5b610926612f7c565b604051808273ffffffffffffffffffffffffffffffffffffffff1673ffffffffffffffffffffffffffffffffffffffff16815260200191505060405180910390f35b341561097357600080fd5b61097b612fa1565b6040518080602001828103825283818151815260200191508051906020019080838360005b838110156109bb5780820151818401526020810190506109a0565b50505050905090810190601f1680156109e85780820380516001836020036101000a031916815260200191505b509250505060405180910390f35b3415610a0157600080fd5b610a3a600480803573ffffffffffffffffffffffffffffffffffffffff1690602001909190803560001916906020019091905050612fda565b604051808215151515815260200191505060405180910390f35b3415610a5f57600080fd5b610a8b600480803573ffffffffffffffffffffffffffffffffffffffff1690602001909190505061318d565b005b600060056000836000191660001916815260200190815260200160002060070160019054906101000a900460ff169050919050565b62278d0081565b60008060009054906101000a900473ffffffffffffffffffffffffffffffffffffffff1673ffffffffffffffffffffffffffffffffffffffff163373ffffffffffffffffffffffffffffffffffffffff16141515610b2657600080fd5b60056000846000191660001916815260200190815260200160002060070160009054906101000a900460ff161515610b5d57600080fd5b8160056000856000191660001916815260200190815260200160002060050160006101000a81548160ff021916908315150217905550826000191660056000856000191660001916815260200190815260200160002060000160009054906101000a900473ffffffffffffffffffffffffffffffffffffffff1673ffffffffffffffffffffffffffffffffffffffff167fb5dd3ecc8eaa1fb9460a4088b3872f93a68855f913c6bfc3f3c6c7ebf0f326b684604051808215151515815260200191505060405180910390a36001905092915050565b600080600080600080600060056000896000191660001916815260200190815260200160002060000160009054906101000a900473ffffffffffffffffffffffffffffffffffffffff16965060056000896000191660001916815260200190815260200160002060040154955060056000896000191660001916815260200190815260200160002060010154945060056000896000191660001916815260200190815260200160002060020154935060056000896000191660001916815260200190815260200160002060070160009054906101000a900460ff16925060056000896000191660001916815260200190815260200160002060070160019054906101000a900460ff16915060056000896000191660001916815260200190815260200160002060050160009054906101000a900460ff169050919395979092949650565b60008160056000826000191660001916815260200190815260200160002060070160009054906101000a900460ff161515610db057600080fd5b60056000826000191660001916815260200190815260200160002060070160019054906101000a900460ff161515610de757600080fd5b60056000826000191660001916815260200190815260200160002060050160009054906101000a900460ff16151515610e1f57600080fd5b610e483330600560008760001916600019168152602001908152602001600020600401546132e2565b1515610e5357600080fd5b6006600084600019166000191681526020019081526020016000208054806001018281610e809190613d77565b9160005260206000209060070201600061010060405190810160405280876000191681526020013373ffffffffffffffffffffffffffffffffffffffff16815260200160056000896000191660001916815260200190815260200160002060000160009054906101000a900473ffffffffffffffffffffffffffffffffffffffff1673ffffffffffffffffffffffffffffffffffffffff16815260200160056000896000191660001916815260200190815260200160002060040154815260200142815260200162278d00420181526020016000151581526020016001151581525090919091506000820151816000019060001916905560208201518160010160006101000a81548173ffffffffffffffffffffffffffffffffffffffff021916908373ffffffffffffffffffffffffffffffffffffffff16021790555060408201518160020160006101000a81548173ffffffffffffffffffffffffffffffffffffffff021916908373ffffffffffffffffffffffffffffffffffffffff160217905550606082015181600301556080820151816004015560a0820151816005015560c08201518160060160006101000a81548160ff02191690831515021790555060e08201518160060160016101000a81548160ff0219169083151502179055505050506110b5600560008560001916600019168152602001908152602001600020600401546005600086600019166000191681526020019081526020016000206001015461363590919063ffffffff16565b6005600085600019166000191681526020019081526020016000206001018190555061110960016005600086600019166000191681526020019081526020016000206002015461363590919063ffffffff16565b6005600085600019166000191681526020019081526020016000206002018190555060056000846000191660001916815260200190815260200160002060000160009054906101000a900473ffffffffffffffffffffffffffffffffffffffff1673ffffffffffffffffffffffffffffffffffffffff1683600019163373ffffffffffffffffffffffffffffffffffffffff167f7a3f54da83d294e3b226e50ae5a65e87cff0f43f8699003833a1ee6670c800e660056000886000191660001916815260200190815260200160002060040154600160405180838152602001821515151581526020019250505060405180910390a46001915050919050565b60008260056000826000191660001916815260200190815260200160002060070160009054906101000a900460ff16151561124257600080fd5b3373ffffffffffffffffffffffffffffffffffffffff1660056000836000191660001916815260200190815260200160002060000160009054906101000a900473ffffffffffffffffffffffffffffffffffffffff1673ffffffffffffffffffffffffffffffffffffffff161415156112ba57600080fd5b82806112d060018361363590919063ffffffff16565b1115156112dc57600080fd5b836005600087600019166000191681526020019081526020016000206004018190555084600019163373ffffffffffffffffffffffffffffffffffffffff167fd6d44e0931d3eff0a69c277b94480024f00d36b25216cf69d54965c1ecb7f4a3866040518082815260200191505060405180910390a360019250505092915050565b60008060008060008560056000826000191660001916815260200190815260200160002060070160009054906101000a900460ff16151561139e57600080fd5b3373ffffffffffffffffffffffffffffffffffffffff1660056000836000191660001916815260200190815260200160002060000160009054906101000a900473ffffffffffffffffffffffffffffffffffffffff1673ffffffffffffffffffffffffffffffffffffffff1614151561141657600080fd5b60009450600660008860001916600019168152602001908152602001600020805490509350600092505b83831015611629576115a56006600089600019166000191681526020019081526020016000208481548110151561147357fe5b906000526020600020906007020161010060405190810160405290816000820154600019166000191681526020016001820160009054906101000a900473ffffffffffffffffffffffffffffffffffffffff1673ffffffffffffffffffffffffffffffffffffffff1673ffffffffffffffffffffffffffffffffffffffff1681526020016002820160009054906101000a900473ffffffffffffffffffffffffffffffffffffffff1673ffffffffffffffffffffffffffffffffffffffff1673ffffffffffffffffffffffffffffffffffffffff1681526020016003820154815260200160048201548152602001600582015481526020016006820160009054906101000a900460ff161515151581526020016006820160019054906101000a900460ff161515151581525050613653565b91506000821115611603576001600660008960001916600019168152602001908152602001600020848154811015156115da57fe5b906000526020600020906007020160060160006101000a81548160ff0219169083151502179055505b611616828661363590919063ffffffff16565b9450600195508280600101935050611440565b611633878661370e565b151561163e57600080fd5b866000191660056000896000191660001916815260200190815260200160002060000160009054906101000a900473ffffffffffffffffffffffffffffffffffffffff1673ffffffffffffffffffffffffffffffffffffffff167fceb5682fafb74ca2d33476486c7dee53205f9c8aff48d68f47456a90abd536a8876040518082815260200191505060405180910390a3600195505050505050919050565b6116e5613da9565b6116ed613da9565b6000806003546040518059106117005750595b908082528060200260200182016040525092506001549150600090505b6003548110156117985760056000836000191660001916815260200190815260200160002060030154838281518110151561175457fe5b90602001906020020190600019169081600019168152505060056000836000191660001916815260200190815260200160002060080154915080600101905061171d565b82935050505090565b6000600460009054906101000a900473ffffffffffffffffffffffffffffffffffffffff1673ffffffffffffffffffffffffffffffffffffffff166370a08231306000604051602001526040518263ffffffff167c0100000000000000000000000000000000000000000000000000000000028152600401808273ffffffffffffffffffffffffffffffffffffffff1673ffffffffffffffffffffffffffffffffffffffff168152602001915050602060405180830381600087803b151561186857600080fd5b6102c65a03f1151561187957600080fd5b50505060405180519050905090565b600080600080600060056000876000191660001916815260200190815260200160002060070160009054906101000a900460ff1615156118c757600080fd5b60009350600660008760001916600019168152602001908152602001600020805490509250600091505b82821015611b08573373ffffffffffffffffffffffffffffffffffffffff166006600088600019166000191681526020019081526020016000208381548110151561193857fe5b906000526020600020906007020160010160009054906101000a900473ffffffffffffffffffffffffffffffffffffffff1673ffffffffffffffffffffffffffffffffffffffff161415611afb57611ae3600660008860001916600019168152602001908152602001600020838154811015156119b157fe5b906000526020600020906007020161010060405190810160405290816000820154600019166000191681526020016001820160009054906101000a900473ffffffffffffffffffffffffffffffffffffffff1673ffffffffffffffffffffffffffffffffffffffff1673ffffffffffffffffffffffffffffffffffffffff1681526020016002820160009054906101000a900473ffffffffffffffffffffffffffffffffffffffff1673ffffffffffffffffffffffffffffffffffffffff1673ffffffffffffffffffffffffffffffffffffffff1681526020016003820154815260200160048201548152602001600582015481526020016006820160009054906101000a900460ff161515151581526020016006820160019054906101000a900460ff161515151581525050613a39565b9050611af8818561363590919063ffffffff16565b93505b81806001019250506118f1565b611b123385613b09565b1515611b1d57600080fd5b85600019163373ffffffffffffffffffffffffffffffffffffffff167f794aa82b6db54e01dab1d1dfda90d863bf89a700f3fe0fc4f98bfd504f71bf5d866040518082815260200191505060405180910390a36001945050505050919050565b60008360056000826000191660001916815260200190815260200160002060070160009054906101000a900460ff16151515611bb857600080fd5b8380611bce60018361363590919063ffffffff16565b111515611bda57600080fd5b600073ffffffffffffffffffffffffffffffffffffffff168473ffffffffffffffffffffffffffffffffffffffff1614151515611c1657600080fd5b8360056000886000191660001916815260200190815260200160002060000160006101000a81548173ffffffffffffffffffffffffffffffffffffffff021916908373ffffffffffffffffffffffffffffffffffffffff1602179055506000600560008860001916600019168152602001908152602001600020600101819055506000600560008860001916600019168152602001908152602001600020600201819055508560056000886000191660001916815260200190815260200160002060030181600019169055508460056000886000191660001916815260200190815260200160002060040181905550600060056000886000191660001916815260200190815260200160002060050160006101000a81548160ff021916908315150217905550600060056000886000191660001916815260200190815260200160002060060181905550600160056000886000191660001916815260200190815260200160002060070160006101000a81548160ff021916908315150217905550600160056000886000191660001916815260200190815260200160002060070160016101000a81548160ff0219169083151502179055506000600560008860001916600019168152602001908152602001600020600801816000191690555085600560006002546000191660001916815260200190815260200160002060080181600019169055506005600087600019166000191681526020019081526020016000206003015460028160001916905550611e5e600160035461363590919063ffffffff16565b60038190555085600019168473ffffffffffffffffffffffffffffffffffffffff167f32362a6c8f018375704733c0f0c66d6e2d1d6a96d031af978ccc46aaf2d2547e87600160405180838152602001821515151581526020019250505060405180910390a36001925050509392505050565b600080600060056000856000191660001916815260200190815260200160002060070160009054906101000a900460ff161515611f0d57600080fd5b60009250600660008560001916600019168152602001908152602001600020805490509150600090505b818110156120bd576120ae61209f60066000876000191660001916815260200190815260200160002083815481101515611f6d57fe5b906000526020600020906007020161010060405190810160405290816000820154600019166000191681526020016001820160009054906101000a900473ffffffffffffffffffffffffffffffffffffffff1673ffffffffffffffffffffffffffffffffffffffff1673ffffffffffffffffffffffffffffffffffffffff1681526020016002820160009054906101000a900473ffffffffffffffffffffffffffffffffffffffff1673ffffffffffffffffffffffffffffffffffffffff1673ffffffffffffffffffffffffffffffffffffffff1681526020016003820154815260200160048201548152602001600582015481526020016006820160009054906101000a900460ff161515151581526020016006820160019054906101000a900460ff161515151581525050613653565b8461363590919063ffffffff16565b92508080600101915050611f37565b8292505050919050565b6000806000806000806000806000806000600660008d6000191660001916815260200190815260200160002080549050915060008211151561210857600080fd5b8c73ffffffffffffffffffffffffffffffffffffffff16600073ffffffffffffffffffffffffffffffffffffffff161415151561214457600080fd5b600560008d6000191660001916815260200190815260200160002060070160009054906101000a900460ff16151561217b57600080fd5b6001820390505b60008110151561241a578c73ffffffffffffffffffffffffffffffffffffffff16600660008e60001916600019168152602001908152602001600020828154811015156121cb57fe5b906000526020600020906007020160010160009054906101000a900473ffffffffffffffffffffffffffffffffffffffff1673ffffffffffffffffffffffffffffffffffffffff1614156123fe57600660008d600019166000191681526020019081526020016000208181548110151561224157fe5b906000526020600020906007020160010160009054906101000a900473ffffffffffffffffffffffffffffffffffffffff169a50600660008d600019166000191681526020019081526020016000208181548110151561229d57fe5b9060005260206000209060070201600301549850600660008d60001916600019168152602001908152602001600020818154811015156122d957fe5b9060005260206000209060070201600401549750600660008d600019166000191681526020019081526020016000208181548110151561231557fe5b90600052602060002090600702016005015496506123338b8d612fda565b9550600660008d600019166000191681526020019081526020016000208181548110151561235d57fe5b906000526020600020906007020160060160009054906101000a900460ff169450600560008d6000191660001916815260200190815260200160002060050160009054906101000a900460ff169350600660008d60001916600019168152602001908152602001600020818154811015156123d457fe5b906000526020600020906007020160060160019054906101000a900460ff1692506000905061241a565b600081141561240c5761241a565b808060019003915050612182565b8a8c8a8a8a8a8a8a8a9a509a509a509a509a509a509a509a509a5050509295985092959850929598565b60008260056000826000191660001916815260200190815260200160002060070160009054906101000a900460ff16151561247e57600080fd5b3373ffffffffffffffffffffffffffffffffffffffff1660056000836000191660001916815260200190815260200160002060000160009054906101000a900473ffffffffffffffffffffffffffffffffffffffff1673ffffffffffffffffffffffffffffffffffffffff161415156124f657600080fd5b8260056000866000191660001916815260200190815260200160002060070160016101000a81548160ff02191690831515021790555083600019163373ffffffffffffffffffffffffffffffffffffffff167feb7e8fd639953c98dc1baecd9f72cc41075f4cf712755141cbbdd572181680c485604051808215151515815260200191505060405180910390a3600191505092915050565b60008260056000876000191660001916815260200190815260200160002060000160006101000a81548173ffffffffffffffffffffffffffffffffffffffff021916908373ffffffffffffffffffffffffffffffffffffffff16021790555060006005600087600019166000191681526020019081526020016000206001018190555060006005600087600019166000191681526020019081526020016000206002018190555084600560008760001916600019168152602001908152602001600020600301816000191690555083600560008760001916600019168152602001908152602001600020600401819055508160056000876000191660001916815260200190815260200160002060050160006101000a81548160ff021916908315150217905550600262278d008115156126c457fe5b046002428115156126d157fe5b040360056000876000191660001916815260200190815260200160002060060181905550600160056000876000191660001916815260200190815260200160002060070160006101000a81548160ff021916908315150217905550600160056000876000191660001916815260200190815260200160002060070160016101000a81548160ff02191690831515021790555060006005600087600019166000191681526020019081526020016000206008018160001916905550846005600060025460001916600019168152602001908152602001600020600801816000191690555060056000866000191660001916815260200190815260200160002060030154600281600019169055506127f3600160035461363590919063ffffffff16565b60038190555060066000866000191660001916815260200190815260200160002080548060010182816128269190613d77565b9160005260206000209060070201600061010060405190810160405280896000191681526020013373ffffffffffffffffffffffffffffffffffffffff168152602001600560008b6000191660001916815260200190815260200160002060000160009054906101000a900473ffffffffffffffffffffffffffffffffffffffff1673ffffffffffffffffffffffffffffffffffffffff168152602001600560008b6000191660001916815260200190815260200160002060040154815260200162278d006002428115156128f757fe5b0403815260200160024281151561290a57fe5b0481526020016000151581526020016001151581525090919091506000820151816000019060001916905560208201518160010160006101000a81548173ffffffffffffffffffffffffffffffffffffffff021916908373ffffffffffffffffffffffffffffffffffffffff16021790555060408201518160020160006101000a81548173ffffffffffffffffffffffffffffffffffffffff021916908373ffffffffffffffffffffffffffffffffffffffff160217905550606082015181600301556080820151816004015560a0820151816005015560c08201518160060160006101000a81548160ff02191690831515021790555060e08201518160060160016101000a81548160ff021916908315150217905550505050612a73600560008760001916600019168152602001908152602001600020600401546005600088600019166000191681526020019081526020016000206001015461363590919063ffffffff16565b60056000876000191660001916815260200190815260200160002060010181905550612ac760016005600088600019166000191681526020019081526020016000206002015461363590919063ffffffff16565b6005600087600019166000191681526020019081526020016000206002018190555060019050949350505050565b60056020528060005260406000206000915090508060000160009054906101000a900473ffffffffffffffffffffffffffffffffffffffff16908060010154908060020154908060030154908060040154908060050160009054906101000a900460ff16908060060154908060070160009054906101000a900460ff16908060070160019054906101000a900460ff1690806008015490508a565b600660205281600052604060002081815481101515612bab57fe5b9060005260206000209060070201600091509150508060000154908060010160009054906101000a900473ffffffffffffffffffffffffffffffffffffffff16908060020160009054906101000a900473ffffffffffffffffffffffffffffffffffffffff16908060030154908060040154908060050154908060060160009054906101000a900460ff16908060060160019054906101000a900460ff16905088565b600460009054906101000a900473ffffffffffffffffffffffffffffffffffffffff1681565b600060056000836000191660001916815260200190815260200160002060000160009054906101000a900473ffffffffffffffffffffffffffffffffffffffff169050919050565b60008060008073ffffffffffffffffffffffffffffffffffffffff168573ffffffffffffffffffffffffffffffffffffffff1614151515612cfc57600080fd5b60056000856000191660001916815260200190815260200160002060070160009054906101000a900460ff161515612d3357600080fd5b60009250600660008560001916600019168152602001908152602001600020805490509150600090505b81811015612f71578473ffffffffffffffffffffffffffffffffffffffff1660066000866000191660001916815260200190815260200160002082815481101515612da457fe5b906000526020600020906007020160010160009054906101000a900473ffffffffffffffffffffffffffffffffffffffff1673ffffffffffffffffffffffffffffffffffffffff161415612f6457612f61612f5260066000876000191660001916815260200190815260200160002083815481101515612e2057fe5b906000526020600020906007020161010060405190810160405290816000820154600019166000191681526020016001820160009054906101000a900473ffffffffffffffffffffffffffffffffffffffff1673ffffffffffffffffffffffffffffffffffffffff1673ffffffffffffffffffffffffffffffffffffffff1681526020016002820160009054906101000a900473ffffffffffffffffffffffffffffffffffffffff1673ffffffffffffffffffffffffffffffffffffffff1673ffffffffffffffffffffffffffffffffffffffff1681526020016003820154815260200160048201548152602001600582015481526020016006820160009054906101000a900460ff161515151581526020016006820160019054906101000a900460ff161515151581525050613a39565b8461363590919063ffffffff16565b92505b8080600101915050612d5d565b829250505092915050565b6000809054906101000a900473ffffffffffffffffffffffffffffffffffffffff1681565b6040805190810160405280600181526020017f310000000000000000000000000000000000000000000000000000000000000081525081565b600080600060066000856000191660001916815260200190815260200160002080549050915060008211151561300f57600080fd5b60056000856000191660001916815260200190815260200160002060070160009054906101000a900460ff16151561304657600080fd5b8473ffffffffffffffffffffffffffffffffffffffff16600073ffffffffffffffffffffffffffffffffffffffff161415151561308257600080fd5b6001820390505b600081101515613180578473ffffffffffffffffffffffffffffffffffffffff16600660008660001916600019168152602001908152602001600020828154811015156130d257fe5b906000526020600020906007020160010160009054906101000a900473ffffffffffffffffffffffffffffffffffffffff1673ffffffffffffffffffffffffffffffffffffffff161415613164576006600085600019166000191681526020019081526020016000208181548110151561314857fe5b9060005260206000209060070201600501544210159250613185565b600081141561317257613180565b808060019003915050613089565b600192505b505092915050565b6000809054906101000a900473ffffffffffffffffffffffffffffffffffffffff1673ffffffffffffffffffffffffffffffffffffffff163373ffffffffffffffffffffffffffffffffffffffff161415156131e857600080fd5b600073ffffffffffffffffffffffffffffffffffffffff168173ffffffffffffffffffffffffffffffffffffffff161415151561322457600080fd5b8073ffffffffffffffffffffffffffffffffffffffff166000809054906101000a900473ffffffffffffffffffffffffffffffffffffffff1673ffffffffffffffffffffffffffffffffffffffff167f8be0079c531659141344cd1fd0a4f28419497f9722a3daafe3b4186f6b6457e060405160405180910390a3806000806101000a81548173ffffffffffffffffffffffffffffffffffffffff021916908373ffffffffffffffffffffffffffffffffffffffff16021790555050565b600081806132fa60018361363590919063ffffffff16565b11151561330657600080fd5b600073ffffffffffffffffffffffffffffffffffffffff168573ffffffffffffffffffffffffffffffffffffffff16141580156133705750600073ffffffffffffffffffffffffffffffffffffffff168473ffffffffffffffffffffffffffffffffffffffff1614155b151561337b57600080fd5b82600460009054906101000a900473ffffffffffffffffffffffffffffffffffffffff1673ffffffffffffffffffffffffffffffffffffffff1663dd62ed3e87306000604051602001526040518363ffffffff167c0100000000000000000000000000000000000000000000000000000000028152600401808373ffffffffffffffffffffffffffffffffffffffff1673ffffffffffffffffffffffffffffffffffffffff1681526020018273ffffffffffffffffffffffffffffffffffffffff1673ffffffffffffffffffffffffffffffffffffffff16815260200192505050602060405180830381600087803b151561347557600080fd5b6102c65a03f1151561348657600080fd5b505050604051805190501015151561349d57600080fd5b600460009054906101000a900473ffffffffffffffffffffffffffffffffffffffff1673ffffffffffffffffffffffffffffffffffffffff166323b872dd8686866000604051602001526040518463ffffffff167c0100000000000000000000000000000000000000000000000000000000028152600401808473ffffffffffffffffffffffffffffffffffffffff1673ffffffffffffffffffffffffffffffffffffffff1681526020018373ffffffffffffffffffffffffffffffffffffffff1673ffffffffffffffffffffffffffffffffffffffff1681526020018281526020019350505050602060405180830381600087803b151561359e57600080fd5b6102c65a03f115156135af57600080fd5b5050506040518051905015156135c457600080fd5b8373ffffffffffffffffffffffffffffffffffffffff168573ffffffffffffffffffffffffffffffffffffffff167f6f990e2a71bc9526905da97b737d1ccb2bf854118a41fee0eb7811bb22d3eea4856040518082815260200191505060405180910390a360019150509392505050565b600080828401905083811015151561364957fe5b8091505092915050565b60008090508160c0015115156137055761366c82613c74565b156136fd576005600083600001516000191660001916815260200190815260200160002060050160009054906101000a900460ff16156136f1578160a0015160056000846000015160001916600019168152602001908152602001600020600601541015156136e15781606001519050613709565b6136ea82613c85565b9050613709565b81606001519050613709565b809050613709565b8090505b919050565b6000818061372660018361363590919063ffffffff16565b11151561373257600080fd5b8360056000826000191660001916815260200190815260200160002060070160009054906101000a900460ff16151561376a57600080fd5b3373ffffffffffffffffffffffffffffffffffffffff1660056000836000191660001916815260200190815260200160002060000160009054906101000a900473ffffffffffffffffffffffffffffffffffffffff1673ffffffffffffffffffffffffffffffffffffffff161415156137e257600080fd5b6000841115156137f157600080fd5b600073ffffffffffffffffffffffffffffffffffffffff1660056000876000191660001916815260200190815260200160002060000160009054906101000a900473ffffffffffffffffffffffffffffffffffffffff1673ffffffffffffffffffffffffffffffffffffffff161415151561386b57600080fd5b600460009054906101000a900473ffffffffffffffffffffffffffffffffffffffff1673ffffffffffffffffffffffffffffffffffffffff1663a9059cbb60056000886000191660001916815260200190815260200160002060000160009054906101000a900473ffffffffffffffffffffffffffffffffffffffff16866000604051602001526040518363ffffffff167c0100000000000000000000000000000000000000000000000000000000028152600401808373ffffffffffffffffffffffffffffffffffffffff1673ffffffffffffffffffffffffffffffffffffffff16815260200182815260200192505050602060405180830381600087803b151561397657600080fd5b6102c65a03f1151561398757600080fd5b50505060405180519050151561399c57600080fd5b846000191660056000876000191660001916815260200190815260200160002060000160009054906101000a900473ffffffffffffffffffffffffffffffffffffffff1673ffffffffffffffffffffffffffffffffffffffff167f4b4186a4b549df09e37908f0b17747e961a0ecd8d675b2993e5933811870991b866040518082815260200191505060405180910390a360019250505092915050565b60008090508160c001511515613b01576005600083600001516000191660001916815260200190815260200160002060050160009054906101000a900460ff1615613b005781608001516005600084600001516000191660001916815260200190815260200160002060060154118015613ad857508160a001516005600084600001516000191660001916815260200190815260200160002060060154105b15613aff57613afc613ae983613c85565b8360600151613d1090919063ffffffff16565b90505b5b5b809050919050565b60008180613b2160018361363590919063ffffffff16565b111515613b2d57600080fd5b600083111515613b3c57600080fd5b3373ffffffffffffffffffffffffffffffffffffffff168473ffffffffffffffffffffffffffffffffffffffff16141515613b7657600080fd5b600460009054906101000a900473ffffffffffffffffffffffffffffffffffffffff1673ffffffffffffffffffffffffffffffffffffffff1663a9059cbb33856000604051602001526040518363ffffffff167c0100000000000000000000000000000000000000000000000000000000028152600401808373ffffffffffffffffffffffffffffffffffffffff1673ffffffffffffffffffffffffffffffffffffffff16815260200182815260200192505050602060405180830381600087803b1515613c4357600080fd5b6102c65a03f11515613c5457600080fd5b505050604051805190501515613c6957600080fd5b600191505092915050565b6000428260a0015111159050919050565b60008060008084606001519250613cdd83613ccf8760800151600560008a600001516000191660001916815260200190815260200160002060060154613d1090919063ffffffff16565b613d2990919063ffffffff16565b9150613cfa85608001518660a00151613d1090919063ffffffff16565b9050613d068282613d5c565b9350505050919050565b6000828211151515613d1e57fe5b818303905092915050565b60008082840290506000841480613d4a5750828482811515613d4757fe5b04145b1515613d5257fe5b8091505092915050565b6000808284811515613d6a57fe5b0490508091505092915050565b815481835581811511613da457600702816007028360005260206000209182019101613da39190613dbd565b5b505050565b602060405190810160405280600081525090565b613e6f91905b80821115613e6b576000808201600090556001820160006101000a81549073ffffffffffffffffffffffffffffffffffffffff02191690556002820160006101000a81549073ffffffffffffffffffffffffffffffffffffffff02191690556003820160009055600482016000905560058201600090556006820160006101000a81549060ff02191690556006820160016101000a81549060ff021916905550600701613dc3565b5090565b905600a165627a7a72305820f8d8256cf3617b877b938c832c68eef6d8432ce455ce7774418738f9381147640029",
  "source": "pragma solidity ^0.4.18;\n\n\nimport \"./IMarketplace.sol\";\nimport \"./zeppelin-solidity/SafeMath.sol\";\nimport \"./zeppelin-solidity/Ownable.sol\";\n\ncontract IERC20 {\n  function balanceOf(address who) public constant returns (uint256);\n  function transfer(address to, uint256 value) public returns (bool);\n  function allowance(address owner, address spender) public constant returns (uint256);\n  function transferFrom(address from, address to, uint256 value) public returns (bool);\n  function approve(address spender, uint256 value) public returns (bool);\n  event Transfer(address indexed from, address indexed to, uint256 value);\n  event Approval(address indexed owner, address indexed spender, uint256 value);\n}\n\n\ncontract Marketplace is Ownable,IMarketplace{\n\n\tusing SafeMath for uint256;\n\tusing SafeMath for uint;\n\n\t/*Data structures */\n\n\tstruct Order{\n        bytes32 dataSourceName;\n        address subscriber;\n        address provider;\n        uint price;\n        uint startTime;\n        uint endTime;\n        bool isPaid;\n        bool isOrder;\n    }\n    struct Provider{\n        address owner;\n        uint volume;\n        uint subscriptionsNum;\n        bytes32 name;\n        uint price;\n        bool isPunished;\n        uint punishTimeStamp;\n        bool isProvider;\n        bool isActive;\n        bytes32 nextProvider;\n    }\n    // pointers to linked list of Providers\n    bytes32 mBegin; \n    bytes32 mCurrent;\n    // number of providers\n    uint mProvidersSize;\n\t// Enigma Token\n\tIERC20 public mToken;\n\t// Fixed time defined (unixTimeStamp)\n\tuint public constant FIXED_SUBSCRIPTION_PERIOD = 30 days;\n    // version number \n    string public constant MARKETPLACE_VERSION = \"1\";\n    // all providers\n    mapping(bytes32=>Provider) public mProviders;\n    mapping(bytes32=>Order[]) public mOrders;\n\n\tfunction Marketplace(address _tokenAddress) public {\n\t\trequire(_tokenAddress != address(0));\n\t\tmToken = IERC20(_tokenAddress);\n        // initiate linked map \n        mProviders[0x0].nextProvider = \"\";\n        mProviders[0x0].name = 0x0;\n        mCurrent = mProviders[0x0].name;\n        mBegin = mProviders[0x0].name;\n        mProvidersSize = 1;\n\t}\n    function setPunishProvider(bytes32 _dataSourceName, bool _isPunished) \n    public \n    onlyOwner \n    returns (bool success){\n        require(mProviders[_dataSourceName].isProvider);\n        mProviders[_dataSourceName].isPunished = _isPunished;\n        ProviderPunishStatus(mProviders[_dataSourceName].owner,_dataSourceName,_isPunished);\n        success = true;\n    }\n    // mock temp func\n    function mockPayableProvider(bytes32 _dataSourceName, uint _price, address _dataOwner, bool isPunished)\n    public returns(bool){\n        // add mock provider \n        mProviders[_dataSourceName].owner = _dataOwner;\n        mProviders[_dataSourceName].volume = 0;\n        mProviders[_dataSourceName].subscriptionsNum = 0;\n        mProviders[_dataSourceName].name = _dataSourceName;\n        mProviders[_dataSourceName].price = _price;\n        mProviders[_dataSourceName].isPunished = isPunished;\n        mProviders[_dataSourceName].punishTimeStamp = now/2 - FIXED_SUBSCRIPTION_PERIOD/2;\n        mProviders[_dataSourceName].isProvider = true;\n        mProviders[_dataSourceName].isActive = true;\n        mProviders[_dataSourceName].nextProvider = \"\";\n        mProviders[mCurrent].nextProvider = _dataSourceName;\n        mCurrent = mProviders[_dataSourceName].name;\n        mProvidersSize = mProvidersSize.add(1);\n        // add order \n            mOrders[_dataSourceName].push(Order({\n            dataSourceName : _dataSourceName,\n            subscriber : msg.sender,\n            provider : mProviders[_dataSourceName].owner,\n            price : mProviders[_dataSourceName].price,\n            startTime : now/2 - FIXED_SUBSCRIPTION_PERIOD,\n            endTime : now/2,\n            isPaid : false,\n            isOrder : true\n            }));\n        // update provider data \n        mProviders[_dataSourceName].volume = mProviders[_dataSourceName].volume.add(mProviders[_dataSourceName].price);\n        mProviders[_dataSourceName].subscriptionsNum = mProviders[_dataSourceName].subscriptionsNum.add(1);\n        return true;\n    }\n    function updateDataSourcePrice(bytes32 _dataSourceName, uint256 _newPrice) \n    external \n    onlyDataProvider(_dataSourceName)\n    validPrice(_newPrice)\n    returns (bool success){\n        mProviders[_dataSourceName].price = _newPrice;\n        PriceUpdate(msg.sender, _dataSourceName,_newPrice);\n        success = true;\n    }\n    function changeDataSourceActivityStatus(bytes32 _dataSourceName,bool _isActive) \n    external \n    onlyDataProvider(_dataSourceName) \n    returns (bool success){\n        mProviders[_dataSourceName].isActive = _isActive;\n        ActivityUpdate(msg.sender, _dataSourceName, _isActive);\n        success = true;\n    }\n    function refundSubscriber(bytes32 _dataSourceName) \n    public \n    returns\n    (bool success){\n        require(mProviders[_dataSourceName].isProvider);\n        uint256 refundAmount = 0;\n        uint size = mOrders[_dataSourceName].length;\n        for(uint i=0; i<size ;i++){\n            if(mOrders[_dataSourceName][i].subscriber == msg.sender){\n                uint256 refund = handleOrderRefundCalc(mOrders[_dataSourceName][i]);\n                refundAmount = refundAmount.add(refund);\n            }\n        }\n        require(safeToSubscriberTransfer(msg.sender,refundAmount));\n        SubscriberRefund(msg.sender,_dataSourceName,refundAmount);\n        success = true;\n    }\n    function getRefundAmount(address _subscriber , bytes32 _dataSourceName) \n    public \n    view \n    returns(uint256 refundAmount){\n        require(_subscriber != address(0));\n        require(mProviders[_dataSourceName].isProvider);\n        refundAmount = 0;\n        uint size = mOrders[_dataSourceName].length;\n        for(uint i=0; i< size ; i++){\n            if(mOrders[_dataSourceName][i].subscriber == _subscriber){\n                refundAmount = refundAmount.add(handleOrderRefundCalc(mOrders[_dataSourceName][i]));\n            }\n        }\n        return refundAmount;\n    }\n\n    function withdrawProvider(bytes32 _dataSourceName) \n    public \n    onlyDataProvider(_dataSourceName) \n    returns (bool success){\n        // calculate the withdraw amount \n        uint256 withdrawAmount = 0;\n        uint orderSize = mOrders[_dataSourceName].length;\n        for(uint i=0;i<orderSize;i++){\n            uint256 withdraw = handleOrderWithdrawCalc(mOrders[_dataSourceName][i]);\n            if(withdraw > 0){ // mark order as paid \n                mOrders[_dataSourceName][i].isPaid = true;\n            }\n            withdrawAmount = withdrawAmount.add(withdraw); \n            success = true;\n        }\n        // transfer ENG's to the provider -revert state if faild\n        require(safeToProviderTransfer(_dataSourceName,withdrawAmount)); \n        ProviderWithdraw(mProviders[_dataSourceName].owner,_dataSourceName,withdrawAmount);\n        return true;\n    }\n    function getWithdrawAmount(bytes32 _dataSourceName) \n    public \n    view \n    returns(uint256 withdrawAmount){\n        require(mProviders[_dataSourceName].isProvider);\n        withdrawAmount = 0;\n        uint orderSize = mOrders[_dataSourceName].length;\n        for(uint i=0;i<orderSize;i++){\n            withdrawAmount = withdrawAmount.add(handleOrderWithdrawCalc(mOrders[_dataSourceName][i])); \n        }\n        return withdrawAmount;\n    }\n\n\n    function register(bytes32 _dataSourceName, uint256 _price, address _dataOwner) \n    public\n    uniqueDataName(_dataSourceName)\n    validPrice(_price)\n    returns (bool success){\n        require(_dataOwner != address(0));\n        mProviders[_dataSourceName].owner = _dataOwner;\n        mProviders[_dataSourceName].volume = 0;\n        mProviders[_dataSourceName].subscriptionsNum = 0;\n        mProviders[_dataSourceName].name = _dataSourceName;\n        mProviders[_dataSourceName].price = _price;\n        mProviders[_dataSourceName].isPunished = false;\n        mProviders[_dataSourceName].punishTimeStamp = 0;\n        mProviders[_dataSourceName].isProvider = true;\n        mProviders[_dataSourceName].isActive = true;\n        mProviders[_dataSourceName].nextProvider = \"\";\n        mProviders[mCurrent].nextProvider = _dataSourceName;\n        mCurrent = mProviders[_dataSourceName].name;\n        mProvidersSize = mProvidersSize.add(1);\n        Registered(_dataOwner,_dataSourceName,_price,true);\n        success =  true;\n    }\n\n    function subscribe(bytes32 _dataSourceName) \n    public \n    validDataProvider(_dataSourceName)\n    returns (bool success){\n        require(safeToMarketPlaceTransfer(msg.sender,this,mProviders[_dataSourceName].price)); // revet state if failed\n        // update order\n        mOrders[_dataSourceName].push(Order({\n            dataSourceName : _dataSourceName,\n            subscriber : msg.sender,\n            provider : mProviders[_dataSourceName].owner,\n            price : mProviders[_dataSourceName].price,\n            startTime : now,\n            endTime : now + FIXED_SUBSCRIPTION_PERIOD,\n            isPaid : false,\n            isOrder : true\n            }));\n        // update provider data \n        mProviders[_dataSourceName].volume = mProviders[_dataSourceName].volume.add(mProviders[_dataSourceName].price);\n        mProviders[_dataSourceName].subscriptionsNum = mProviders[_dataSourceName].subscriptionsNum.add(1);\n        Subscribed(msg.sender,\n            _dataSourceName,\n            mProviders[_dataSourceName].owner,\n            mProviders[_dataSourceName].price,\n            true);\n        success = true;\n    }\n\n    function checkAddressSubscription(address _subscriber, bytes32 _dataSourceName) \n    public \n    view \n    returns (address subscriber,\n        bytes32 dataSourceName,\n        uint price,\n        uint startTime,\n        uint endTime,\n        bool isExpired,\n        bool isPaid, \n        bool isPunishedProvider,\n        bool isOrder){\n        uint256 size = mOrders[_dataSourceName].length;\n        require(size>0);\n        require(address(0) != _subscriber);\n        require(mProviders[_dataSourceName].isProvider);\n        for(uint i=size-1;i>=0;i--){\n            if(mOrders[_dataSourceName][i].subscriber == _subscriber){\n                subscriber = mOrders[_dataSourceName][i].subscriber;\n                price = mOrders[_dataSourceName][i].price;\n                startTime = mOrders[_dataSourceName][i].startTime;\n                endTime = mOrders[_dataSourceName][i].endTime;\n                isExpired = isExpiredSubscription(subscriber,_dataSourceName);\n                isPaid = mOrders[_dataSourceName][i].isPaid;\n                isPunishedProvider = mProviders[_dataSourceName].isPunished;\n                isOrder = mOrders[_dataSourceName][i].isOrder;\n                i = 0;\n                break;\n            }\n            if( i==0 ){\n                break;\n            }\n        }\n        return (subscriber,_dataSourceName,price,startTime,endTime,isExpired,isPaid,isPunishedProvider,isOrder);\n    }\n\n    function getAllProviders() public view returns (bytes32[]){\n        bytes32[] memory names = new bytes32[](mProvidersSize);\n        bytes32 iterator = mBegin;\n        for(uint i=0; i< mProvidersSize; ++i){\n            names[i] = mProviders[iterator].name;\n            iterator = mProviders[iterator].nextProvider;\n        }\n        return names;\n    }\n    function isExpiredSubscription(address _subscriber, bytes32 _dataSourceName) \n    public\n    view \n    returns \n    (bool isExpired){\n        uint256 size = mOrders[_dataSourceName].length;\n        require(size>0);\n        require(mProviders[_dataSourceName].isProvider);\n        require(address(0) != _subscriber);\n        for(uint i=size-1;i>=0;i--){\n            if(mOrders[_dataSourceName][i].subscriber == _subscriber){\n                return now >= mOrders[_dataSourceName][i].endTime;\n            }\n            if( i==0 ){\n                break;\n            }\n        }\n        isExpired = true;\n    }\n    function getDataProviderInfo(bytes32 _dataSourceName) \n    public \n    view \n    returns(\n        address owner,\n        uint256 price,\n        uint256 volume,\n        uint256 subscriptionsNum,\n        bool isProvider,\n        bool isActive,\n        bool isPunished){\n        owner = mProviders[_dataSourceName].owner;\n        price = mProviders[_dataSourceName].price;\n        volume = mProviders[_dataSourceName].volume;\n        subscriptionsNum = mProviders[_dataSourceName].subscriptionsNum;\n        isProvider = mProviders[_dataSourceName].isProvider;\n        isActive = mProviders[_dataSourceName].isActive;\n        isPunished = mProviders[_dataSourceName].isPunished;\n    }\n    function getMarketplaceTotalBalance() public view returns (uint256 totalBalance){\n        return mToken.balanceOf(this);\n    }\n    function isActiveDataSource(bytes32 _dataSourceName) external view returns (bool isActive){\n        isActive =  mProviders[_dataSourceName].isActive;\n    }\n    function getOwnerFromName(bytes32 _dataSourceName) public view returns(address owner){\n        owner = mProviders[_dataSourceName].owner;\n    }\n    /*internal */\n    function handleOrderWithdrawCalc(Order order) internal view returns(uint256 orderAmount){\n        orderAmount = 0;\n        if(!order.isPaid){ // if not paid yet \n            if(isOrderExpired(order)){ // expired\n                if(mProviders[order.dataSourceName].isPunished){ // if punished\n                    if(mProviders[order.dataSourceName].punishTimeStamp >= order.endTime){ // punished after expiration date\n                        return order.price;\n                    }else{ // punished before expiration date\n                        return calcRelativeWithdraw(order); //(punishtime / endtime) * amount\n                    }\n                }else{ // not punished - return full amount\n                    return order.price;\n                }\n            }else{ // not expired\n                return orderAmount;\n            }\n        }\n        return orderAmount;\n    }\n    function handleOrderRefundCalc(Order order) internal returns(uint256 refundAmount){\n        refundAmount = 0;\n        if(!order.isPaid){ //order not paid \n            if(mProviders[order.dataSourceName].isPunished){\n                if(mProviders[order.dataSourceName].punishTimeStamp > order.startTime && mProviders[order.dataSourceName].punishTimeStamp < order.endTime){ // punished before the subscription is expired\n                   refundAmount = order.price.sub(calcRelativeWithdraw(order)); // price - withdrawPrice\n                }\n            }\n        }\n        return refundAmount;\n    }\n    function calcRelativeWithdraw(Order order) internal view returns(uint256 relativeAmount){\n         // (punishTime- startTime) * PRICE / (endTime - startTime);\n        uint256 price = order.price;\n        uint256 a = (mProviders[order.dataSourceName].punishTimeStamp.sub(order.startTime)).mul(price);\n        uint256 b = order.endTime.sub(order.startTime);\n        return SafeMath.div(a,b);\n    }\n    function isOrderExpired(Order order) internal view returns (bool isExpired){\n        return order.endTime <= now;\n    }\n    function safeToMarketPlaceTransfer(address _from, address _to, uint256 _amount) \n    internal\n    validPrice(_amount)\n    returns (bool){\n         require(_from != address(0) && _to != address(0));\n         require(mToken.allowance(_from,address(this)) >= _amount);\n         require(mToken.transferFrom(_from,_to,_amount));\n         SubscriptionDeposited(_from, _to, _amount);\n         return true;\n    }\n    function safeToProviderTransfer(bytes32 _dataSourceName,uint256 _amount) \n    internal \n    validPrice(_amount)\n    onlyDataProvider(_dataSourceName) \n    returns (bool){\n         require(_amount > 0);\n         require(mProviders[_dataSourceName].owner != address(0));\n         require(mToken.transfer(mProviders[_dataSourceName].owner,_amount));\n         TransferToProvider(mProviders[_dataSourceName].owner,_dataSourceName,_amount);\n         return true;\n     }\n    function safeToSubscriberTransfer(address _subscriber,uint256 _amount) \n    internal \n    validPrice(_amount)\n    returns (bool){\n        require(_amount > 0);\n        require(_subscriber == msg.sender);\n        require(mToken.transfer(msg.sender, _amount));\n        return true;\n    }\n    /* modifiers */\n    modifier validDataProvider(bytes32 _dataSourceName){\n        require(mProviders[_dataSourceName].isProvider);\n        require(mProviders[_dataSourceName].isActive);\n        require(!mProviders[_dataSourceName].isPunished);  \n        _;      \n    }\n    modifier uniqueDataName(bytes32 _dataSourceName) {\n        require(!mProviders[_dataSourceName].isProvider);\n        _;\n    }\n    modifier validPrice (uint256 _price){\n        require(_price.add(1) > _price); //overflow\n        _;\n    }\n    modifier onlyDataProvider(bytes32 _dataSourceName){\n        require(mProviders[_dataSourceName].isProvider);\n        require(mProviders[_dataSourceName].owner == msg.sender);\n        _;\n    }\n}",
  "sourcePath": "/home/wilder/Desktop/Enigma/DataMarketProject/marketPlace_WS/smart_contract_marketplace/contracts/Marketplace.sol",
  "compiler": {
    "name": "solc",
    "version": "0.4.18+commit.9cf6e910.Emscripten.clang"
  },
  "schemaVersion": "1.0.1",
  "updatedAt": "2018-01-31T18:48:09.880Z"
}