{
  "contractName": "MarketPlace",
  "abi": [
    {
      "constant": false,
      "inputs": [
        {
          "name": "pDataSourceName",
          "type": "bytes32"
        }
      ],
      "name": "subscribe",
      "outputs": [
        {
          "name": "",
          "type": "bool"
        }
      ],
      "payable": false,
      "stateMutability": "nonpayable",
      "type": "function"
    },
    {
      "constant": false,
      "inputs": [
        {
          "name": "pDataSourceName",
          "type": "bytes32"
        },
        {
          "name": "pPrice",
          "type": "uint256"
        },
        {
          "name": "pDataOwner",
          "type": "address"
        }
      ],
      "name": "register",
      "outputs": [
        {
          "name": "",
          "type": "bool"
        }
      ],
      "payable": false,
      "stateMutability": "nonpayable",
      "type": "function"
    },
    {
      "constant": true,
      "inputs": [],
      "name": "mToken",
      "outputs": [
        {
          "name": "",
          "type": "address"
        }
      ],
      "payable": false,
      "stateMutability": "view",
      "type": "function"
    },
    {
      "inputs": [
        {
          "name": "enigmaToken",
          "type": "address"
        }
      ],
      "payable": false,
      "stateMutability": "nonpayable",
      "type": "constructor"
    },
    {
      "anonymous": false,
      "inputs": [
        {
          "indexed": false,
          "name": "subscriber",
          "type": "address"
        },
        {
          "indexed": false,
          "name": "dataSourceName",
          "type": "bytes32"
        },
        {
          "indexed": false,
          "name": "dataOwner",
          "type": "address"
        },
        {
          "indexed": false,
          "name": "price",
          "type": "uint256"
        }
      ],
      "name": "Subscribed",
      "type": "event"
    },
    {
      "anonymous": false,
      "inputs": [
        {
          "indexed": false,
          "name": "dataOwner",
          "type": "address"
        },
        {
          "indexed": false,
          "name": "dataSourceName",
          "type": "bytes32"
        },
        {
          "indexed": false,
          "name": "price",
          "type": "uint256"
        }
      ],
      "name": "Registered",
      "type": "event"
    }
  ],
  "bytecode": "0x6060604052341561000f57600080fd5b60405160208061029f83398101604052808051906020019091905050806000806101000a81548173ffffffffffffffffffffffffffffffffffffffff021916908373ffffffffffffffffffffffffffffffffffffffff160217905550506102248061007b6000396000f300606060405260043610610057576000357c0100000000000000000000000000000000000000000000000000000000900463ffffffff1680632faf44f61461005c5780635164fab414610097578063c3b6f939146100fa575b600080fd5b341561006757600080fd5b610081600480803560001916906020019091905050610123565b60405161008e9190610176565b60405180910390f35b34156100a257600080fd5b6100e460048080356000191690602001909190803590602001909190803573ffffffffffffffffffffffffffffffffffffffff1690602001909190505061012a565b6040516100f19190610176565b60405180910390f35b341561010557600080fd5b61010d610133565b60405161011a9190610191565b60405180910390f35b6000919050565b60009392505050565b6000809054906101000a900473ffffffffffffffffffffffffffffffffffffffff1681565b610161816101cc565b82525050565b610170816101d8565b82525050565b600060208201905061018b6000830184610158565b92915050565b60006020820190506101a66000830184610167565b92915050565b600073ffffffffffffffffffffffffffffffffffffffff82169050919050565b60008115159050919050565b60006101e3826101ac565b90509190505600a265627a7a72305820e861a4d769cc6e32b47b5d17d12d56a4f7360fc3a1e75a5a69778899832350a16c6578706572696d656e74616cf50037",
  "source": "pragma solidity ^0.4.18;\npragma experimental ABIEncoderV2;\n\nimport \"./ERC20Interface.sol\";\nimport \"./MarketPlaceInterface.sol\";\n\ncontract MarketPlace is MarketPlaceInterface\n{\n\tERC20Interface public mToken;\n\n\tfunction MarketPlace(address enigmaToken) public \n\t{\n\t\tmToken = ERC20Interface(enigmaToken);\n\t}\n\tfunction subscribe(bytes32 pDataSourceName) public returns (bool)\n\t{\n\n\t}\n\tfunction register(bytes32 pDataSourceName, uint pPrice, address pDataOwner) public returns (bool)\n\t{\n\n\t}\n}",
  "sourcePath": "/home/wilder/Desktop/Enigma/DataMarketProject/marketPlace_WS/smart_contract_marketplace/contracts/MarketPlace.sol",
  "compiler": {
    "name": "solc",
    "version": "0.4.18+commit.9cf6e910.Emscripten.clang"
  },
  "schemaVersion": "1.0.1",
  "updatedAt": "2018-01-17T12:04:49.690Z"
}