{
  "contractName": "Marketplace",
  "abi": [
    {
      "constant": true,
      "inputs": [
        {
          "name": "_dataSourceName",
          "type": "bytes32"
        }
      ],
      "name": "isActiveDataSource",
      "outputs": [
        {
          "name": "isActive",
          "type": "bool"
        }
      ],
      "payable": false,
      "stateMutability": "view",
      "type": "function"
    },
    {
      "constant": true,
      "inputs": [],
      "name": "mBegin",
      "outputs": [
        {
          "name": "",
          "type": "bytes32"
        }
      ],
      "payable": false,
      "stateMutability": "view",
      "type": "function"
    },
    {
      "constant": true,
      "inputs": [],
      "name": "FIXED_SUBSCRIPTION_PERIOD",
      "outputs": [
        {
          "name": "",
          "type": "uint256"
        }
      ],
      "payable": false,
      "stateMutability": "view",
      "type": "function"
    },
    {
      "constant": false,
      "inputs": [
        {
          "name": "_dataSourceName",
          "type": "bytes32"
        },
        {
          "name": "_isPunished",
          "type": "bool"
        }
      ],
      "name": "setPunishProvider",
      "outputs": [
        {
          "name": "success",
          "type": "bool"
        }
      ],
      "payable": false,
      "stateMutability": "nonpayable",
      "type": "function"
    },
    {
      "constant": true,
      "inputs": [
        {
          "name": "_dataSourceName",
          "type": "bytes32"
        }
      ],
      "name": "getDataProviderInfo",
      "outputs": [
        {
          "name": "owner",
          "type": "address"
        },
        {
          "name": "price",
          "type": "uint256"
        },
        {
          "name": "volume",
          "type": "uint256"
        },
        {
          "name": "subscriptionsNum",
          "type": "uint256"
        },
        {
          "name": "isProvider",
          "type": "bool"
        },
        {
          "name": "isActive",
          "type": "bool"
        },
        {
          "name": "isPunished",
          "type": "bool"
        }
      ],
      "payable": false,
      "stateMutability": "view",
      "type": "function"
    },
    {
      "constant": false,
      "inputs": [
        {
          "name": "_dataSourceName",
          "type": "bytes32"
        }
      ],
      "name": "subscribe",
      "outputs": [
        {
          "name": "success",
          "type": "bool"
        }
      ],
      "payable": false,
      "stateMutability": "nonpayable",
      "type": "function"
    },
    {
      "constant": true,
      "inputs": [],
      "name": "mProvidersSize",
      "outputs": [
        {
          "name": "",
          "type": "uint256"
        }
      ],
      "payable": false,
      "stateMutability": "view",
      "type": "function"
    },
    {
      "constant": false,
      "inputs": [
        {
          "name": "_dataSourceName",
          "type": "bytes32"
        },
        {
          "name": "_newPrice",
          "type": "uint256"
        }
      ],
      "name": "updateDataSourcePrice",
      "outputs": [
        {
          "name": "success",
          "type": "bool"
        }
      ],
      "payable": false,
      "stateMutability": "nonpayable",
      "type": "function"
    },
    {
      "constant": false,
      "inputs": [
        {
          "name": "_dataSourceName",
          "type": "bytes32"
        }
      ],
      "name": "withdrawProvider",
      "outputs": [
        {
          "name": "success",
          "type": "bool"
        }
      ],
      "payable": false,
      "stateMutability": "nonpayable",
      "type": "function"
    },
    {
      "constant": true,
      "inputs": [],
      "name": "getAllProviders",
      "outputs": [
        {
          "name": "",
          "type": "bytes32[]"
        }
      ],
      "payable": false,
      "stateMutability": "view",
      "type": "function"
    },
    {
      "constant": true,
      "inputs": [],
      "name": "getMarketplaceTotalBalance",
      "outputs": [
        {
          "name": "totalBalance",
          "type": "uint256"
        }
      ],
      "payable": false,
      "stateMutability": "view",
      "type": "function"
    },
    {
      "constant": false,
      "inputs": [
        {
          "name": "_dataSourceName",
          "type": "bytes32"
        }
      ],
      "name": "refundSubscriber",
      "outputs": [
        {
          "name": "success",
          "type": "bool"
        }
      ],
      "payable": false,
      "stateMutability": "nonpayable",
      "type": "function"
    },
    {
      "constant": false,
      "inputs": [
        {
          "name": "_dataSourceName",
          "type": "bytes32"
        },
        {
          "name": "_price",
          "type": "uint256"
        },
        {
          "name": "_dataOwner",
          "type": "address"
        }
      ],
      "name": "register",
      "outputs": [
        {
          "name": "success",
          "type": "bool"
        }
      ],
      "payable": false,
      "stateMutability": "nonpayable",
      "type": "function"
    },
    {
      "constant": true,
      "inputs": [],
      "name": "mCurrent",
      "outputs": [
        {
          "name": "",
          "type": "bytes32"
        }
      ],
      "payable": false,
      "stateMutability": "view",
      "type": "function"
    },
    {
      "constant": true,
      "inputs": [
        {
          "name": "_dataSourceName",
          "type": "bytes32"
        }
      ],
      "name": "getWithdrawAmount",
      "outputs": [
        {
          "name": "withdrawAmount",
          "type": "uint256"
        }
      ],
      "payable": false,
      "stateMutability": "view",
      "type": "function"
    },
    {
      "constant": true,
      "inputs": [
        {
          "name": "_subscriber",
          "type": "address"
        },
        {
          "name": "_dataSourceName",
          "type": "bytes32"
        }
      ],
      "name": "checkAddressSubscription",
      "outputs": [
        {
          "name": "subscriber",
          "type": "address"
        },
        {
          "name": "dataSourceName",
          "type": "bytes32"
        },
        {
          "name": "price",
          "type": "uint256"
        },
        {
          "name": "startTime",
          "type": "uint256"
        },
        {
          "name": "endTime",
          "type": "uint256"
        },
        {
          "name": "isUnExpired",
          "type": "bool"
        },
        {
          "name": "isPaid",
          "type": "bool"
        },
        {
          "name": "isPunishedProvider",
          "type": "bool"
        },
        {
          "name": "isOrder",
          "type": "bool"
        }
      ],
      "payable": false,
      "stateMutability": "view",
      "type": "function"
    },
    {
      "constant": false,
      "inputs": [
        {
          "name": "_dataSourceName",
          "type": "bytes32"
        },
        {
          "name": "_isActive",
          "type": "bool"
        }
      ],
      "name": "changeDataSourceActivityStatus",
      "outputs": [
        {
          "name": "success",
          "type": "bool"
        }
      ],
      "payable": false,
      "stateMutability": "nonpayable",
      "type": "function"
    },
    {
      "constant": true,
      "inputs": [
        {
          "name": "",
          "type": "bytes32"
        }
      ],
      "name": "mProviders",
      "outputs": [
        {
          "name": "owner",
          "type": "address"
        },
        {
          "name": "volume",
          "type": "uint256"
        },
        {
          "name": "subscriptionsNum",
          "type": "uint256"
        },
        {
          "name": "name",
          "type": "bytes32"
        },
        {
          "name": "price",
          "type": "uint256"
        },
        {
          "name": "isPunished",
          "type": "bool"
        },
        {
          "name": "punishTimeStamp",
          "type": "uint256"
        },
        {
          "name": "isProvider",
          "type": "bool"
        },
        {
          "name": "isActive",
          "type": "bool"
        },
        {
          "name": "nextProvider",
          "type": "bytes32"
        }
      ],
      "payable": false,
      "stateMutability": "view",
      "type": "function"
    },
    {
      "constant": true,
      "inputs": [
        {
          "name": "",
          "type": "bytes32"
        },
        {
          "name": "",
          "type": "uint256"
        }
      ],
      "name": "mOrders",
      "outputs": [
        {
          "name": "dataSourceName",
          "type": "bytes32"
        },
        {
          "name": "subscriber",
          "type": "address"
        },
        {
          "name": "provider",
          "type": "address"
        },
        {
          "name": "price",
          "type": "uint256"
        },
        {
          "name": "startTime",
          "type": "uint256"
        },
        {
          "name": "endTime",
          "type": "uint256"
        },
        {
          "name": "isPaid",
          "type": "bool"
        },
        {
          "name": "isOrder",
          "type": "bool"
        },
        {
          "name": "isRefundPaid",
          "type": "bool"
        }
      ],
      "payable": false,
      "stateMutability": "view",
      "type": "function"
    },
    {
      "constant": true,
      "inputs": [],
      "name": "mToken",
      "outputs": [
        {
          "name": "",
          "type": "address"
        }
      ],
      "payable": false,
      "stateMutability": "view",
      "type": "function"
    },
    {
      "constant": true,
      "inputs": [
        {
          "name": "_dataSourceName",
          "type": "bytes32"
        }
      ],
      "name": "getOwnerFromName",
      "outputs": [
        {
          "name": "owner",
          "type": "address"
        }
      ],
      "payable": false,
      "stateMutability": "view",
      "type": "function"
    },
    {
      "constant": true,
      "inputs": [
        {
          "name": "_subscriber",
          "type": "address"
        },
        {
          "name": "_dataSourceName",
          "type": "bytes32"
        }
      ],
      "name": "getRefundAmount",
      "outputs": [
        {
          "name": "refundAmount",
          "type": "uint256"
        }
      ],
      "payable": false,
      "stateMutability": "view",
      "type": "function"
    },
    {
      "constant": true,
      "inputs": [],
      "name": "mOwner",
      "outputs": [
        {
          "name": "",
          "type": "address"
        }
      ],
      "payable": false,
      "stateMutability": "view",
      "type": "function"
    },
    {
      "constant": true,
      "inputs": [],
      "name": "MARKETPLACE_VERSION",
      "outputs": [
        {
          "name": "",
          "type": "string"
        }
      ],
      "payable": false,
      "stateMutability": "view",
      "type": "function"
    },
    {
      "constant": true,
      "inputs": [
        {
          "name": "_subscriber",
          "type": "address"
        },
        {
          "name": "_dataSourceName",
          "type": "bytes32"
        }
      ],
      "name": "isExpiredSubscription",
      "outputs": [
        {
          "name": "isExpired",
          "type": "bool"
        }
      ],
      "payable": false,
      "stateMutability": "view",
      "type": "function"
    },
    {
      "constant": false,
      "inputs": [
        {
          "name": "_newOwner",
          "type": "address"
        }
      ],
      "name": "transferOwnership",
      "outputs": [],
      "payable": false,
      "stateMutability": "nonpayable",
      "type": "function"
    },
    {
      "inputs": [
        {
          "name": "_tokenAddress",
          "type": "address"
        }
      ],
      "payable": false,
      "stateMutability": "nonpayable",
      "type": "constructor"
    },
    {
      "anonymous": false,
      "inputs": [
        {
          "indexed": true,
          "name": "previousOwner",
          "type": "address"
        },
        {
          "indexed": true,
          "name": "newOwner",
          "type": "address"
        }
      ],
      "name": "OwnershipTransferred",
      "type": "event"
    },
    {
      "anonymous": false,
      "inputs": [
        {
          "indexed": true,
          "name": "editor",
          "type": "address"
        },
        {
          "indexed": true,
          "name": "dataSourceName",
          "type": "bytes32"
        },
        {
          "indexed": false,
          "name": "newPrice",
          "type": "uint256"
        }
      ],
      "name": "PriceUpdate",
      "type": "event"
    },
    {
      "anonymous": false,
      "inputs": [
        {
          "indexed": true,
          "name": "editor",
          "type": "address"
        },
        {
          "indexed": true,
          "name": "dataSourceName",
          "type": "bytes32"
        },
        {
          "indexed": false,
          "name": "newStatus",
          "type": "bool"
        }
      ],
      "name": "ActivityUpdate",
      "type": "event"
    },
    {
      "anonymous": false,
      "inputs": [
        {
          "indexed": true,
          "name": "dataOwner",
          "type": "address"
        },
        {
          "indexed": true,
          "name": "dataSourceName",
          "type": "bytes32"
        },
        {
          "indexed": false,
          "name": "price",
          "type": "uint256"
        },
        {
          "indexed": false,
          "name": "success",
          "type": "bool"
        }
      ],
      "name": "Registered",
      "type": "event"
    },
    {
      "anonymous": false,
      "inputs": [
        {
          "indexed": true,
          "name": "from",
          "type": "address"
        },
        {
          "indexed": true,
          "name": "to",
          "type": "address"
        },
        {
          "indexed": false,
          "name": "value",
          "type": "uint256"
        }
      ],
      "name": "SubscriptionDeposited",
      "type": "event"
    },
    {
      "anonymous": false,
      "inputs": [
        {
          "indexed": true,
          "name": "subscriber",
          "type": "address"
        },
        {
          "indexed": true,
          "name": "dataSourceName",
          "type": "bytes32"
        },
        {
          "indexed": true,
          "name": "dataOwner",
          "type": "address"
        },
        {
          "indexed": false,
          "name": "price",
          "type": "uint256"
        },
        {
          "indexed": false,
          "name": "success",
          "type": "bool"
        }
      ],
      "name": "Subscribed",
      "type": "event"
    },
    {
      "anonymous": false,
      "inputs": [
        {
          "indexed": true,
          "name": "dataOwner",
          "type": "address"
        },
        {
          "indexed": true,
          "name": "dataSourceName",
          "type": "bytes32"
        },
        {
          "indexed": false,
          "name": "amount",
          "type": "uint256"
        }
      ],
      "name": "TransferToProvider",
      "type": "event"
    },
    {
      "anonymous": false,
      "inputs": [
        {
          "indexed": true,
          "name": "dataOwner",
          "type": "address"
        },
        {
          "indexed": true,
          "name": "dataSourceName",
          "type": "bytes32"
        },
        {
          "indexed": false,
          "name": "amount",
          "type": "uint256"
        }
      ],
      "name": "ProviderWithdraw",
      "type": "event"
    },
    {
      "anonymous": false,
      "inputs": [
        {
          "indexed": true,
          "name": "dataOwner",
          "type": "address"
        },
        {
          "indexed": true,
          "name": "dataSourceName",
          "type": "bytes32"
        },
        {
          "indexed": false,
          "name": "isPunished",
          "type": "bool"
        }
      ],
      "name": "ProviderPunishStatus",
      "type": "event"
    },
    {
      "anonymous": false,
      "inputs": [
        {
          "indexed": true,
          "name": "subscriber",
          "type": "address"
        },
        {
          "indexed": true,
          "name": "dataSourceName",
          "type": "bytes32"
        },
        {
          "indexed": false,
          "name": "refundAmount",
          "type": "uint256"
        }
      ],
      "name": "SubscriberRefund",
      "type": "event"
    }
  ],
  "bytecode": "0x6060604052341561000f57600080fd5b604051602080613ce08339810160405280805190602001909190505080336000806101000a81548173ffffffffffffffffffffffffffffffffffffffff021916908373ffffffffffffffffffffffffffffffffffffffff160217905550600073ffffffffffffffffffffffffffffffffffffffff168173ffffffffffffffffffffffffffffffffffffffff16141515156100a857600080fd5b80600460006101000a81548173ffffffffffffffffffffffffffffffffffffffff021916908373ffffffffffffffffffffffffffffffffffffffff160217905550600060056000806001026000191681526020019081526020016000206008018160001916905550600060010260056000806001026000191681526020019081526020016000206003018160001916905550600560008060010260001916815260200190815260200160002060030154600281600019169055506005600080600102600019168152602001908152602001600020600301546001816000191690555060016003819055505050613b3d806101a36000396000f300606060405260043610610154576000357c0100000000000000000000000000000000000000000000000000000000900463ffffffff1680630cf23b1f146101595780631225318c1461019857806326277bf2146101c95780632f10aabb146101f25780632f95949a1461023c5780632faf44f6146102d957806332b9c88c14610318578063340b4ed4146103415780633b8f5dbd146103895780633bb4497c146103c8578063445f00951461043257806345e3f7961461045b5780635164fab41461049a57806352e0ca79146105015780636210c254146105325780637b7886131461056d5780638d149e5c14610643578063b618c7561461068d578063c216d4a81461074f578063c3b6f93914610837578063c94d14ad1461088c578063ca6a467b146108f3578063dcda4bf31461094d578063e93818e4146109a2578063ea97bac114610a30578063f2fde38b14610a8e575b600080fd5b341561016457600080fd5b61017e600480803560001916906020019091905050610ac7565b604051808215151515815260200191505060405180910390f35b34156101a357600080fd5b6101ab610afc565b60405180826000191660001916815260200191505060405180910390f35b34156101d457600080fd5b6101dc610b02565b6040518082815260200191505060405180910390f35b34156101fd57600080fd5b6102226004808035600019169060200190919080351515906020019091905050610b09565b604051808215151515815260200191505060405180910390f35b341561024757600080fd5b610261600480803560001916906020019091905050610cc5565b604051808873ffffffffffffffffffffffffffffffffffffffff1673ffffffffffffffffffffffffffffffffffffffff16815260200187815260200186815260200185815260200184151515158152602001831515151581526020018215151515815260200197505050505050505060405180910390f35b34156102e457600080fd5b6102fe600480803560001916906020019091905050610e09565b604051808215151515815260200191505060405180910390f35b341561032357600080fd5b61032b6112c5565b6040518082815260200191505060405180910390f35b341561034c57600080fd5b61036f6004808035600019169060200190919080359060200190919050506112cb565b604051808215151515815260200191505060405180910390f35b341561039457600080fd5b6103ae600480803560001916906020019091905050611421565b604051808215151515815260200191505060405180910390f35b34156103d357600080fd5b6103db6117bb565b6040518080602001828103825283818151815260200191508051906020019060200280838360005b8381101561041e578082015181840152602081019050610403565b505050509050019250505060405180910390f35b341561043d57600080fd5b61044561187f565b6040518082815260200191505060405180910390f35b341561046657600080fd5b610480600480803560001916906020019091905050611966565b604051808215151515815260200191505060405180910390f35b34156104a557600080fd5b6104e760048080356000191690602001909190803590602001909190803573ffffffffffffffffffffffffffffffffffffffff16906020019091905050611cd2565b604051808215151515815260200191505060405180910390f35b341561050c57600080fd5b610514612039565b60405180826000191660001916815260200191505060405180910390f35b341561053d57600080fd5b61055760048080356000191690602001909190505061203f565b6040518082815260200191505060405180910390f35b341561057857600080fd5b6105b1600480803573ffffffffffffffffffffffffffffffffffffffff1690602001909190803560001916906020019091905050612250565b604051808a73ffffffffffffffffffffffffffffffffffffffff1673ffffffffffffffffffffffffffffffffffffffff168152602001896000191660001916815260200188815260200187815260200186815260200185151515158152602001841515151581526020018315151515815260200182151515158152602001995050505050505050505060405180910390f35b341561064e57600080fd5b61067360048080356000191690602001909190803515159060200190919050506125ce565b604051808215151515815260200191505060405180910390f35b341561069857600080fd5b6106b2600480803560001916906020019091905050612718565b604051808b73ffffffffffffffffffffffffffffffffffffffff1673ffffffffffffffffffffffffffffffffffffffff1681526020018a8152602001898152602001886000191660001916815260200187815260200186151515158152602001858152602001841515151581526020018315151515815260200182600019166000191681526020019a505050505050505050505060405180910390f35b341561075a57600080fd5b61077d6004808035600019169060200190919080359060200190919050506127b3565b604051808a600019166000191681526020018973ffffffffffffffffffffffffffffffffffffffff1673ffffffffffffffffffffffffffffffffffffffff1681526020018873ffffffffffffffffffffffffffffffffffffffff1673ffffffffffffffffffffffffffffffffffffffff168152602001878152602001868152602001858152602001841515151581526020018315151515815260200182151515158152602001995050505050505050505060405180910390f35b341561084257600080fd5b61084a612884565b604051808273ffffffffffffffffffffffffffffffffffffffff1673ffffffffffffffffffffffffffffffffffffffff16815260200191505060405180910390f35b341561089757600080fd5b6108b16004808035600019169060200190919050506128aa565b604051808273ffffffffffffffffffffffffffffffffffffffff1673ffffffffffffffffffffffffffffffffffffffff16815260200191505060405180910390f35b34156108fe57600080fd5b610937600480803573ffffffffffffffffffffffffffffffffffffffff16906020019091908035600019169060200190919050506128f2565b6040518082815260200191505060405180910390f35b341561095857600080fd5b610960612bcd565b604051808273ffffffffffffffffffffffffffffffffffffffff1673ffffffffffffffffffffffffffffffffffffffff16815260200191505060405180910390f35b34156109ad57600080fd5b6109b5612bf2565b6040518080602001828103825283818151815260200191508051906020019080838360005b838110156109f55780820151818401526020810190506109da565b50505050905090810190601f168015610a225780820380516001836020036101000a031916815260200191505b509250505060405180910390f35b3415610a3b57600080fd5b610a74600480803573ffffffffffffffffffffffffffffffffffffffff1690602001909190803560001916906020019091905050612c2b565b604051808215151515815260200191505060405180910390f35b3415610a9957600080fd5b610ac5600480803573ffffffffffffffffffffffffffffffffffffffff16906020019091905050612dde565b005b600060056000836000191660001916815260200190815260200160002060070160019054906101000a900460ff169050919050565b60015481565b62278d0081565b60008060009054906101000a900473ffffffffffffffffffffffffffffffffffffffff1673ffffffffffffffffffffffffffffffffffffffff163373ffffffffffffffffffffffffffffffffffffffff16141515610b6657600080fd5b60056000846000191660001916815260200190815260200160002060070160009054906101000a900460ff161515610b9d57600080fd5b8160056000856000191660001916815260200190815260200160002060050160006101000a81548160ff0219169083151502179055508115610c01574260056000856000191660001916815260200190815260200160002060060181905550610c26565b6000600560008560001916600019168152602001908152602001600020600601819055505b826000191660056000856000191660001916815260200190815260200160002060000160009054906101000a900473ffffffffffffffffffffffffffffffffffffffff1673ffffffffffffffffffffffffffffffffffffffff167fb5dd3ecc8eaa1fb9460a4088b3872f93a68855f913c6bfc3f3c6c7ebf0f326b684604051808215151515815260200191505060405180910390a36001905092915050565b600080600080600080600060056000896000191660001916815260200190815260200160002060000160009054906101000a900473ffffffffffffffffffffffffffffffffffffffff16965060056000896000191660001916815260200190815260200160002060040154955060056000896000191660001916815260200190815260200160002060010154945060056000896000191660001916815260200190815260200160002060020154935060056000896000191660001916815260200190815260200160002060070160009054906101000a900460ff16925060056000896000191660001916815260200190815260200160002060070160019054906101000a900460ff16915060056000896000191660001916815260200190815260200160002060050160009054906101000a900460ff169050919395979092949650565b60008160056000826000191660001916815260200190815260200160002060070160009054906101000a900460ff161515610e4357600080fd5b60056000826000191660001916815260200190815260200160002060070160019054906101000a900460ff161515610e7a57600080fd5b60056000826000191660001916815260200190815260200160002060050160009054906101000a900460ff16151515610eb257600080fd5b610edb333060056000876000191660001916815260200190815260200160002060040154612f33565b1515610ee657600080fd5b6006600084600019166000191681526020019081526020016000208054806001018281610f139190613a02565b9160005260206000209060070201600061012060405190810160405280876000191681526020013373ffffffffffffffffffffffffffffffffffffffff16815260200160056000896000191660001916815260200190815260200160002060000160009054906101000a900473ffffffffffffffffffffffffffffffffffffffff1673ffffffffffffffffffffffffffffffffffffffff16815260200160056000896000191660001916815260200190815260200160002060040154815260200142815260200162278d00420181526020016000151581526020016001151581526020016000151581525090919091506000820151816000019060001916905560208201518160010160006101000a81548173ffffffffffffffffffffffffffffffffffffffff021916908373ffffffffffffffffffffffffffffffffffffffff16021790555060408201518160020160006101000a81548173ffffffffffffffffffffffffffffffffffffffff021916908373ffffffffffffffffffffffffffffffffffffffff160217905550606082015181600301556080820151816004015560a0820151816005015560c08201518160060160006101000a81548160ff02191690831515021790555060e08201518160060160016101000a81548160ff0219169083151502179055506101008201518160060160026101000a81548160ff021916908315150217905550505050611172600560008560001916600019168152602001908152602001600020600401546005600086600019166000191681526020019081526020016000206001015461328490919063ffffffff16565b600560008560001916600019168152602001908152602001600020600101819055506111c660016005600086600019166000191681526020019081526020016000206002015461328490919063ffffffff16565b6005600085600019166000191681526020019081526020016000206002018190555060056000846000191660001916815260200190815260200160002060000160009054906101000a900473ffffffffffffffffffffffffffffffffffffffff1673ffffffffffffffffffffffffffffffffffffffff1683600019163373ffffffffffffffffffffffffffffffffffffffff167f7a3f54da83d294e3b226e50ae5a65e87cff0f43f8699003833a1ee6670c800e660056000886000191660001916815260200190815260200160002060040154600160405180838152602001821515151581526020019250505060405180910390a46001915050919050565b60035481565b60008260056000826000191660001916815260200190815260200160002060070160009054906101000a900460ff16151561130557600080fd5b3373ffffffffffffffffffffffffffffffffffffffff1660056000836000191660001916815260200190815260200160002060000160009054906101000a900473ffffffffffffffffffffffffffffffffffffffff1673ffffffffffffffffffffffffffffffffffffffff1614151561137d57600080fd5b828061139360018361328490919063ffffffff16565b11151561139f57600080fd5b836005600087600019166000191681526020019081526020016000206004018190555084600019163373ffffffffffffffffffffffffffffffffffffffff167fd6d44e0931d3eff0a69c277b94480024f00d36b25216cf69d54965c1ecb7f4a3866040518082815260200191505060405180910390a360019250505092915050565b60008060008060008560056000826000191660001916815260200190815260200160002060070160009054906101000a900460ff16151561146157600080fd5b3373ffffffffffffffffffffffffffffffffffffffff1660056000836000191660001916815260200190815260200160002060000160009054906101000a900473ffffffffffffffffffffffffffffffffffffffff1673ffffffffffffffffffffffffffffffffffffffff161415156114d957600080fd5b60009450600660008860001916600019168152602001908152602001600020805490509350600092505b83831015611707576116836006600089600019166000191681526020019081526020016000208481548110151561153657fe5b906000526020600020906007020161012060405190810160405290816000820154600019166000191681526020016001820160009054906101000a900473ffffffffffffffffffffffffffffffffffffffff1673ffffffffffffffffffffffffffffffffffffffff1673ffffffffffffffffffffffffffffffffffffffff1681526020016002820160009054906101000a900473ffffffffffffffffffffffffffffffffffffffff1673ffffffffffffffffffffffffffffffffffffffff1673ffffffffffffffffffffffffffffffffffffffff1681526020016003820154815260200160048201548152602001600582015481526020016006820160009054906101000a900460ff161515151581526020016006820160019054906101000a900460ff161515151581526020016006820160029054906101000a900460ff1615151515815250506132a2565b915060008211156116e1576001600660008960001916600019168152602001908152602001600020848154811015156116b857fe5b906000526020600020906007020160060160006101000a81548160ff0219169083151502179055505b6116f4828661328490919063ffffffff16565b9450600195508280600101935050611503565b611711878661335d565b151561171c57600080fd5b866000191660056000896000191660001916815260200190815260200160002060000160009054906101000a900473ffffffffffffffffffffffffffffffffffffffff1673ffffffffffffffffffffffffffffffffffffffff167fceb5682fafb74ca2d33476486c7dee53205f9c8aff48d68f47456a90abd536a8876040518082815260200191505060405180910390a3600195505050505050919050565b6117c3613a34565b6117cb613a34565b6000806003546040518059106117de5750595b908082528060200260200182016040525092506001549150600090505b6003548110156118765760056000836000191660001916815260200190815260200160002060030154838281518110151561183257fe5b9060200190602002019060001916908160001916815250506005600083600019166000191681526020019081526020016000206008015491508060010190506117fb565b82935050505090565b6000600460009054906101000a900473ffffffffffffffffffffffffffffffffffffffff1673ffffffffffffffffffffffffffffffffffffffff166370a08231306000604051602001526040518263ffffffff167c0100000000000000000000000000000000000000000000000000000000028152600401808273ffffffffffffffffffffffffffffffffffffffff1673ffffffffffffffffffffffffffffffffffffffff168152602001915050602060405180830381600087803b151561194657600080fd5b6102c65a03f1151561195757600080fd5b50505060405180519050905090565b600080600080600060056000876000191660001916815260200190815260200160002060070160009054906101000a900460ff1615156119a557600080fd5b60009350600660008760001916600019168152602001908152602001600020805490509250600091505b82821015611c5d573373ffffffffffffffffffffffffffffffffffffffff1660066000886000191660001916815260200190815260200160002083815481101515611a1657fe5b906000526020600020906007020160010160009054906101000a900473ffffffffffffffffffffffffffffffffffffffff1673ffffffffffffffffffffffffffffffffffffffff161415611c5057611bdc60066000886000191660001916815260200190815260200160002083815481101515611a8f57fe5b906000526020600020906007020161012060405190810160405290816000820154600019166000191681526020016001820160009054906101000a900473ffffffffffffffffffffffffffffffffffffffff1673ffffffffffffffffffffffffffffffffffffffff1673ffffffffffffffffffffffffffffffffffffffff1681526020016002820160009054906101000a900473ffffffffffffffffffffffffffffffffffffffff1673ffffffffffffffffffffffffffffffffffffffff1673ffffffffffffffffffffffffffffffffffffffff1681526020016003820154815260200160048201548152602001600582015481526020016006820160009054906101000a900460ff161515151581526020016006820160019054906101000a900460ff161515151581526020016006820160029054906101000a900460ff161515151581525050613688565b90506000811115611c3a57600160066000886000191660001916815260200190815260200160002083815481101515611c1157fe5b906000526020600020906007020160060160026101000a81548160ff0219169083151502179055505b611c4d818561328490919063ffffffff16565b93505b81806001019250506119cf565b611c673385613759565b1515611c7257600080fd5b85600019163373ffffffffffffffffffffffffffffffffffffffff167f794aa82b6db54e01dab1d1dfda90d863bf89a700f3fe0fc4f98bfd504f71bf5d866040518082815260200191505060405180910390a36001945050505050919050565b6000836000602060ff16111515611ce857600080fd5b60056000826000191660001916815260200190815260200160002060070160009054906101000a900460ff16151515611d2057600080fd5b8380611d3660018361328490919063ffffffff16565b111515611d4257600080fd5b600073ffffffffffffffffffffffffffffffffffffffff168473ffffffffffffffffffffffffffffffffffffffff1614151515611d7e57600080fd5b8360056000886000191660001916815260200190815260200160002060000160006101000a81548173ffffffffffffffffffffffffffffffffffffffff021916908373ffffffffffffffffffffffffffffffffffffffff1602179055506000600560008860001916600019168152602001908152602001600020600101819055506000600560008860001916600019168152602001908152602001600020600201819055508560056000886000191660001916815260200190815260200160002060030181600019169055508460056000886000191660001916815260200190815260200160002060040181905550600060056000886000191660001916815260200190815260200160002060050160006101000a81548160ff021916908315150217905550600060056000886000191660001916815260200190815260200160002060060181905550600160056000886000191660001916815260200190815260200160002060070160006101000a81548160ff021916908315150217905550600160056000886000191660001916815260200190815260200160002060070160016101000a81548160ff0219169083151502179055506000600560008860001916600019168152602001908152602001600020600801816000191690555085600560006002546000191660001916815260200190815260200160002060080181600019169055506005600087600019166000191681526020019081526020016000206003015460028160001916905550611fc6600160035461328490919063ffffffff16565b60038190555085600019168473ffffffffffffffffffffffffffffffffffffffff167f32362a6c8f018375704733c0f0c66d6e2d1d6a96d031af978ccc46aaf2d2547e87600160405180838152602001821515151581526020019250505060405180910390a36001925050509392505050565b60025481565b600080600060056000856000191660001916815260200190815260200160002060070160009054906101000a900460ff16151561207b57600080fd5b60009250600660008560001916600019168152602001908152602001600020805490509150600090505b8181101561224657612237612228600660008760001916600019168152602001908152602001600020838154811015156120db57fe5b906000526020600020906007020161012060405190810160405290816000820154600019166000191681526020016001820160009054906101000a900473ffffffffffffffffffffffffffffffffffffffff1673ffffffffffffffffffffffffffffffffffffffff1673ffffffffffffffffffffffffffffffffffffffff1681526020016002820160009054906101000a900473ffffffffffffffffffffffffffffffffffffffff1673ffffffffffffffffffffffffffffffffffffffff1673ffffffffffffffffffffffffffffffffffffffff1681526020016003820154815260200160048201548152602001600582015481526020016006820160009054906101000a900460ff161515151581526020016006820160019054906101000a900460ff161515151581526020016006820160029054906101000a900460ff1615151515815250506132a2565b8461328490919063ffffffff16565b925080806001019150506120a5565b8292505050919050565b6000806000806000806000806000806000600660008d6000191660001916815260200190815260200160002080549050915060008211151561229157600080fd5b8c73ffffffffffffffffffffffffffffffffffffffff16600073ffffffffffffffffffffffffffffffffffffffff16141515156122cd57600080fd5b600560008d6000191660001916815260200190815260200160002060070160009054906101000a900460ff16151561230457600080fd5b6001820390505b6000811015156125a4578c73ffffffffffffffffffffffffffffffffffffffff16600660008e600019166000191681526020019081526020016000208281548110151561235457fe5b906000526020600020906007020160010160009054906101000a900473ffffffffffffffffffffffffffffffffffffffff1673ffffffffffffffffffffffffffffffffffffffff16141561258857600660008d60001916600019168152602001908152602001600020818154811015156123ca57fe5b906000526020600020906007020160010160009054906101000a900473ffffffffffffffffffffffffffffffffffffffff169a50600660008d600019166000191681526020019081526020016000208181548110151561242657fe5b9060005260206000209060070201600301549850600660008d600019166000191681526020019081526020016000208181548110151561246257fe5b9060005260206000209060070201600401549750600660008d600019166000191681526020019081526020016000208181548110151561249e57fe5b90600052602060002090600702016005015496506124bc8b8d612c2b565b159550600660008d60001916600019168152602001908152602001600020818154811015156124e757fe5b906000526020600020906007020160060160009054906101000a900460ff169450600560008d6000191660001916815260200190815260200160002060050160009054906101000a900460ff169350600660008d600019166000191681526020019081526020016000208181548110151561255e57fe5b906000526020600020906007020160060160019054906101000a900460ff169250600090506125a4565b6000811415612596576125a4565b80806001900391505061230b565b8a8c8a8a8a8a8a8a8a9a509a509a509a509a509a509a509a509a5050509295985092959850929598565b60008260056000826000191660001916815260200190815260200160002060070160009054906101000a900460ff16151561260857600080fd5b3373ffffffffffffffffffffffffffffffffffffffff1660056000836000191660001916815260200190815260200160002060000160009054906101000a900473ffffffffffffffffffffffffffffffffffffffff1673ffffffffffffffffffffffffffffffffffffffff1614151561268057600080fd5b8260056000866000191660001916815260200190815260200160002060070160016101000a81548160ff02191690831515021790555083600019163373ffffffffffffffffffffffffffffffffffffffff167feb7e8fd639953c98dc1baecd9f72cc41075f4cf712755141cbbdd572181680c485604051808215151515815260200191505060405180910390a3600191505092915050565b60056020528060005260406000206000915090508060000160009054906101000a900473ffffffffffffffffffffffffffffffffffffffff16908060010154908060020154908060030154908060040154908060050160009054906101000a900460ff16908060060154908060070160009054906101000a900460ff16908060070160019054906101000a900460ff1690806008015490508a565b6006602052816000526040600020818154811015156127ce57fe5b9060005260206000209060070201600091509150508060000154908060010160009054906101000a900473ffffffffffffffffffffffffffffffffffffffff16908060020160009054906101000a900473ffffffffffffffffffffffffffffffffffffffff16908060030154908060040154908060050154908060060160009054906101000a900460ff16908060060160019054906101000a900460ff16908060060160029054906101000a900460ff16905089565b600460009054906101000a900473ffffffffffffffffffffffffffffffffffffffff1681565b600060056000836000191660001916815260200190815260200160002060000160009054906101000a900473ffffffffffffffffffffffffffffffffffffffff169050919050565b60008060008073ffffffffffffffffffffffffffffffffffffffff168573ffffffffffffffffffffffffffffffffffffffff161415151561293257600080fd5b60056000856000191660001916815260200190815260200160002060070160009054906101000a900460ff16151561296957600080fd5b60009250600660008560001916600019168152602001908152602001600020805490509150600090505b81811015612bc2578473ffffffffffffffffffffffffffffffffffffffff16600660008660001916600019168152602001908152602001600020828154811015156129da57fe5b906000526020600020906007020160010160009054906101000a900473ffffffffffffffffffffffffffffffffffffffff1673ffffffffffffffffffffffffffffffffffffffff161415612bb557612bb2612ba360066000876000191660001916815260200190815260200160002083815481101515612a5657fe5b906000526020600020906007020161012060405190810160405290816000820154600019166000191681526020016001820160009054906101000a900473ffffffffffffffffffffffffffffffffffffffff1673ffffffffffffffffffffffffffffffffffffffff1673ffffffffffffffffffffffffffffffffffffffff1681526020016002820160009054906101000a900473ffffffffffffffffffffffffffffffffffffffff1673ffffffffffffffffffffffffffffffffffffffff1673ffffffffffffffffffffffffffffffffffffffff1681526020016003820154815260200160048201548152602001600582015481526020016006820160009054906101000a900460ff161515151581526020016006820160019054906101000a900460ff161515151581526020016006820160029054906101000a900460ff161515151581525050613688565b8461328490919063ffffffff16565b92505b8080600101915050612993565b829250505092915050565b6000809054906101000a900473ffffffffffffffffffffffffffffffffffffffff1681565b6040805190810160405280600181526020017f310000000000000000000000000000000000000000000000000000000000000081525081565b6000806000600660008560001916600019168152602001908152602001600020805490509150600082111515612c6057600080fd5b60056000856000191660001916815260200190815260200160002060070160009054906101000a900460ff161515612c9757600080fd5b8473ffffffffffffffffffffffffffffffffffffffff16600073ffffffffffffffffffffffffffffffffffffffff1614151515612cd357600080fd5b6001820390505b600081101515612dd1578473ffffffffffffffffffffffffffffffffffffffff1660066000866000191660001916815260200190815260200160002082815481101515612d2357fe5b906000526020600020906007020160010160009054906101000a900473ffffffffffffffffffffffffffffffffffffffff1673ffffffffffffffffffffffffffffffffffffffff161415612db55760066000856000191660001916815260200190815260200160002081815481101515612d9957fe5b9060005260206000209060070201600501544210159250612dd6565b6000811415612dc357612dd1565b808060019003915050612cda565b600192505b505092915050565b6000809054906101000a900473ffffffffffffffffffffffffffffffffffffffff1673ffffffffffffffffffffffffffffffffffffffff163373ffffffffffffffffffffffffffffffffffffffff16141515612e3957600080fd5b600073ffffffffffffffffffffffffffffffffffffffff168173ffffffffffffffffffffffffffffffffffffffff1614151515612e7557600080fd5b8073ffffffffffffffffffffffffffffffffffffffff166000809054906101000a900473ffffffffffffffffffffffffffffffffffffffff1673ffffffffffffffffffffffffffffffffffffffff167f8be0079c531659141344cd1fd0a4f28419497f9722a3daafe3b4186f6b6457e060405160405180910390a3806000806101000a81548173ffffffffffffffffffffffffffffffffffffffff021916908373ffffffffffffffffffffffffffffffffffffffff16021790555050565b60008180612f4b60018361328490919063ffffffff16565b111515612f5757600080fd5b600073ffffffffffffffffffffffffffffffffffffffff168573ffffffffffffffffffffffffffffffffffffffff1614158015612fbf57503073ffffffffffffffffffffffffffffffffffffffff168473ffffffffffffffffffffffffffffffffffffffff16145b1515612fca57600080fd5b82600460009054906101000a900473ffffffffffffffffffffffffffffffffffffffff1673ffffffffffffffffffffffffffffffffffffffff1663dd62ed3e87876000604051602001526040518363ffffffff167c0100000000000000000000000000000000000000000000000000000000028152600401808373ffffffffffffffffffffffffffffffffffffffff1673ffffffffffffffffffffffffffffffffffffffff1681526020018273ffffffffffffffffffffffffffffffffffffffff1673ffffffffffffffffffffffffffffffffffffffff16815260200192505050602060405180830381600087803b15156130c457600080fd5b6102c65a03f115156130d557600080fd5b50505060405180519050101515156130ec57600080fd5b600460009054906101000a900473ffffffffffffffffffffffffffffffffffffffff1673ffffffffffffffffffffffffffffffffffffffff166323b872dd8686866000604051602001526040518463ffffffff167c0100000000000000000000000000000000000000000000000000000000028152600401808473ffffffffffffffffffffffffffffffffffffffff1673ffffffffffffffffffffffffffffffffffffffff1681526020018373ffffffffffffffffffffffffffffffffffffffff1673ffffffffffffffffffffffffffffffffffffffff1681526020018281526020019350505050602060405180830381600087803b15156131ed57600080fd5b6102c65a03f115156131fe57600080fd5b50505060405180519050151561321357600080fd5b8373ffffffffffffffffffffffffffffffffffffffff168573ffffffffffffffffffffffffffffffffffffffff167f6f990e2a71bc9526905da97b737d1ccb2bf854118a41fee0eb7811bb22d3eea4856040518082815260200191505060405180910390a360019150509392505050565b600080828401905083811015151561329857fe5b8091505092915050565b60008090508160c001511515613354576132bb826138c4565b1561334c576005600083600001516000191660001916815260200190815260200160002060050160009054906101000a900460ff1615613340578160a0015160056000846000015160001916600019168152602001908152602001600020600601541015156133305781606001519050613358565b613339826138d5565b9050613358565b81606001519050613358565b809050613358565b8090505b919050565b6000818061337560018361328490919063ffffffff16565b11151561338157600080fd5b8360056000826000191660001916815260200190815260200160002060070160009054906101000a900460ff1615156133b957600080fd5b3373ffffffffffffffffffffffffffffffffffffffff1660056000836000191660001916815260200190815260200160002060000160009054906101000a900473ffffffffffffffffffffffffffffffffffffffff1673ffffffffffffffffffffffffffffffffffffffff1614151561343157600080fd5b60008411151561344057600080fd5b600073ffffffffffffffffffffffffffffffffffffffff1660056000876000191660001916815260200190815260200160002060000160009054906101000a900473ffffffffffffffffffffffffffffffffffffffff1673ffffffffffffffffffffffffffffffffffffffff16141515156134ba57600080fd5b600460009054906101000a900473ffffffffffffffffffffffffffffffffffffffff1673ffffffffffffffffffffffffffffffffffffffff1663a9059cbb60056000886000191660001916815260200190815260200160002060000160009054906101000a900473ffffffffffffffffffffffffffffffffffffffff16866000604051602001526040518363ffffffff167c0100000000000000000000000000000000000000000000000000000000028152600401808373ffffffffffffffffffffffffffffffffffffffff1673ffffffffffffffffffffffffffffffffffffffff16815260200182815260200192505050602060405180830381600087803b15156135c557600080fd5b6102c65a03f115156135d657600080fd5b5050506040518051905015156135eb57600080fd5b846000191660056000876000191660001916815260200190815260200160002060000160009054906101000a900473ffffffffffffffffffffffffffffffffffffffff1673ffffffffffffffffffffffffffffffffffffffff167f4b4186a4b549df09e37908f0b17747e961a0ecd8d675b2993e5933811870991b866040518082815260200191505060405180910390a360019250505092915050565b60008090508161010001511515613751576005600083600001516000191660001916815260200190815260200160002060050160009054906101000a900460ff1615613750578160800151600560008460000151600019166000191681526020019081526020016000206006015411801561372857508160a001516005600084600001516000191660001916815260200190815260200160002060060154105b1561374f5761374c613739836138d5565b836060015161399b90919063ffffffff16565b90505b5b5b809050919050565b6000818061377160018361328490919063ffffffff16565b11151561377d57600080fd5b60008311151561378c57600080fd5b3373ffffffffffffffffffffffffffffffffffffffff168473ffffffffffffffffffffffffffffffffffffffff161415156137c657600080fd5b600460009054906101000a900473ffffffffffffffffffffffffffffffffffffffff1673ffffffffffffffffffffffffffffffffffffffff1663a9059cbb33856000604051602001526040518363ffffffff167c0100000000000000000000000000000000000000000000000000000000028152600401808373ffffffffffffffffffffffffffffffffffffffff1673ffffffffffffffffffffffffffffffffffffffff16815260200182815260200192505050602060405180830381600087803b151561389357600080fd5b6102c65a03f115156138a457600080fd5b5050506040518051905015156138b957600080fd5b600191505092915050565b6000428260a0015111159050919050565b6000806000806005600086600001516000191660001916815260200190815260200160002060050160009054906101000a900460ff16151561391657600080fd5b846060015192506139688361395a8760800151600560008a60000151600019166000191681526020019081526020016000206006015461399b90919063ffffffff16565b6139b490919063ffffffff16565b915061398585608001518660a0015161399b90919063ffffffff16565b905061399182826139e7565b9350505050919050565b60008282111515156139a957fe5b818303905092915050565b600080828402905060008414806139d557508284828115156139d257fe5b04145b15156139dd57fe5b8091505092915050565b60008082848115156139f557fe5b0490508091505092915050565b815481835581811511613a2f57600702816007028360005260206000209182019101613a2e9190613a48565b5b505050565b602060405190810160405280600081525090565b613b0e91905b80821115613b0a576000808201600090556001820160006101000a81549073ffffffffffffffffffffffffffffffffffffffff02191690556002820160006101000a81549073ffffffffffffffffffffffffffffffffffffffff02191690556003820160009055600482016000905560058201600090556006820160006101000a81549060ff02191690556006820160016101000a81549060ff02191690556006820160026101000a81549060ff021916905550600701613a4e565b5090565b905600a165627a7a72305820b381537f62516589e5d18a69503bfed4ca230476c55df71c68480f8c4b8617fe0029",
  "source": "pragma solidity 0.4.18;\n\n\nimport \"./IMarketplace.sol\";\nimport \"./BasicMarketplace.sol\";\n\n/*\n*@title MarketPlace contract\n*@dev This is the Marketplace contract. extending BasicMarketplace.\n*/\n\ncontract Marketplace is IMarketplace,BasicMarketplace{\n\n\tfunction Marketplace(address _tokenAddress) BasicMarketplace(_tokenAddress) public {}\n\n    function setPunishProvider(bytes32 _dataSourceName, bool _isPunished) \n    public \n    onlyOwner \n    returns (bool success){\n        require(mProviders[_dataSourceName].isProvider);\n        mProviders[_dataSourceName].isPunished = _isPunished;\n        if(_isPunished){\n            mProviders[_dataSourceName].punishTimeStamp = now;\n        }else{\n            mProviders[_dataSourceName].punishTimeStamp = 0;\n        }\n        ProviderPunishStatus(mProviders[_dataSourceName].owner,_dataSourceName,_isPunished);\n        success = true;\n    }\n\n    function refundSubscriber(bytes32 _dataSourceName) \n    public \n    returns\n    (bool success){\n        require(mProviders[_dataSourceName].isProvider);\n        uint256 refundAmount = 0;\n        uint size = mOrders[_dataSourceName].length;\n        for(uint i=0; i<size ;i++){\n            if(mOrders[_dataSourceName][i].subscriber == msg.sender){\n                uint256 refund = handleOrderRefundCalc(mOrders[_dataSourceName][i]);\n                if(refund > 0){ // mark refund as paid\n                    mOrders[_dataSourceName][i].isRefundPaid = true;\n                }\n                refundAmount = refundAmount.add(refund);\n            }\n        }\n        require(safeToSubscriberTransfer(msg.sender,refundAmount));\n        SubscriberRefund(msg.sender,_dataSourceName,refundAmount);\n        success = true;\n    }\n    function getRefundAmount(address _subscriber , bytes32 _dataSourceName) \n    public \n    view \n    returns(uint256 refundAmount){\n        require(_subscriber != address(0));\n        require(mProviders[_dataSourceName].isProvider);\n        refundAmount = 0;\n        uint size = mOrders[_dataSourceName].length;\n        for(uint i=0; i< size ; i++){\n            if(mOrders[_dataSourceName][i].subscriber == _subscriber){\n                refundAmount = refundAmount.add(handleOrderRefundCalc(mOrders[_dataSourceName][i]));\n            }\n        }\n        return refundAmount;\n    }\n\n    function withdrawProvider(bytes32 _dataSourceName) \n    public \n    onlyDataProvider(_dataSourceName) \n    returns (bool success){\n        // calculate the withdraw amount \n        uint256 withdrawAmount = 0;\n        uint orderSize = mOrders[_dataSourceName].length;\n        for(uint i=0;i<orderSize;i++){\n            uint256 withdraw = handleOrderWithdrawCalc(mOrders[_dataSourceName][i]);\n            if(withdraw > 0){ // mark order as paid \n                mOrders[_dataSourceName][i].isPaid = true;\n            }\n            withdrawAmount = withdrawAmount.add(withdraw); \n            success = true;\n        }\n        // transfer ENG's to the provider -revert state if faild\n        require(safeToProviderTransfer(_dataSourceName,withdrawAmount)); \n        ProviderWithdraw(mProviders[_dataSourceName].owner,_dataSourceName,withdrawAmount);\n        return true;\n    }\n    function getWithdrawAmount(bytes32 _dataSourceName) \n    public \n    view \n    returns(uint256 withdrawAmount){\n        require(mProviders[_dataSourceName].isProvider);\n        withdrawAmount = 0;\n        uint orderSize = mOrders[_dataSourceName].length;\n        for(uint i=0;i<orderSize;i++){\n            withdrawAmount = withdrawAmount.add(handleOrderWithdrawCalc(mOrders[_dataSourceName][i])); \n        }\n        return withdrawAmount;\n    }\n\n\n    function register(bytes32 _dataSourceName, uint256 _price, address _dataOwner) \n    public\n    uniqueDataName(_dataSourceName)\n    validPrice(_price)\n    returns (bool success){\n        require(_dataOwner != address(0));\n        mProviders[_dataSourceName].owner = _dataOwner;\n        mProviders[_dataSourceName].volume = 0;\n        mProviders[_dataSourceName].subscriptionsNum = 0;\n        mProviders[_dataSourceName].name = _dataSourceName;\n        mProviders[_dataSourceName].price = _price;\n        mProviders[_dataSourceName].isPunished = false;\n        mProviders[_dataSourceName].punishTimeStamp = 0;\n        mProviders[_dataSourceName].isProvider = true;\n        mProviders[_dataSourceName].isActive = true;\n        mProviders[_dataSourceName].nextProvider = \"\";\n        mProviders[mCurrent].nextProvider = _dataSourceName;\n        mCurrent = mProviders[_dataSourceName].name;\n        mProvidersSize = mProvidersSize.add(1);\n        Registered(_dataOwner,_dataSourceName,_price,true);\n        success =  true;\n    }\n\n    function subscribe(bytes32 _dataSourceName) \n    public \n    validDataProvider(_dataSourceName)\n    returns (bool success){\n        require(safeToMarketPlaceTransfer(msg.sender,this,mProviders[_dataSourceName].price)); // revet state if failed\n        // update order\n        mOrders[_dataSourceName].push(Order({\n            dataSourceName : _dataSourceName,\n            subscriber : msg.sender,\n            provider : mProviders[_dataSourceName].owner,\n            price : mProviders[_dataSourceName].price,\n            startTime : now,\n            endTime : now + FIXED_SUBSCRIPTION_PERIOD,\n            isPaid : false,\n            isOrder : true,\n            isRefundPaid : false\n            }));\n        // update provider data \n        mProviders[_dataSourceName].volume = mProviders[_dataSourceName].volume.add(mProviders[_dataSourceName].price);\n        mProviders[_dataSourceName].subscriptionsNum = mProviders[_dataSourceName].subscriptionsNum.add(1);\n        Subscribed(msg.sender,\n            _dataSourceName,\n            mProviders[_dataSourceName].owner,\n            mProviders[_dataSourceName].price,\n            true);\n        success = true;\n    }\n    function getMarketplaceTotalBalance() public view returns (uint256 totalBalance){\n        return mToken.balanceOf(this);\n    }\n    /*internal */\n    function handleOrderWithdrawCalc(Order order) internal view returns(uint256 orderAmount){\n        orderAmount = 0;\n        if(!order.isPaid){ // if not paid yet \n            if(isOrderExpired(order)){ // expired\n                if(mProviders[order.dataSourceName].isPunished){ // if punished\n                    if(mProviders[order.dataSourceName].punishTimeStamp >= order.endTime){ // punished after expiration date\n                        return order.price;\n                    }else{ // punished before expiration date\n                        return calcRelativeWithdraw(order); //(punishtime / endtime) * amount\n                    }\n                }else{ // not punished - return full amount\n                    return order.price;\n                }\n            }else{ // not expired\n                return orderAmount;\n            }\n        }\n        return orderAmount;\n    }\n    function handleOrderRefundCalc(Order order) internal view returns(uint256 refundAmount){\n        refundAmount = 0;\n        if(!order.isRefundPaid){ //order not paid \n            if(mProviders[order.dataSourceName].isPunished){ // provider is punished\n                if(mProviders[order.dataSourceName].punishTimeStamp > order.startTime && mProviders[order.dataSourceName].punishTimeStamp < order.endTime){ // punished before the subscription is expired\n                   refundAmount = order.price.sub(calcRelativeWithdraw(order)); // price - withdrawPrice\n                }\n            }\n        }\n        return refundAmount;\n    }\n    function calcRelativeWithdraw(Order order) internal view returns(uint256 relativeAmount){\n        require(mProviders[order.dataSourceName].isPunished);\n         // (punishTime- startTime) * PRICE / (endTime - startTime);\n        uint256 price = order.price;\n        uint256 a = (mProviders[order.dataSourceName].punishTimeStamp.sub(order.startTime)).mul(price);\n        uint256 b = order.endTime.sub(order.startTime);\n        return SafeMath.div(a,b);\n    }\n    function isOrderExpired(Order order) internal view returns (bool isExpired){\n        return order.endTime <= now;\n    }\n    function safeToMarketPlaceTransfer(address _from, address _to, uint256 _amount) \n    internal\n    validPrice(_amount)\n    returns (bool){\n         require(_from != address(0) && _to == address(this));\n         require(mToken.allowance(_from,_to) >= _amount);\n         require(mToken.transferFrom(_from,_to,_amount));\n         SubscriptionDeposited(_from, _to, _amount);\n         return true;\n    }\n    function safeToProviderTransfer(bytes32 _dataSourceName,uint256 _amount) \n    internal \n    validPrice(_amount)\n    onlyDataProvider(_dataSourceName) \n    returns (bool){\n         require(_amount > 0);\n         require(mProviders[_dataSourceName].owner != address(0));\n         require(mToken.transfer(mProviders[_dataSourceName].owner,_amount));\n         TransferToProvider(mProviders[_dataSourceName].owner,_dataSourceName,_amount);\n         return true;\n     }\n    function safeToSubscriberTransfer(address _subscriber,uint256 _amount) \n    internal \n    validPrice(_amount)\n    returns (bool){\n        require(_amount > 0);\n        require(_subscriber == msg.sender);\n        require(mToken.transfer(msg.sender, _amount));\n        return true;\n    }\n\n}",
  "sourcePath": "/home/wilder/Desktop/Enigma/DataMarketProject/marketPlace_WS/smart_contract_marketplace/contracts/Marketplace.sol",
  "compiler": {
    "name": "solc",
    "version": "0.4.18+commit.9cf6e910.Emscripten.clang"
  },
  "schemaVersion": "1.0.1",
  "updatedAt": "2018-02-04T00:42:47.620Z"
}