{
  "contractName": "MarketPlace",
  "abi": [
    {
      "constant": false,
      "inputs": [
        {
          "name": "_dataSourceName",
          "type": "bytes32"
        }
      ],
      "name": "subscribe",
      "outputs": [
        {
          "name": "",
          "type": "bool"
        }
      ],
      "payable": false,
      "stateMutability": "nonpayable",
      "type": "function"
    },
    {
      "constant": false,
      "inputs": [
        {
          "name": "_dataSourceName",
          "type": "bytes32"
        },
        {
          "name": "_price",
          "type": "uint256"
        },
        {
          "name": "_dataOwner",
          "type": "address"
        }
      ],
      "name": "register",
      "outputs": [
        {
          "name": "",
          "type": "bool"
        }
      ],
      "payable": false,
      "stateMutability": "nonpayable",
      "type": "function"
    },
    {
      "constant": true,
      "inputs": [
        {
          "name": "who",
          "type": "address"
        }
      ],
      "name": "balanceOf",
      "outputs": [
        {
          "name": "",
          "type": "uint256"
        }
      ],
      "payable": false,
      "stateMutability": "view",
      "type": "function"
    },
    {
      "constant": false,
      "inputs": [
        {
          "name": "_subscriber",
          "type": "address"
        },
        {
          "name": "_dataSourceName",
          "type": "bytes32"
        }
      ],
      "name": "checkAddressSubscription",
      "outputs": [
        {
          "name": "",
          "type": "bool"
        }
      ],
      "payable": false,
      "stateMutability": "nonpayable",
      "type": "function"
    },
    {
      "constant": true,
      "inputs": [],
      "name": "getTest",
      "outputs": [
        {
          "name": "",
          "type": "address"
        }
      ],
      "payable": false,
      "stateMutability": "view",
      "type": "function"
    },
    {
      "constant": false,
      "inputs": [
        {
          "name": "to",
          "type": "address"
        },
        {
          "name": "value",
          "type": "uint256"
        }
      ],
      "name": "transfer",
      "outputs": [
        {
          "name": "",
          "type": "bool"
        }
      ],
      "payable": false,
      "stateMutability": "nonpayable",
      "type": "function"
    },
    {
      "constant": true,
      "inputs": [],
      "name": "mToken",
      "outputs": [
        {
          "name": "",
          "type": "address"
        }
      ],
      "payable": false,
      "stateMutability": "view",
      "type": "function"
    },
    {
      "constant": true,
      "inputs": [
        {
          "name": "_dataSourceName",
          "type": "bytes32"
        }
      ],
      "name": "getOwnerFromName",
      "outputs": [
        {
          "name": "",
          "type": "address"
        }
      ],
      "payable": false,
      "stateMutability": "view",
      "type": "function"
    },
    {
      "constant": true,
      "inputs": [
        {
          "name": "_dataSourceName",
          "type": "bytes32"
        }
      ],
      "name": "getDataSource",
      "outputs": [
        {
          "name": "",
          "type": "address"
        },
        {
          "name": "",
          "type": "bool"
        }
      ],
      "payable": false,
      "stateMutability": "view",
      "type": "function"
    },
    {
      "constant": true,
      "inputs": [],
      "name": "mFixedSubscriptionPeriod",
      "outputs": [
        {
          "name": "",
          "type": "uint256"
        }
      ],
      "payable": false,
      "stateMutability": "view",
      "type": "function"
    },
    {
      "inputs": [
        {
          "name": "_tokenAddress",
          "type": "address"
        },
        {
          "name": "_fixedSubscriptionPeriod",
          "type": "uint256"
        }
      ],
      "payable": false,
      "stateMutability": "nonpayable",
      "type": "constructor"
    },
    {
      "anonymous": false,
      "inputs": [
        {
          "indexed": true,
          "name": "subscriber",
          "type": "address"
        },
        {
          "indexed": true,
          "name": "dataSourceName",
          "type": "bytes32"
        },
        {
          "indexed": true,
          "name": "dataOwner",
          "type": "address"
        },
        {
          "indexed": false,
          "name": "price",
          "type": "uint256"
        },
        {
          "indexed": false,
          "name": "success",
          "type": "bool"
        }
      ],
      "name": "Subscribed",
      "type": "event"
    },
    {
      "anonymous": false,
      "inputs": [
        {
          "indexed": true,
          "name": "dataOwner",
          "type": "address"
        },
        {
          "indexed": true,
          "name": "dataSourceName",
          "type": "bytes32"
        },
        {
          "indexed": false,
          "name": "price",
          "type": "uint256"
        },
        {
          "indexed": false,
          "name": "success",
          "type": "bool"
        }
      ],
      "name": "Registered",
      "type": "event"
    },
    {
      "anonymous": false,
      "inputs": [
        {
          "indexed": true,
          "name": "from",
          "type": "address"
        },
        {
          "indexed": true,
          "name": "to",
          "type": "address"
        },
        {
          "indexed": false,
          "name": "value",
          "type": "uint256"
        }
      ],
      "name": "SubscriptionPaid",
      "type": "event"
    },
    {
      "anonymous": false,
      "inputs": [
        {
          "indexed": false,
          "name": "addr1",
          "type": "address"
        },
        {
          "indexed": false,
          "name": "addr2",
          "type": "address"
        },
        {
          "indexed": false,
          "name": "data",
          "type": "string"
        }
      ],
      "name": "TestLog",
      "type": "event"
    }
  ],
  "bytecode": "0x6060604052341561000f57600080fd5b60405160408061213e8339810160405280805190602001909190805190602001909190505080600181905550816000806101000a81548173ffffffffffffffffffffffffffffffffffffffff021916908373ffffffffffffffffffffffffffffffffffffffff16021790555050506120b28061008c6000396000f3006060604052600436106100a4576000357c0100000000000000000000000000000000000000000000000000000000900463ffffffff1680632faf44f6146100a95780635164fab4146100e857806370a082311461014f5780637b7886131461019c578063a8cd0a80146101fa578063a9059cbb1461024f578063c3b6f939146102a9578063c94d14ad146102fe578063d28b669d14610365578063df21b6f6146103d7575b600080fd5b34156100b457600080fd5b6100ce600480803560001916906020019091905050610400565b604051808215151515815260200191505060405180910390f35b34156100f357600080fd5b61013560048080356000191690602001909190803590602001909190803573ffffffffffffffffffffffffffffffffffffffff16906020019091905050610d99565b604051808215151515815260200191505060405180910390f35b341561015a57600080fd5b610186600480803573ffffffffffffffffffffffffffffffffffffffff169060200190919050506114c1565b6040518082815260200191505060405180910390f35b34156101a757600080fd5b6101e0600480803573ffffffffffffffffffffffffffffffffffffffff16906020019091908035600019169060200190919050506115a9565b604051808215151515815260200191505060405180910390f35b341561020557600080fd5b61020d6115f0565b604051808273ffffffffffffffffffffffffffffffffffffffff1673ffffffffffffffffffffffffffffffffffffffff16815260200191505060405180910390f35b341561025a57600080fd5b61028f600480803573ffffffffffffffffffffffffffffffffffffffff1690602001909190803590602001909190505061169f565b604051808215151515815260200191505060405180910390f35b34156102b457600080fd5b6102bc611790565b604051808273ffffffffffffffffffffffffffffffffffffffff1673ffffffffffffffffffffffffffffffffffffffff16815260200191505060405180910390f35b341561030957600080fd5b6103236004808035600019169060200190919050506117b5565b604051808273ffffffffffffffffffffffffffffffffffffffff1673ffffffffffffffffffffffffffffffffffffffff16815260200191505060405180910390f35b341561037057600080fd5b61038a6004808035600019169060200190919050506117fa565b604051808373ffffffffffffffffffffffffffffffffffffffff1673ffffffffffffffffffffffffffffffffffffffff168152602001821515151581526020019250505060405180910390f35b34156103e257600080fd5b6103ea61191e565b6040518082815260200191505060405180910390f35b600061040a611cf9565b60008060008086600060046000836000191660001916815260200190815260200160002060009054906101000a900473ffffffffffffffffffffffffffffffffffffffff1673ffffffffffffffffffffffffffffffffffffffff161415151561047257600080fd5b6040805190810160405280601981526020017f456e746572642066756e6374696f6e207375627363726962650000000000000081525095507f384f94cf8aadf04b8c95f3019e847f9b4cc367463b059bd2a1cba81af0a6d00d333388604051808473ffffffffffffffffffffffffffffffffffffffff1673ffffffffffffffffffffffffffffffffffffffff1681526020018373ffffffffffffffffffffffffffffffffffffffff1673ffffffffffffffffffffffffffffffffffffffff16815260200180602001828103825283818151815260200191508051906020019080838360005b83811015610572578082015181840152602081019050610557565b50505050905090810190601f16801561059f5780820380516001836020036101000a031916815260200191505b5094505050505060405180910390a160046000896000191660001916815260200190815260200160002060009054906101000a900473ffffffffffffffffffffffffffffffffffffffff1694506105f585611924565b15151561060157600080fd5b600260008673ffffffffffffffffffffffffffffffffffffffff1673ffffffffffffffffffffffffffffffffffffffff1681526020019081526020016000206002016000896000191660001916815260200190815260200160002093508360020160149054906101000a900460ff16151561067b57600080fd5b61068a3386866001015461198e565b151561069557600080fd5b838360000160008201548160000190600019169055600182015481600101556002820160009054906101000a900473ffffffffffffffffffffffffffffffffffffffff168160020160006101000a81548173ffffffffffffffffffffffffffffffffffffffff021916908373ffffffffffffffffffffffffffffffffffffffff1602179055506002820160149054906101000a900460ff168160020160146101000a81548160ff0219169083151502179055509050504283600301819055506001544201836004018190555061076a33611c8f565b15610aaa57338260000160006101000a81548173ffffffffffffffffffffffffffffffffffffffff021916908373ffffffffffffffffffffffffffffffffffffffff16021790555060018260000160146101000a81548160ff0219169083151502179055508160010180548060010182816107e59190611d0d565b91600052602060002090600502016000859091909150600082018160000160008201548160000190600019169055600182015481600101556002820160009054906101000a900473ffffffffffffffffffffffffffffffffffffffff168160020160006101000a81548173ffffffffffffffffffffffffffffffffffffffff021916908373ffffffffffffffffffffffffffffffffffffffff1602179055506002820160149054906101000a900460ff168160020160146101000a81548160ff02191690831515021790555050506003820154816003015560048201548160040155505050828260020160008a60001916600019168152602001908152602001600020600082018160000160008201548160000190600019169055600182015481600101556002820160009054906101000a900473ffffffffffffffffffffffffffffffffffffffff168160020160006101000a81548173ffffffffffffffffffffffffffffffffffffffff021916908373ffffffffffffffffffffffffffffffffffffffff1602179055506002820160149054906101000a900460ff168160020160146101000a81548160ff0219169083151502179055505050600382015481600301556004820154816004015590505081600360003373ffffffffffffffffffffffffffffffffffffffff1673ffffffffffffffffffffffffffffffffffffffff1681526020019081526020016000206000820160009054906101000a900473ffffffffffffffffffffffffffffffffffffffff168160000160006101000a81548173ffffffffffffffffffffffffffffffffffffffff021916908373ffffffffffffffffffffffffffffffffffffffff1602179055506000820160149054906101000a900460ff168160000160146101000a81548160ff0219169083151502179055506001820181600101908054610aa1929190611d3f565b50905050610d0f565b600360003373ffffffffffffffffffffffffffffffffffffffff1673ffffffffffffffffffffffffffffffffffffffff1681526020019081526020016000206001018054806001018281610afe9190611d0d565b91600052602060002090600502016000859091909150600082018160000160008201548160000190600019169055600182015481600101556002820160009054906101000a900473ffffffffffffffffffffffffffffffffffffffff168160020160006101000a81548173ffffffffffffffffffffffffffffffffffffffff021916908373ffffffffffffffffffffffffffffffffffffffff1602179055506002820160149054906101000a900460ff168160020160146101000a81548160ff0219169083151502179055505050600382015481600301556004820154816004015550505082600360003373ffffffffffffffffffffffffffffffffffffffff1673ffffffffffffffffffffffffffffffffffffffff16815260200190815260200160002060020160008a60001916600019168152602001908152602001600020600082018160000160008201548160000190600019169055600182015481600101556002820160009054906101000a900473ffffffffffffffffffffffffffffffffffffffff168160020160006101000a81548173ffffffffffffffffffffffffffffffffffffffff021916908373ffffffffffffffffffffffffffffffffffffffff1602179055506002820160149054906101000a900460ff168160020160146101000a81548160ff021916908315150217905550505060038201548160030155600482015481600401559050505b8473ffffffffffffffffffffffffffffffffffffffff1688600019163373ffffffffffffffffffffffffffffffffffffffff167f7a3f54da83d294e3b226e50ae5a65e87cff0f43f8699003833a1ee6670c800e68760010154600160405180838152602001821515151581526020019250505060405180910390a460019650505050505050919050565b60008060008460008110151515610daf57600080fd5b86600060046000836000191660001916815260200190815260200160002060009054906101000a900473ffffffffffffffffffffffffffffffffffffffff1673ffffffffffffffffffffffffffffffffffffffff16141515610e1057600080fd5b600073ffffffffffffffffffffffffffffffffffffffff168673ffffffffffffffffffffffffffffffffffffffff1614151515610e4c57600080fd5b85600460008a6000191660001916815260200190815260200160002060006101000a81548173ffffffffffffffffffffffffffffffffffffffff021916908373ffffffffffffffffffffffffffffffffffffffff16021790555087846000018160001916905550868460010181905550858460020160006101000a81548173ffffffffffffffffffffffffffffffffffffffff021916908373ffffffffffffffffffffffffffffffffffffffff16021790555060018460020160146101000a81548160ff021916908315150217905550610f2586611924565b1561122957858360000160006101000a81548173ffffffffffffffffffffffffffffffffffffffff021916908373ffffffffffffffffffffffffffffffffffffffff16021790555060018360000160146101000a81548160ff021916908315150217905550826001018054806001018281610fa09190611e63565b9160005260206000209060030201600086909190915060008201548160000190600019169055600182015481600101556002820160009054906101000a900473ffffffffffffffffffffffffffffffffffffffff168160020160006101000a81548173ffffffffffffffffffffffffffffffffffffffff021916908373ffffffffffffffffffffffffffffffffffffffff1602179055506002820160149054906101000a900460ff168160020160146101000a81548160ff021916908315150217905550505050838360020160008a6000191660001916815260200190815260200160002060008201548160000190600019169055600182015481600101556002820160009054906101000a900473ffffffffffffffffffffffffffffffffffffffff168160020160006101000a81548173ffffffffffffffffffffffffffffffffffffffff021916908373ffffffffffffffffffffffffffffffffffffffff1602179055506002820160149054906101000a900460ff168160020160146101000a81548160ff02191690831515021790555090505082600260008873ffffffffffffffffffffffffffffffffffffffff1673ffffffffffffffffffffffffffffffffffffffff1681526020019081526020016000206000820160009054906101000a900473ffffffffffffffffffffffffffffffffffffffff168160000160006101000a81548173ffffffffffffffffffffffffffffffffffffffff021916908373ffffffffffffffffffffffffffffffffffffffff1602179055506000820160149054906101000a900460ff168160000160146101000a81548160ff0219169083151502179055506001820181600101908054611220929190611e95565b50905050611452565b600260008773ffffffffffffffffffffffffffffffffffffffff1673ffffffffffffffffffffffffffffffffffffffff168152602001908152602001600020600101805480600101828161127d9190611e63565b9160005260206000209060030201600086909190915060008201548160000190600019169055600182015481600101556002820160009054906101000a900473ffffffffffffffffffffffffffffffffffffffff168160020160006101000a81548173ffffffffffffffffffffffffffffffffffffffff021916908373ffffffffffffffffffffffffffffffffffffffff1602179055506002820160149054906101000a900460ff168160020160146101000a81548160ff02191690831515021790555050505083600260008873ffffffffffffffffffffffffffffffffffffffff1673ffffffffffffffffffffffffffffffffffffffff16815260200190815260200160002060020160008a6000191660001916815260200190815260200160002060008201548160000190600019169055600182015481600101556002820160009054906101000a900473ffffffffffffffffffffffffffffffffffffffff168160020160006101000a81548173ffffffffffffffffffffffffffffffffffffffff021916908373ffffffffffffffffffffffffffffffffffffffff1602179055506002820160149054906101000a900460ff168160020160146101000a81548160ff0219169083151502179055509050505b87600019168673ffffffffffffffffffffffffffffffffffffffff167f32362a6c8f018375704733c0f0c66d6e2d1d6a96d031af978ccc46aaf2d2547e89600160405180838152602001821515151581526020019250505060405180910390a360019450505050509392505050565b60008060009054906101000a900473ffffffffffffffffffffffffffffffffffffffff1673ffffffffffffffffffffffffffffffffffffffff166370a08231836000604051602001526040518263ffffffff167c0100000000000000000000000000000000000000000000000000000000028152600401808273ffffffffffffffffffffffffffffffffffffffff1673ffffffffffffffffffffffffffffffffffffffff168152602001915050602060405180830381600087803b151561158757600080fd5b6102c65a03f1151561159857600080fd5b505050604051805190509050919050565b60008073ffffffffffffffffffffffffffffffffffffffff168373ffffffffffffffffffffffffffffffffffffffff16141515156115e657600080fd5b6001905092915050565b60008060009054906101000a900473ffffffffffffffffffffffffffffffffffffffff1673ffffffffffffffffffffffffffffffffffffffff1663a8cd0a806000604051602001526040518163ffffffff167c0100000000000000000000000000000000000000000000000000000000028152600401602060405180830381600087803b151561167f57600080fd5b6102c65a03f1151561169057600080fd5b50505060405180519050905090565b60008060009054906101000a900473ffffffffffffffffffffffffffffffffffffffff1673ffffffffffffffffffffffffffffffffffffffff1663a9059cbb84846000604051602001526040518363ffffffff167c0100000000000000000000000000000000000000000000000000000000028152600401808373ffffffffffffffffffffffffffffffffffffffff1673ffffffffffffffffffffffffffffffffffffffff16815260200182815260200192505050602060405180830381600087803b151561176d57600080fd5b6102c65a03f1151561177e57600080fd5b50505060405180519050905092915050565b6000809054906101000a900473ffffffffffffffffffffffffffffffffffffffff1681565b600060046000836000191660001916815260200190815260200160002060009054906101000a900473ffffffffffffffffffffffffffffffffffffffff169050919050565b60008060008060046000866000191660001916815260200190815260200160002060009054906101000a900473ffffffffffffffffffffffffffffffffffffffff169150600260008373ffffffffffffffffffffffffffffffffffffffff1673ffffffffffffffffffffffffffffffffffffffff1681526020019081526020016000206002016000866000191660001916815260200190815260200160002060020160009054906101000a900473ffffffffffffffffffffffffffffffffffffffff169150600260008373ffffffffffffffffffffffffffffffffffffffff1673ffffffffffffffffffffffffffffffffffffffff16815260200190815260200160002060000160149054906101000a900460ff1690508181935093505050915091565b60015481565b6000600260008373ffffffffffffffffffffffffffffffffffffffff1673ffffffffffffffffffffffffffffffffffffffff16815260200190815260200160002060000160149054906101000a900460ff16156119845760009050611989565b600190505b919050565b6000808473ffffffffffffffffffffffffffffffffffffffff16141580156119cd575060008373ffffffffffffffffffffffffffffffffffffffff1614155b15156119d857600080fd5b816000809054906101000a900473ffffffffffffffffffffffffffffffffffffffff1673ffffffffffffffffffffffffffffffffffffffff1663dd62ed3e86306000604051602001526040518363ffffffff167c0100000000000000000000000000000000000000000000000000000000028152600401808373ffffffffffffffffffffffffffffffffffffffff1673ffffffffffffffffffffffffffffffffffffffff1681526020018273ffffffffffffffffffffffffffffffffffffffff1673ffffffffffffffffffffffffffffffffffffffff16815260200192505050602060405180830381600087803b1515611ad157600080fd5b6102c65a03f11515611ae257600080fd5b5050506040518051905010151515611af957600080fd5b6000809054906101000a900473ffffffffffffffffffffffffffffffffffffffff1673ffffffffffffffffffffffffffffffffffffffff166323b872dd8585856000604051602001526040518463ffffffff167c0100000000000000000000000000000000000000000000000000000000028152600401808473ffffffffffffffffffffffffffffffffffffffff1673ffffffffffffffffffffffffffffffffffffffff1681526020018373ffffffffffffffffffffffffffffffffffffffff1673ffffffffffffffffffffffffffffffffffffffff1681526020018281526020019350505050602060405180830381600087803b1515611bf957600080fd5b6102c65a03f11515611c0a57600080fd5b505050604051805190501515611c1f57600080fd5b8273ffffffffffffffffffffffffffffffffffffffff168473ffffffffffffffffffffffffffffffffffffffff167f61d5a030a62b111bb4620b2384fda4f668ab96926be144af11c9b5b4db2a260e846040518082815260200191505060405180910390a3600190509392505050565b6000600360008373ffffffffffffffffffffffffffffffffffffffff1673ffffffffffffffffffffffffffffffffffffffff16815260200190815260200160002060000160149054906101000a900460ff1615611cef5760009050611cf4565b600190505b919050565b602060405190810160405280600081525090565b815481835581811511611d3a57600502816005028360005260206000209182019101611d399190611f9b565b5b505050565b828054828255906000526020600020906005028101928215611e525760005260206000209160050282015b82811115611e51578282600082018160000160008201548160000190600019169055600182015481600101556002820160009054906101000a900473ffffffffffffffffffffffffffffffffffffffff168160020160006101000a81548173ffffffffffffffffffffffffffffffffffffffff021916908373ffffffffffffffffffffffffffffffffffffffff1602179055506002820160149054906101000a900460ff168160020160146101000a81548160ff02191690831515021790555050506003820154816003015560048201548160040155505091600501919060050190611d6a565b5b509050611e5f9190611f9b565b5090565b815481835581811511611e9057600302816003028360005260206000209182019101611e8f919061201c565b5b505050565b828054828255906000526020600020906003028101928215611f8a5760005260206000209160030282015b82811115611f8957828260008201548160000190600019169055600182015481600101556002820160009054906101000a900473ffffffffffffffffffffffffffffffffffffffff168160020160006101000a81548173ffffffffffffffffffffffffffffffffffffffff021916908373ffffffffffffffffffffffffffffffffffffffff1602179055506002820160149054906101000a900460ff168160020160146101000a81548160ff021916908315150217905550505091600301919060030190611ec0565b5b509050611f97919061201c565b5090565b61201991905b8082111561201557600080820160008082016000905560018201600090556002820160006101000a81549073ffffffffffffffffffffffffffffffffffffffff02191690556002820160146101000a81549060ff021916905550506003820160009055600482016000905550600501611fa1565b5090565b90565b61208391905b8082111561207f5760008082016000905560018201600090556002820160006101000a81549073ffffffffffffffffffffffffffffffffffffffff02191690556002820160146101000a81549060ff021916905550600301612022565b5090565b905600a165627a7a7230582057722623a6c6ded976df005f17f5d8f66c1d5848f084be7489904e2f684a4b640029",
  "source": "pragma solidity ^0.4.18;\n\n\nimport \"./MarketPlaceInterface.sol\";\n\n\ncontract IERC20 {\n  function balanceOf(address who) public constant returns (uint256);\n  function transfer(address to, uint256 value) public returns (bool);\n  function allowance(address owner, address spender) public constant returns (uint256);\n  function transferFrom(address from, address to, uint256 value) public returns (bool);\n  function approve(address spender, uint256 value) public returns (bool);\n  function getTest() public view returns (address);\n  event Transfer(address indexed from, address indexed to, uint256 value);\n  event Approval(address indexed owner, address indexed spender, uint256 value);\n}\n// contract ERC20 {\n//   uint256 public totalSupply;\n//   function balanceOf(address who) public constant returns (uint256);\n//   function transfer(address to, uint256 value) public returns (bool);\n//   function getTest() public view returns (address);\n//   event Transfer(address indexed from, address indexed to, uint256 value);\n// }\n\n\ncontract MarketPlace is MarketPlaceInterface\n{\n\t/*Data structures */\n\n\t/* A provider can have many DataSource's*/\n\tstruct DataSource{\n\t\tbytes32 name;\n\t\tuint monthlyPrice;\n\t\taddress owner;\n\t\tbool isData;\n\t}\n\t/* A Provider is unique per address*/\n\tstruct DataProvider{\n\t\taddress owner;\n\t\tbool isProvider;\n\t\tDataSource[] sourcesList;\n\t\tmapping(bytes32=>DataSource) sourcesMap;\n\t}\n\t/* A Subscriber can have many SubscribedDataSource's*/\n\tstruct SubscribedDataSource{\n\t\tDataSource dataSource;\n\t\tuint startTime;\n\t\tuint endTime;\n\t}\n\t/* Subscriber is Unique per address*/\n\tstruct Subscriber{\n\t\taddress subscriber;\n\t\tbool isSubscriber;\n\t\tSubscribedDataSource[] sourcesList;\n\t\tmapping(bytes32=>SubscribedDataSource) sourcesMap;\n\t}\n\t/* State variables */\n\t\n\t// Enigma Token\n\tIERC20 public mToken;\n\t// Fixed time defined in the C'tor (unixTimeStamp)\n\tuint public mFixedSubscriptionPeriod;\n\t// Mapping addres owner to DataProvider - Names must be unique\n\tmapping(address => DataProvider) mDataProviders;\n\t// Mapping Address to Subscription\n\tmapping(address => Subscriber) mSubscribers;\n\t// Names map - works like a hashshet.\n\tmapping(bytes32 => address) mNameMap;\n\n\tfunction MarketPlace(address _tokenAddress, uint _fixedSubscriptionPeriod) public \n\t{\n\t\tmFixedSubscriptionPeriod = _fixedSubscriptionPeriod;\n\t\tmToken = IERC20(_tokenAddress);\n\t}\n\n\tfunction subscribe(bytes32 _dataSourceName) \n\tpublic \n\tdataSourceNameExist(_dataSourceName) \n\treturns (bool)\n\t{\n\t\tstring memory testData = \"Enterd function subscribe\";\n\t\tTestLog(msg.sender,msg.sender, testData);\n\t\t// pay and verify\n\t\taddress providerAddress = mNameMap[_dataSourceName];\n\t\trequire(!isNewProvider(providerAddress));\n\t\tDataSource ds = mDataProviders[providerAddress].sourcesMap[_dataSourceName];\n\t\trequire(ds.isData);\n\t\tSubscribedDataSource storage sds;\n\t\trequire(safeTransfer(msg.sender,providerAddress,ds.monthlyPrice));\n\t\t\n\t\t// update subscription details\n\t\tsds.dataSource = ds;\n\t\tsds.startTime = now; \n\t\tsds.endTime = now + mFixedSubscriptionPeriod;\n\n\t\tif(isNewSubscriber(msg.sender))\n\t\t{\n\t\t\tSubscriber subscriber;\n\t\t\tsubscriber.subscriber = msg.sender;\n\t\t\tsubscriber.isSubscriber = true;\n\t\t\tsubscriber.sourcesList.push(sds);\n\t\t\tsubscriber.sourcesMap[_dataSourceName] = sds;\t\t\n\t\t\tmSubscribers[msg.sender] = subscriber;\n\t\t}\n\t\telse\n\t\t{\n\t\t\tmSubscribers[msg.sender].sourcesList.push(sds);\n\t\t\tmSubscribers[msg.sender].sourcesMap[_dataSourceName] = sds;\n\t\t}\n\t\tSubscribed(msg.sender,_dataSourceName, providerAddress, ds.monthlyPrice, true);\n\t\treturn true;\n\t}\n\tfunction register(bytes32 _dataSourceName, uint _price, address _dataOwner) \n\tpublic \n\tvalidPrice(_price)\n\tuniqueDataSourceName(_dataSourceName) \n\treturns (bool)\n\t{\n\t\trequire(_dataOwner != address(0));\n\n\t\t// create a data source\n\t\tmNameMap[_dataSourceName] = _dataOwner;\t\n\t\tDataSource storage ds;\n\t\tds.name = _dataSourceName;\n\t\tds.monthlyPrice = _price;\n\t\tds.owner = _dataOwner;\n\t\tds.isData = true;\n\n\t\tif(isNewProvider(_dataOwner)) // New Provider (Address identifier)\n\t\t{\n\t\t\t// create a data provider \n\t\t\tDataProvider storage dp;\n\t\t\tdp.owner = _dataOwner;\n\t\t\tdp.isProvider = true;\n\t\t\tdp.sourcesList.push(ds);\n\t\t\tdp.sourcesMap[_dataSourceName] = ds;\n\t\t\tmDataProviders[_dataOwner] = dp;\n\t\t}\n\t\telse // Existing Provider (New DataSource)\n\t\t{\n\t\t\tmDataProviders[_dataOwner].sourcesList.push(ds);\n\t\t\tmDataProviders[_dataOwner].sourcesMap[_dataSourceName] = ds;\n\t\t}\n\t\tRegistered(_dataOwner, _dataSourceName, _price, true);\n\t\treturn true;\n\t}\n\n\tfunction checkAddressSubscription(address _subscriber, bytes32 _dataSourceName) public returns (bool)\n\t{\n\t\trequire(_subscriber != address(0));\n\t\treturn true;\n\t}\n\n\tfunction getOwnerFromName(bytes32 _dataSourceName) public view returns(address)\n\t{\n\t\treturn mNameMap[_dataSourceName];\n\t}\n\tfunction getDataSource(bytes32 _dataSourceName) public view returns(address,bool)\n\t{\n\t\taddress owner = mNameMap[_dataSourceName];\n\t\towner = mDataProviders[owner].sourcesMap[_dataSourceName].owner;\n\t\tbool flag = mDataProviders[owner].isProvider;\n\t\treturn (owner,flag);\n\t}\n\t/*\n\t\tInternal Functions\n\t*/\n\tfunction isNewProvider(address _testProvider) internal view returns (bool)\n\t{\n\t\tif(mDataProviders[_testProvider].isProvider)\n\t\t\treturn false;\n\t\telse\n\t\t\treturn true;\n\t}\n\tfunction isNewSubscriber(address _testSubscriber) internal view returns (bool)\n\t{\n\t\tif(mSubscribers[_testSubscriber].isSubscriber)\n\t\t\treturn false;\n\t\telse\n\t\t\treturn true;\n\t}\n\tfunction safeTransfer(address _from, address _to, uint256 _amount) internal returns (bool){\n\t\trequire(address(_from) != 0 && address(_to)!=0);\n\t\trequire(mToken.allowance(_from,address(this)) >= _amount);\n\t\trequire(mToken.transferFrom(_from,_to,_amount));\n\t\tSubscriptionPaid(_from, _to, _amount);\n\t\treturn true;\n\t}\n\t/*\n\t\tModifiers\n\t*/\n\tmodifier uniqueDataSourceName(bytes32 _testName)\n\t{\n\t\trequire(mNameMap[_testName]==0);\n\t\t_;\n\t}\n\tmodifier validPrice(uint _testPrice)\n\t{\n\t\trequire(_testPrice>=0);\n\t\t_;\n\t}\n\tmodifier dataSourceNameExist(bytes32 _testName)\n\t{\n\t\trequire(mNameMap[_testName] != 0);\n\t\t_;\n\t}\n\t/* TO BE DELETED */\n\tfunction getTest() public view returns (address){\n\t\treturn mToken.getTest();\n\t}\n\tfunction balanceOf(address who) public constant returns (uint256){\n\t\treturn mToken.balanceOf(who);\n\t}\n\tfunction transfer(address to, uint256 value) public returns (bool){\n\t\treturn mToken.transfer(to,value);\n\t}\n\n}",
  "sourcePath": "/home/wilder/Desktop/Enigma/DataMarketProject/marketPlace_WS/smart_contract_marketplace/contracts/MarketPlace.sol",
  "compiler": {
    "name": "solc",
    "version": "0.4.18+commit.9cf6e910.Emscripten.clang"
  },
  "schemaVersion": "1.0.1",
  "updatedAt": "2018-01-19T13:53:48.785Z"
}