{
  "contractName": "MarketPlace",
  "abi": [
    {
      "constant": false,
      "inputs": [
        {
          "name": "_dataSourceName",
          "type": "bytes32"
        }
      ],
      "name": "subscribe",
      "outputs": [
        {
          "name": "",
          "type": "bool"
        }
      ],
      "payable": false,
      "stateMutability": "nonpayable",
      "type": "function"
    },
    {
      "constant": false,
      "inputs": [
        {
          "name": "_dataSourceName",
          "type": "bytes32"
        },
        {
          "name": "_price",
          "type": "uint256"
        },
        {
          "name": "_dataOwner",
          "type": "address"
        }
      ],
      "name": "register",
      "outputs": [
        {
          "name": "",
          "type": "bool"
        }
      ],
      "payable": false,
      "stateMutability": "nonpayable",
      "type": "function"
    },
    {
      "constant": false,
      "inputs": [
        {
          "name": "_subscriber",
          "type": "address"
        },
        {
          "name": "_dataSourceName",
          "type": "bytes32"
        }
      ],
      "name": "checkAddressSubscription",
      "outputs": [
        {
          "name": "",
          "type": "bool"
        }
      ],
      "payable": false,
      "stateMutability": "nonpayable",
      "type": "function"
    },
    {
      "constant": true,
      "inputs": [],
      "name": "getTest",
      "outputs": [
        {
          "name": "",
          "type": "address"
        }
      ],
      "payable": false,
      "stateMutability": "view",
      "type": "function"
    },
    {
      "constant": true,
      "inputs": [],
      "name": "mToken",
      "outputs": [
        {
          "name": "",
          "type": "address"
        }
      ],
      "payable": false,
      "stateMutability": "view",
      "type": "function"
    },
    {
      "inputs": [
        {
          "name": "_enigmaToken",
          "type": "address"
        },
        {
          "name": "_fixedSubscriptionPeriod",
          "type": "uint256"
        }
      ],
      "payable": false,
      "stateMutability": "nonpayable",
      "type": "constructor"
    },
    {
      "anonymous": false,
      "inputs": [
        {
          "indexed": false,
          "name": "subscriber",
          "type": "address"
        },
        {
          "indexed": false,
          "name": "dataSourceName",
          "type": "bytes32"
        },
        {
          "indexed": false,
          "name": "dataOwner",
          "type": "address"
        },
        {
          "indexed": false,
          "name": "price",
          "type": "uint256"
        }
      ],
      "name": "Subscribed",
      "type": "event"
    },
    {
      "anonymous": false,
      "inputs": [
        {
          "indexed": false,
          "name": "dataOwner",
          "type": "address"
        },
        {
          "indexed": false,
          "name": "dataSourceName",
          "type": "bytes32"
        },
        {
          "indexed": false,
          "name": "price",
          "type": "uint256"
        }
      ],
      "name": "Registered",
      "type": "event"
    }
  ],
  "bytecode": "0x6060604052341561000f57600080fd5b6040516040806109fa8339810160405280805190602001909190805190602001909190505080600181905550816000806101000a81548173ffffffffffffffffffffffffffffffffffffffff021916908373ffffffffffffffffffffffffffffffffffffffff160217905550505061096e8061008c6000396000f30060606040526004361061006d576000357c0100000000000000000000000000000000000000000000000000000000900463ffffffff1680632faf44f6146100725780635164fab4146100b15780637b78861314610118578063a8cd0a8014610176578063c3b6f939146101cb575b600080fd5b341561007d57600080fd5b610097600480803560001916906020019091905050610220565b604051808215151515815260200191505060405180910390f35b34156100bc57600080fd5b6100fe60048080356000191690602001909190803590602001909190803573ffffffffffffffffffffffffffffffffffffffff1690602001909190505061022b565b604051808215151515815260200191505060405180910390f35b341561012357600080fd5b61015c600480803573ffffffffffffffffffffffffffffffffffffffff169060200190919080356000191690602001909190505061065c565b604051808215151515815260200191505060405180910390f35b341561018157600080fd5b6101896106a3565b604051808273ffffffffffffffffffffffffffffffffffffffff1673ffffffffffffffffffffffffffffffffffffffff16815260200191505060405180910390f35b34156101d657600080fd5b6101de610752565b604051808273ffffffffffffffffffffffffffffffffffffffff1673ffffffffffffffffffffffffffffffffffffffff16815260200191505060405180910390f35b600060019050919050565b60008084600060046000836000191660001916815260200190815260200160002060009054906101000a900473ffffffffffffffffffffffffffffffffffffffff1673ffffffffffffffffffffffffffffffffffffffff1614151561028f57600080fd5b600073ffffffffffffffffffffffffffffffffffffffff168473ffffffffffffffffffffffffffffffffffffffff16141515156102cb57600080fd5b8360046000886000191660001916815260200190815260200160002060006101000a81548173ffffffffffffffffffffffffffffffffffffffff021916908373ffffffffffffffffffffffffffffffffffffffff16021790555061032e84610777565b1561054b57838260000160006101000a81548173ffffffffffffffffffffffffffffffffffffffff021916908373ffffffffffffffffffffffffffffffffffffffff16021790555060018260000160146101000a81548160ff0219169083151502179055508160010180548060010182816103a991906107e1565b916000526020600020906003020160006060604051908101604052808a6000191681526020018981526020018873ffffffffffffffffffffffffffffffffffffffff168152509091909150600082015181600001906000191690556020820151816001015560408201518160020160006101000a81548173ffffffffffffffffffffffffffffffffffffffff021916908373ffffffffffffffffffffffffffffffffffffffff16021790555050505081600260008673ffffffffffffffffffffffffffffffffffffffff1673ffffffffffffffffffffffffffffffffffffffff1681526020019081526020016000206000820160009054906101000a900473ffffffffffffffffffffffffffffffffffffffff168160000160006101000a81548173ffffffffffffffffffffffffffffffffffffffff021916908373ffffffffffffffffffffffffffffffffffffffff1602179055506000820160149054906101000a900460ff168160000160146101000a81548160ff0219169083151502179055506001820181600101908054610542929190610813565b5090505061064f565b600260008573ffffffffffffffffffffffffffffffffffffffff1673ffffffffffffffffffffffffffffffffffffffff168152602001908152602001600020600101805480600101828161059f91906107e1565b916000526020600020906003020160006060604051908101604052808a6000191681526020018981526020018873ffffffffffffffffffffffffffffffffffffffff168152509091909150600082015181600001906000191690556020820151816001015560408201518160020160006101000a81548173ffffffffffffffffffffffffffffffffffffffff021916908373ffffffffffffffffffffffffffffffffffffffff1602179055505050505b6001925050509392505050565b60008073ffffffffffffffffffffffffffffffffffffffff168373ffffffffffffffffffffffffffffffffffffffff161415151561069957600080fd5b6001905092915050565b60008060009054906101000a900473ffffffffffffffffffffffffffffffffffffffff1673ffffffffffffffffffffffffffffffffffffffff1663a8cd0a806000604051602001526040518163ffffffff167c0100000000000000000000000000000000000000000000000000000000028152600401602060405180830381600087803b151561073257600080fd5b6102c65a03f1151561074357600080fd5b50505060405180519050905090565b6000809054906101000a900473ffffffffffffffffffffffffffffffffffffffff1681565b6000600260008373ffffffffffffffffffffffffffffffffffffffff1673ffffffffffffffffffffffffffffffffffffffff16815260200190815260200160002060000160149054906101000a900460ff16156107d757600090506107dc565b600190505b919050565b81548183558181151161080e5760030281600302836000526020600020918201910161080d91906108ec565b5b505050565b8280548282559060005260206000209060030281019282156108db5760005260206000209160030282015b828111156108da57828260008201548160000190600019169055600182015481600101556002820160009054906101000a900473ffffffffffffffffffffffffffffffffffffffff168160020160006101000a81548173ffffffffffffffffffffffffffffffffffffffff021916908373ffffffffffffffffffffffffffffffffffffffff16021790555050509160030191906003019061083e565b5b5090506108e891906108ec565b5090565b61093f91905b8082111561093b5760008082016000905560018201600090556002820160006101000a81549073ffffffffffffffffffffffffffffffffffffffff0219169055506003016108f2565b5090565b905600a165627a7a72305820f1af1bdc90af3b0ce81f9894b807af1f190889b9d0f4d63e6c0cc49c22026bdd0029",
  "source": "pragma solidity ^0.4.18;\n\nimport \"./ERC20Interface.sol\";\nimport \"./MarketPlaceInterface.sol\";\n\ncontract MarketPlace is MarketPlaceInterface\n{\n\t/*Data structures */\n\n\tstruct DataSource{\n\t\tbytes32 name;\n\t\tuint monthlyPrice;\n\t\taddress owner;\n\t}\n\tstruct DataProvider{\n\t\taddress owner;\n\t\tbool isProvider;\n\t\tDataSource[] sources;\n\t}\n\tstruct SubscribedDataSource{\n\t\tDataSource dataSource;\n\t\tuint startTime;\n\t\tuint endTime;\n\t}\n\tstruct Subscriber{\n\t\taddress subscriber;\n\t\tSubscribedDataSource[] sources;\n\t}\n\t/* State variables */\n\n\t// Enigma Token\n\tERC20Interface public mToken;\n\t// Fixed time defined in the C'tor (unixTimeStamp)\n\tuint private mFixedSubscriptionPeriod;\n\t// Mapping addres owner to DataProvider - Names must be unique\n\tmapping(address => DataProvider) mDataProviders;\n\t// Mapping Address to Subscription\n\tmapping(address => Subscriber) mSubscribers;\n\t// Names map - works like a hashshet.\n\tmapping(bytes32 => address) mNameMap;\n\n\tfunction MarketPlace(address _enigmaToken, uint _fixedSubscriptionPeriod) public \n\t{\n\t\tmFixedSubscriptionPeriod = _fixedSubscriptionPeriod;\n\t\tmToken = ERC20Interface(_enigmaToken);\n\t}\n\n\tfunction subscribe(bytes32 _dataSourceName) public returns (bool)\n\t{\n\n\t\t//function transfer(address to, uint tokens) public returns (bool success);\n\t\treturn true;\n\t}\n\tfunction register(bytes32 _dataSourceName, uint _price, address _dataOwner) \n\tpublic \n\tuniqueDataSourceName(_dataSourceName) \n\treturns (bool)\n\t{\n\t\trequire(_dataOwner != address(0));\n\t\tmNameMap[_dataSourceName] = _dataOwner;\t\n\t\tif(isNewProvider(_dataOwner)) // New Provider (Address identifier)\n\t\t{\n\t\t\t// create a data provider \n\t\t\tDataProvider dp;\n\t\t\tdp.owner = _dataOwner;\n\t\t\tdp.isProvider = true;\n\t\t\tdp.sources.push(DataSource({name:_dataSourceName,\n\t\t\t\t\t\t\t\t\t  monthlyPrice:_price,\n\t\t\t\t\t\t\t\t\t  owner:_dataOwner}));\n\t\t\tmDataProviders[_dataOwner] = dp;\n\t\t}\n\t\telse // Existing Provider (New DataSource)\n\t\t{\n\t\t\tmDataProviders[_dataOwner].sources.push(DataSource({\n\t\t\t\tname:_dataSourceName,\n\t\t\t\tmonthlyPrice:_price,\n\t\t\t\towner:_dataOwner\n\t\t\t}));\n\t\t}\n\t\treturn true;\n\t}\n\tfunction checkAddressSubscription(address _subscriber, bytes32 _dataSourceName) public returns (bool)\n\t{\n\t\trequire(_subscriber != address(0));\n\t\treturn true;\n\t}\n\tfunction isNewProvider(address _testProvider) internal view returns (bool)\n\t{\n\t\tif(mDataProviders[_testProvider].isProvider)\n\t\t\treturn false;\n\t\telse\n\t\t\treturn true;\n\t}\n\tmodifier uniqueDataSourceName(bytes32 _testName)\n\t{\n\t\trequire(mNameMap[_testName]==0);\n\t\t_;\n\t}\n\t/* TO BE DELETED */\n\tfunction getTest() public view returns (address){\n\t\treturn mToken.getTest();\n\t}\n}",
  "sourcePath": "/home/wilder/Desktop/Enigma/DataMarketProject/marketPlace_WS/smart_contract_marketplace/contracts/MarketPlace.sol",
  "compiler": {
    "name": "solc",
    "version": "0.4.18+commit.9cf6e910.Emscripten.clang"
  },
  "schemaVersion": "1.0.1",
  "updatedAt": "2018-01-17T20:01:39.852Z"
}