{
  "contractName": "Marketplace",
  "abi": [
    {
      "constant": true,
      "inputs": [
        {
          "name": "_dataSourceName",
          "type": "bytes32"
        }
      ],
      "name": "isActiveDataSource",
      "outputs": [
        {
          "name": "isActive",
          "type": "bool"
        }
      ],
      "payable": false,
      "stateMutability": "view",
      "type": "function"
    },
    {
      "constant": true,
      "inputs": [],
      "name": "FIXED_SUBSCRIPTION_PERIOD",
      "outputs": [
        {
          "name": "",
          "type": "uint256"
        }
      ],
      "payable": false,
      "stateMutability": "view",
      "type": "function"
    },
    {
      "constant": false,
      "inputs": [
        {
          "name": "_dataSourceName",
          "type": "bytes32"
        },
        {
          "name": "_isPunished",
          "type": "bool"
        }
      ],
      "name": "setPunishProvider",
      "outputs": [
        {
          "name": "success",
          "type": "bool"
        }
      ],
      "payable": false,
      "stateMutability": "nonpayable",
      "type": "function"
    },
    {
      "constant": true,
      "inputs": [
        {
          "name": "_dataSourceName",
          "type": "bytes32"
        }
      ],
      "name": "getDataProviderInfo",
      "outputs": [
        {
          "name": "owner",
          "type": "address"
        },
        {
          "name": "price",
          "type": "uint256"
        },
        {
          "name": "volume",
          "type": "uint256"
        },
        {
          "name": "subscriptionsNum",
          "type": "uint256"
        },
        {
          "name": "isProvider",
          "type": "bool"
        },
        {
          "name": "isActive",
          "type": "bool"
        },
        {
          "name": "isPunished",
          "type": "bool"
        }
      ],
      "payable": false,
      "stateMutability": "view",
      "type": "function"
    },
    {
      "constant": false,
      "inputs": [
        {
          "name": "_dataSourceName",
          "type": "bytes32"
        }
      ],
      "name": "subscribe",
      "outputs": [
        {
          "name": "success",
          "type": "bool"
        }
      ],
      "payable": false,
      "stateMutability": "nonpayable",
      "type": "function"
    },
    {
      "constant": false,
      "inputs": [
        {
          "name": "_dataSourceName",
          "type": "bytes32"
        },
        {
          "name": "_newPrice",
          "type": "uint256"
        }
      ],
      "name": "updateDataSourcePrice",
      "outputs": [
        {
          "name": "success",
          "type": "bool"
        }
      ],
      "payable": false,
      "stateMutability": "nonpayable",
      "type": "function"
    },
    {
      "constant": false,
      "inputs": [
        {
          "name": "_dataSourceName",
          "type": "bytes32"
        }
      ],
      "name": "withdrawProvider",
      "outputs": [
        {
          "name": "success",
          "type": "bool"
        }
      ],
      "payable": false,
      "stateMutability": "nonpayable",
      "type": "function"
    },
    {
      "constant": true,
      "inputs": [],
      "name": "getAllProviders",
      "outputs": [
        {
          "name": "",
          "type": "bytes32[]"
        }
      ],
      "payable": false,
      "stateMutability": "view",
      "type": "function"
    },
    {
      "constant": true,
      "inputs": [],
      "name": "getMarketplaceTotalBalance",
      "outputs": [
        {
          "name": "totalBalance",
          "type": "uint256"
        }
      ],
      "payable": false,
      "stateMutability": "view",
      "type": "function"
    },
    {
      "constant": false,
      "inputs": [
        {
          "name": "_dataSourceName",
          "type": "bytes32"
        }
      ],
      "name": "refundSubscriber",
      "outputs": [
        {
          "name": "success",
          "type": "bool"
        }
      ],
      "payable": false,
      "stateMutability": "nonpayable",
      "type": "function"
    },
    {
      "constant": false,
      "inputs": [
        {
          "name": "_dataSourceName",
          "type": "bytes32"
        },
        {
          "name": "_price",
          "type": "uint256"
        },
        {
          "name": "_dataOwner",
          "type": "address"
        }
      ],
      "name": "register",
      "outputs": [
        {
          "name": "success",
          "type": "bool"
        }
      ],
      "payable": false,
      "stateMutability": "nonpayable",
      "type": "function"
    },
    {
      "constant": true,
      "inputs": [
        {
          "name": "_dataSourceName",
          "type": "bytes32"
        }
      ],
      "name": "getWithdrawAmount",
      "outputs": [
        {
          "name": "withdrawAmount",
          "type": "uint256"
        }
      ],
      "payable": false,
      "stateMutability": "view",
      "type": "function"
    },
    {
      "constant": true,
      "inputs": [
        {
          "name": "_subscriber",
          "type": "address"
        },
        {
          "name": "_dataSourceName",
          "type": "bytes32"
        }
      ],
      "name": "checkAddressSubscription",
      "outputs": [
        {
          "name": "subscriber",
          "type": "address"
        },
        {
          "name": "dataSourceName",
          "type": "bytes32"
        },
        {
          "name": "price",
          "type": "uint256"
        },
        {
          "name": "startTime",
          "type": "uint256"
        },
        {
          "name": "endTime",
          "type": "uint256"
        },
        {
          "name": "isExpired",
          "type": "bool"
        },
        {
          "name": "isPaid",
          "type": "bool"
        },
        {
          "name": "isPunishedProvider",
          "type": "bool"
        },
        {
          "name": "isOrder",
          "type": "bool"
        }
      ],
      "payable": false,
      "stateMutability": "view",
      "type": "function"
    },
    {
      "constant": false,
      "inputs": [
        {
          "name": "_dataSourceName",
          "type": "bytes32"
        },
        {
          "name": "_isActive",
          "type": "bool"
        }
      ],
      "name": "changeDataSourceActivityStatus",
      "outputs": [
        {
          "name": "success",
          "type": "bool"
        }
      ],
      "payable": false,
      "stateMutability": "nonpayable",
      "type": "function"
    },
    {
      "constant": false,
      "inputs": [
        {
          "name": "_dataSourceName",
          "type": "bytes32"
        },
        {
          "name": "_price",
          "type": "uint256"
        },
        {
          "name": "_dataOwner",
          "type": "address"
        },
        {
          "name": "isPunished",
          "type": "bool"
        }
      ],
      "name": "mockPayableProvider",
      "outputs": [
        {
          "name": "",
          "type": "bool"
        }
      ],
      "payable": false,
      "stateMutability": "nonpayable",
      "type": "function"
    },
    {
      "constant": true,
      "inputs": [
        {
          "name": "",
          "type": "bytes32"
        }
      ],
      "name": "mProviders",
      "outputs": [
        {
          "name": "owner",
          "type": "address"
        },
        {
          "name": "volume",
          "type": "uint256"
        },
        {
          "name": "subscriptionsNum",
          "type": "uint256"
        },
        {
          "name": "name",
          "type": "bytes32"
        },
        {
          "name": "price",
          "type": "uint256"
        },
        {
          "name": "isPunished",
          "type": "bool"
        },
        {
          "name": "punishTimeStamp",
          "type": "uint256"
        },
        {
          "name": "isProvider",
          "type": "bool"
        },
        {
          "name": "isActive",
          "type": "bool"
        },
        {
          "name": "nextProvider",
          "type": "bytes32"
        }
      ],
      "payable": false,
      "stateMutability": "view",
      "type": "function"
    },
    {
      "constant": true,
      "inputs": [
        {
          "name": "",
          "type": "bytes32"
        },
        {
          "name": "",
          "type": "uint256"
        }
      ],
      "name": "mOrders",
      "outputs": [
        {
          "name": "dataSourceName",
          "type": "bytes32"
        },
        {
          "name": "subscriber",
          "type": "address"
        },
        {
          "name": "provider",
          "type": "address"
        },
        {
          "name": "price",
          "type": "uint256"
        },
        {
          "name": "startTime",
          "type": "uint256"
        },
        {
          "name": "endTime",
          "type": "uint256"
        },
        {
          "name": "isPaid",
          "type": "bool"
        },
        {
          "name": "isOrder",
          "type": "bool"
        },
        {
          "name": "isRefundPaid",
          "type": "bool"
        }
      ],
      "payable": false,
      "stateMutability": "view",
      "type": "function"
    },
    {
      "constant": true,
      "inputs": [],
      "name": "mToken",
      "outputs": [
        {
          "name": "",
          "type": "address"
        }
      ],
      "payable": false,
      "stateMutability": "view",
      "type": "function"
    },
    {
      "constant": true,
      "inputs": [
        {
          "name": "_dataSourceName",
          "type": "bytes32"
        }
      ],
      "name": "getOwnerFromName",
      "outputs": [
        {
          "name": "owner",
          "type": "address"
        }
      ],
      "payable": false,
      "stateMutability": "view",
      "type": "function"
    },
    {
      "constant": true,
      "inputs": [
        {
          "name": "_subscriber",
          "type": "address"
        },
        {
          "name": "_dataSourceName",
          "type": "bytes32"
        }
      ],
      "name": "getRefundAmount",
      "outputs": [
        {
          "name": "refundAmount",
          "type": "uint256"
        }
      ],
      "payable": false,
      "stateMutability": "view",
      "type": "function"
    },
    {
      "constant": true,
      "inputs": [],
      "name": "mOwner",
      "outputs": [
        {
          "name": "",
          "type": "address"
        }
      ],
      "payable": false,
      "stateMutability": "view",
      "type": "function"
    },
    {
      "constant": true,
      "inputs": [],
      "name": "MARKETPLACE_VERSION",
      "outputs": [
        {
          "name": "",
          "type": "string"
        }
      ],
      "payable": false,
      "stateMutability": "view",
      "type": "function"
    },
    {
      "constant": true,
      "inputs": [
        {
          "name": "_subscriber",
          "type": "address"
        },
        {
          "name": "_dataSourceName",
          "type": "bytes32"
        }
      ],
      "name": "isExpiredSubscription",
      "outputs": [
        {
          "name": "isExpired",
          "type": "bool"
        }
      ],
      "payable": false,
      "stateMutability": "view",
      "type": "function"
    },
    {
      "constant": false,
      "inputs": [
        {
          "name": "_newOwner",
          "type": "address"
        }
      ],
      "name": "transferOwnership",
      "outputs": [],
      "payable": false,
      "stateMutability": "nonpayable",
      "type": "function"
    },
    {
      "inputs": [
        {
          "name": "_tokenAddress",
          "type": "address"
        }
      ],
      "payable": false,
      "stateMutability": "nonpayable",
      "type": "constructor"
    },
    {
      "anonymous": false,
      "inputs": [
        {
          "indexed": true,
          "name": "previousOwner",
          "type": "address"
        },
        {
          "indexed": true,
          "name": "newOwner",
          "type": "address"
        }
      ],
      "name": "OwnershipTransferred",
      "type": "event"
    },
    {
      "anonymous": false,
      "inputs": [
        {
          "indexed": true,
          "name": "editor",
          "type": "address"
        },
        {
          "indexed": true,
          "name": "dataSourceName",
          "type": "bytes32"
        },
        {
          "indexed": false,
          "name": "newPrice",
          "type": "uint256"
        }
      ],
      "name": "PriceUpdate",
      "type": "event"
    },
    {
      "anonymous": false,
      "inputs": [
        {
          "indexed": true,
          "name": "editor",
          "type": "address"
        },
        {
          "indexed": true,
          "name": "dataSourceName",
          "type": "bytes32"
        },
        {
          "indexed": false,
          "name": "newStatus",
          "type": "bool"
        }
      ],
      "name": "ActivityUpdate",
      "type": "event"
    },
    {
      "anonymous": false,
      "inputs": [
        {
          "indexed": true,
          "name": "dataOwner",
          "type": "address"
        },
        {
          "indexed": true,
          "name": "dataSourceName",
          "type": "bytes32"
        },
        {
          "indexed": false,
          "name": "price",
          "type": "uint256"
        },
        {
          "indexed": false,
          "name": "success",
          "type": "bool"
        }
      ],
      "name": "Registered",
      "type": "event"
    },
    {
      "anonymous": false,
      "inputs": [
        {
          "indexed": true,
          "name": "from",
          "type": "address"
        },
        {
          "indexed": true,
          "name": "to",
          "type": "address"
        },
        {
          "indexed": false,
          "name": "value",
          "type": "uint256"
        }
      ],
      "name": "SubscriptionDeposited",
      "type": "event"
    },
    {
      "anonymous": false,
      "inputs": [
        {
          "indexed": true,
          "name": "subscriber",
          "type": "address"
        },
        {
          "indexed": true,
          "name": "dataSourceName",
          "type": "bytes32"
        },
        {
          "indexed": true,
          "name": "dataOwner",
          "type": "address"
        },
        {
          "indexed": false,
          "name": "price",
          "type": "uint256"
        },
        {
          "indexed": false,
          "name": "success",
          "type": "bool"
        }
      ],
      "name": "Subscribed",
      "type": "event"
    },
    {
      "anonymous": false,
      "inputs": [
        {
          "indexed": true,
          "name": "dataOwner",
          "type": "address"
        },
        {
          "indexed": true,
          "name": "dataSourceName",
          "type": "bytes32"
        },
        {
          "indexed": false,
          "name": "amount",
          "type": "uint256"
        }
      ],
      "name": "TransferToProvider",
      "type": "event"
    },
    {
      "anonymous": false,
      "inputs": [
        {
          "indexed": true,
          "name": "dataOwner",
          "type": "address"
        },
        {
          "indexed": true,
          "name": "dataSourceName",
          "type": "bytes32"
        },
        {
          "indexed": false,
          "name": "amount",
          "type": "uint256"
        }
      ],
      "name": "ProviderWithdraw",
      "type": "event"
    },
    {
      "anonymous": false,
      "inputs": [
        {
          "indexed": true,
          "name": "dataOwner",
          "type": "address"
        },
        {
          "indexed": true,
          "name": "dataSourceName",
          "type": "bytes32"
        },
        {
          "indexed": false,
          "name": "isPunished",
          "type": "bool"
        }
      ],
      "name": "ProviderPunishStatus",
      "type": "event"
    },
    {
      "anonymous": false,
      "inputs": [
        {
          "indexed": true,
          "name": "subscriber",
          "type": "address"
        },
        {
          "indexed": true,
          "name": "dataSourceName",
          "type": "bytes32"
        },
        {
          "indexed": false,
          "name": "refundAmount",
          "type": "uint256"
        }
      ],
      "name": "SubscriberRefund",
      "type": "event"
    }
  ],
  "bytecode": "0x6060604052341561000f57600080fd5b604051602080620041928339810160405280805190602001909190505080336000806101000a81548173ffffffffffffffffffffffffffffffffffffffff021916908373ffffffffffffffffffffffffffffffffffffffff160217905550600073ffffffffffffffffffffffffffffffffffffffff168173ffffffffffffffffffffffffffffffffffffffff16141515156100a957600080fd5b80600460006101000a81548173ffffffffffffffffffffffffffffffffffffffff021916908373ffffffffffffffffffffffffffffffffffffffff160217905550600060056000806001026000191681526020019081526020016000206008018160001916905550600060010260056000806001026000191681526020019081526020016000206003018160001916905550600560008060010260001916815260200190815260200160002060030154600281600019169055506005600080600102600019168152602001908152602001600020600301546001816000191690555060016003819055505050613fed80620001a56000396000f30060606040526004361061013e576000357c0100000000000000000000000000000000000000000000000000000000900463ffffffff1680630cf23b1f1461014357806326277bf2146101825780632f10aabb146101ab5780632f95949a146101f55780632faf44f614610292578063340b4ed4146102d15780633b8f5dbd146103195780633bb4497c14610358578063445f0095146103c257806345e3f796146103eb5780635164fab41461042a5780636210c254146104915780637b788613146104cc5780638d149e5c146105a2578063aaa0ca72146105ec578063b618c7561461065e578063c216d4a814610720578063c3b6f93914610808578063c94d14ad1461085d578063ca6a467b146108c4578063dcda4bf31461091e578063e93818e414610973578063ea97bac114610a01578063f2fde38b14610a5f575b600080fd5b341561014e57600080fd5b610168600480803560001916906020019091905050610a98565b604051808215151515815260200191505060405180910390f35b341561018d57600080fd5b610195610acd565b6040518082815260200191505060405180910390f35b34156101b657600080fd5b6101db6004808035600019169060200190919080351515906020019091905050610ad4565b604051808215151515815260200191505060405180910390f35b341561020057600080fd5b61021a600480803560001916906020019091905050610c3d565b604051808873ffffffffffffffffffffffffffffffffffffffff1673ffffffffffffffffffffffffffffffffffffffff16815260200187815260200186815260200185815260200184151515158152602001831515151581526020018215151515815260200197505050505050505060405180910390f35b341561029d57600080fd5b6102b7600480803560001916906020019091905050610d81565b604051808215151515815260200191505060405180910390f35b34156102dc57600080fd5b6102ff60048080356000191690602001909190803590602001909190505061123d565b604051808215151515815260200191505060405180910390f35b341561032457600080fd5b61033e600480803560001916906020019091905050611393565b604051808215151515815260200191505060405180910390f35b341561036357600080fd5b61036b61172d565b6040518080602001828103825283818151815260200191508051906020019060200280838360005b838110156103ae578082015181840152602081019050610393565b505050509050019250505060405180910390f35b34156103cd57600080fd5b6103d56117f1565b6040518082815260200191505060405180910390f35b34156103f657600080fd5b6104106004808035600019169060200190919050506118d8565b604051808215151515815260200191505060405180910390f35b341561043557600080fd5b61047760048080356000191690602001909190803590602001909190803573ffffffffffffffffffffffffffffffffffffffff16906020019091905050611c44565b604051808215151515815260200191505060405180910390f35b341561049c57600080fd5b6104b6600480803560001916906020019091905050611f98565b6040518082815260200191505060405180910390f35b34156104d757600080fd5b610510600480803573ffffffffffffffffffffffffffffffffffffffff16906020019091908035600019169060200190919050506121a9565b604051808a73ffffffffffffffffffffffffffffffffffffffff1673ffffffffffffffffffffffffffffffffffffffff168152602001896000191660001916815260200188815260200187815260200186815260200185151515158152602001841515151581526020018315151515815260200182151515158152602001995050505050505050505060405180910390f35b34156105ad57600080fd5b6105d26004808035600019169060200190919080351515906020019091905050612526565b604051808215151515815260200191505060405180910390f35b34156105f757600080fd5b61064460048080356000191690602001909190803590602001909190803573ffffffffffffffffffffffffffffffffffffffff169060200190919080351515906020019091905050612670565b604051808215151515815260200191505060405180910390f35b341561066957600080fd5b610683600480803560001916906020019091905050612c01565b604051808b73ffffffffffffffffffffffffffffffffffffffff1673ffffffffffffffffffffffffffffffffffffffff1681526020018a8152602001898152602001886000191660001916815260200187815260200186151515158152602001858152602001841515151581526020018315151515815260200182600019166000191681526020019a505050505050505050505060405180910390f35b341561072b57600080fd5b61074e600480803560001916906020019091908035906020019091905050612c9c565b604051808a600019166000191681526020018973ffffffffffffffffffffffffffffffffffffffff1673ffffffffffffffffffffffffffffffffffffffff1681526020018873ffffffffffffffffffffffffffffffffffffffff1673ffffffffffffffffffffffffffffffffffffffff168152602001878152602001868152602001858152602001841515151581526020018315151515815260200182151515158152602001995050505050505050505060405180910390f35b341561081357600080fd5b61081b612d6d565b604051808273ffffffffffffffffffffffffffffffffffffffff1673ffffffffffffffffffffffffffffffffffffffff16815260200191505060405180910390f35b341561086857600080fd5b610882600480803560001916906020019091905050612d93565b604051808273ffffffffffffffffffffffffffffffffffffffff1673ffffffffffffffffffffffffffffffffffffffff16815260200191505060405180910390f35b34156108cf57600080fd5b610908600480803573ffffffffffffffffffffffffffffffffffffffff1690602001909190803560001916906020019091905050612ddb565b6040518082815260200191505060405180910390f35b341561092957600080fd5b6109316130b6565b604051808273ffffffffffffffffffffffffffffffffffffffff1673ffffffffffffffffffffffffffffffffffffffff16815260200191505060405180910390f35b341561097e57600080fd5b6109866130db565b6040518080602001828103825283818151815260200191508051906020019080838360005b838110156109c65780820151818401526020810190506109ab565b50505050905090810190601f1680156109f35780820380516001836020036101000a031916815260200191505b509250505060405180910390f35b3415610a0c57600080fd5b610a45600480803573ffffffffffffffffffffffffffffffffffffffff1690602001909190803560001916906020019091905050613114565b604051808215151515815260200191505060405180910390f35b3415610a6a57600080fd5b610a96600480803573ffffffffffffffffffffffffffffffffffffffff169060200190919050506132c7565b005b600060056000836000191660001916815260200190815260200160002060070160019054906101000a900460ff169050919050565b62278d0081565b60008060009054906101000a900473ffffffffffffffffffffffffffffffffffffffff1673ffffffffffffffffffffffffffffffffffffffff163373ffffffffffffffffffffffffffffffffffffffff16141515610b3157600080fd5b60056000846000191660001916815260200190815260200160002060070160009054906101000a900460ff161515610b6857600080fd5b8160056000856000191660001916815260200190815260200160002060050160006101000a81548160ff021916908315150217905550826000191660056000856000191660001916815260200190815260200160002060000160009054906101000a900473ffffffffffffffffffffffffffffffffffffffff1673ffffffffffffffffffffffffffffffffffffffff167fb5dd3ecc8eaa1fb9460a4088b3872f93a68855f913c6bfc3f3c6c7ebf0f326b684604051808215151515815260200191505060405180910390a36001905092915050565b600080600080600080600060056000896000191660001916815260200190815260200160002060000160009054906101000a900473ffffffffffffffffffffffffffffffffffffffff16965060056000896000191660001916815260200190815260200160002060040154955060056000896000191660001916815260200190815260200160002060010154945060056000896000191660001916815260200190815260200160002060020154935060056000896000191660001916815260200190815260200160002060070160009054906101000a900460ff16925060056000896000191660001916815260200190815260200160002060070160019054906101000a900460ff16915060056000896000191660001916815260200190815260200160002060050160009054906101000a900460ff169050919395979092949650565b60008160056000826000191660001916815260200190815260200160002060070160009054906101000a900460ff161515610dbb57600080fd5b60056000826000191660001916815260200190815260200160002060070160019054906101000a900460ff161515610df257600080fd5b60056000826000191660001916815260200190815260200160002060050160009054906101000a900460ff16151515610e2a57600080fd5b610e5333306005600087600019166000191681526020019081526020016000206004015461341c565b1515610e5e57600080fd5b6006600084600019166000191681526020019081526020016000208054806001018281610e8b9190613eb2565b9160005260206000209060070201600061012060405190810160405280876000191681526020013373ffffffffffffffffffffffffffffffffffffffff16815260200160056000896000191660001916815260200190815260200160002060000160009054906101000a900473ffffffffffffffffffffffffffffffffffffffff1673ffffffffffffffffffffffffffffffffffffffff16815260200160056000896000191660001916815260200190815260200160002060040154815260200142815260200162278d00420181526020016000151581526020016001151581526020016000151581525090919091506000820151816000019060001916905560208201518160010160006101000a81548173ffffffffffffffffffffffffffffffffffffffff021916908373ffffffffffffffffffffffffffffffffffffffff16021790555060408201518160020160006101000a81548173ffffffffffffffffffffffffffffffffffffffff021916908373ffffffffffffffffffffffffffffffffffffffff160217905550606082015181600301556080820151816004015560a0820151816005015560c08201518160060160006101000a81548160ff02191690831515021790555060e08201518160060160016101000a81548160ff0219169083151502179055506101008201518160060160026101000a81548160ff0219169083151502179055505050506110ea600560008560001916600019168152602001908152602001600020600401546005600086600019166000191681526020019081526020016000206001015461376f90919063ffffffff16565b6005600085600019166000191681526020019081526020016000206001018190555061113e60016005600086600019166000191681526020019081526020016000206002015461376f90919063ffffffff16565b6005600085600019166000191681526020019081526020016000206002018190555060056000846000191660001916815260200190815260200160002060000160009054906101000a900473ffffffffffffffffffffffffffffffffffffffff1673ffffffffffffffffffffffffffffffffffffffff1683600019163373ffffffffffffffffffffffffffffffffffffffff167f7a3f54da83d294e3b226e50ae5a65e87cff0f43f8699003833a1ee6670c800e660056000886000191660001916815260200190815260200160002060040154600160405180838152602001821515151581526020019250505060405180910390a46001915050919050565b60008260056000826000191660001916815260200190815260200160002060070160009054906101000a900460ff16151561127757600080fd5b3373ffffffffffffffffffffffffffffffffffffffff1660056000836000191660001916815260200190815260200160002060000160009054906101000a900473ffffffffffffffffffffffffffffffffffffffff1673ffffffffffffffffffffffffffffffffffffffff161415156112ef57600080fd5b828061130560018361376f90919063ffffffff16565b11151561131157600080fd5b836005600087600019166000191681526020019081526020016000206004018190555084600019163373ffffffffffffffffffffffffffffffffffffffff167fd6d44e0931d3eff0a69c277b94480024f00d36b25216cf69d54965c1ecb7f4a3866040518082815260200191505060405180910390a360019250505092915050565b60008060008060008560056000826000191660001916815260200190815260200160002060070160009054906101000a900460ff1615156113d357600080fd5b3373ffffffffffffffffffffffffffffffffffffffff1660056000836000191660001916815260200190815260200160002060000160009054906101000a900473ffffffffffffffffffffffffffffffffffffffff1673ffffffffffffffffffffffffffffffffffffffff1614151561144b57600080fd5b60009450600660008860001916600019168152602001908152602001600020805490509350600092505b83831015611679576115f5600660008960001916600019168152602001908152602001600020848154811015156114a857fe5b906000526020600020906007020161012060405190810160405290816000820154600019166000191681526020016001820160009054906101000a900473ffffffffffffffffffffffffffffffffffffffff1673ffffffffffffffffffffffffffffffffffffffff1673ffffffffffffffffffffffffffffffffffffffff1681526020016002820160009054906101000a900473ffffffffffffffffffffffffffffffffffffffff1673ffffffffffffffffffffffffffffffffffffffff1673ffffffffffffffffffffffffffffffffffffffff1681526020016003820154815260200160048201548152602001600582015481526020016006820160009054906101000a900460ff161515151581526020016006820160019054906101000a900460ff161515151581526020016006820160029054906101000a900460ff16151515158152505061378d565b915060008211156116535760016006600089600019166000191681526020019081526020016000208481548110151561162a57fe5b906000526020600020906007020160060160006101000a81548160ff0219169083151502179055505b611666828661376f90919063ffffffff16565b9450600195508280600101935050611475565b6116838786613848565b151561168e57600080fd5b866000191660056000896000191660001916815260200190815260200160002060000160009054906101000a900473ffffffffffffffffffffffffffffffffffffffff1673ffffffffffffffffffffffffffffffffffffffff167fceb5682fafb74ca2d33476486c7dee53205f9c8aff48d68f47456a90abd536a8876040518082815260200191505060405180910390a3600195505050505050919050565b611735613ee4565b61173d613ee4565b6000806003546040518059106117505750595b908082528060200260200182016040525092506001549150600090505b6003548110156117e8576005600083600019166000191681526020019081526020016000206003015483828151811015156117a457fe5b90602001906020020190600019169081600019168152505060056000836000191660001916815260200190815260200160002060080154915080600101905061176d565b82935050505090565b6000600460009054906101000a900473ffffffffffffffffffffffffffffffffffffffff1673ffffffffffffffffffffffffffffffffffffffff166370a08231306000604051602001526040518263ffffffff167c0100000000000000000000000000000000000000000000000000000000028152600401808273ffffffffffffffffffffffffffffffffffffffff1673ffffffffffffffffffffffffffffffffffffffff168152602001915050602060405180830381600087803b15156118b857600080fd5b6102c65a03f115156118c957600080fd5b50505060405180519050905090565b600080600080600060056000876000191660001916815260200190815260200160002060070160009054906101000a900460ff16151561191757600080fd5b60009350600660008760001916600019168152602001908152602001600020805490509250600091505b82821015611bcf573373ffffffffffffffffffffffffffffffffffffffff166006600088600019166000191681526020019081526020016000208381548110151561198857fe5b906000526020600020906007020160010160009054906101000a900473ffffffffffffffffffffffffffffffffffffffff1673ffffffffffffffffffffffffffffffffffffffff161415611bc257611b4e60066000886000191660001916815260200190815260200160002083815481101515611a0157fe5b906000526020600020906007020161012060405190810160405290816000820154600019166000191681526020016001820160009054906101000a900473ffffffffffffffffffffffffffffffffffffffff1673ffffffffffffffffffffffffffffffffffffffff1673ffffffffffffffffffffffffffffffffffffffff1681526020016002820160009054906101000a900473ffffffffffffffffffffffffffffffffffffffff1673ffffffffffffffffffffffffffffffffffffffff1673ffffffffffffffffffffffffffffffffffffffff1681526020016003820154815260200160048201548152602001600582015481526020016006820160009054906101000a900460ff161515151581526020016006820160019054906101000a900460ff161515151581526020016006820160029054906101000a900460ff161515151581525050613b73565b90506000811115611bac57600160066000886000191660001916815260200190815260200160002083815481101515611b8357fe5b906000526020600020906007020160060160026101000a81548160ff0219169083151502179055505b611bbf818561376f90919063ffffffff16565b93505b8180600101925050611941565b611bd93385613c44565b1515611be457600080fd5b85600019163373ffffffffffffffffffffffffffffffffffffffff167f794aa82b6db54e01dab1d1dfda90d863bf89a700f3fe0fc4f98bfd504f71bf5d866040518082815260200191505060405180910390a36001945050505050919050565b60008360056000826000191660001916815260200190815260200160002060070160009054906101000a900460ff16151515611c7f57600080fd5b8380611c9560018361376f90919063ffffffff16565b111515611ca157600080fd5b600073ffffffffffffffffffffffffffffffffffffffff168473ffffffffffffffffffffffffffffffffffffffff1614151515611cdd57600080fd5b8360056000886000191660001916815260200190815260200160002060000160006101000a81548173ffffffffffffffffffffffffffffffffffffffff021916908373ffffffffffffffffffffffffffffffffffffffff1602179055506000600560008860001916600019168152602001908152602001600020600101819055506000600560008860001916600019168152602001908152602001600020600201819055508560056000886000191660001916815260200190815260200160002060030181600019169055508460056000886000191660001916815260200190815260200160002060040181905550600060056000886000191660001916815260200190815260200160002060050160006101000a81548160ff021916908315150217905550600060056000886000191660001916815260200190815260200160002060060181905550600160056000886000191660001916815260200190815260200160002060070160006101000a81548160ff021916908315150217905550600160056000886000191660001916815260200190815260200160002060070160016101000a81548160ff0219169083151502179055506000600560008860001916600019168152602001908152602001600020600801816000191690555085600560006002546000191660001916815260200190815260200160002060080181600019169055506005600087600019166000191681526020019081526020016000206003015460028160001916905550611f25600160035461376f90919063ffffffff16565b60038190555085600019168473ffffffffffffffffffffffffffffffffffffffff167f32362a6c8f018375704733c0f0c66d6e2d1d6a96d031af978ccc46aaf2d2547e87600160405180838152602001821515151581526020019250505060405180910390a36001925050509392505050565b600080600060056000856000191660001916815260200190815260200160002060070160009054906101000a900460ff161515611fd457600080fd5b60009250600660008560001916600019168152602001908152602001600020805490509150600090505b8181101561219f576121906121816006600087600019166000191681526020019081526020016000208381548110151561203457fe5b906000526020600020906007020161012060405190810160405290816000820154600019166000191681526020016001820160009054906101000a900473ffffffffffffffffffffffffffffffffffffffff1673ffffffffffffffffffffffffffffffffffffffff1673ffffffffffffffffffffffffffffffffffffffff1681526020016002820160009054906101000a900473ffffffffffffffffffffffffffffffffffffffff1673ffffffffffffffffffffffffffffffffffffffff1673ffffffffffffffffffffffffffffffffffffffff1681526020016003820154815260200160048201548152602001600582015481526020016006820160009054906101000a900460ff161515151581526020016006820160019054906101000a900460ff161515151581526020016006820160029054906101000a900460ff16151515158152505061378d565b8461376f90919063ffffffff16565b92508080600101915050611ffe565b8292505050919050565b6000806000806000806000806000806000600660008d600019166000191681526020019081526020016000208054905091506000821115156121ea57600080fd5b8c73ffffffffffffffffffffffffffffffffffffffff16600073ffffffffffffffffffffffffffffffffffffffff161415151561222657600080fd5b600560008d6000191660001916815260200190815260200160002060070160009054906101000a900460ff16151561225d57600080fd5b6001820390505b6000811015156124fc578c73ffffffffffffffffffffffffffffffffffffffff16600660008e60001916600019168152602001908152602001600020828154811015156122ad57fe5b906000526020600020906007020160010160009054906101000a900473ffffffffffffffffffffffffffffffffffffffff1673ffffffffffffffffffffffffffffffffffffffff1614156124e057600660008d600019166000191681526020019081526020016000208181548110151561232357fe5b906000526020600020906007020160010160009054906101000a900473ffffffffffffffffffffffffffffffffffffffff169a50600660008d600019166000191681526020019081526020016000208181548110151561237f57fe5b9060005260206000209060070201600301549850600660008d60001916600019168152602001908152602001600020818154811015156123bb57fe5b9060005260206000209060070201600401549750600660008d60001916600019168152602001908152602001600020818154811015156123f757fe5b90600052602060002090600702016005015496506124158b8d613114565b9550600660008d600019166000191681526020019081526020016000208181548110151561243f57fe5b906000526020600020906007020160060160009054906101000a900460ff169450600560008d6000191660001916815260200190815260200160002060050160009054906101000a900460ff169350600660008d60001916600019168152602001908152602001600020818154811015156124b657fe5b906000526020600020906007020160060160019054906101000a900460ff169250600090506124fc565b60008114156124ee576124fc565b808060019003915050612264565b8a8c8a8a8a8a8a8a8a9a509a509a509a509a509a509a509a509a5050509295985092959850929598565b60008260056000826000191660001916815260200190815260200160002060070160009054906101000a900460ff16151561256057600080fd5b3373ffffffffffffffffffffffffffffffffffffffff1660056000836000191660001916815260200190815260200160002060000160009054906101000a900473ffffffffffffffffffffffffffffffffffffffff1673ffffffffffffffffffffffffffffffffffffffff161415156125d857600080fd5b8260056000866000191660001916815260200190815260200160002060070160016101000a81548160ff02191690831515021790555083600019163373ffffffffffffffffffffffffffffffffffffffff167feb7e8fd639953c98dc1baecd9f72cc41075f4cf712755141cbbdd572181680c485604051808215151515815260200191505060405180910390a3600191505092915050565b60008260056000876000191660001916815260200190815260200160002060000160006101000a81548173ffffffffffffffffffffffffffffffffffffffff021916908373ffffffffffffffffffffffffffffffffffffffff16021790555060006005600087600019166000191681526020019081526020016000206001018190555060006005600087600019166000191681526020019081526020016000206002018190555084600560008760001916600019168152602001908152602001600020600301816000191690555083600560008760001916600019168152602001908152602001600020600401819055508160056000876000191660001916815260200190815260200160002060050160006101000a81548160ff021916908315150217905550600262278d008115156127a657fe5b046002428115156127b357fe5b040360056000876000191660001916815260200190815260200160002060060181905550600160056000876000191660001916815260200190815260200160002060070160006101000a81548160ff021916908315150217905550600160056000876000191660001916815260200190815260200160002060070160016101000a81548160ff02191690831515021790555060006005600087600019166000191681526020019081526020016000206008018160001916905550846005600060025460001916600019168152602001908152602001600020600801816000191690555060056000866000191660001916815260200190815260200160002060030154600281600019169055506128d5600160035461376f90919063ffffffff16565b60038190555060066000866000191660001916815260200190815260200160002080548060010182816129089190613eb2565b9160005260206000209060070201600061012060405190810160405280896000191681526020013373ffffffffffffffffffffffffffffffffffffffff168152602001600560008b6000191660001916815260200190815260200160002060000160009054906101000a900473ffffffffffffffffffffffffffffffffffffffff1673ffffffffffffffffffffffffffffffffffffffff168152602001600560008b6000191660001916815260200190815260200160002060040154815260200162278d006002428115156129d957fe5b040381526020016002428115156129ec57fe5b0481526020016000151581526020016001151581526020016000151581525090919091506000820151816000019060001916905560208201518160010160006101000a81548173ffffffffffffffffffffffffffffffffffffffff021916908373ffffffffffffffffffffffffffffffffffffffff16021790555060408201518160020160006101000a81548173ffffffffffffffffffffffffffffffffffffffff021916908373ffffffffffffffffffffffffffffffffffffffff160217905550606082015181600301556080820151816004015560a0820151816005015560c08201518160060160006101000a81548160ff02191690831515021790555060e08201518160060160016101000a81548160ff0219169083151502179055506101008201518160060160026101000a81548160ff021916908315150217905550505050612b7f600560008760001916600019168152602001908152602001600020600401546005600088600019166000191681526020019081526020016000206001015461376f90919063ffffffff16565b60056000876000191660001916815260200190815260200160002060010181905550612bd360016005600088600019166000191681526020019081526020016000206002015461376f90919063ffffffff16565b6005600087600019166000191681526020019081526020016000206002018190555060019050949350505050565b60056020528060005260406000206000915090508060000160009054906101000a900473ffffffffffffffffffffffffffffffffffffffff16908060010154908060020154908060030154908060040154908060050160009054906101000a900460ff16908060060154908060070160009054906101000a900460ff16908060070160019054906101000a900460ff1690806008015490508a565b600660205281600052604060002081815481101515612cb757fe5b9060005260206000209060070201600091509150508060000154908060010160009054906101000a900473ffffffffffffffffffffffffffffffffffffffff16908060020160009054906101000a900473ffffffffffffffffffffffffffffffffffffffff16908060030154908060040154908060050154908060060160009054906101000a900460ff16908060060160019054906101000a900460ff16908060060160029054906101000a900460ff16905089565b600460009054906101000a900473ffffffffffffffffffffffffffffffffffffffff1681565b600060056000836000191660001916815260200190815260200160002060000160009054906101000a900473ffffffffffffffffffffffffffffffffffffffff169050919050565b60008060008073ffffffffffffffffffffffffffffffffffffffff168573ffffffffffffffffffffffffffffffffffffffff1614151515612e1b57600080fd5b60056000856000191660001916815260200190815260200160002060070160009054906101000a900460ff161515612e5257600080fd5b60009250600660008560001916600019168152602001908152602001600020805490509150600090505b818110156130ab578473ffffffffffffffffffffffffffffffffffffffff1660066000866000191660001916815260200190815260200160002082815481101515612ec357fe5b906000526020600020906007020160010160009054906101000a900473ffffffffffffffffffffffffffffffffffffffff1673ffffffffffffffffffffffffffffffffffffffff16141561309e5761309b61308c60066000876000191660001916815260200190815260200160002083815481101515612f3f57fe5b906000526020600020906007020161012060405190810160405290816000820154600019166000191681526020016001820160009054906101000a900473ffffffffffffffffffffffffffffffffffffffff1673ffffffffffffffffffffffffffffffffffffffff1673ffffffffffffffffffffffffffffffffffffffff1681526020016002820160009054906101000a900473ffffffffffffffffffffffffffffffffffffffff1673ffffffffffffffffffffffffffffffffffffffff1673ffffffffffffffffffffffffffffffffffffffff1681526020016003820154815260200160048201548152602001600582015481526020016006820160009054906101000a900460ff161515151581526020016006820160019054906101000a900460ff161515151581526020016006820160029054906101000a900460ff161515151581525050613b73565b8461376f90919063ffffffff16565b92505b8080600101915050612e7c565b829250505092915050565b6000809054906101000a900473ffffffffffffffffffffffffffffffffffffffff1681565b6040805190810160405280600181526020017f310000000000000000000000000000000000000000000000000000000000000081525081565b600080600060066000856000191660001916815260200190815260200160002080549050915060008211151561314957600080fd5b60056000856000191660001916815260200190815260200160002060070160009054906101000a900460ff16151561318057600080fd5b8473ffffffffffffffffffffffffffffffffffffffff16600073ffffffffffffffffffffffffffffffffffffffff16141515156131bc57600080fd5b6001820390505b6000811015156132ba578473ffffffffffffffffffffffffffffffffffffffff166006600086600019166000191681526020019081526020016000208281548110151561320c57fe5b906000526020600020906007020160010160009054906101000a900473ffffffffffffffffffffffffffffffffffffffff1673ffffffffffffffffffffffffffffffffffffffff16141561329e576006600085600019166000191681526020019081526020016000208181548110151561328257fe5b90600052602060002090600702016005015442101592506132bf565b60008114156132ac576132ba565b8080600190039150506131c3565b600192505b505092915050565b6000809054906101000a900473ffffffffffffffffffffffffffffffffffffffff1673ffffffffffffffffffffffffffffffffffffffff163373ffffffffffffffffffffffffffffffffffffffff1614151561332257600080fd5b600073ffffffffffffffffffffffffffffffffffffffff168173ffffffffffffffffffffffffffffffffffffffff161415151561335e57600080fd5b8073ffffffffffffffffffffffffffffffffffffffff166000809054906101000a900473ffffffffffffffffffffffffffffffffffffffff1673ffffffffffffffffffffffffffffffffffffffff167f8be0079c531659141344cd1fd0a4f28419497f9722a3daafe3b4186f6b6457e060405160405180910390a3806000806101000a81548173ffffffffffffffffffffffffffffffffffffffff021916908373ffffffffffffffffffffffffffffffffffffffff16021790555050565b6000818061343460018361376f90919063ffffffff16565b11151561344057600080fd5b600073ffffffffffffffffffffffffffffffffffffffff168573ffffffffffffffffffffffffffffffffffffffff16141580156134aa5750600073ffffffffffffffffffffffffffffffffffffffff168473ffffffffffffffffffffffffffffffffffffffff1614155b15156134b557600080fd5b82600460009054906101000a900473ffffffffffffffffffffffffffffffffffffffff1673ffffffffffffffffffffffffffffffffffffffff1663dd62ed3e87306000604051602001526040518363ffffffff167c0100000000000000000000000000000000000000000000000000000000028152600401808373ffffffffffffffffffffffffffffffffffffffff1673ffffffffffffffffffffffffffffffffffffffff1681526020018273ffffffffffffffffffffffffffffffffffffffff1673ffffffffffffffffffffffffffffffffffffffff16815260200192505050602060405180830381600087803b15156135af57600080fd5b6102c65a03f115156135c057600080fd5b50505060405180519050101515156135d757600080fd5b600460009054906101000a900473ffffffffffffffffffffffffffffffffffffffff1673ffffffffffffffffffffffffffffffffffffffff166323b872dd8686866000604051602001526040518463ffffffff167c0100000000000000000000000000000000000000000000000000000000028152600401808473ffffffffffffffffffffffffffffffffffffffff1673ffffffffffffffffffffffffffffffffffffffff1681526020018373ffffffffffffffffffffffffffffffffffffffff1673ffffffffffffffffffffffffffffffffffffffff1681526020018281526020019350505050602060405180830381600087803b15156136d857600080fd5b6102c65a03f115156136e957600080fd5b5050506040518051905015156136fe57600080fd5b8373ffffffffffffffffffffffffffffffffffffffff168573ffffffffffffffffffffffffffffffffffffffff167f6f990e2a71bc9526905da97b737d1ccb2bf854118a41fee0eb7811bb22d3eea4856040518082815260200191505060405180910390a360019150509392505050565b600080828401905083811015151561378357fe5b8091505092915050565b60008090508160c00151151561383f576137a682613daf565b15613837576005600083600001516000191660001916815260200190815260200160002060050160009054906101000a900460ff161561382b578160a00151600560008460000151600019166000191681526020019081526020016000206006015410151561381b5781606001519050613843565b61382482613dc0565b9050613843565b81606001519050613843565b809050613843565b8090505b919050565b6000818061386060018361376f90919063ffffffff16565b11151561386c57600080fd5b8360056000826000191660001916815260200190815260200160002060070160009054906101000a900460ff1615156138a457600080fd5b3373ffffffffffffffffffffffffffffffffffffffff1660056000836000191660001916815260200190815260200160002060000160009054906101000a900473ffffffffffffffffffffffffffffffffffffffff1673ffffffffffffffffffffffffffffffffffffffff1614151561391c57600080fd5b60008411151561392b57600080fd5b600073ffffffffffffffffffffffffffffffffffffffff1660056000876000191660001916815260200190815260200160002060000160009054906101000a900473ffffffffffffffffffffffffffffffffffffffff1673ffffffffffffffffffffffffffffffffffffffff16141515156139a557600080fd5b600460009054906101000a900473ffffffffffffffffffffffffffffffffffffffff1673ffffffffffffffffffffffffffffffffffffffff1663a9059cbb60056000886000191660001916815260200190815260200160002060000160009054906101000a900473ffffffffffffffffffffffffffffffffffffffff16866000604051602001526040518363ffffffff167c0100000000000000000000000000000000000000000000000000000000028152600401808373ffffffffffffffffffffffffffffffffffffffff1673ffffffffffffffffffffffffffffffffffffffff16815260200182815260200192505050602060405180830381600087803b1515613ab057600080fd5b6102c65a03f11515613ac157600080fd5b505050604051805190501515613ad657600080fd5b846000191660056000876000191660001916815260200190815260200160002060000160009054906101000a900473ffffffffffffffffffffffffffffffffffffffff1673ffffffffffffffffffffffffffffffffffffffff167f4b4186a4b549df09e37908f0b17747e961a0ecd8d675b2993e5933811870991b866040518082815260200191505060405180910390a360019250505092915050565b60008090508161010001511515613c3c576005600083600001516000191660001916815260200190815260200160002060050160009054906101000a900460ff1615613c3b5781608001516005600084600001516000191660001916815260200190815260200160002060060154118015613c1357508160a001516005600084600001516000191660001916815260200190815260200160002060060154105b15613c3a57613c37613c2483613dc0565b8360600151613e4b90919063ffffffff16565b90505b5b5b809050919050565b60008180613c5c60018361376f90919063ffffffff16565b111515613c6857600080fd5b600083111515613c7757600080fd5b3373ffffffffffffffffffffffffffffffffffffffff168473ffffffffffffffffffffffffffffffffffffffff16141515613cb157600080fd5b600460009054906101000a900473ffffffffffffffffffffffffffffffffffffffff1673ffffffffffffffffffffffffffffffffffffffff1663a9059cbb33856000604051602001526040518363ffffffff167c0100000000000000000000000000000000000000000000000000000000028152600401808373ffffffffffffffffffffffffffffffffffffffff1673ffffffffffffffffffffffffffffffffffffffff16815260200182815260200192505050602060405180830381600087803b1515613d7e57600080fd5b6102c65a03f11515613d8f57600080fd5b505050604051805190501515613da457600080fd5b600191505092915050565b6000428260a0015111159050919050565b60008060008084606001519250613e1883613e0a8760800151600560008a600001516000191660001916815260200190815260200160002060060154613e4b90919063ffffffff16565b613e6490919063ffffffff16565b9150613e3585608001518660a00151613e4b90919063ffffffff16565b9050613e418282613e97565b9350505050919050565b6000828211151515613e5957fe5b818303905092915050565b60008082840290506000841480613e855750828482811515613e8257fe5b04145b1515613e8d57fe5b8091505092915050565b6000808284811515613ea557fe5b0490508091505092915050565b815481835581811511613edf57600702816007028360005260206000209182019101613ede9190613ef8565b5b505050565b602060405190810160405280600081525090565b613fbe91905b80821115613fba576000808201600090556001820160006101000a81549073ffffffffffffffffffffffffffffffffffffffff02191690556002820160006101000a81549073ffffffffffffffffffffffffffffffffffffffff02191690556003820160009055600482016000905560058201600090556006820160006101000a81549060ff02191690556006820160016101000a81549060ff02191690556006820160026101000a81549060ff021916905550600701613efe565b5090565b905600a165627a7a7230582043920dd8d3ed1301e630385642b884608f406a795d82307a2774e61dcffaceed0029",
  "source": "pragma solidity ^0.4.18;\n\n\nimport \"./IMarketplace.sol\";\nimport \"./BasicMarketplace.sol\";\n\n\n\ncontract Marketplace is IMarketplace,BasicMarketplace{\n\n\tfunction Marketplace(address _tokenAddress) BasicMarketplace(_tokenAddress) public {}\n\n    function setPunishProvider(bytes32 _dataSourceName, bool _isPunished) \n    public \n    onlyOwner \n    returns (bool success){\n        require(mProviders[_dataSourceName].isProvider);\n        mProviders[_dataSourceName].isPunished = _isPunished;\n        ProviderPunishStatus(mProviders[_dataSourceName].owner,_dataSourceName,_isPunished);\n        success = true;\n    }\n    // mock temp func\n    function mockPayableProvider(bytes32 _dataSourceName, uint _price, address _dataOwner, bool isPunished)\n    public returns(bool){\n        // add mock provider \n        mProviders[_dataSourceName].owner = _dataOwner;\n        mProviders[_dataSourceName].volume = 0;\n        mProviders[_dataSourceName].subscriptionsNum = 0;\n        mProviders[_dataSourceName].name = _dataSourceName;\n        mProviders[_dataSourceName].price = _price;\n        mProviders[_dataSourceName].isPunished = isPunished;\n        mProviders[_dataSourceName].punishTimeStamp = now/2 - FIXED_SUBSCRIPTION_PERIOD/2;\n        mProviders[_dataSourceName].isProvider = true;\n        mProviders[_dataSourceName].isActive = true;\n        mProviders[_dataSourceName].nextProvider = \"\";\n        mProviders[mCurrent].nextProvider = _dataSourceName;\n        mCurrent = mProviders[_dataSourceName].name;\n        mProvidersSize = mProvidersSize.add(1);\n        // add order \n            mOrders[_dataSourceName].push(Order({\n            dataSourceName : _dataSourceName,\n            subscriber : msg.sender,\n            provider : mProviders[_dataSourceName].owner,\n            price : mProviders[_dataSourceName].price,\n            startTime : now/2 - FIXED_SUBSCRIPTION_PERIOD,\n            endTime : now/2,\n            isPaid : false,\n            isOrder : true,\n            isRefundPaid : false\n            }));\n        // update provider data \n        mProviders[_dataSourceName].volume = mProviders[_dataSourceName].volume.add(mProviders[_dataSourceName].price);\n        mProviders[_dataSourceName].subscriptionsNum = mProviders[_dataSourceName].subscriptionsNum.add(1);\n        return true;\n    }\n    function refundSubscriber(bytes32 _dataSourceName) \n    public \n    returns\n    (bool success){\n        require(mProviders[_dataSourceName].isProvider);\n        uint256 refundAmount = 0;\n        uint size = mOrders[_dataSourceName].length;\n        for(uint i=0; i<size ;i++){\n            if(mOrders[_dataSourceName][i].subscriber == msg.sender){\n                uint256 refund = handleOrderRefundCalc(mOrders[_dataSourceName][i]);\n                if(refund > 0){ // mark refund as paid\n                    mOrders[_dataSourceName][i].isRefundPaid = true;\n                }\n                refundAmount = refundAmount.add(refund);\n            }\n        }\n        require(safeToSubscriberTransfer(msg.sender,refundAmount));\n        SubscriberRefund(msg.sender,_dataSourceName,refundAmount);\n        success = true;\n    }\n    function getRefundAmount(address _subscriber , bytes32 _dataSourceName) \n    public \n    view \n    returns(uint256 refundAmount){\n        require(_subscriber != address(0));\n        require(mProviders[_dataSourceName].isProvider);\n        refundAmount = 0;\n        uint size = mOrders[_dataSourceName].length;\n        for(uint i=0; i< size ; i++){\n            if(mOrders[_dataSourceName][i].subscriber == _subscriber){\n                refundAmount = refundAmount.add(handleOrderRefundCalc(mOrders[_dataSourceName][i]));\n            }\n        }\n        return refundAmount;\n    }\n\n    function withdrawProvider(bytes32 _dataSourceName) \n    public \n    onlyDataProvider(_dataSourceName) \n    returns (bool success){\n        // calculate the withdraw amount \n        uint256 withdrawAmount = 0;\n        uint orderSize = mOrders[_dataSourceName].length;\n        for(uint i=0;i<orderSize;i++){\n            uint256 withdraw = handleOrderWithdrawCalc(mOrders[_dataSourceName][i]);\n            if(withdraw > 0){ // mark order as paid \n                mOrders[_dataSourceName][i].isPaid = true;\n            }\n            withdrawAmount = withdrawAmount.add(withdraw); \n            success = true;\n        }\n        // transfer ENG's to the provider -revert state if faild\n        require(safeToProviderTransfer(_dataSourceName,withdrawAmount)); \n        ProviderWithdraw(mProviders[_dataSourceName].owner,_dataSourceName,withdrawAmount);\n        return true;\n    }\n    function getWithdrawAmount(bytes32 _dataSourceName) \n    public \n    view \n    returns(uint256 withdrawAmount){\n        require(mProviders[_dataSourceName].isProvider);\n        withdrawAmount = 0;\n        uint orderSize = mOrders[_dataSourceName].length;\n        for(uint i=0;i<orderSize;i++){\n            withdrawAmount = withdrawAmount.add(handleOrderWithdrawCalc(mOrders[_dataSourceName][i])); \n        }\n        return withdrawAmount;\n    }\n\n\n    function register(bytes32 _dataSourceName, uint256 _price, address _dataOwner) \n    public\n    uniqueDataName(_dataSourceName)\n    validPrice(_price)\n    returns (bool success){\n        require(_dataOwner != address(0));\n        mProviders[_dataSourceName].owner = _dataOwner;\n        mProviders[_dataSourceName].volume = 0;\n        mProviders[_dataSourceName].subscriptionsNum = 0;\n        mProviders[_dataSourceName].name = _dataSourceName;\n        mProviders[_dataSourceName].price = _price;\n        mProviders[_dataSourceName].isPunished = false;\n        mProviders[_dataSourceName].punishTimeStamp = 0;\n        mProviders[_dataSourceName].isProvider = true;\n        mProviders[_dataSourceName].isActive = true;\n        mProviders[_dataSourceName].nextProvider = \"\";\n        mProviders[mCurrent].nextProvider = _dataSourceName;\n        mCurrent = mProviders[_dataSourceName].name;\n        mProvidersSize = mProvidersSize.add(1);\n        Registered(_dataOwner,_dataSourceName,_price,true);\n        success =  true;\n    }\n\n    function subscribe(bytes32 _dataSourceName) \n    public \n    validDataProvider(_dataSourceName)\n    returns (bool success){\n        require(safeToMarketPlaceTransfer(msg.sender,this,mProviders[_dataSourceName].price)); // revet state if failed\n        // update order\n        mOrders[_dataSourceName].push(Order({\n            dataSourceName : _dataSourceName,\n            subscriber : msg.sender,\n            provider : mProviders[_dataSourceName].owner,\n            price : mProviders[_dataSourceName].price,\n            startTime : now,\n            endTime : now + FIXED_SUBSCRIPTION_PERIOD,\n            isPaid : false,\n            isOrder : true,\n            isRefundPaid : false\n            }));\n        // update provider data \n        mProviders[_dataSourceName].volume = mProviders[_dataSourceName].volume.add(mProviders[_dataSourceName].price);\n        mProviders[_dataSourceName].subscriptionsNum = mProviders[_dataSourceName].subscriptionsNum.add(1);\n        Subscribed(msg.sender,\n            _dataSourceName,\n            mProviders[_dataSourceName].owner,\n            mProviders[_dataSourceName].price,\n            true);\n        success = true;\n    }\n    function getMarketplaceTotalBalance() public view returns (uint256 totalBalance){\n        return mToken.balanceOf(this);\n    }\n    /*internal */\n    function handleOrderWithdrawCalc(Order order) internal view returns(uint256 orderAmount){\n        orderAmount = 0;\n        if(!order.isPaid){ // if not paid yet \n            if(isOrderExpired(order)){ // expired\n                if(mProviders[order.dataSourceName].isPunished){ // if punished\n                    if(mProviders[order.dataSourceName].punishTimeStamp >= order.endTime){ // punished after expiration date\n                        return order.price;\n                    }else{ // punished before expiration date\n                        return calcRelativeWithdraw(order); //(punishtime / endtime) * amount\n                    }\n                }else{ // not punished - return full amount\n                    return order.price;\n                }\n            }else{ // not expired\n                return orderAmount;\n            }\n        }\n        return orderAmount;\n    }\n    function handleOrderRefundCalc(Order order) internal returns(uint256 refundAmount){\n        refundAmount = 0;\n        if(!order.isRefundPaid){ //order not paid \n            if(mProviders[order.dataSourceName].isPunished){\n                if(mProviders[order.dataSourceName].punishTimeStamp > order.startTime && mProviders[order.dataSourceName].punishTimeStamp < order.endTime){ // punished before the subscription is expired\n                   refundAmount = order.price.sub(calcRelativeWithdraw(order)); // price - withdrawPrice\n                }\n            }\n        }\n        return refundAmount;\n    }\n    function calcRelativeWithdraw(Order order) internal view returns(uint256 relativeAmount){\n         // (punishTime- startTime) * PRICE / (endTime - startTime);\n        uint256 price = order.price;\n        uint256 a = (mProviders[order.dataSourceName].punishTimeStamp.sub(order.startTime)).mul(price);\n        uint256 b = order.endTime.sub(order.startTime);\n        return SafeMath.div(a,b);\n    }\n    function isOrderExpired(Order order) internal view returns (bool isExpired){\n        return order.endTime <= now;\n    }\n    function safeToMarketPlaceTransfer(address _from, address _to, uint256 _amount) \n    internal\n    validPrice(_amount)\n    returns (bool){\n         require(_from != address(0) && _to != address(0));\n         require(mToken.allowance(_from,address(this)) >= _amount);\n         require(mToken.transferFrom(_from,_to,_amount));\n         SubscriptionDeposited(_from, _to, _amount);\n         return true;\n    }\n    function safeToProviderTransfer(bytes32 _dataSourceName,uint256 _amount) \n    internal \n    validPrice(_amount)\n    onlyDataProvider(_dataSourceName) \n    returns (bool){\n         require(_amount > 0);\n         require(mProviders[_dataSourceName].owner != address(0));\n         require(mToken.transfer(mProviders[_dataSourceName].owner,_amount));\n         TransferToProvider(mProviders[_dataSourceName].owner,_dataSourceName,_amount);\n         return true;\n     }\n    function safeToSubscriberTransfer(address _subscriber,uint256 _amount) \n    internal \n    validPrice(_amount)\n    returns (bool){\n        require(_amount > 0);\n        require(_subscriber == msg.sender);\n        require(mToken.transfer(msg.sender, _amount));\n        return true;\n    }\n\n}",
  "sourcePath": "/home/wilder/Desktop/Enigma/DataMarketProject/marketPlace_WS/smart_contract_marketplace/contracts/Marketplace.sol",
  "compiler": {
    "name": "solc",
    "version": "0.4.18+commit.9cf6e910.Emscripten.clang"
  },
  "schemaVersion": "1.0.1",
  "updatedAt": "2018-01-31T22:39:44.606Z"
}