{
  "contractName": "Marketplace",
  "abi": [
    {
      "constant": true,
      "inputs": [],
      "name": "FIXED_SUBSCRIPTION_PERIOD",
      "outputs": [
        {
          "name": "",
          "type": "uint256"
        }
      ],
      "payable": false,
      "stateMutability": "view",
      "type": "function"
    },
    {
      "constant": false,
      "inputs": [
        {
          "name": "_dataSourceName",
          "type": "bytes32"
        },
        {
          "name": "_isPunished",
          "type": "bool"
        }
      ],
      "name": "setPunishProvider",
      "outputs": [
        {
          "name": "success",
          "type": "bool"
        }
      ],
      "payable": false,
      "stateMutability": "nonpayable",
      "type": "function"
    },
    {
      "constant": true,
      "inputs": [
        {
          "name": "_dataSourceName",
          "type": "bytes32"
        }
      ],
      "name": "getDataProviderInfo",
      "outputs": [
        {
          "name": "owner",
          "type": "address"
        },
        {
          "name": "price",
          "type": "uint256"
        },
        {
          "name": "volume",
          "type": "uint256"
        },
        {
          "name": "subscriptionsNum",
          "type": "uint256"
        },
        {
          "name": "isProvider",
          "type": "bool"
        },
        {
          "name": "isActive",
          "type": "bool"
        },
        {
          "name": "isPunished",
          "type": "bool"
        }
      ],
      "payable": false,
      "stateMutability": "view",
      "type": "function"
    },
    {
      "constant": false,
      "inputs": [
        {
          "name": "_dataSourceName",
          "type": "bytes32"
        }
      ],
      "name": "subscribe",
      "outputs": [
        {
          "name": "",
          "type": "bool"
        }
      ],
      "payable": false,
      "stateMutability": "nonpayable",
      "type": "function"
    },
    {
      "constant": true,
      "inputs": [],
      "name": "getAllProviders",
      "outputs": [
        {
          "name": "",
          "type": "bytes32[]"
        }
      ],
      "payable": false,
      "stateMutability": "view",
      "type": "function"
    },
    {
      "constant": false,
      "inputs": [
        {
          "name": "_dataSourceName",
          "type": "bytes32"
        },
        {
          "name": "_price",
          "type": "uint256"
        },
        {
          "name": "_dataOwner",
          "type": "address"
        }
      ],
      "name": "register",
      "outputs": [
        {
          "name": "",
          "type": "bool"
        }
      ],
      "payable": false,
      "stateMutability": "nonpayable",
      "type": "function"
    },
    {
      "constant": true,
      "inputs": [
        {
          "name": "_dataSourceName",
          "type": "bytes32"
        }
      ],
      "name": "getWithdrawAmount",
      "outputs": [
        {
          "name": "withdrawAmount",
          "type": "uint256"
        }
      ],
      "payable": false,
      "stateMutability": "view",
      "type": "function"
    },
    {
      "constant": true,
      "inputs": [
        {
          "name": "_subscriber",
          "type": "address"
        },
        {
          "name": "_dataSourceName",
          "type": "bytes32"
        }
      ],
      "name": "checkAddressSubscription",
      "outputs": [
        {
          "name": "subscriber",
          "type": "address"
        },
        {
          "name": "dataSourceName",
          "type": "bytes32"
        },
        {
          "name": "price",
          "type": "uint256"
        },
        {
          "name": "startTime",
          "type": "uint256"
        },
        {
          "name": "endTime",
          "type": "uint256"
        },
        {
          "name": "isExpired",
          "type": "bool"
        },
        {
          "name": "isPaid",
          "type": "bool"
        },
        {
          "name": "isPunishedProvider",
          "type": "bool"
        },
        {
          "name": "isOrder",
          "type": "bool"
        }
      ],
      "payable": false,
      "stateMutability": "view",
      "type": "function"
    },
    {
      "constant": true,
      "inputs": [],
      "name": "mToken",
      "outputs": [
        {
          "name": "",
          "type": "address"
        }
      ],
      "payable": false,
      "stateMutability": "view",
      "type": "function"
    },
    {
      "constant": true,
      "inputs": [
        {
          "name": "_subscriber",
          "type": "address"
        },
        {
          "name": "_dataSourceName",
          "type": "bytes32"
        }
      ],
      "name": "isExpiredSubscription",
      "outputs": [
        {
          "name": "isExpired",
          "type": "bool"
        }
      ],
      "payable": false,
      "stateMutability": "view",
      "type": "function"
    },
    {
      "inputs": [
        {
          "name": "_tokenAddress",
          "type": "address"
        }
      ],
      "payable": false,
      "stateMutability": "nonpayable",
      "type": "constructor"
    },
    {
      "anonymous": false,
      "inputs": [
        {
          "indexed": true,
          "name": "dataOwner",
          "type": "address"
        },
        {
          "indexed": true,
          "name": "dataSourceName",
          "type": "bytes32"
        },
        {
          "indexed": false,
          "name": "price",
          "type": "uint256"
        },
        {
          "indexed": false,
          "name": "success",
          "type": "bool"
        }
      ],
      "name": "Registered",
      "type": "event"
    },
    {
      "anonymous": false,
      "inputs": [
        {
          "indexed": true,
          "name": "from",
          "type": "address"
        },
        {
          "indexed": true,
          "name": "to",
          "type": "address"
        },
        {
          "indexed": false,
          "name": "value",
          "type": "uint256"
        }
      ],
      "name": "SubscriptionDeposited",
      "type": "event"
    },
    {
      "anonymous": false,
      "inputs": [
        {
          "indexed": true,
          "name": "subscriber",
          "type": "address"
        },
        {
          "indexed": true,
          "name": "dataSourceName",
          "type": "bytes32"
        },
        {
          "indexed": true,
          "name": "dataOwner",
          "type": "address"
        },
        {
          "indexed": false,
          "name": "price",
          "type": "uint256"
        },
        {
          "indexed": false,
          "name": "success",
          "type": "bool"
        }
      ],
      "name": "Subscribed",
      "type": "event"
    },
    {
      "anonymous": false,
      "inputs": [
        {
          "indexed": true,
          "name": "editor",
          "type": "address"
        },
        {
          "indexed": true,
          "name": "dataSourceName",
          "type": "bytes32"
        },
        {
          "indexed": false,
          "name": "newPrice",
          "type": "uint256"
        }
      ],
      "name": "PriceUpdate",
      "type": "event"
    },
    {
      "anonymous": false,
      "inputs": [
        {
          "indexed": true,
          "name": "editor",
          "type": "address"
        },
        {
          "indexed": true,
          "name": "dataSourceName",
          "type": "bytes32"
        },
        {
          "indexed": false,
          "name": "newStatus",
          "type": "bool"
        }
      ],
      "name": "ActivityUpdate",
      "type": "event"
    },
    {
      "anonymous": false,
      "inputs": [
        {
          "indexed": true,
          "name": "dataOwner",
          "type": "address"
        },
        {
          "indexed": true,
          "name": "_dataSourceName",
          "type": "bytes32"
        },
        {
          "indexed": false,
          "name": "_amount",
          "type": "uint256"
        }
      ],
      "name": "TransferToProvider",
      "type": "event"
    },
    {
      "anonymous": false,
      "inputs": [
        {
          "indexed": true,
          "name": "dataOwner",
          "type": "address"
        },
        {
          "indexed": true,
          "name": "_dataSourceName",
          "type": "bytes32"
        },
        {
          "indexed": false,
          "name": "_amount",
          "type": "uint256"
        }
      ],
      "name": "ProviderWithdraw",
      "type": "event"
    }
  ],
  "bytecode": "0x6060604052341561000f57600080fd5b604051602080611dc183398101604052808051906020019091905050600073ffffffffffffffffffffffffffffffffffffffff168173ffffffffffffffffffffffffffffffffffffffff161415151561006757600080fd5b80600360006101000a81548173ffffffffffffffffffffffffffffffffffffffff021916908373ffffffffffffffffffffffffffffffffffffffff16021790555033600460006101000a81548173ffffffffffffffffffffffffffffffffffffffff021916908373ffffffffffffffffffffffffffffffffffffffff1602179055506000600560008060010260001916815260200190815260200160002060080181600019169055506000600102600560008060010260001916815260200190815260200160002060030181600019169055506005600080600102600019168152602001908152602001600020600301546001816000191690555060056000806001026000191681526020019081526020016000206003015460008160001916905550600160028190555050611c1f806101a26000396000f3006060604052600436106100a4576000357c0100000000000000000000000000000000000000000000000000000000900463ffffffff16806326277bf2146100a95780632f10aabb146100d25780632f95949a1461011c5780632faf44f6146101b95780633bb4497c146101f85780635164fab4146102625780636210c254146102c95780637b78861314610304578063c3b6f939146103da578063ea97bac11461042f575b600080fd5b34156100b457600080fd5b6100bc61048d565b6040518082815260200191505060405180910390f35b34156100dd57600080fd5b6101026004808035600019169060200190919080351515906020019091905050610494565b604051808215151515815260200191505060405180910390f35b341561012757600080fd5b610141600480803560001916906020019091905050610532565b604051808873ffffffffffffffffffffffffffffffffffffffff1673ffffffffffffffffffffffffffffffffffffffff16815260200187815260200186815260200185815260200184151515158152602001831515151581526020018215151515815260200197505050505050505060405180910390f35b34156101c457600080fd5b6101de600480803560001916906020019091905050610676565b604051808215151515815260200191505060405180910390f35b341561020357600080fd5b61020b610b0d565b6040518080602001828103825283818151815260200191508051906020019060200280838360005b8381101561024e578082015181840152602081019050610233565b505050509050019250505060405180910390f35b341561026d57600080fd5b6102af60048080356000191690602001909190803590602001909190803573ffffffffffffffffffffffffffffffffffffffff16906020019091905050610bd1565b604051808215151515815260200191505060405180910390f35b34156102d457600080fd5b6102ee600480803560001916906020019091905050610f25565b6040518082815260200191505060405180910390f35b341561030f57600080fd5b610348600480803573ffffffffffffffffffffffffffffffffffffffff16906020019091908035600019169060200190919050506110e3565b604051808a73ffffffffffffffffffffffffffffffffffffffff1673ffffffffffffffffffffffffffffffffffffffff168152602001896000191660001916815260200188815260200187815260200186815260200185151515158152602001841515151581526020018315151515815260200182151515158152602001995050505050505050505060405180910390f35b34156103e557600080fd5b6103ed611460565b604051808273ffffffffffffffffffffffffffffffffffffffff1673ffffffffffffffffffffffffffffffffffffffff16815260200191505060405180910390f35b341561043a57600080fd5b610473600480803573ffffffffffffffffffffffffffffffffffffffff1690602001909190803560001916906020019091905050611486565b604051808215151515815260200191505060405180910390f35b62278d0081565b6000600460009054906101000a900473ffffffffffffffffffffffffffffffffffffffff1673ffffffffffffffffffffffffffffffffffffffff163373ffffffffffffffffffffffffffffffffffffffff161415156104f257600080fd5b8160056000856000191660001916815260200190815260200160002060050160006101000a81548160ff0219169083151502179055506001905092915050565b600080600080600080600060056000896000191660001916815260200190815260200160002060000160009054906101000a900473ffffffffffffffffffffffffffffffffffffffff16600560008a6000191660001916815260200190815260200160002060040154600560008b6000191660001916815260200190815260200160002060010154600560008c6000191660001916815260200190815260200160002060020154600560008d6000191660001916815260200190815260200160002060070160009054906101000a900460ff16600560008e6000191660001916815260200190815260200160002060070160019054906101000a900460ff16600560008f6000191660001916815260200190815260200160002060050160009054906101000a900460ff169650965096509650965096509650919395979092949650565b6000808260056000826000191660001916815260200190815260200160002060070160009054906101000a900460ff1615156106b157600080fd5b60056000826000191660001916815260200190815260200160002060070160019054906101000a900460ff1615156106e857600080fd5b60056000826000191660001916815260200190815260200160002060050160009054906101000a900460ff1615151561072057600080fd5b610749333060056000886000191660001916815260200190815260200160002060040154611639565b915081151561075757600080fd5b60066000856000191660001916815260200190815260200160002080548060010182816107849190611af8565b9160005260206000209060070201600061010060405190810160405280886000191681526020013373ffffffffffffffffffffffffffffffffffffffff168152602001600560008a6000191660001916815260200190815260200160002060000160009054906101000a900473ffffffffffffffffffffffffffffffffffffffff1673ffffffffffffffffffffffffffffffffffffffff168152602001600560008a6000191660001916815260200190815260200160002060040154815260200142815260200162278d00420181526020016000151581526020016001151581525090919091506000820151816000019060001916905560208201518160010160006101000a81548173ffffffffffffffffffffffffffffffffffffffff021916908373ffffffffffffffffffffffffffffffffffffffff16021790555060408201518160020160006101000a81548173ffffffffffffffffffffffffffffffffffffffff021916908373ffffffffffffffffffffffffffffffffffffffff160217905550606082015181600301556080820151816004015560a0820151816005015560c08201518160060160006101000a81548160ff02191690831515021790555060e08201518160060160016101000a81548160ff0219169083151502179055505050506109b9600560008660001916600019168152602001908152602001600020600401546005600087600019166000191681526020019081526020016000206001015461196890919063ffffffff16565b60056000866000191660001916815260200190815260200160002060010181905550610a0d60016005600087600019166000191681526020019081526020016000206002015461196890919063ffffffff16565b6005600086600019166000191681526020019081526020016000206002018190555060056000856000191660001916815260200190815260200160002060000160009054906101000a900473ffffffffffffffffffffffffffffffffffffffff1673ffffffffffffffffffffffffffffffffffffffff1684600019163373ffffffffffffffffffffffffffffffffffffffff167f7a3f54da83d294e3b226e50ae5a65e87cff0f43f8699003833a1ee6670c800e660056000896000191660001916815260200190815260200160002060040154600160405180838152602001821515151581526020019250505060405180910390a4600192505050919050565b610b15611b2a565b610b1d611b2a565b600080600254604051805910610b305750595b908082528060200260200182016040525092506000549150600090505b600254811015610bc857600560008360001916600019168152602001908152602001600020600301548382815181101515610b8457fe5b906020019060200201906000191690816000191681525050600560008360001916600019168152602001908152602001600020600801549150806001019050610b4d565b82935050505090565b60008360056000826000191660001916815260200190815260200160002060070160009054906101000a900460ff16151515610c0c57600080fd5b8380610c2260018361196890919063ffffffff16565b111515610c2e57600080fd5b600073ffffffffffffffffffffffffffffffffffffffff168473ffffffffffffffffffffffffffffffffffffffff1614151515610c6a57600080fd5b8360056000886000191660001916815260200190815260200160002060000160006101000a81548173ffffffffffffffffffffffffffffffffffffffff021916908373ffffffffffffffffffffffffffffffffffffffff1602179055506000600560008860001916600019168152602001908152602001600020600101819055506000600560008860001916600019168152602001908152602001600020600201819055508560056000886000191660001916815260200190815260200160002060030181600019169055508460056000886000191660001916815260200190815260200160002060040181905550600060056000886000191660001916815260200190815260200160002060050160006101000a81548160ff021916908315150217905550600060056000886000191660001916815260200190815260200160002060060181905550600160056000886000191660001916815260200190815260200160002060070160006101000a81548160ff021916908315150217905550600160056000886000191660001916815260200190815260200160002060070160016101000a81548160ff0219169083151502179055506000600560008860001916600019168152602001908152602001600020600801816000191690555085600560006001546000191660001916815260200190815260200160002060080181600019169055506005600087600019166000191681526020019081526020016000206003015460018160001916905550610eb2600160025461196890919063ffffffff16565b60028190555085600019168473ffffffffffffffffffffffffffffffffffffffff167f32362a6c8f018375704733c0f0c66d6e2d1d6a96d031af978ccc46aaf2d2547e87600160405180838152602001821515151581526020019250505060405180910390a36001925050509392505050565b6000806000809250600660008560001916600019168152602001908152602001600020805490509150600090505b818110156110d9576110ca6110bb60066000876000191660001916815260200190815260200160002083815481101515610f8957fe5b906000526020600020906007020161010060405190810160405290816000820154600019166000191681526020016001820160009054906101000a900473ffffffffffffffffffffffffffffffffffffffff1673ffffffffffffffffffffffffffffffffffffffff1673ffffffffffffffffffffffffffffffffffffffff1681526020016002820160009054906101000a900473ffffffffffffffffffffffffffffffffffffffff1673ffffffffffffffffffffffffffffffffffffffff1673ffffffffffffffffffffffffffffffffffffffff1681526020016003820154815260200160048201548152602001600582015481526020016006820160009054906101000a900460ff161515151581526020016006820160019054906101000a900460ff161515151581525050611986565b8461196890919063ffffffff16565b92508080600101915050610f53565b8292505050919050565b6000806000806000806000806000806000600660008d6000191660001916815260200190815260200160002080549050915060008211151561112457600080fd5b8c73ffffffffffffffffffffffffffffffffffffffff16600073ffffffffffffffffffffffffffffffffffffffff161415151561116057600080fd5b600560008d6000191660001916815260200190815260200160002060070160009054906101000a900460ff16151561119757600080fd5b6001820390505b600081101515611436578c73ffffffffffffffffffffffffffffffffffffffff16600660008e60001916600019168152602001908152602001600020828154811015156111e757fe5b906000526020600020906007020160010160009054906101000a900473ffffffffffffffffffffffffffffffffffffffff1673ffffffffffffffffffffffffffffffffffffffff16141561141a57600660008d600019166000191681526020019081526020016000208181548110151561125d57fe5b906000526020600020906007020160010160009054906101000a900473ffffffffffffffffffffffffffffffffffffffff169a50600660008d60001916600019168152602001908152602001600020818154811015156112b957fe5b9060005260206000209060070201600301549850600660008d60001916600019168152602001908152602001600020818154811015156112f557fe5b9060005260206000209060070201600401549750600660008d600019166000191681526020019081526020016000208181548110151561133157fe5b906000526020600020906007020160050154965061134f8b8d611486565b9550600660008d600019166000191681526020019081526020016000208181548110151561137957fe5b906000526020600020906007020160060160009054906101000a900460ff169450600560008d6000191660001916815260200190815260200160002060050160009054906101000a900460ff169350600660008d60001916600019168152602001908152602001600020818154811015156113f057fe5b906000526020600020906007020160060160019054906101000a900460ff16925060009050611436565b600081141561142857611436565b80806001900391505061119e565b8a8c8a8a8a8a8a8a8a9a509a509a509a509a509a509a509a509a5050509295985092959850929598565b600360009054906101000a900473ffffffffffffffffffffffffffffffffffffffff1681565b60008060006006600085600019166000191681526020019081526020016000208054905091506000821115156114bb57600080fd5b60056000856000191660001916815260200190815260200160002060070160009054906101000a900460ff1615156114f257600080fd5b8473ffffffffffffffffffffffffffffffffffffffff16600073ffffffffffffffffffffffffffffffffffffffff161415151561152e57600080fd5b6001820390505b60008110151561162c578473ffffffffffffffffffffffffffffffffffffffff166006600086600019166000191681526020019081526020016000208281548110151561157e57fe5b906000526020600020906007020160010160009054906101000a900473ffffffffffffffffffffffffffffffffffffffff1673ffffffffffffffffffffffffffffffffffffffff16141561161057600660008560001916600019168152602001908152602001600020818154811015156115f457fe5b9060005260206000209060070201600501544210159250611631565b600081141561161e5761162c565b808060019003915050611535565b600192505b505092915050565b60008073ffffffffffffffffffffffffffffffffffffffff168473ffffffffffffffffffffffffffffffffffffffff16141580156116a45750600073ffffffffffffffffffffffffffffffffffffffff168373ffffffffffffffffffffffffffffffffffffffff1614155b15156116af57600080fd5b81600360009054906101000a900473ffffffffffffffffffffffffffffffffffffffff1673ffffffffffffffffffffffffffffffffffffffff1663dd62ed3e86306000604051602001526040518363ffffffff167c0100000000000000000000000000000000000000000000000000000000028152600401808373ffffffffffffffffffffffffffffffffffffffff1673ffffffffffffffffffffffffffffffffffffffff1681526020018273ffffffffffffffffffffffffffffffffffffffff1673ffffffffffffffffffffffffffffffffffffffff16815260200192505050602060405180830381600087803b15156117a957600080fd5b6102c65a03f115156117ba57600080fd5b50505060405180519050101515156117d157600080fd5b600360009054906101000a900473ffffffffffffffffffffffffffffffffffffffff1673ffffffffffffffffffffffffffffffffffffffff166323b872dd8585856000604051602001526040518463ffffffff167c0100000000000000000000000000000000000000000000000000000000028152600401808473ffffffffffffffffffffffffffffffffffffffff1673ffffffffffffffffffffffffffffffffffffffff1681526020018373ffffffffffffffffffffffffffffffffffffffff1673ffffffffffffffffffffffffffffffffffffffff1681526020018281526020019350505050602060405180830381600087803b15156118d257600080fd5b6102c65a03f115156118e357600080fd5b5050506040518051905015156118f857600080fd5b8273ffffffffffffffffffffffffffffffffffffffff168473ffffffffffffffffffffffffffffffffffffffff167f6f990e2a71bc9526905da97b737d1ccb2bf854118a41fee0eb7811bb22d3eea4846040518082815260200191505060405180910390a3600190509392505050565b600080828401905083811015151561197c57fe5b8091505092915050565b60008090508160c001511515611a385761199f82611a41565b15611a30576005600083600001516000191660001916815260200190815260200160002060050160009054906101000a900460ff1615611a24578160a001516005600084600001516000191660001916815260200190815260200160002060060154101515611a145781606001519050611a3c565b611a1d82611a52565b9050611a3c565b81606001519050611a3c565b809050611a3c565b8090505b919050565b6000428260a0015110159050919050565b6000611aa38260600151611a958460a001516005600087600001516000191660001916815260200190815260200160002060060154611aaa90919063ffffffff16565b611ac590919063ffffffff16565b9050919050565b6000808284811515611ab857fe5b0490508091505092915050565b60008082840290506000841480611ae65750828482811515611ae357fe5b04145b1515611aee57fe5b8091505092915050565b815481835581811511611b2557600702816007028360005260206000209182019101611b249190611b3e565b5b505050565b602060405190810160405280600081525090565b611bf091905b80821115611bec576000808201600090556001820160006101000a81549073ffffffffffffffffffffffffffffffffffffffff02191690556002820160006101000a81549073ffffffffffffffffffffffffffffffffffffffff02191690556003820160009055600482016000905560058201600090556006820160006101000a81549060ff02191690556006820160016101000a81549060ff021916905550600701611b44565b5090565b905600a165627a7a723058203ed7480d12c76c164161b411b838e0d523a86e8a9cb8bf8941adef74ada6254f0029",
  "source": "pragma solidity ^0.4.18;\n\n\n//import \"./IMarketplace.sol\";\nimport \"./zeppelin-solidity/SafeMath.sol\";\n\ncontract IERC20 {\n  function balanceOf(address who) public constant returns (uint256);\n  function transfer(address to, uint256 value) public returns (bool);\n  function allowance(address owner, address spender) public constant returns (uint256);\n  function transferFrom(address from, address to, uint256 value) public returns (bool);\n  function approve(address spender, uint256 value) public returns (bool);\n  function getTest() public view returns (address);\n  event Transfer(address indexed from, address indexed to, uint256 value);\n  event Approval(address indexed owner, address indexed spender, uint256 value);\n}\n\n\ncontract Marketplace{ //is IMarketplace{\n\n\tusing SafeMath for uint256;\n\tusing SafeMath for uint;\n\n\t/*Data structures */\n\n\tstruct Order{\n        bytes32 dataSourceName;\n        address subscriber;\n        address provider;\n        uint price;\n        uint startTime;\n        uint endTime;\n        bool isPaid;\n        bool isOrder;\n    }\n    struct Provider{\n        address owner;\n        uint volume;\n        uint subscriptionsNum;\n        bytes32 name;\n        uint price;\n        bool isPunished;\n        uint punishTimeStamp;\n        bool isProvider;\n        bool isActive;\n        bytes32 nextProvider;\n    }\n\n    // pointer to linked listen \n    bytes32 mBegin; \n    bytes32 mCurrent;\n    uint mProvidersSize;\n\t// Enigma Token\n\tIERC20 public mToken;\n\t// Fixed time defined (unixTimeStamp)\n\tuint public constant FIXED_SUBSCRIPTION_PERIOD = 30 days;\n\t// the Contract deployer\n\taddress mMarketPlaceOwner;\n    // all providers\n    mapping(bytes32=>Provider) mProviders;\n    mapping(bytes32=>Order[]) mOrders;\n\n\tfunction Marketplace(address _tokenAddress) public {\n\t\trequire(_tokenAddress != address(0));\n\t\tmToken = IERC20(_tokenAddress);\n\t\tmMarketPlaceOwner = msg.sender;\n        mProviders[0x0].nextProvider = \"\";\n        mProviders[0x0].name = 0x0;\n        mCurrent = mProviders[0x0].name;\n        mBegin = mProviders[0x0].name;\n        mProvidersSize = 1;\n\t}\n    function setPunishProvider(bytes32 _dataSourceName, bool _isPunished) \n    public \n    onlyOwner \n    returns (bool success){\n        mProviders[_dataSourceName].isPunished = _isPunished;\n        return true;\n    }\n    function getWithdrawAmount(bytes32 _dataSourceName) \n    public \n    view \n    returns(uint256 withdrawAmount){\n        withdrawAmount = 0;\n        uint orderSize = mOrders[_dataSourceName].length;\n        for(uint i=0;i<orderSize;i++){\n            withdrawAmount = withdrawAmount.add(handleOrderWithdrawCalc(mOrders[_dataSourceName][i]));\n        }\n        return withdrawAmount;\n    }\n    function handleOrderWithdrawCalc(Order order) internal view returns(uint256 orderAmount){\n        orderAmount = 0;\n        if(!order.isPaid){ // if not paid yet \n            if(isOrderExpired(order)){ // expired\n                if(mProviders[order.dataSourceName].isPunished){ // if punished\n                    if(mProviders[order.dataSourceName].punishTimeStamp >= order.endTime){ // punished after expiration date\n                        return order.price;\n                    }else{ // punished before expiration date\n                        return calcRelativeWithdraw(order); //(punishtime / endtime) * amount\n                    }\n                }else{ // not punished - return full amount\n                    return order.price;\n                }\n            }else{ // not expired\n                return orderAmount;\n            }\n        }\n        return orderAmount;\n    }\n    function calcRelativeWithdraw(Order order) internal view returns(uint256 relativeAmount){\n        return (mProviders[order.dataSourceName].punishTimeStamp.div(order.endTime)).mul(order.price);\n    }\n    function isOrderExpired(Order order) internal view returns (bool isExpired){\n        return order.endTime >= now;\n    }\n    function register(bytes32 _dataSourceName, uint _price, address _dataOwner) \n    public\n    uniqueDataName(_dataSourceName)\n    validPrice(_price)\n    returns (bool){\n        require(_dataOwner != address(0));\n        mProviders[_dataSourceName].owner = _dataOwner;\n        mProviders[_dataSourceName].volume = 0;\n        mProviders[_dataSourceName].subscriptionsNum = 0;\n        mProviders[_dataSourceName].name = _dataSourceName;\n        mProviders[_dataSourceName].price = _price;\n        mProviders[_dataSourceName].isPunished = false;\n        mProviders[_dataSourceName].punishTimeStamp = 0;\n        mProviders[_dataSourceName].isProvider = true;\n        mProviders[_dataSourceName].isActive = true;\n        mProviders[_dataSourceName].nextProvider = \"\";\n        mProviders[mCurrent].nextProvider = _dataSourceName;\n        mCurrent = mProviders[_dataSourceName].name;\n        mProvidersSize = mProvidersSize.add(1);\n        Registered(_dataOwner,_dataSourceName,_price,true);\n        return true;\n    }\n\n    function subscribe(bytes32 _dataSourceName) \n    public \n    validDataProvider(_dataSourceName)\n    returns (bool){\n        bool success = safeToMarketPlaceTransfer(msg.sender,this,mProviders[_dataSourceName].price);\n        require(success);\n        // update order\n        mOrders[_dataSourceName].push(Order({\n            dataSourceName : _dataSourceName,\n            subscriber : msg.sender,\n            provider : mProviders[_dataSourceName].owner,\n            price : mProviders[_dataSourceName].price,\n            startTime : now,\n            endTime : now + FIXED_SUBSCRIPTION_PERIOD,\n            isPaid : false,\n            isOrder : true\n            }));\n        // update provider data \n        mProviders[_dataSourceName].volume = mProviders[_dataSourceName].volume.add(mProviders[_dataSourceName].price);\n        mProviders[_dataSourceName].subscriptionsNum = mProviders[_dataSourceName].subscriptionsNum.add(1);\n        Subscribed(msg.sender,\n            _dataSourceName,\n            mProviders[_dataSourceName].owner,\n            mProviders[_dataSourceName].price,\n            true);\n        return true;\n    }\n\n    function checkAddressSubscription(address _subscriber, bytes32 _dataSourceName) \n    public \n    view \n    returns (address subscriber,\n        bytes32 dataSourceName,\n        uint price,\n        uint startTime,\n        uint endTime,\n        bool isExpired,\n        bool isPaid, \n        bool isPunishedProvider,\n        bool isOrder){\n        uint256 size = mOrders[_dataSourceName].length;\n        require(size>0);\n        require(address(0) != _subscriber);\n        require(mProviders[_dataSourceName].isProvider);\n        for(uint i=size-1;i>=0;i--){\n            if(mOrders[_dataSourceName][i].subscriber == _subscriber){\n                subscriber = mOrders[_dataSourceName][i].subscriber;\n                price = mOrders[_dataSourceName][i].price;\n                startTime = mOrders[_dataSourceName][i].startTime;\n                endTime = mOrders[_dataSourceName][i].endTime;\n                isExpired = isExpiredSubscription(subscriber,_dataSourceName);\n                isPaid = mOrders[_dataSourceName][i].isPaid;\n                isPunishedProvider = mProviders[_dataSourceName].isPunished;\n                isOrder = mOrders[_dataSourceName][i].isOrder;\n                i = 0;\n                break;\n            }\n            if( i==0 ){\n                break;\n            }\n        }\n        return (subscriber,_dataSourceName,price,startTime,endTime,isExpired,isPaid,isPunishedProvider,isOrder);\n    }\n    // when a subscriber registers they move tokens to the contract\n    function safeToMarketPlaceTransfer(address _from, address _to, uint256 _amount) internal returns (bool){\n         require( _from != address(0) && _to != address(0));\n         require(mToken.allowance(_from,address(this)) >= _amount);\n         require(mToken.transferFrom(_from,_to,_amount));\n         SubscriptionDeposited(_from, _to, _amount);\n         return true;\n    }\n\n    function getAllProviders() public view returns (bytes32[]){\n        bytes32[] memory names = new bytes32[](mProvidersSize);\n        bytes32 iterator = mBegin;\n        for(uint i=0; i< mProvidersSize; ++i){\n            names[i] = mProviders[iterator].name;\n            iterator = mProviders[iterator].nextProvider;\n        }\n        return names;\n    }\n    function isExpiredSubscription(address _subscriber, bytes32 _dataSourceName) \n    public\n    view \n    returns \n    (bool isExpired){\n        uint256 size = mOrders[_dataSourceName].length;\n        require(size>0);\n        require(mProviders[_dataSourceName].isProvider);\n        require(address(0) != _subscriber);\n        for(uint i=size-1;i>=0;i--){\n            if(mOrders[_dataSourceName][i].subscriber == _subscriber){\n                return now >= mOrders[_dataSourceName][i].endTime;\n            }\n            if( i==0 ){\n                break;\n            }\n        }\n        return true;\n    }\n    function getDataProviderInfo(bytes32 _dataSourceName) \n    public \n    view \n    returns(\n        address owner,\n        uint256 price,\n        uint256 volume,\n        uint256 subscriptionsNum,\n        bool isProvider,\n        bool isActive,\n        bool isPunished){\n        return (mProviders[_dataSourceName].owner,\n            mProviders[_dataSourceName].price,\n            mProviders[_dataSourceName].volume,\n            mProviders[_dataSourceName].subscriptionsNum,\n            mProviders[_dataSourceName].isProvider,\n            mProviders[_dataSourceName].isActive,\n            mProviders[_dataSourceName].isPunished);\n    }\n    /* modifiers */\n    modifier validDataProvider(bytes32 _dataSourceName){\n        require(mProviders[_dataSourceName].isProvider);\n        require(mProviders[_dataSourceName].isActive);\n        require(!mProviders[_dataSourceName].isPunished);  \n        _;      \n    }\n    modifier uniqueDataName(bytes32 _dataSourceName) {\n        require(!mProviders[_dataSourceName].isProvider);\n        _;\n    }\n    modifier validPrice (uint256 _price){\n        require(_price.add(1) > _price); //overflow\n        _;\n    }\n    modifier onlyOwner(){\n        require(msg.sender == mMarketPlaceOwner);\n        _;\n    }\n    /* events - move to the interface later */\n    event Registered(address indexed dataOwner, bytes32 indexed dataSourceName, uint price, bool success);\n\tevent SubscriptionDeposited(address indexed from, address indexed to, uint256 value);\n\tevent Subscribed(address indexed subscriber,bytes32 indexed dataSourceName, address indexed dataOwner, uint price, bool success);\n\tevent PriceUpdate(address indexed editor, bytes32 indexed dataSourceName, uint256 newPrice);\n\tevent ActivityUpdate(address indexed editor, bytes32 indexed dataSourceName, bool newStatus);\n\t// new events \n\t// provifer got paid \n\tevent TransferToProvider(address indexed dataOwner, bytes32 indexed _dataSourceName, uint256 _amount);\n\t// provider finished withdraw process\n\tevent ProviderWithdraw(address indexed dataOwner, bytes32 indexed _dataSourceName, uint _amount);\n}",
  "sourcePath": "/home/wilder/Desktop/Enigma/DataMarketProject/marketPlace_WS/smart_contract_marketplace/contracts/Marketplace.sol",
  "compiler": {
    "name": "solc",
    "version": "0.4.18+commit.9cf6e910.Emscripten.clang"
  },
  "schemaVersion": "1.0.1",
  "updatedAt": "2018-01-30T14:59:39.691Z"
}