{
  "contractName": "RecoverableMarketplace",
  "abi": [
    {
      "constant": true,
      "inputs": [
        {
          "name": "_dataSourceName",
          "type": "bytes32"
        }
      ],
      "name": "isActiveDataSource",
      "outputs": [
        {
          "name": "isActive",
          "type": "bool"
        }
      ],
      "payable": false,
      "stateMutability": "view",
      "type": "function"
    },
    {
      "constant": true,
      "inputs": [],
      "name": "mBegin",
      "outputs": [
        {
          "name": "",
          "type": "bytes32"
        }
      ],
      "payable": false,
      "stateMutability": "view",
      "type": "function"
    },
    {
      "constant": true,
      "inputs": [
        {
          "name": "_index",
          "type": "uint256"
        }
      ],
      "name": "getNameAt",
      "outputs": [
        {
          "name": "_dataSourceName",
          "type": "bytes32"
        }
      ],
      "payable": false,
      "stateMutability": "view",
      "type": "function"
    },
    {
      "constant": false,
      "inputs": [
        {
          "name": "_dataSourceName",
          "type": "bytes32"
        },
        {
          "name": "_index",
          "type": "uint256"
        }
      ],
      "name": "refundSubscriberAt",
      "outputs": [
        {
          "name": "success",
          "type": "bool"
        }
      ],
      "payable": false,
      "stateMutability": "nonpayable",
      "type": "function"
    },
    {
      "constant": true,
      "inputs": [],
      "name": "FIXED_SUBSCRIPTION_PERIOD",
      "outputs": [
        {
          "name": "",
          "type": "uint256"
        }
      ],
      "payable": false,
      "stateMutability": "view",
      "type": "function"
    },
    {
      "constant": true,
      "inputs": [
        {
          "name": "_dataSourceName",
          "type": "bytes32"
        },
        {
          "name": "_index",
          "type": "uint256"
        }
      ],
      "name": "getWithdrawAmountAt",
      "outputs": [
        {
          "name": "withdrawAmount",
          "type": "uint256"
        }
      ],
      "payable": false,
      "stateMutability": "view",
      "type": "function"
    },
    {
      "constant": false,
      "inputs": [
        {
          "name": "_dataSourceName",
          "type": "bytes32"
        },
        {
          "name": "_index",
          "type": "uint256"
        }
      ],
      "name": "withrawProviderAt",
      "outputs": [
        {
          "name": "success",
          "type": "bool"
        }
      ],
      "payable": false,
      "stateMutability": "nonpayable",
      "type": "function"
    },
    {
      "constant": false,
      "inputs": [
        {
          "name": "_dataSourceName",
          "type": "bytes32"
        },
        {
          "name": "_isPunished",
          "type": "bool"
        }
      ],
      "name": "setPunishProvider",
      "outputs": [
        {
          "name": "success",
          "type": "bool"
        }
      ],
      "payable": false,
      "stateMutability": "nonpayable",
      "type": "function"
    },
    {
      "constant": true,
      "inputs": [
        {
          "name": "_dataSourceName",
          "type": "bytes32"
        }
      ],
      "name": "getDataProviderInfo",
      "outputs": [
        {
          "name": "owner",
          "type": "address"
        },
        {
          "name": "price",
          "type": "uint256"
        },
        {
          "name": "volume",
          "type": "uint256"
        },
        {
          "name": "subscriptionsNum",
          "type": "uint256"
        },
        {
          "name": "isProvider",
          "type": "bool"
        },
        {
          "name": "isActive",
          "type": "bool"
        },
        {
          "name": "isPunished",
          "type": "bool"
        }
      ],
      "payable": false,
      "stateMutability": "view",
      "type": "function"
    },
    {
      "constant": false,
      "inputs": [
        {
          "name": "_dataSourceName",
          "type": "bytes32"
        }
      ],
      "name": "subscribe",
      "outputs": [
        {
          "name": "success",
          "type": "bool"
        }
      ],
      "payable": false,
      "stateMutability": "nonpayable",
      "type": "function"
    },
    {
      "constant": true,
      "inputs": [],
      "name": "mProvidersSize",
      "outputs": [
        {
          "name": "",
          "type": "uint256"
        }
      ],
      "payable": false,
      "stateMutability": "view",
      "type": "function"
    },
    {
      "constant": false,
      "inputs": [
        {
          "name": "_dataSourceName",
          "type": "bytes32"
        },
        {
          "name": "_newPrice",
          "type": "uint256"
        }
      ],
      "name": "updateDataSourcePrice",
      "outputs": [
        {
          "name": "success",
          "type": "bool"
        }
      ],
      "payable": false,
      "stateMutability": "nonpayable",
      "type": "function"
    },
    {
      "constant": false,
      "inputs": [
        {
          "name": "_dataSourceName",
          "type": "bytes32"
        }
      ],
      "name": "withdrawProvider",
      "outputs": [
        {
          "name": "success",
          "type": "bool"
        }
      ],
      "payable": false,
      "stateMutability": "nonpayable",
      "type": "function"
    },
    {
      "constant": true,
      "inputs": [],
      "name": "getAllProviders",
      "outputs": [
        {
          "name": "",
          "type": "bytes32[]"
        }
      ],
      "payable": false,
      "stateMutability": "view",
      "type": "function"
    },
    {
      "constant": true,
      "inputs": [],
      "name": "getMarketplaceTotalBalance",
      "outputs": [
        {
          "name": "totalBalance",
          "type": "uint256"
        }
      ],
      "payable": false,
      "stateMutability": "view",
      "type": "function"
    },
    {
      "constant": false,
      "inputs": [
        {
          "name": "_dataSourceName",
          "type": "bytes32"
        }
      ],
      "name": "refundSubscriber",
      "outputs": [
        {
          "name": "success",
          "type": "bool"
        }
      ],
      "payable": false,
      "stateMutability": "nonpayable",
      "type": "function"
    },
    {
      "constant": false,
      "inputs": [
        {
          "name": "_dataSourceName",
          "type": "bytes32"
        },
        {
          "name": "_price",
          "type": "uint256"
        },
        {
          "name": "_dataOwner",
          "type": "address"
        }
      ],
      "name": "register",
      "outputs": [
        {
          "name": "success",
          "type": "bool"
        }
      ],
      "payable": false,
      "stateMutability": "nonpayable",
      "type": "function"
    },
    {
      "constant": true,
      "inputs": [],
      "name": "mCurrent",
      "outputs": [
        {
          "name": "",
          "type": "bytes32"
        }
      ],
      "payable": false,
      "stateMutability": "view",
      "type": "function"
    },
    {
      "constant": true,
      "inputs": [
        {
          "name": "_dataSourceName",
          "type": "bytes32"
        }
      ],
      "name": "getWithdrawAmount",
      "outputs": [
        {
          "name": "withdrawAmount",
          "type": "uint256"
        }
      ],
      "payable": false,
      "stateMutability": "view",
      "type": "function"
    },
    {
      "constant": true,
      "inputs": [
        {
          "name": "_dataSourceName",
          "type": "bytes32"
        },
        {
          "name": "_index",
          "type": "uint256"
        }
      ],
      "name": "getRefundAmountAt",
      "outputs": [
        {
          "name": "refundAmount",
          "type": "uint256"
        }
      ],
      "payable": false,
      "stateMutability": "view",
      "type": "function"
    },
    {
      "constant": true,
      "inputs": [],
      "name": "getProviderNamesSize",
      "outputs": [
        {
          "name": "size",
          "type": "uint256"
        }
      ],
      "payable": false,
      "stateMutability": "view",
      "type": "function"
    },
    {
      "constant": true,
      "inputs": [
        {
          "name": "_subscriber",
          "type": "address"
        },
        {
          "name": "_dataSourceName",
          "type": "bytes32"
        }
      ],
      "name": "checkAddressSubscription",
      "outputs": [
        {
          "name": "subscriber",
          "type": "address"
        },
        {
          "name": "dataSourceName",
          "type": "bytes32"
        },
        {
          "name": "price",
          "type": "uint256"
        },
        {
          "name": "startTime",
          "type": "uint256"
        },
        {
          "name": "endTime",
          "type": "uint256"
        },
        {
          "name": "isUnExpired",
          "type": "bool"
        },
        {
          "name": "isPaid",
          "type": "bool"
        },
        {
          "name": "isPunishedProvider",
          "type": "bool"
        },
        {
          "name": "isOrder",
          "type": "bool"
        }
      ],
      "payable": false,
      "stateMutability": "view",
      "type": "function"
    },
    {
      "constant": false,
      "inputs": [
        {
          "name": "_dataSourceName",
          "type": "bytes32"
        },
        {
          "name": "_isActive",
          "type": "bool"
        }
      ],
      "name": "changeDataSourceActivityStatus",
      "outputs": [
        {
          "name": "success",
          "type": "bool"
        }
      ],
      "payable": false,
      "stateMutability": "nonpayable",
      "type": "function"
    },
    {
      "constant": true,
      "inputs": [
        {
          "name": "_dataSourceName",
          "type": "bytes32"
        },
        {
          "name": "_index",
          "type": "uint256"
        }
      ],
      "name": "isExpiredSubscriptionAt",
      "outputs": [
        {
          "name": "isExpired",
          "type": "bool"
        }
      ],
      "payable": false,
      "stateMutability": "view",
      "type": "function"
    },
    {
      "constant": true,
      "inputs": [
        {
          "name": "",
          "type": "uint256"
        }
      ],
      "name": "mNames",
      "outputs": [
        {
          "name": "",
          "type": "bytes32"
        }
      ],
      "payable": false,
      "stateMutability": "view",
      "type": "function"
    },
    {
      "constant": true,
      "inputs": [
        {
          "name": "",
          "type": "bytes32"
        }
      ],
      "name": "mProviders",
      "outputs": [
        {
          "name": "owner",
          "type": "address"
        },
        {
          "name": "volume",
          "type": "uint256"
        },
        {
          "name": "subscriptionsNum",
          "type": "uint256"
        },
        {
          "name": "name",
          "type": "bytes32"
        },
        {
          "name": "price",
          "type": "uint256"
        },
        {
          "name": "isPunished",
          "type": "bool"
        },
        {
          "name": "punishTimeStamp",
          "type": "uint256"
        },
        {
          "name": "isProvider",
          "type": "bool"
        },
        {
          "name": "isActive",
          "type": "bool"
        },
        {
          "name": "nextProvider",
          "type": "bytes32"
        }
      ],
      "payable": false,
      "stateMutability": "view",
      "type": "function"
    },
    {
      "constant": true,
      "inputs": [
        {
          "name": "",
          "type": "bytes32"
        },
        {
          "name": "",
          "type": "uint256"
        }
      ],
      "name": "mOrders",
      "outputs": [
        {
          "name": "dataSourceName",
          "type": "bytes32"
        },
        {
          "name": "subscriber",
          "type": "address"
        },
        {
          "name": "provider",
          "type": "address"
        },
        {
          "name": "price",
          "type": "uint256"
        },
        {
          "name": "startTime",
          "type": "uint256"
        },
        {
          "name": "endTime",
          "type": "uint256"
        },
        {
          "name": "isPaid",
          "type": "bool"
        },
        {
          "name": "isOrder",
          "type": "bool"
        },
        {
          "name": "isRefundPaid",
          "type": "bool"
        }
      ],
      "payable": false,
      "stateMutability": "view",
      "type": "function"
    },
    {
      "constant": true,
      "inputs": [],
      "name": "mToken",
      "outputs": [
        {
          "name": "",
          "type": "address"
        }
      ],
      "payable": false,
      "stateMutability": "view",
      "type": "function"
    },
    {
      "constant": true,
      "inputs": [
        {
          "name": "_dataSourceName",
          "type": "bytes32"
        }
      ],
      "name": "getOwnerFromName",
      "outputs": [
        {
          "name": "owner",
          "type": "address"
        }
      ],
      "payable": false,
      "stateMutability": "view",
      "type": "function"
    },
    {
      "constant": true,
      "inputs": [
        {
          "name": "_subscriber",
          "type": "address"
        },
        {
          "name": "_dataSourceName",
          "type": "bytes32"
        }
      ],
      "name": "getRefundAmount",
      "outputs": [
        {
          "name": "refundAmount",
          "type": "uint256"
        }
      ],
      "payable": false,
      "stateMutability": "view",
      "type": "function"
    },
    {
      "constant": true,
      "inputs": [
        {
          "name": "_dataSourceName",
          "type": "bytes32"
        }
      ],
      "name": "getSubscriptionsSize",
      "outputs": [
        {
          "name": "size",
          "type": "uint256"
        }
      ],
      "payable": false,
      "stateMutability": "view",
      "type": "function"
    },
    {
      "constant": true,
      "inputs": [],
      "name": "mOwner",
      "outputs": [
        {
          "name": "",
          "type": "address"
        }
      ],
      "payable": false,
      "stateMutability": "view",
      "type": "function"
    },
    {
      "constant": true,
      "inputs": [],
      "name": "MARKETPLACE_VERSION",
      "outputs": [
        {
          "name": "",
          "type": "string"
        }
      ],
      "payable": false,
      "stateMutability": "view",
      "type": "function"
    },
    {
      "constant": true,
      "inputs": [
        {
          "name": "_subscriber",
          "type": "address"
        },
        {
          "name": "_dataSourceName",
          "type": "bytes32"
        }
      ],
      "name": "isExpiredSubscription",
      "outputs": [
        {
          "name": "isExpired",
          "type": "bool"
        }
      ],
      "payable": false,
      "stateMutability": "view",
      "type": "function"
    },
    {
      "constant": false,
      "inputs": [
        {
          "name": "_newOwner",
          "type": "address"
        }
      ],
      "name": "transferOwnership",
      "outputs": [],
      "payable": false,
      "stateMutability": "nonpayable",
      "type": "function"
    },
    {
      "constant": true,
      "inputs": [
        {
          "name": "_dataSourceName",
          "type": "bytes32"
        },
        {
          "name": "_index",
          "type": "uint256"
        }
      ],
      "name": "checkSubscriptionAt",
      "outputs": [
        {
          "name": "subscriber",
          "type": "address"
        },
        {
          "name": "dataSourceName",
          "type": "bytes32"
        },
        {
          "name": "price",
          "type": "uint256"
        },
        {
          "name": "startTime",
          "type": "uint256"
        },
        {
          "name": "endTime",
          "type": "uint256"
        },
        {
          "name": "isUnExpired",
          "type": "bool"
        },
        {
          "name": "isPaid",
          "type": "bool"
        },
        {
          "name": "isPunishedProvider",
          "type": "bool"
        },
        {
          "name": "isOrder",
          "type": "bool"
        }
      ],
      "payable": false,
      "stateMutability": "view",
      "type": "function"
    },
    {
      "inputs": [
        {
          "name": "_tokenAddress",
          "type": "address"
        }
      ],
      "payable": false,
      "stateMutability": "nonpayable",
      "type": "constructor"
    },
    {
      "anonymous": false,
      "inputs": [
        {
          "indexed": true,
          "name": "previousOwner",
          "type": "address"
        },
        {
          "indexed": true,
          "name": "newOwner",
          "type": "address"
        }
      ],
      "name": "OwnershipTransferred",
      "type": "event"
    },
    {
      "anonymous": false,
      "inputs": [
        {
          "indexed": true,
          "name": "editor",
          "type": "address"
        },
        {
          "indexed": true,
          "name": "dataSourceName",
          "type": "bytes32"
        },
        {
          "indexed": false,
          "name": "newPrice",
          "type": "uint256"
        }
      ],
      "name": "PriceUpdate",
      "type": "event"
    },
    {
      "anonymous": false,
      "inputs": [
        {
          "indexed": true,
          "name": "editor",
          "type": "address"
        },
        {
          "indexed": true,
          "name": "dataSourceName",
          "type": "bytes32"
        },
        {
          "indexed": false,
          "name": "newStatus",
          "type": "bool"
        }
      ],
      "name": "ActivityUpdate",
      "type": "event"
    },
    {
      "anonymous": false,
      "inputs": [
        {
          "indexed": true,
          "name": "dataOwner",
          "type": "address"
        },
        {
          "indexed": true,
          "name": "dataSourceName",
          "type": "bytes32"
        },
        {
          "indexed": false,
          "name": "price",
          "type": "uint256"
        },
        {
          "indexed": false,
          "name": "success",
          "type": "bool"
        }
      ],
      "name": "Registered",
      "type": "event"
    },
    {
      "anonymous": false,
      "inputs": [
        {
          "indexed": true,
          "name": "from",
          "type": "address"
        },
        {
          "indexed": true,
          "name": "to",
          "type": "address"
        },
        {
          "indexed": false,
          "name": "value",
          "type": "uint256"
        }
      ],
      "name": "SubscriptionDeposited",
      "type": "event"
    },
    {
      "anonymous": false,
      "inputs": [
        {
          "indexed": true,
          "name": "subscriber",
          "type": "address"
        },
        {
          "indexed": true,
          "name": "dataSourceName",
          "type": "bytes32"
        },
        {
          "indexed": true,
          "name": "dataOwner",
          "type": "address"
        },
        {
          "indexed": false,
          "name": "price",
          "type": "uint256"
        },
        {
          "indexed": false,
          "name": "success",
          "type": "bool"
        }
      ],
      "name": "Subscribed",
      "type": "event"
    },
    {
      "anonymous": false,
      "inputs": [
        {
          "indexed": true,
          "name": "dataOwner",
          "type": "address"
        },
        {
          "indexed": true,
          "name": "dataSourceName",
          "type": "bytes32"
        },
        {
          "indexed": false,
          "name": "amount",
          "type": "uint256"
        }
      ],
      "name": "TransferToProvider",
      "type": "event"
    },
    {
      "anonymous": false,
      "inputs": [
        {
          "indexed": true,
          "name": "dataOwner",
          "type": "address"
        },
        {
          "indexed": true,
          "name": "dataSourceName",
          "type": "bytes32"
        },
        {
          "indexed": false,
          "name": "amount",
          "type": "uint256"
        }
      ],
      "name": "ProviderWithdraw",
      "type": "event"
    },
    {
      "anonymous": false,
      "inputs": [
        {
          "indexed": true,
          "name": "dataOwner",
          "type": "address"
        },
        {
          "indexed": true,
          "name": "dataSourceName",
          "type": "bytes32"
        },
        {
          "indexed": false,
          "name": "isPunished",
          "type": "bool"
        }
      ],
      "name": "ProviderPunishStatus",
      "type": "event"
    },
    {
      "anonymous": false,
      "inputs": [
        {
          "indexed": true,
          "name": "subscriber",
          "type": "address"
        },
        {
          "indexed": true,
          "name": "dataSourceName",
          "type": "bytes32"
        },
        {
          "indexed": false,
          "name": "refundAmount",
          "type": "uint256"
        }
      ],
      "name": "SubscriberRefund",
      "type": "event"
    }
  ],
  "bytecode": "0x6060604052341561000f57600080fd5b60405160208062005246833981016040528080519060200190919050508080336000806101000a81548173ffffffffffffffffffffffffffffffffffffffff021916908373ffffffffffffffffffffffffffffffffffffffff160217905550600073ffffffffffffffffffffffffffffffffffffffff168173ffffffffffffffffffffffffffffffffffffffff16141515156100aa57600080fd5b80600460006101000a81548173ffffffffffffffffffffffffffffffffffffffff021916908373ffffffffffffffffffffffffffffffffffffffff1602179055506000600560008060010260001916815260200190815260200160002060080181600019169055506000600102600560008060010260001916815260200190815260200160002060030181600019169055506005600080600102600019168152602001908152602001600020600301546002816000191690555060056000806001026000191681526020019081526020016000206003015460018160001916905550600160038190555050505061509f80620001a76000396000f3006060604052600436106101c2576000357c0100000000000000000000000000000000000000000000000000000000900463ffffffff1680630cf23b1f146101c75780631225318c146102065780631a69683914610237578063220386261461027657806326277bf2146102be5780632ae3171e146102e75780632b22b90b1461032b5780632f10aabb146103735780632f95949a146103bd5780632faf44f61461045a57806332b9c88c14610499578063340b4ed4146104c25780633b8f5dbd1461050a5780633bb4497c14610549578063445f0095146105b357806345e3f796146105dc5780635164fab41461061b57806352e0ca79146106825780636210c254146106b357806363834ed1146106ee5780636adbf963146107325780637b7886131461075b5780638d149e5c14610831578063adbc33c81461087b578063b0e774c4146108c3578063b618c75614610902578063c216d4a8146109c4578063c3b6f93914610aac578063c94d14ad14610b01578063ca6a467b14610b68578063d177126e14610bc2578063dcda4bf314610bfd578063e93818e414610c52578063ea97bac114610ce0578063f2fde38b14610d3e578063fc0fb32314610d77575b600080fd5b34156101d257600080fd5b6101ec600480803560001916906020019091905050610e37565b604051808215151515815260200191505060405180910390f35b341561021157600080fd5b610219610e6c565b60405180826000191660001916815260200191505060405180910390f35b341561024257600080fd5b6102586004808035906020019091905050610e72565b60405180826000191660001916815260200191505060405180910390f35b341561028157600080fd5b6102a4600480803560001916906020019091908035906020019091905050610eb2565b604051808215151515815260200191505060405180910390f35b34156102c957600080fd5b6102d1611262565b6040518082815260200191505060405180910390f35b34156102f257600080fd5b610315600480803560001916906020019091908035906020019091905050611269565b6040518082815260200191505060405180910390f35b341561033657600080fd5b610359600480803560001916906020019091908035906020019091905050611457565b604051808215151515815260200191505060405180910390f35b341561037e57600080fd5b6103a36004808035600019169060200190919080351515906020019091905050611828565b604051808215151515815260200191505060405180910390f35b34156103c857600080fd5b6103e26004808035600019169060200190919050506119e4565b604051808873ffffffffffffffffffffffffffffffffffffffff1673ffffffffffffffffffffffffffffffffffffffff16815260200187815260200186815260200185815260200184151515158152602001831515151581526020018215151515815260200197505050505050505060405180910390f35b341561046557600080fd5b61047f600480803560001916906020019091905050611b28565b604051808215151515815260200191505060405180910390f35b34156104a457600080fd5b6104ac611fe4565b6040518082815260200191505060405180910390f35b34156104cd57600080fd5b6104f0600480803560001916906020019091908035906020019091905050611fea565b604051808215151515815260200191505060405180910390f35b341561051557600080fd5b61052f600480803560001916906020019091905050612140565b604051808215151515815260200191505060405180910390f35b341561055457600080fd5b61055c612526565b6040518080602001828103825283818151815260200191508051906020019060200280838360005b8381101561059f578082015181840152602081019050610584565b505050509050019250505060405180910390f35b34156105be57600080fd5b6105c66125ea565b6040518082815260200191505060405180910390f35b34156105e757600080fd5b6106016004808035600019169060200190919050506126d1565b604051808215151515815260200191505060405180910390f35b341561062657600080fd5b61066860048080356000191690602001909190803590602001909190803573ffffffffffffffffffffffffffffffffffffffff16906020019091905050612a8d565b604051808215151515815260200191505060405180910390f35b341561068d57600080fd5b610695612b4f565b60405180826000191660001916815260200191505060405180910390f35b34156106be57600080fd5b6106d8600480803560001916906020019091905050612b55565b6040518082815260200191505060405180910390f35b34156106f957600080fd5b61071c600480803560001916906020019091908035906020019091905050612d66565b6040518082815260200191505060405180910390f35b341561073d57600080fd5b610745612f58565b6040518082815260200191505060405180910390f35b341561076657600080fd5b61079f600480803573ffffffffffffffffffffffffffffffffffffffff1690602001909190803560001916906020019091905050612f65565b604051808a73ffffffffffffffffffffffffffffffffffffffff1673ffffffffffffffffffffffffffffffffffffffff168152602001896000191660001916815260200188815260200187815260200186815260200185151515158152602001841515151581526020018315151515815260200182151515158152602001995050505050505050505060405180910390f35b341561083c57600080fd5b61086160048080356000191690602001909190803515159060200190919050506132de565b604051808215151515815260200191505060405180910390f35b341561088657600080fd5b6108a9600480803560001916906020019091908035906020019091905050613428565b604051808215151515815260200191505060405180910390f35b34156108ce57600080fd5b6108e460048080359060200190919050506134a4565b60405180826000191660001916815260200191505060405180910390f35b341561090d57600080fd5b6109276004808035600019169060200190919050506134c8565b604051808b73ffffffffffffffffffffffffffffffffffffffff1673ffffffffffffffffffffffffffffffffffffffff1681526020018a8152602001898152602001886000191660001916815260200187815260200186151515158152602001858152602001841515151581526020018315151515815260200182600019166000191681526020019a505050505050505050505060405180910390f35b34156109cf57600080fd5b6109f2600480803560001916906020019091908035906020019091905050613563565b604051808a600019166000191681526020018973ffffffffffffffffffffffffffffffffffffffff1673ffffffffffffffffffffffffffffffffffffffff1681526020018873ffffffffffffffffffffffffffffffffffffffff1673ffffffffffffffffffffffffffffffffffffffff168152602001878152602001868152602001858152602001841515151581526020018315151515815260200182151515158152602001995050505050505050505060405180910390f35b3415610ab757600080fd5b610abf613634565b604051808273ffffffffffffffffffffffffffffffffffffffff1673ffffffffffffffffffffffffffffffffffffffff16815260200191505060405180910390f35b3415610b0c57600080fd5b610b2660048080356000191690602001909190505061365a565b604051808273ffffffffffffffffffffffffffffffffffffffff1673ffffffffffffffffffffffffffffffffffffffff16815260200191505060405180910390f35b3415610b7357600080fd5b610bac600480803573ffffffffffffffffffffffffffffffffffffffff16906020019091908035600019169060200190919050506136a2565b6040518082815260200191505060405180910390f35b3415610bcd57600080fd5b610be760048080356000191690602001909190505061397d565b6040518082815260200191505060405180910390f35b3415610c0857600080fd5b610c106139a5565b604051808273ffffffffffffffffffffffffffffffffffffffff1673ffffffffffffffffffffffffffffffffffffffff16815260200191505060405180910390f35b3415610c5d57600080fd5b610c656139ca565b6040518080602001828103825283818151815260200191508051906020019080838360005b83811015610ca5578082015181840152602081019050610c8a565b50505050905090810190601f168015610cd25780820380516001836020036101000a031916815260200191505b509250505060405180910390f35b3415610ceb57600080fd5b610d24600480803573ffffffffffffffffffffffffffffffffffffffff1690602001909190803560001916906020019091905050613a03565b604051808215151515815260200191505060405180910390f35b3415610d4957600080fd5b610d75600480803573ffffffffffffffffffffffffffffffffffffffff16906020019091905050613bb1565b005b3415610d8257600080fd5b610da5600480803560001916906020019091908035906020019091905050613d06565b604051808a73ffffffffffffffffffffffffffffffffffffffff1673ffffffffffffffffffffffffffffffffffffffff168152602001896000191660001916815260200188815260200187815260200186815260200185151515158152602001841515151581526020018315151515815260200182151515158152602001995050505050505050505060405180910390f35b600060056000836000191660001916815260200190815260200160002060070160019054906101000a900460ff169050919050565b60015481565b600081600011158015610e8a57506007805490508211155b15610ead57600782815481101515610e9e57fe5b90600052602060002090015490505b919050565b600080838380600011158015610ee65750600660008360001916600019168152602001908152602001600020805490508111155b1515610ef157600080fd5b3373ffffffffffffffffffffffffffffffffffffffff1660066000846000191660001916815260200190815260200160002082815481101515610f3057fe5b906000526020600020906007020160010160009054906101000a900473ffffffffffffffffffffffffffffffffffffffff1673ffffffffffffffffffffffffffffffffffffffff16141515610f8457600080fd5b60056000876000191660001916815260200190815260200160002060070160009054906101000a900460ff161515610fbb57600080fd5b6000925061113760066000886000191660001916815260200190815260200160002086815481101515610fea57fe5b906000526020600020906007020161012060405190810160405290816000820154600019166000191681526020016001820160009054906101000a900473ffffffffffffffffffffffffffffffffffffffff1673ffffffffffffffffffffffffffffffffffffffff1673ffffffffffffffffffffffffffffffffffffffff1681526020016002820160009054906101000a900473ffffffffffffffffffffffffffffffffffffffff1673ffffffffffffffffffffffffffffffffffffffff1673ffffffffffffffffffffffffffffffffffffffff1681526020016003820154815260200160048201548152602001600582015481526020016006820160009054906101000a900460ff161515151581526020016006820160019054906101000a900460ff161515151581526020016006820160029054906101000a900460ff1615151515815250506140dd565b925060008311151561114857600080fd5b6006600087600019166000191681526020019081526020016000208581548110151561117057fe5b906000526020600020906007020160060160029054906101000a900460ff1615151561119b57600080fd5b6001600660008860001916600019168152602001908152602001600020868154811015156111c557fe5b906000526020600020906007020160060160026101000a81548160ff0219169083151502179055506111f733846141ae565b151561120257600080fd5b85600019163373ffffffffffffffffffffffffffffffffffffffff167f794aa82b6db54e01dab1d1dfda90d863bf89a700f3fe0fc4f98bfd504f71bf5d856040518082815260200191505060405180910390a36001935050505092915050565b62278d0081565b600060056000846000191660001916815260200190815260200160002060070160009054906101000a900460ff1615156112a257600080fd5b816000111580156112d15750600660008460001916600019168152602001908152602001600020805490508211155b156114515761144e6006600085600019166000191681526020019081526020016000208381548110151561130157fe5b906000526020600020906007020161012060405190810160405290816000820154600019166000191681526020016001820160009054906101000a900473ffffffffffffffffffffffffffffffffffffffff1673ffffffffffffffffffffffffffffffffffffffff1673ffffffffffffffffffffffffffffffffffffffff1681526020016002820160009054906101000a900473ffffffffffffffffffffffffffffffffffffffff1673ffffffffffffffffffffffffffffffffffffffff1673ffffffffffffffffffffffffffffffffffffffff1681526020016003820154815260200160048201548152602001600582015481526020016006820160009054906101000a900460ff161515151581526020016006820160019054906101000a900460ff161515151581526020016006820160029054906101000a900460ff161515151581525050614319565b90505b92915050565b6000808360056000826000191660001916815260200190815260200160002060070160009054906101000a900460ff16151561149257600080fd5b3373ffffffffffffffffffffffffffffffffffffffff1660056000836000191660001916815260200190815260200160002060000160009054906101000a900473ffffffffffffffffffffffffffffffffffffffff1673ffffffffffffffffffffffffffffffffffffffff1614151561150a57600080fd5b836000111580156115395750600660008660001916600019168152602001908152602001600020805490508411155b151561154457600080fd5b600091506116c06006600087600019166000191681526020019081526020016000208581548110151561157357fe5b906000526020600020906007020161012060405190810160405290816000820154600019166000191681526020016001820160009054906101000a900473ffffffffffffffffffffffffffffffffffffffff1673ffffffffffffffffffffffffffffffffffffffff1673ffffffffffffffffffffffffffffffffffffffff1681526020016002820160009054906101000a900473ffffffffffffffffffffffffffffffffffffffff1673ffffffffffffffffffffffffffffffffffffffff1673ffffffffffffffffffffffffffffffffffffffff1681526020016003820154815260200160048201548152602001600582015481526020016006820160009054906101000a900460ff161515151581526020016006820160019054906101000a900460ff161515151581526020016006820160029054906101000a900460ff161515151581525050614319565b91506000821115156116d157600080fd5b600660008660001916600019168152602001908152602001600020848154811015156116f957fe5b906000526020600020906007020160060160009054906101000a900460ff1615151561172457600080fd5b60016006600087600019166000191681526020019081526020016000208581548110151561174e57fe5b906000526020600020906007020160060160006101000a81548160ff02191690831515021790555061178085836143d4565b151561178b57600080fd5b846000191660056000876000191660001916815260200190815260200160002060000160009054906101000a900473ffffffffffffffffffffffffffffffffffffffff1673ffffffffffffffffffffffffffffffffffffffff167fceb5682fafb74ca2d33476486c7dee53205f9c8aff48d68f47456a90abd536a8846040518082815260200191505060405180910390a360019250505092915050565b60008060009054906101000a900473ffffffffffffffffffffffffffffffffffffffff1673ffffffffffffffffffffffffffffffffffffffff163373ffffffffffffffffffffffffffffffffffffffff1614151561188557600080fd5b60056000846000191660001916815260200190815260200160002060070160009054906101000a900460ff1615156118bc57600080fd5b8160056000856000191660001916815260200190815260200160002060050160006101000a81548160ff0219169083151502179055508115611920574260056000856000191660001916815260200190815260200160002060060181905550611945565b6000600560008560001916600019168152602001908152602001600020600601819055505b826000191660056000856000191660001916815260200190815260200160002060000160009054906101000a900473ffffffffffffffffffffffffffffffffffffffff1673ffffffffffffffffffffffffffffffffffffffff167fb5dd3ecc8eaa1fb9460a4088b3872f93a68855f913c6bfc3f3c6c7ebf0f326b684604051808215151515815260200191505060405180910390a36001905092915050565b600080600080600080600060056000896000191660001916815260200190815260200160002060000160009054906101000a900473ffffffffffffffffffffffffffffffffffffffff16965060056000896000191660001916815260200190815260200160002060040154955060056000896000191660001916815260200190815260200160002060010154945060056000896000191660001916815260200190815260200160002060020154935060056000896000191660001916815260200190815260200160002060070160009054906101000a900460ff16925060056000896000191660001916815260200190815260200160002060070160019054906101000a900460ff16915060056000896000191660001916815260200190815260200160002060050160009054906101000a900460ff169050919395979092949650565b60008160056000826000191660001916815260200190815260200160002060070160009054906101000a900460ff161515611b6257600080fd5b60056000826000191660001916815260200190815260200160002060070160019054906101000a900460ff161515611b9957600080fd5b60056000826000191660001916815260200190815260200160002060050160009054906101000a900460ff16151515611bd157600080fd5b611bfa3330600560008760001916600019168152602001908152602001600020600401546146ff565b1515611c0557600080fd5b6006600084600019166000191681526020019081526020016000208054806001018281611c329190614f13565b9160005260206000209060070201600061012060405190810160405280876000191681526020013373ffffffffffffffffffffffffffffffffffffffff16815260200160056000896000191660001916815260200190815260200160002060000160009054906101000a900473ffffffffffffffffffffffffffffffffffffffff1673ffffffffffffffffffffffffffffffffffffffff16815260200160056000896000191660001916815260200190815260200160002060040154815260200142815260200162278d00420181526020016000151581526020016001151581526020016000151581525090919091506000820151816000019060001916905560208201518160010160006101000a81548173ffffffffffffffffffffffffffffffffffffffff021916908373ffffffffffffffffffffffffffffffffffffffff16021790555060408201518160020160006101000a81548173ffffffffffffffffffffffffffffffffffffffff021916908373ffffffffffffffffffffffffffffffffffffffff160217905550606082015181600301556080820151816004015560a0820151816005015560c08201518160060160006101000a81548160ff02191690831515021790555060e08201518160060160016101000a81548160ff0219169083151502179055506101008201518160060160026101000a81548160ff021916908315150217905550505050611e916005600085600019166000191681526020019081526020016000206004015460056000866000191660001916815260200190815260200160002060010154614a5090919063ffffffff16565b60056000856000191660001916815260200190815260200160002060010181905550611ee5600160056000866000191660001916815260200190815260200160002060020154614a5090919063ffffffff16565b6005600085600019166000191681526020019081526020016000206002018190555060056000846000191660001916815260200190815260200160002060000160009054906101000a900473ffffffffffffffffffffffffffffffffffffffff1673ffffffffffffffffffffffffffffffffffffffff1683600019163373ffffffffffffffffffffffffffffffffffffffff167f7a3f54da83d294e3b226e50ae5a65e87cff0f43f8699003833a1ee6670c800e660056000886000191660001916815260200190815260200160002060040154600160405180838152602001821515151581526020019250505060405180910390a46001915050919050565b60035481565b60008260056000826000191660001916815260200190815260200160002060070160009054906101000a900460ff16151561202457600080fd5b3373ffffffffffffffffffffffffffffffffffffffff1660056000836000191660001916815260200190815260200160002060000160009054906101000a900473ffffffffffffffffffffffffffffffffffffffff1673ffffffffffffffffffffffffffffffffffffffff1614151561209c57600080fd5b82806120b2600183614a5090919063ffffffff16565b1115156120be57600080fd5b836005600087600019166000191681526020019081526020016000206004018190555084600019163373ffffffffffffffffffffffffffffffffffffffff167fd6d44e0931d3eff0a69c277b94480024f00d36b25216cf69d54965c1ecb7f4a3866040518082815260200191505060405180910390a360019250505092915050565b60008060008060008560056000826000191660001916815260200190815260200160002060070160009054906101000a900460ff16151561218057600080fd5b3373ffffffffffffffffffffffffffffffffffffffff1660056000836000191660001916815260200190815260200160002060000160009054906101000a900473ffffffffffffffffffffffffffffffffffffffff1673ffffffffffffffffffffffffffffffffffffffff161415156121f857600080fd5b60009450600660008860001916600019168152602001908152602001600020805490509350600092505b83831015612472576123a26006600089600019166000191681526020019081526020016000208481548110151561225557fe5b906000526020600020906007020161012060405190810160405290816000820154600019166000191681526020016001820160009054906101000a900473ffffffffffffffffffffffffffffffffffffffff1673ffffffffffffffffffffffffffffffffffffffff1673ffffffffffffffffffffffffffffffffffffffff1681526020016002820160009054906101000a900473ffffffffffffffffffffffffffffffffffffffff1673ffffffffffffffffffffffffffffffffffffffff1673ffffffffffffffffffffffffffffffffffffffff1681526020016003820154815260200160048201548152602001600582015481526020016006820160009054906101000a900460ff161515151581526020016006820160019054906101000a900460ff161515151581526020016006820160029054906101000a900460ff161515151581525050614319565b91506000821180156123f85750600660008860001916600019168152602001908152602001600020838154811015156123d757fe5b906000526020600020906007020160060160009054906101000a900460ff16155b156124655760016006600089600019166000191681526020019081526020016000208481548110151561242757fe5b906000526020600020906007020160060160006101000a81548160ff0219169083151502179055506124628286614a5090919063ffffffff16565b94505b8280600101935050612222565b61247c87866143d4565b151561248757600080fd5b866000191660056000896000191660001916815260200190815260200160002060000160009054906101000a900473ffffffffffffffffffffffffffffffffffffffff1673ffffffffffffffffffffffffffffffffffffffff167fceb5682fafb74ca2d33476486c7dee53205f9c8aff48d68f47456a90abd536a8876040518082815260200191505060405180910390a3600195505050505050919050565b61252e614f45565b612536614f45565b6000806003546040518059106125495750595b908082528060200260200182016040525092506001549150600090505b6003548110156125e15760056000836000191660001916815260200190815260200160002060030154838281518110151561259d57fe5b906020019060200201906000191690816000191681525050600560008360001916600019168152602001908152602001600020600801549150806001019050612566565b82935050505090565b6000600460009054906101000a900473ffffffffffffffffffffffffffffffffffffffff1673ffffffffffffffffffffffffffffffffffffffff166370a08231306000604051602001526040518263ffffffff167c0100000000000000000000000000000000000000000000000000000000028152600401808273ffffffffffffffffffffffffffffffffffffffff1673ffffffffffffffffffffffffffffffffffffffff168152602001915050602060405180830381600087803b15156126b157600080fd5b6102c65a03f115156126c257600080fd5b50505060405180519050905090565b600080600080600060056000876000191660001916815260200190815260200160002060070160009054906101000a900460ff16151561271057600080fd5b60009350600660008760001916600019168152602001908152602001600020805490509250600091505b82821015612a18573373ffffffffffffffffffffffffffffffffffffffff166006600088600019166000191681526020019081526020016000208381548110151561278157fe5b906000526020600020906007020160010160009054906101000a900473ffffffffffffffffffffffffffffffffffffffff1673ffffffffffffffffffffffffffffffffffffffff161415612a0b57612947600660008860001916600019168152602001908152602001600020838154811015156127fa57fe5b906000526020600020906007020161012060405190810160405290816000820154600019166000191681526020016001820160009054906101000a900473ffffffffffffffffffffffffffffffffffffffff1673ffffffffffffffffffffffffffffffffffffffff1673ffffffffffffffffffffffffffffffffffffffff1681526020016002820160009054906101000a900473ffffffffffffffffffffffffffffffffffffffff1673ffffffffffffffffffffffffffffffffffffffff1673ffffffffffffffffffffffffffffffffffffffff1681526020016003820154815260200160048201548152602001600582015481526020016006820160009054906101000a900460ff161515151581526020016006820160019054906101000a900460ff161515151581526020016006820160029054906101000a900460ff1615151515815250506140dd565b905060008111801561299d57506006600087600019166000191681526020019081526020016000208281548110151561297c57fe5b906000526020600020906007020160060160029054906101000a900460ff16155b15612a0a576001600660008860001916600019168152602001908152602001600020838154811015156129cc57fe5b906000526020600020906007020160060160026101000a81548160ff021916908315150217905550612a078185614a5090919063ffffffff16565b93505b5b818060010192505061273a565b612a2233856141ae565b1515612a2d57600080fd5b85600019163373ffffffffffffffffffffffffffffffffffffffff167f794aa82b6db54e01dab1d1dfda90d863bf89a700f3fe0fc4f98bfd504f71bf5d866040518082815260200191505060405180910390a36001945050505050919050565b6000836000602060ff16111515612aa357600080fd5b60056000826000191660001916815260200190815260200160002060070160009054906101000a900460ff16151515612adb57600080fd5b8380612af1600183614a5090919063ffffffff16565b111515612afd57600080fd5b612b08868686614a6e565b1515612b1357600080fd5b60078054806001018281612b279190614f59565b9160005260206000209001600088909190915090600019169055506001925050509392505050565b60025481565b600080600060056000856000191660001916815260200190815260200160002060070160009054906101000a900460ff161515612b9157600080fd5b60009250600660008560001916600019168152602001908152602001600020805490509150600090505b81811015612d5c57612d4d612d3e60066000876000191660001916815260200190815260200160002083815481101515612bf157fe5b906000526020600020906007020161012060405190810160405290816000820154600019166000191681526020016001820160009054906101000a900473ffffffffffffffffffffffffffffffffffffffff1673ffffffffffffffffffffffffffffffffffffffff1673ffffffffffffffffffffffffffffffffffffffff1681526020016002820160009054906101000a900473ffffffffffffffffffffffffffffffffffffffff1673ffffffffffffffffffffffffffffffffffffffff1673ffffffffffffffffffffffffffffffffffffffff1681526020016003820154815260200160048201548152602001600582015481526020016006820160009054906101000a900460ff161515151581526020016006820160019054906101000a900460ff161515151581526020016006820160029054906101000a900460ff161515151581525050614319565b84614a5090919063ffffffff16565b92508080600101915050612bbb565b8292505050919050565b600060056000846000191660001916815260200190815260200160002060070160009054906101000a900460ff161515612d9f57600080fd5b6000905081600011158015612dd25750600660008460001916600019168152602001908152602001600020805490508211155b15612f5257612f4f60066000856000191660001916815260200190815260200160002083815481101515612e0257fe5b906000526020600020906007020161012060405190810160405290816000820154600019166000191681526020016001820160009054906101000a900473ffffffffffffffffffffffffffffffffffffffff1673ffffffffffffffffffffffffffffffffffffffff1673ffffffffffffffffffffffffffffffffffffffff1681526020016002820160009054906101000a900473ffffffffffffffffffffffffffffffffffffffff1673ffffffffffffffffffffffffffffffffffffffff1673ffffffffffffffffffffffffffffffffffffffff1681526020016003820154815260200160048201548152602001600582015481526020016006820160009054906101000a900460ff161515151581526020016006820160019054906101000a900460ff161515151581526020016006820160029054906101000a900460ff1615151515815250506140dd565b90505b92915050565b6000600780549050905090565b6000806000806000806000806000806000600660008d600019166000191681526020019081526020016000208054905091508c73ffffffffffffffffffffffffffffffffffffffff16600073ffffffffffffffffffffffffffffffffffffffff1614151515612fd357600080fd5b600560008d6000191660001916815260200190815260200160002060070160009054906101000a900460ff16151561300a57600080fd5b60008211156132b4576001820390505b6000811015156132b3578c73ffffffffffffffffffffffffffffffffffffffff16600660008e600019166000191681526020019081526020016000208281548110151561306357fe5b906000526020600020906007020160010160009054906101000a900473ffffffffffffffffffffffffffffffffffffffff1673ffffffffffffffffffffffffffffffffffffffff16141561329757600660008d60001916600019168152602001908152602001600020818154811015156130d957fe5b906000526020600020906007020160010160009054906101000a900473ffffffffffffffffffffffffffffffffffffffff169a50600660008d600019166000191681526020019081526020016000208181548110151561313557fe5b9060005260206000209060070201600301549850600660008d600019166000191681526020019081526020016000208181548110151561317157fe5b9060005260206000209060070201600401549750600660008d60001916600019168152602001908152602001600020818154811015156131ad57fe5b90600052602060002090600702016005015496506131cb8b8d613a03565b159550600660008d60001916600019168152602001908152602001600020818154811015156131f657fe5b906000526020600020906007020160060160009054906101000a900460ff169450600560008d6000191660001916815260200190815260200160002060050160009054906101000a900460ff169350600660008d600019166000191681526020019081526020016000208181548110151561326d57fe5b906000526020600020906007020160060160019054906101000a900460ff169250600090506132b3565b60008114156132a5576132b3565b80806001900391505061301a565b5b8a8c8a8a8a8a8a8a8a9a509a509a509a509a509a509a509a509a5050509295985092959850929598565b60008260056000826000191660001916815260200190815260200160002060070160009054906101000a900460ff16151561331857600080fd5b3373ffffffffffffffffffffffffffffffffffffffff1660056000836000191660001916815260200190815260200160002060000160009054906101000a900473ffffffffffffffffffffffffffffffffffffffff1673ffffffffffffffffffffffffffffffffffffffff1614151561339057600080fd5b8260056000866000191660001916815260200190815260200160002060070160016101000a81548160ff02191690831515021790555083600019163373ffffffffffffffffffffffffffffffffffffffff167feb7e8fd639953c98dc1baecd9f72cc41075f4cf712755141cbbdd572181680c485604051808215151515815260200191505060405180910390a3600191505092915050565b6000816000111580156134595750600660008460001916600019168152602001908152602001600020805490508211155b1561349e576006600084600019166000191681526020019081526020016000208281548110151561348657fe5b90600052602060002090600702016005015442101590505b92915050565b6007818154811015156134b357fe5b90600052602060002090016000915090505481565b60056020528060005260406000206000915090508060000160009054906101000a900473ffffffffffffffffffffffffffffffffffffffff16908060010154908060020154908060030154908060040154908060050160009054906101000a900460ff16908060060154908060070160009054906101000a900460ff16908060070160019054906101000a900460ff1690806008015490508a565b60066020528160005260406000208181548110151561357e57fe5b9060005260206000209060070201600091509150508060000154908060010160009054906101000a900473ffffffffffffffffffffffffffffffffffffffff16908060020160009054906101000a900473ffffffffffffffffffffffffffffffffffffffff16908060030154908060040154908060050154908060060160009054906101000a900460ff16908060060160019054906101000a900460ff16908060060160029054906101000a900460ff16905089565b600460009054906101000a900473ffffffffffffffffffffffffffffffffffffffff1681565b600060056000836000191660001916815260200190815260200160002060000160009054906101000a900473ffffffffffffffffffffffffffffffffffffffff169050919050565b60008060008073ffffffffffffffffffffffffffffffffffffffff168573ffffffffffffffffffffffffffffffffffffffff16141515156136e257600080fd5b60056000856000191660001916815260200190815260200160002060070160009054906101000a900460ff16151561371957600080fd5b60009250600660008560001916600019168152602001908152602001600020805490509150600090505b81811015613972578473ffffffffffffffffffffffffffffffffffffffff166006600086600019166000191681526020019081526020016000208281548110151561378a57fe5b906000526020600020906007020160010160009054906101000a900473ffffffffffffffffffffffffffffffffffffffff1673ffffffffffffffffffffffffffffffffffffffff161415613965576139626139536006600087600019166000191681526020019081526020016000208381548110151561380657fe5b906000526020600020906007020161012060405190810160405290816000820154600019166000191681526020016001820160009054906101000a900473ffffffffffffffffffffffffffffffffffffffff1673ffffffffffffffffffffffffffffffffffffffff1673ffffffffffffffffffffffffffffffffffffffff1681526020016002820160009054906101000a900473ffffffffffffffffffffffffffffffffffffffff1673ffffffffffffffffffffffffffffffffffffffff1673ffffffffffffffffffffffffffffffffffffffff1681526020016003820154815260200160048201548152602001600582015481526020016006820160009054906101000a900460ff161515151581526020016006820160019054906101000a900460ff161515151581526020016006820160029054906101000a900460ff1615151515815250506140dd565b84614a5090919063ffffffff16565b92505b8080600101915050613743565b829250505092915050565b6000600660008360001916600019168152602001908152602001600020805490509050919050565b6000809054906101000a900473ffffffffffffffffffffffffffffffffffffffff1681565b6040805190810160405280600181526020017f310000000000000000000000000000000000000000000000000000000000000081525081565b600080600060066000856000191660001916815260200190815260200160002080549050915060056000856000191660001916815260200190815260200160002060070160009054906101000a900460ff161515613a6057600080fd5b8473ffffffffffffffffffffffffffffffffffffffff16600073ffffffffffffffffffffffffffffffffffffffff1614151515613a9c57600080fd5b6000821115613ba4576001820390505b600081101515613ba3578473ffffffffffffffffffffffffffffffffffffffff1660066000866000191660001916815260200190815260200160002082815481101515613af557fe5b906000526020600020906007020160010160009054906101000a900473ffffffffffffffffffffffffffffffffffffffff1673ffffffffffffffffffffffffffffffffffffffff161415613b875760066000856000191660001916815260200190815260200160002081815481101515613b6b57fe5b9060005260206000209060070201600501544210159250613ba9565b6000811415613b9557613ba3565b808060019003915050613aac565b5b600192505b505092915050565b6000809054906101000a900473ffffffffffffffffffffffffffffffffffffffff1673ffffffffffffffffffffffffffffffffffffffff163373ffffffffffffffffffffffffffffffffffffffff16141515613c0c57600080fd5b600073ffffffffffffffffffffffffffffffffffffffff168173ffffffffffffffffffffffffffffffffffffffff1614151515613c4857600080fd5b8073ffffffffffffffffffffffffffffffffffffffff166000809054906101000a900473ffffffffffffffffffffffffffffffffffffffff1673ffffffffffffffffffffffffffffffffffffffff167f8be0079c531659141344cd1fd0a4f28419497f9722a3daafe3b4186f6b6457e060405160405180910390a3806000806101000a81548173ffffffffffffffffffffffffffffffffffffffff021916908373ffffffffffffffffffffffffffffffffffffffff16021790555050565b600080600080600080600080600089600011158015613d435750600660008c60001916600019168152602001908152602001600020805490508a11155b156140d057600660008c600019166000191681526020019081526020016000208a815481101515613d7057fe5b906000526020600020906007020160010160009054906101000a900473ffffffffffffffffffffffffffffffffffffffff169850600660008c600019166000191681526020019081526020016000208a815481101515613dcc57fe5b9060005260206000209060070201600001549750600660008c600019166000191681526020019081526020016000208a815481101515613e0857fe5b9060005260206000209060070201600301549650600660008c600019166000191681526020019081526020016000208a815481101515613e4457fe5b9060005260206000209060070201600401549550600660008c600019166000191681526020019081526020016000208a815481101515613e8057fe5b906000526020600020906007020160050154945061400c600660008d600019166000191681526020019081526020016000208b815481101515613ebf57fe5b906000526020600020906007020161012060405190810160405290816000820154600019166000191681526020016001820160009054906101000a900473ffffffffffffffffffffffffffffffffffffffff1673ffffffffffffffffffffffffffffffffffffffff1673ffffffffffffffffffffffffffffffffffffffff1681526020016002820160009054906101000a900473ffffffffffffffffffffffffffffffffffffffff1673ffffffffffffffffffffffffffffffffffffffff1673ffffffffffffffffffffffffffffffffffffffff1681526020016003820154815260200160048201548152602001600582015481526020016006820160009054906101000a900460ff161515151581526020016006820160019054906101000a900460ff161515151581526020016006820160029054906101000a900460ff161515151581525050614dd5565b159350600660008c600019166000191681526020019081526020016000208a81548110151561403757fe5b906000526020600020906007020160060160009054906101000a900460ff169250600560008c6000191660001916815260200190815260200160002060050160009054906101000a900460ff169150600660008c600019166000191681526020019081526020016000208a8154811015156140ae57fe5b906000526020600020906007020160060160019054906101000a900460ff1690505b9295985092959850929598565b600080905081610100015115156141a6576005600083600001516000191660001916815260200190815260200160002060050160009054906101000a900460ff16156141a5578160800151600560008460000151600019166000191681526020019081526020016000206006015411801561417d57508160a001516005600084600001516000191660001916815260200190815260200160002060060154105b156141a4576141a161418e83614de6565b8360600151614eac90919063ffffffff16565b90505b5b5b809050919050565b600081806141c6600183614a5090919063ffffffff16565b1115156141d257600080fd5b6000831115156141e157600080fd5b3373ffffffffffffffffffffffffffffffffffffffff168473ffffffffffffffffffffffffffffffffffffffff1614151561421b57600080fd5b600460009054906101000a900473ffffffffffffffffffffffffffffffffffffffff1673ffffffffffffffffffffffffffffffffffffffff1663a9059cbb33856000604051602001526040518363ffffffff167c0100000000000000000000000000000000000000000000000000000000028152600401808373ffffffffffffffffffffffffffffffffffffffff1673ffffffffffffffffffffffffffffffffffffffff16815260200182815260200192505050602060405180830381600087803b15156142e857600080fd5b6102c65a03f115156142f957600080fd5b50505060405180519050151561430e57600080fd5b600191505092915050565b60008090508160c0015115156143cb5761433282614dd5565b156143c3576005600083600001516000191660001916815260200190815260200160002060050160009054906101000a900460ff16156143b7578160a0015160056000846000015160001916600019168152602001908152602001600020600601541015156143a757816060015190506143cf565b6143b082614de6565b90506143cf565b816060015190506143cf565b8090506143cf565b8090505b919050565b600081806143ec600183614a5090919063ffffffff16565b1115156143f857600080fd5b8360056000826000191660001916815260200190815260200160002060070160009054906101000a900460ff16151561443057600080fd5b3373ffffffffffffffffffffffffffffffffffffffff1660056000836000191660001916815260200190815260200160002060000160009054906101000a900473ffffffffffffffffffffffffffffffffffffffff1673ffffffffffffffffffffffffffffffffffffffff161415156144a857600080fd5b6000841115156144b757600080fd5b600073ffffffffffffffffffffffffffffffffffffffff1660056000876000191660001916815260200190815260200160002060000160009054906101000a900473ffffffffffffffffffffffffffffffffffffffff1673ffffffffffffffffffffffffffffffffffffffff161415151561453157600080fd5b600460009054906101000a900473ffffffffffffffffffffffffffffffffffffffff1673ffffffffffffffffffffffffffffffffffffffff1663a9059cbb60056000886000191660001916815260200190815260200160002060000160009054906101000a900473ffffffffffffffffffffffffffffffffffffffff16866000604051602001526040518363ffffffff167c0100000000000000000000000000000000000000000000000000000000028152600401808373ffffffffffffffffffffffffffffffffffffffff1673ffffffffffffffffffffffffffffffffffffffff16815260200182815260200192505050602060405180830381600087803b151561463c57600080fd5b6102c65a03f1151561464d57600080fd5b50505060405180519050151561466257600080fd5b846000191660056000876000191660001916815260200190815260200160002060000160009054906101000a900473ffffffffffffffffffffffffffffffffffffffff1673ffffffffffffffffffffffffffffffffffffffff167f4b4186a4b549df09e37908f0b17747e961a0ecd8d675b2993e5933811870991b866040518082815260200191505060405180910390a360019250505092915050565b60008180614717600183614a5090919063ffffffff16565b11151561472357600080fd5b600073ffffffffffffffffffffffffffffffffffffffff168573ffffffffffffffffffffffffffffffffffffffff161415801561478b57503073ffffffffffffffffffffffffffffffffffffffff168473ffffffffffffffffffffffffffffffffffffffff16145b151561479657600080fd5b82600460009054906101000a900473ffffffffffffffffffffffffffffffffffffffff1673ffffffffffffffffffffffffffffffffffffffff1663dd62ed3e87876000604051602001526040518363ffffffff167c0100000000000000000000000000000000000000000000000000000000028152600401808373ffffffffffffffffffffffffffffffffffffffff1673ffffffffffffffffffffffffffffffffffffffff1681526020018273ffffffffffffffffffffffffffffffffffffffff1673ffffffffffffffffffffffffffffffffffffffff16815260200192505050602060405180830381600087803b151561489057600080fd5b6102c65a03f115156148a157600080fd5b50505060405180519050101515156148b857600080fd5b600460009054906101000a900473ffffffffffffffffffffffffffffffffffffffff1673ffffffffffffffffffffffffffffffffffffffff166323b872dd8686866000604051602001526040518463ffffffff167c0100000000000000000000000000000000000000000000000000000000028152600401808473ffffffffffffffffffffffffffffffffffffffff1673ffffffffffffffffffffffffffffffffffffffff1681526020018373ffffffffffffffffffffffffffffffffffffffff1673ffffffffffffffffffffffffffffffffffffffff1681526020018281526020019350505050602060405180830381600087803b15156149b957600080fd5b6102c65a03f115156149ca57600080fd5b5050506040518051905015156149df57600080fd5b8373ffffffffffffffffffffffffffffffffffffffff168573ffffffffffffffffffffffffffffffffffffffff167f6f990e2a71bc9526905da97b737d1ccb2bf854118a41fee0eb7811bb22d3eea4856040518082815260200191505060405180910390a360019150509392505050565b6000808284019050838110151515614a6457fe5b8091505092915050565b6000836000602060ff16111515614a8457600080fd5b60056000826000191660001916815260200190815260200160002060070160009054906101000a900460ff16151515614abc57600080fd5b8380614ad2600183614a5090919063ffffffff16565b111515614ade57600080fd5b600073ffffffffffffffffffffffffffffffffffffffff168473ffffffffffffffffffffffffffffffffffffffff1614151515614b1a57600080fd5b8360056000886000191660001916815260200190815260200160002060000160006101000a81548173ffffffffffffffffffffffffffffffffffffffff021916908373ffffffffffffffffffffffffffffffffffffffff1602179055506000600560008860001916600019168152602001908152602001600020600101819055506000600560008860001916600019168152602001908152602001600020600201819055508560056000886000191660001916815260200190815260200160002060030181600019169055508460056000886000191660001916815260200190815260200160002060040181905550600060056000886000191660001916815260200190815260200160002060050160006101000a81548160ff021916908315150217905550600060056000886000191660001916815260200190815260200160002060060181905550600160056000886000191660001916815260200190815260200160002060070160006101000a81548160ff021916908315150217905550600160056000886000191660001916815260200190815260200160002060070160016101000a81548160ff0219169083151502179055506000600560008860001916600019168152602001908152602001600020600801816000191690555085600560006002546000191660001916815260200190815260200160002060080181600019169055506005600087600019166000191681526020019081526020016000206003015460028160001916905550614d626001600354614a5090919063ffffffff16565b60038190555085600019168473ffffffffffffffffffffffffffffffffffffffff167f32362a6c8f018375704733c0f0c66d6e2d1d6a96d031af978ccc46aaf2d2547e87600160405180838152602001821515151581526020019250505060405180910390a36001925050509392505050565b6000428260a0015111159050919050565b6000806000806005600086600001516000191660001916815260200190815260200160002060050160009054906101000a900460ff161515614e2757600080fd5b84606001519250614e7983614e6b8760800151600560008a600001516000191660001916815260200190815260200160002060060154614eac90919063ffffffff16565b614ec590919063ffffffff16565b9150614e9685608001518660a00151614eac90919063ffffffff16565b9050614ea28282614ef8565b9350505050919050565b6000828211151515614eba57fe5b818303905092915050565b60008082840290506000841480614ee65750828482811515614ee357fe5b04145b1515614eee57fe5b8091505092915050565b6000808284811515614f0657fe5b0490508091505092915050565b815481835581811511614f4057600702816007028360005260206000209182019101614f3f9190614f85565b5b505050565b602060405190810160405280600081525090565b815481835581811511614f8057818360005260206000209182019101614f7f919061504e565b5b505050565b61504b91905b80821115615047576000808201600090556001820160006101000a81549073ffffffffffffffffffffffffffffffffffffffff02191690556002820160006101000a81549073ffffffffffffffffffffffffffffffffffffffff02191690556003820160009055600482016000905560058201600090556006820160006101000a81549060ff02191690556006820160016101000a81549060ff02191690556006820160026101000a81549060ff021916905550600701614f8b565b5090565b90565b61507091905b8082111561506c576000816000905550600101615054565b5090565b905600a165627a7a723058204a71d08282fe5f0c024ec656ef88bda2eda4ad68401b6a9d5ad15e93eee473b10029",
  "source": "pragma solidity 0.4.18;\n\nimport \"./Marketplace.sol\";\nimport \"./IRecoverableMarketplace.sol\";\n\ncontract RecoverableMarketplace is IRecoverableMarketplace, Marketplace{\n\tbytes32[] public mNames;\n    function RecoverableMarketplace(address _tokenAddress) Marketplace(_tokenAddress) public {}\n\t/* Subscriptions */\n    function refundSubscriberAt(bytes32 _dataSourceName, uint256 _index)\n    public \n    onlySubscriber(_dataSourceName,_index)\n    returns\n    (bool success){\n        require(mProviders[_dataSourceName].isProvider);\n        uint256 refundAmount = 0;\n        refundAmount = handleOrderRefundCalc(mOrders[_dataSourceName][_index]);\n        require(refundAmount > 0);\n        require(!mOrders[_dataSourceName][_index].isRefundPaid); // double check refund\n        mOrders[_dataSourceName][_index].isRefundPaid = true;// mark refund as paid\n        // transfer ENG to subscriber - revert if failed\n        require(safeToSubscriberTransfer(msg.sender,refundAmount));\n        SubscriberRefund(msg.sender,_dataSourceName,refundAmount);\n        success = true;\n    }\n    function getRefundAmountAt(bytes32 _dataSourceName,uint256 _index) \n    public \n    view \n    returns(uint256 refundAmount){\n        require(mProviders[_dataSourceName].isProvider);\n        refundAmount = 0;\n        if(0 <= _index && _index <= mOrders[_dataSourceName].length){\n            refundAmount = handleOrderRefundCalc(mOrders[_dataSourceName][_index]);\n        }\n    }\n\tfunction getSubscriptionsSize(bytes32 _dataSourceName) public view returns (uint256 size){\n\t\tsize = mOrders[_dataSourceName].length;\n\t}\n\tfunction checkSubscriptionAt(bytes32 _dataSourceName, uint256 _index) \n    public \n    view \n    returns \n    (   address subscriber,\n        bytes32 dataSourceName,\n        uint price,\n        uint startTime,\n        uint endTime,\n        bool isUnExpired,\n        bool isPaid, \n        bool isPunishedProvider,\n        bool isOrder){\n        if(0 <= _index && _index <= mOrders[_dataSourceName].length){\n            subscriber = mOrders[_dataSourceName][_index].subscriber;\n            dataSourceName = mOrders[_dataSourceName][_index].dataSourceName;\n            price = mOrders[_dataSourceName][_index].price;\n            startTime = mOrders[_dataSourceName][_index].startTime;\n            endTime = mOrders[_dataSourceName][_index].endTime;\n            isUnExpired = !isOrderExpired(mOrders[_dataSourceName][_index]);\n            isPaid = mOrders[_dataSourceName][_index].isPaid;\n            isPunishedProvider = mProviders[_dataSourceName].isPunished;\n            isOrder = mOrders[_dataSourceName][_index].isOrder;\n        }\n\t}\n    function isExpiredSubscriptionAt(bytes32 _dataSourceName,uint256 _index) \n    public \n    view \n    returns(bool isExpired) {\n        if(0 <= _index && _index <= mOrders[_dataSourceName].length){\n            isExpired = (now >= mOrders[_dataSourceName][_index].endTime);\n        }\n    }\n\t/* Data providers */\n\n    function register(bytes32 _dataSourceName, uint256 _price, address _dataOwner) \n    public\n    uniqueDataName(_dataSourceName)\n    validPrice(_price)\n    returns (bool success){\n        require(super.register(_dataSourceName,_price,_dataOwner));\n        mNames.push(_dataSourceName);\n        success = true;\n    }\n    function withrawProviderAt(bytes32 _dataSourceName, uint256 _index) \n    public \n    onlyDataProvider(_dataSourceName) \n    returns(bool success){\n        require(0 <= _index && _index <= mOrders[_dataSourceName].length);\n        uint256 withdrawAmount = 0;\n        withdrawAmount = handleOrderWithdrawCalc(mOrders[_dataSourceName][_index]);\n        require(withdrawAmount > 0);\n        require(!mOrders[_dataSourceName][_index].isPaid);//double check payment\n        mOrders[_dataSourceName][_index].isPaid = true;\n        // transfer ENG's to the provider -revert state if faild\n        require(safeToProviderTransfer(_dataSourceName,withdrawAmount)); \n        ProviderWithdraw(mProviders[_dataSourceName].owner,_dataSourceName,withdrawAmount);\n        success = true;\n    }\n    function getWithdrawAmountAt(bytes32 _dataSourceName, uint256 _index) \n    public \n    view \n    returns (uint256 withdrawAmount){\n        require(mProviders[_dataSourceName].isProvider);\n        if(0 <= _index && _index <= mOrders[_dataSourceName].length){\n            withdrawAmount = handleOrderWithdrawCalc(mOrders[_dataSourceName][_index]);\n        }\n    }\n\tfunction getProviderNamesSize() public view returns(uint256 size){\n\t\tsize = mNames.length;\n\t}\n\tfunction getNameAt(uint256 _index) public view returns(bytes32 _dataSourceName){\n\t\tif(0 <= _index  && _index <= mNames.length){\n\t\t\t_dataSourceName = mNames[_index];\n\t\t}\n\t}\n    /* modifiers */\n    modifier onlySubscriber(bytes32 _dataSourceName, uint256 _index){\n        require(0 <= _index && _index <= mOrders[_dataSourceName].length);\n        require(mOrders[_dataSourceName][_index].subscriber == msg.sender);\n        _;\n    }\n\n}\n",
  "sourcePath": "/home/wilder/Desktop/Enigma/DataMarketProject/marketPlace_WS/smart_contract_marketplace/contracts/RecoverableMarketplace.sol",
  "compiler": {
    "name": "solc",
    "version": "0.4.18+commit.9cf6e910.Emscripten.clang"
  },
  "schemaVersion": "1.0.1",
  "updatedAt": "2018-02-10T01:50:33.998Z"
}