{
  "contractName": "TestableMock",
  "abi": [
    {
      "constant": true,
      "inputs": [
        {
          "name": "_dataSourceName",
          "type": "bytes32"
        }
      ],
      "name": "isActiveDataSource",
      "outputs": [
        {
          "name": "isActive",
          "type": "bool"
        }
      ],
      "payable": false,
      "stateMutability": "view",
      "type": "function"
    },
    {
      "constant": true,
      "inputs": [],
      "name": "mBegin",
      "outputs": [
        {
          "name": "",
          "type": "bytes32"
        }
      ],
      "payable": false,
      "stateMutability": "view",
      "type": "function"
    },
    {
      "constant": true,
      "inputs": [
        {
          "name": "_index",
          "type": "uint256"
        }
      ],
      "name": "getNameAt",
      "outputs": [
        {
          "name": "_dataSourceName",
          "type": "bytes32"
        }
      ],
      "payable": false,
      "stateMutability": "view",
      "type": "function"
    },
    {
      "constant": false,
      "inputs": [
        {
          "name": "_dataSourceName",
          "type": "bytes32"
        },
        {
          "name": "_price",
          "type": "uint256"
        },
        {
          "name": "_dataOwner",
          "type": "address"
        },
        {
          "name": "isPunished",
          "type": "bool"
        },
        {
          "name": "relativePunish",
          "type": "uint256"
        },
        {
          "name": "withTransfer",
          "type": "bool"
        }
      ],
      "name": "mockPayableProvider",
      "outputs": [
        {
          "name": "",
          "type": "bool"
        }
      ],
      "payable": false,
      "stateMutability": "nonpayable",
      "type": "function"
    },
    {
      "constant": false,
      "inputs": [
        {
          "name": "_dataSourceName",
          "type": "bytes32"
        },
        {
          "name": "_index",
          "type": "uint256"
        }
      ],
      "name": "refundSubscriberAt",
      "outputs": [
        {
          "name": "success",
          "type": "bool"
        }
      ],
      "payable": false,
      "stateMutability": "nonpayable",
      "type": "function"
    },
    {
      "constant": true,
      "inputs": [],
      "name": "FIXED_SUBSCRIPTION_PERIOD",
      "outputs": [
        {
          "name": "",
          "type": "uint256"
        }
      ],
      "payable": false,
      "stateMutability": "view",
      "type": "function"
    },
    {
      "constant": true,
      "inputs": [
        {
          "name": "_dataSourceName",
          "type": "bytes32"
        },
        {
          "name": "_index",
          "type": "uint256"
        }
      ],
      "name": "getWithdrawAmountAt",
      "outputs": [
        {
          "name": "withdrawAmount",
          "type": "uint256"
        }
      ],
      "payable": false,
      "stateMutability": "view",
      "type": "function"
    },
    {
      "constant": false,
      "inputs": [
        {
          "name": "_dataSourceName",
          "type": "bytes32"
        },
        {
          "name": "_index",
          "type": "uint256"
        }
      ],
      "name": "withrawProviderAt",
      "outputs": [
        {
          "name": "success",
          "type": "bool"
        }
      ],
      "payable": false,
      "stateMutability": "nonpayable",
      "type": "function"
    },
    {
      "constant": false,
      "inputs": [
        {
          "name": "_dataSourceName",
          "type": "bytes32"
        },
        {
          "name": "_isPunished",
          "type": "bool"
        }
      ],
      "name": "setPunishProvider",
      "outputs": [
        {
          "name": "success",
          "type": "bool"
        }
      ],
      "payable": false,
      "stateMutability": "nonpayable",
      "type": "function"
    },
    {
      "constant": true,
      "inputs": [
        {
          "name": "_dataSourceName",
          "type": "bytes32"
        }
      ],
      "name": "getDataProviderInfo",
      "outputs": [
        {
          "name": "owner",
          "type": "address"
        },
        {
          "name": "price",
          "type": "uint256"
        },
        {
          "name": "volume",
          "type": "uint256"
        },
        {
          "name": "subscriptionsNum",
          "type": "uint256"
        },
        {
          "name": "isProvider",
          "type": "bool"
        },
        {
          "name": "isActive",
          "type": "bool"
        },
        {
          "name": "isPunished",
          "type": "bool"
        }
      ],
      "payable": false,
      "stateMutability": "view",
      "type": "function"
    },
    {
      "constant": false,
      "inputs": [
        {
          "name": "_dataSourceName",
          "type": "bytes32"
        }
      ],
      "name": "subscribe",
      "outputs": [
        {
          "name": "success",
          "type": "bool"
        }
      ],
      "payable": false,
      "stateMutability": "nonpayable",
      "type": "function"
    },
    {
      "constant": true,
      "inputs": [],
      "name": "mProvidersSize",
      "outputs": [
        {
          "name": "",
          "type": "uint256"
        }
      ],
      "payable": false,
      "stateMutability": "view",
      "type": "function"
    },
    {
      "constant": false,
      "inputs": [
        {
          "name": "_dataSourceName",
          "type": "bytes32"
        },
        {
          "name": "_newPrice",
          "type": "uint256"
        }
      ],
      "name": "updateDataSourcePrice",
      "outputs": [
        {
          "name": "success",
          "type": "bool"
        }
      ],
      "payable": false,
      "stateMutability": "nonpayable",
      "type": "function"
    },
    {
      "constant": false,
      "inputs": [
        {
          "name": "_dataSourceName",
          "type": "bytes32"
        }
      ],
      "name": "withdrawProvider",
      "outputs": [
        {
          "name": "success",
          "type": "bool"
        }
      ],
      "payable": false,
      "stateMutability": "nonpayable",
      "type": "function"
    },
    {
      "constant": true,
      "inputs": [],
      "name": "getAllProviders",
      "outputs": [
        {
          "name": "",
          "type": "bytes32[]"
        }
      ],
      "payable": false,
      "stateMutability": "view",
      "type": "function"
    },
    {
      "constant": true,
      "inputs": [],
      "name": "getMarketplaceTotalBalance",
      "outputs": [
        {
          "name": "totalBalance",
          "type": "uint256"
        }
      ],
      "payable": false,
      "stateMutability": "view",
      "type": "function"
    },
    {
      "constant": false,
      "inputs": [
        {
          "name": "_dataSourceName",
          "type": "bytes32"
        }
      ],
      "name": "refundSubscriber",
      "outputs": [
        {
          "name": "success",
          "type": "bool"
        }
      ],
      "payable": false,
      "stateMutability": "nonpayable",
      "type": "function"
    },
    {
      "constant": false,
      "inputs": [
        {
          "name": "_dataSourceName",
          "type": "bytes32"
        },
        {
          "name": "_price",
          "type": "uint256"
        },
        {
          "name": "_dataOwner",
          "type": "address"
        }
      ],
      "name": "register",
      "outputs": [
        {
          "name": "success",
          "type": "bool"
        }
      ],
      "payable": false,
      "stateMutability": "nonpayable",
      "type": "function"
    },
    {
      "constant": true,
      "inputs": [],
      "name": "mCurrent",
      "outputs": [
        {
          "name": "",
          "type": "bytes32"
        }
      ],
      "payable": false,
      "stateMutability": "view",
      "type": "function"
    },
    {
      "constant": true,
      "inputs": [
        {
          "name": "_dataSourceName",
          "type": "bytes32"
        }
      ],
      "name": "getWithdrawAmount",
      "outputs": [
        {
          "name": "withdrawAmount",
          "type": "uint256"
        }
      ],
      "payable": false,
      "stateMutability": "view",
      "type": "function"
    },
    {
      "constant": true,
      "inputs": [
        {
          "name": "_dataSourceName",
          "type": "bytes32"
        },
        {
          "name": "_index",
          "type": "uint256"
        }
      ],
      "name": "getRefundAmountAt",
      "outputs": [
        {
          "name": "refundAmount",
          "type": "uint256"
        }
      ],
      "payable": false,
      "stateMutability": "view",
      "type": "function"
    },
    {
      "constant": true,
      "inputs": [],
      "name": "getProviderNamesSize",
      "outputs": [
        {
          "name": "size",
          "type": "uint256"
        }
      ],
      "payable": false,
      "stateMutability": "view",
      "type": "function"
    },
    {
      "constant": true,
      "inputs": [
        {
          "name": "_subscriber",
          "type": "address"
        },
        {
          "name": "_dataSourceName",
          "type": "bytes32"
        }
      ],
      "name": "checkAddressSubscription",
      "outputs": [
        {
          "name": "subscriber",
          "type": "address"
        },
        {
          "name": "dataSourceName",
          "type": "bytes32"
        },
        {
          "name": "price",
          "type": "uint256"
        },
        {
          "name": "startTime",
          "type": "uint256"
        },
        {
          "name": "endTime",
          "type": "uint256"
        },
        {
          "name": "isUnExpired",
          "type": "bool"
        },
        {
          "name": "isPaid",
          "type": "bool"
        },
        {
          "name": "isPunishedProvider",
          "type": "bool"
        },
        {
          "name": "isOrder",
          "type": "bool"
        }
      ],
      "payable": false,
      "stateMutability": "view",
      "type": "function"
    },
    {
      "constant": false,
      "inputs": [
        {
          "name": "_dataSourceName",
          "type": "bytes32"
        },
        {
          "name": "_isActive",
          "type": "bool"
        }
      ],
      "name": "changeDataSourceActivityStatus",
      "outputs": [
        {
          "name": "success",
          "type": "bool"
        }
      ],
      "payable": false,
      "stateMutability": "nonpayable",
      "type": "function"
    },
    {
      "constant": true,
      "inputs": [
        {
          "name": "_dataSourceName",
          "type": "bytes32"
        },
        {
          "name": "_index",
          "type": "uint256"
        }
      ],
      "name": "isExpiredSubscriptionAt",
      "outputs": [
        {
          "name": "isExpired",
          "type": "bool"
        }
      ],
      "payable": false,
      "stateMutability": "view",
      "type": "function"
    },
    {
      "constant": true,
      "inputs": [
        {
          "name": "",
          "type": "uint256"
        }
      ],
      "name": "mNames",
      "outputs": [
        {
          "name": "",
          "type": "bytes32"
        }
      ],
      "payable": false,
      "stateMutability": "view",
      "type": "function"
    },
    {
      "constant": true,
      "inputs": [
        {
          "name": "",
          "type": "bytes32"
        }
      ],
      "name": "mProviders",
      "outputs": [
        {
          "name": "owner",
          "type": "address"
        },
        {
          "name": "volume",
          "type": "uint256"
        },
        {
          "name": "subscriptionsNum",
          "type": "uint256"
        },
        {
          "name": "name",
          "type": "bytes32"
        },
        {
          "name": "price",
          "type": "uint256"
        },
        {
          "name": "isPunished",
          "type": "bool"
        },
        {
          "name": "punishTimeStamp",
          "type": "uint256"
        },
        {
          "name": "isProvider",
          "type": "bool"
        },
        {
          "name": "isActive",
          "type": "bool"
        },
        {
          "name": "nextProvider",
          "type": "bytes32"
        }
      ],
      "payable": false,
      "stateMutability": "view",
      "type": "function"
    },
    {
      "constant": true,
      "inputs": [
        {
          "name": "",
          "type": "bytes32"
        },
        {
          "name": "",
          "type": "uint256"
        }
      ],
      "name": "mOrders",
      "outputs": [
        {
          "name": "dataSourceName",
          "type": "bytes32"
        },
        {
          "name": "subscriber",
          "type": "address"
        },
        {
          "name": "provider",
          "type": "address"
        },
        {
          "name": "price",
          "type": "uint256"
        },
        {
          "name": "startTime",
          "type": "uint256"
        },
        {
          "name": "endTime",
          "type": "uint256"
        },
        {
          "name": "isPaid",
          "type": "bool"
        },
        {
          "name": "isOrder",
          "type": "bool"
        },
        {
          "name": "isRefundPaid",
          "type": "bool"
        }
      ],
      "payable": false,
      "stateMutability": "view",
      "type": "function"
    },
    {
      "constant": true,
      "inputs": [],
      "name": "mToken",
      "outputs": [
        {
          "name": "",
          "type": "address"
        }
      ],
      "payable": false,
      "stateMutability": "view",
      "type": "function"
    },
    {
      "constant": true,
      "inputs": [
        {
          "name": "_dataSourceName",
          "type": "bytes32"
        }
      ],
      "name": "getOwnerFromName",
      "outputs": [
        {
          "name": "owner",
          "type": "address"
        }
      ],
      "payable": false,
      "stateMutability": "view",
      "type": "function"
    },
    {
      "constant": true,
      "inputs": [
        {
          "name": "_subscriber",
          "type": "address"
        },
        {
          "name": "_dataSourceName",
          "type": "bytes32"
        }
      ],
      "name": "getRefundAmount",
      "outputs": [
        {
          "name": "refundAmount",
          "type": "uint256"
        }
      ],
      "payable": false,
      "stateMutability": "view",
      "type": "function"
    },
    {
      "constant": true,
      "inputs": [
        {
          "name": "_dataSourceName",
          "type": "bytes32"
        }
      ],
      "name": "getSubscriptionsSize",
      "outputs": [
        {
          "name": "size",
          "type": "uint256"
        }
      ],
      "payable": false,
      "stateMutability": "view",
      "type": "function"
    },
    {
      "constant": true,
      "inputs": [],
      "name": "mOwner",
      "outputs": [
        {
          "name": "",
          "type": "address"
        }
      ],
      "payable": false,
      "stateMutability": "view",
      "type": "function"
    },
    {
      "constant": true,
      "inputs": [],
      "name": "MARKETPLACE_VERSION",
      "outputs": [
        {
          "name": "",
          "type": "string"
        }
      ],
      "payable": false,
      "stateMutability": "view",
      "type": "function"
    },
    {
      "constant": true,
      "inputs": [
        {
          "name": "_subscriber",
          "type": "address"
        },
        {
          "name": "_dataSourceName",
          "type": "bytes32"
        }
      ],
      "name": "isExpiredSubscription",
      "outputs": [
        {
          "name": "isExpired",
          "type": "bool"
        }
      ],
      "payable": false,
      "stateMutability": "view",
      "type": "function"
    },
    {
      "constant": false,
      "inputs": [
        {
          "name": "_newOwner",
          "type": "address"
        }
      ],
      "name": "transferOwnership",
      "outputs": [],
      "payable": false,
      "stateMutability": "nonpayable",
      "type": "function"
    },
    {
      "constant": true,
      "inputs": [
        {
          "name": "_dataSourceName",
          "type": "bytes32"
        },
        {
          "name": "_index",
          "type": "uint256"
        }
      ],
      "name": "checkSubscriptionAt",
      "outputs": [
        {
          "name": "subscriber",
          "type": "address"
        },
        {
          "name": "dataSourceName",
          "type": "bytes32"
        },
        {
          "name": "price",
          "type": "uint256"
        },
        {
          "name": "startTime",
          "type": "uint256"
        },
        {
          "name": "endTime",
          "type": "uint256"
        },
        {
          "name": "isUnExpired",
          "type": "bool"
        },
        {
          "name": "isPaid",
          "type": "bool"
        },
        {
          "name": "isPunishedProvider",
          "type": "bool"
        },
        {
          "name": "isOrder",
          "type": "bool"
        }
      ],
      "payable": false,
      "stateMutability": "view",
      "type": "function"
    },
    {
      "inputs": [
        {
          "name": "_tokenAddress",
          "type": "address"
        }
      ],
      "payable": false,
      "stateMutability": "nonpayable",
      "type": "constructor"
    },
    {
      "anonymous": false,
      "inputs": [
        {
          "indexed": true,
          "name": "previousOwner",
          "type": "address"
        },
        {
          "indexed": true,
          "name": "newOwner",
          "type": "address"
        }
      ],
      "name": "OwnershipTransferred",
      "type": "event"
    },
    {
      "anonymous": false,
      "inputs": [
        {
          "indexed": true,
          "name": "editor",
          "type": "address"
        },
        {
          "indexed": true,
          "name": "dataSourceName",
          "type": "bytes32"
        },
        {
          "indexed": false,
          "name": "newPrice",
          "type": "uint256"
        }
      ],
      "name": "PriceUpdate",
      "type": "event"
    },
    {
      "anonymous": false,
      "inputs": [
        {
          "indexed": true,
          "name": "editor",
          "type": "address"
        },
        {
          "indexed": true,
          "name": "dataSourceName",
          "type": "bytes32"
        },
        {
          "indexed": false,
          "name": "newStatus",
          "type": "bool"
        }
      ],
      "name": "ActivityUpdate",
      "type": "event"
    },
    {
      "anonymous": false,
      "inputs": [
        {
          "indexed": true,
          "name": "dataOwner",
          "type": "address"
        },
        {
          "indexed": true,
          "name": "dataSourceName",
          "type": "bytes32"
        },
        {
          "indexed": false,
          "name": "price",
          "type": "uint256"
        },
        {
          "indexed": false,
          "name": "success",
          "type": "bool"
        }
      ],
      "name": "Registered",
      "type": "event"
    },
    {
      "anonymous": false,
      "inputs": [
        {
          "indexed": true,
          "name": "from",
          "type": "address"
        },
        {
          "indexed": true,
          "name": "to",
          "type": "address"
        },
        {
          "indexed": false,
          "name": "value",
          "type": "uint256"
        }
      ],
      "name": "SubscriptionDeposited",
      "type": "event"
    },
    {
      "anonymous": false,
      "inputs": [
        {
          "indexed": true,
          "name": "subscriber",
          "type": "address"
        },
        {
          "indexed": true,
          "name": "dataSourceName",
          "type": "bytes32"
        },
        {
          "indexed": true,
          "name": "dataOwner",
          "type": "address"
        },
        {
          "indexed": false,
          "name": "price",
          "type": "uint256"
        },
        {
          "indexed": false,
          "name": "success",
          "type": "bool"
        }
      ],
      "name": "Subscribed",
      "type": "event"
    },
    {
      "anonymous": false,
      "inputs": [
        {
          "indexed": true,
          "name": "dataOwner",
          "type": "address"
        },
        {
          "indexed": true,
          "name": "dataSourceName",
          "type": "bytes32"
        },
        {
          "indexed": false,
          "name": "amount",
          "type": "uint256"
        }
      ],
      "name": "TransferToProvider",
      "type": "event"
    },
    {
      "anonymous": false,
      "inputs": [
        {
          "indexed": true,
          "name": "dataOwner",
          "type": "address"
        },
        {
          "indexed": true,
          "name": "dataSourceName",
          "type": "bytes32"
        },
        {
          "indexed": false,
          "name": "amount",
          "type": "uint256"
        }
      ],
      "name": "ProviderWithdraw",
      "type": "event"
    },
    {
      "anonymous": false,
      "inputs": [
        {
          "indexed": true,
          "name": "dataOwner",
          "type": "address"
        },
        {
          "indexed": true,
          "name": "dataSourceName",
          "type": "bytes32"
        },
        {
          "indexed": false,
          "name": "isPunished",
          "type": "bool"
        }
      ],
      "name": "ProviderPunishStatus",
      "type": "event"
    },
    {
      "anonymous": false,
      "inputs": [
        {
          "indexed": true,
          "name": "subscriber",
          "type": "address"
        },
        {
          "indexed": true,
          "name": "dataSourceName",
          "type": "bytes32"
        },
        {
          "indexed": false,
          "name": "refundAmount",
          "type": "uint256"
        }
      ],
      "name": "SubscriberRefund",
      "type": "event"
    }
  ],
  "bytecode": "0x606060405234156200001057600080fd5b6040516020806200599883398101604052808051906020019091905050808080336000806101000a81548173ffffffffffffffffffffffffffffffffffffffff021916908373ffffffffffffffffffffffffffffffffffffffff160217905550600073ffffffffffffffffffffffffffffffffffffffff168173ffffffffffffffffffffffffffffffffffffffff1614151515620000ad57600080fd5b80600460006101000a81548173ffffffffffffffffffffffffffffffffffffffff021916908373ffffffffffffffffffffffffffffffffffffffff16021790555060006005600080600102600019168152602001908152602001600020600801816000191690555060006001026005600080600102600019168152602001908152602001600020600301816000191690555060056000806001026000191681526020019081526020016000206003015460028160001916905550600560008060010260001916815260200190815260200160002060030154600181600019169055506001600381905550505050506157ed80620001ab6000396000f3006060604052600436106101cd576000357c0100000000000000000000000000000000000000000000000000000000900463ffffffff1680630cf23b1f146101d25780631225318c146102115780631a696839146102425780631d85828014610281578063220386261461030757806326277bf21461034f5780632ae3171e146103785780632b22b90b146103bc5780632f10aabb146104045780632f95949a1461044e5780632faf44f6146104eb57806332b9c88c1461052a578063340b4ed4146105535780633b8f5dbd1461059b5780633bb4497c146105da578063445f00951461064457806345e3f7961461066d5780635164fab4146106ac57806352e0ca79146107135780636210c2541461074457806363834ed11461077f5780636adbf963146107c35780637b788613146107ec5780638d149e5c146108c2578063adbc33c81461090c578063b0e774c414610954578063b618c75614610993578063c216d4a814610a55578063c3b6f93914610b3d578063c94d14ad14610b92578063ca6a467b14610bf9578063d177126e14610c53578063dcda4bf314610c8e578063e93818e414610ce3578063ea97bac114610d71578063f2fde38b14610dcf578063fc0fb32314610e08575b600080fd5b34156101dd57600080fd5b6101f7600480803560001916906020019091905050610ec8565b604051808215151515815260200191505060405180910390f35b341561021c57600080fd5b610224610efd565b60405180826000191660001916815260200191505060405180910390f35b341561024d57600080fd5b6102636004808035906020019091905050610f03565b60405180826000191660001916815260200191505060405180910390f35b341561028c57600080fd5b6102ed60048080356000191690602001909190803590602001909190803573ffffffffffffffffffffffffffffffffffffffff1690602001909190803515159060200190919080359060200190919080351515906020019091905050610f43565b604051808215151515815260200191505060405180910390f35b341561031257600080fd5b610335600480803560001916906020019091908035906020019091905050611600565b604051808215151515815260200191505060405180910390f35b341561035a57600080fd5b6103626119b0565b6040518082815260200191505060405180910390f35b341561038357600080fd5b6103a66004808035600019169060200190919080359060200190919050506119b7565b6040518082815260200191505060405180910390f35b34156103c757600080fd5b6103ea600480803560001916906020019091908035906020019091905050611ba5565b604051808215151515815260200191505060405180910390f35b341561040f57600080fd5b6104346004808035600019169060200190919080351515906020019091905050611f76565b604051808215151515815260200191505060405180910390f35b341561045957600080fd5b610473600480803560001916906020019091905050612132565b604051808873ffffffffffffffffffffffffffffffffffffffff1673ffffffffffffffffffffffffffffffffffffffff16815260200187815260200186815260200185815260200184151515158152602001831515151581526020018215151515815260200197505050505050505060405180910390f35b34156104f657600080fd5b610510600480803560001916906020019091905050612276565b604051808215151515815260200191505060405180910390f35b341561053557600080fd5b61053d612732565b6040518082815260200191505060405180910390f35b341561055e57600080fd5b610581600480803560001916906020019091908035906020019091905050612738565b604051808215151515815260200191505060405180910390f35b34156105a657600080fd5b6105c060048080356000191690602001909190505061288e565b604051808215151515815260200191505060405180910390f35b34156105e557600080fd5b6105ed612c74565b6040518080602001828103825283818151815260200191508051906020019060200280838360005b83811015610630578082015181840152602081019050610615565b505050509050019250505060405180910390f35b341561064f57600080fd5b610657612d38565b6040518082815260200191505060405180910390f35b341561067857600080fd5b610692600480803560001916906020019091905050612e1f565b604051808215151515815260200191505060405180910390f35b34156106b757600080fd5b6106f960048080356000191690602001909190803590602001909190803573ffffffffffffffffffffffffffffffffffffffff169060200190919050506131db565b604051808215151515815260200191505060405180910390f35b341561071e57600080fd5b61072661329d565b60405180826000191660001916815260200191505060405180910390f35b341561074f57600080fd5b6107696004808035600019169060200190919050506132a3565b6040518082815260200191505060405180910390f35b341561078a57600080fd5b6107ad6004808035600019169060200190919080359060200190919050506134b4565b6040518082815260200191505060405180910390f35b34156107ce57600080fd5b6107d66136a6565b6040518082815260200191505060405180910390f35b34156107f757600080fd5b610830600480803573ffffffffffffffffffffffffffffffffffffffff16906020019091908035600019169060200190919050506136b3565b604051808a73ffffffffffffffffffffffffffffffffffffffff1673ffffffffffffffffffffffffffffffffffffffff168152602001896000191660001916815260200188815260200187815260200186815260200185151515158152602001841515151581526020018315151515815260200182151515158152602001995050505050505050505060405180910390f35b34156108cd57600080fd5b6108f26004808035600019169060200190919080351515906020019091905050613a2c565b604051808215151515815260200191505060405180910390f35b341561091757600080fd5b61093a600480803560001916906020019091908035906020019091905050613b76565b604051808215151515815260200191505060405180910390f35b341561095f57600080fd5b6109756004808035906020019091905050613bf2565b60405180826000191660001916815260200191505060405180910390f35b341561099e57600080fd5b6109b8600480803560001916906020019091905050613c16565b604051808b73ffffffffffffffffffffffffffffffffffffffff1673ffffffffffffffffffffffffffffffffffffffff1681526020018a8152602001898152602001886000191660001916815260200187815260200186151515158152602001858152602001841515151581526020018315151515815260200182600019166000191681526020019a505050505050505050505060405180910390f35b3415610a6057600080fd5b610a83600480803560001916906020019091908035906020019091905050613cb1565b604051808a600019166000191681526020018973ffffffffffffffffffffffffffffffffffffffff1673ffffffffffffffffffffffffffffffffffffffff1681526020018873ffffffffffffffffffffffffffffffffffffffff1673ffffffffffffffffffffffffffffffffffffffff168152602001878152602001868152602001858152602001841515151581526020018315151515815260200182151515158152602001995050505050505050505060405180910390f35b3415610b4857600080fd5b610b50613d82565b604051808273ffffffffffffffffffffffffffffffffffffffff1673ffffffffffffffffffffffffffffffffffffffff16815260200191505060405180910390f35b3415610b9d57600080fd5b610bb7600480803560001916906020019091905050613da8565b604051808273ffffffffffffffffffffffffffffffffffffffff1673ffffffffffffffffffffffffffffffffffffffff16815260200191505060405180910390f35b3415610c0457600080fd5b610c3d600480803573ffffffffffffffffffffffffffffffffffffffff1690602001909190803560001916906020019091905050613df0565b6040518082815260200191505060405180910390f35b3415610c5e57600080fd5b610c786004808035600019169060200190919050506140cb565b6040518082815260200191505060405180910390f35b3415610c9957600080fd5b610ca16140f3565b604051808273ffffffffffffffffffffffffffffffffffffffff1673ffffffffffffffffffffffffffffffffffffffff16815260200191505060405180910390f35b3415610cee57600080fd5b610cf6614118565b6040518080602001828103825283818151815260200191508051906020019080838360005b83811015610d36578082015181840152602081019050610d1b565b50505050905090810190601f168015610d635780820380516001836020036101000a031916815260200191505b509250505060405180910390f35b3415610d7c57600080fd5b610db5600480803573ffffffffffffffffffffffffffffffffffffffff1690602001909190803560001916906020019091905050614151565b604051808215151515815260200191505060405180910390f35b3415610dda57600080fd5b610e06600480803573ffffffffffffffffffffffffffffffffffffffff169060200190919050506142ff565b005b3415610e1357600080fd5b610e36600480803560001916906020019091908035906020019091905050614454565b604051808a73ffffffffffffffffffffffffffffffffffffffff1673ffffffffffffffffffffffffffffffffffffffff168152602001896000191660001916815260200188815260200187815260200186815260200185151515158152602001841515151581526020018315151515815260200182151515158152602001995050505050505050505060405180910390f35b600060056000836000191660001916815260200190815260200160002060070160019054906101000a900460ff169050919050565b60015481565b600081600011158015610f1b57506007805490508211155b15610f3e57600782815481101515610f2f57fe5b90600052602060002090015490505b919050565b60008460056000896000191660001916815260200190815260200160002060000160006101000a81548173ffffffffffffffffffffffffffffffffffffffff021916908373ffffffffffffffffffffffffffffffffffffffff16021790555060006005600089600019166000191681526020019081526020016000206001018190555060006005600089600019166000191681526020019081526020016000206002018190555086600560008960001916600019168152602001908152602001600020600301816000191690555085600560008960001916600019168152602001908152602001600020600401819055508360056000896000191660001916815260200190815260200160002060050160006101000a81548160ff0219169083151502179055508262278d0081151561107857fe5b04834281151561108457fe5b040360056000896000191660001916815260200190815260200160002060060181905550600160056000896000191660001916815260200190815260200160002060070160006101000a81548160ff021916908315150217905550600160056000896000191660001916815260200190815260200160002060070160016101000a81548160ff02191690831515021790555060006005600089600019166000191681526020019081526020016000206008018160001916905550866005600060025460001916600019168152602001908152602001600020600801816000191690555060056000886000191660001916815260200190815260200160002060030154600281600019169055506111a6600160035461482b90919063ffffffff16565b60038190555060066000886000191660001916815260200190815260200160002080548060010182816111d99190615661565b91600052602060002090600702016000610120604051908101604052808b6000191681526020013373ffffffffffffffffffffffffffffffffffffffff168152602001600560008d6000191660001916815260200190815260200160002060000160009054906101000a900473ffffffffffffffffffffffffffffffffffffffff1673ffffffffffffffffffffffffffffffffffffffff168152602001600560008d6000191660001916815260200190815260200160002060040154815260200162278d0088428115156112a957fe5b0403815260200187428115156112bb57fe5b0481526020016000151581526020016001151581526020016000151581525090919091506000820151816000019060001916905560208201518160010160006101000a81548173ffffffffffffffffffffffffffffffffffffffff021916908373ffffffffffffffffffffffffffffffffffffffff16021790555060408201518160020160006101000a81548173ffffffffffffffffffffffffffffffffffffffff021916908373ffffffffffffffffffffffffffffffffffffffff160217905550606082015181600301556080820151816004015560a0820151816005015560c08201518160060160006101000a81548160ff02191690831515021790555060e08201518160060160016101000a81548160ff0219169083151502179055506101008201518160060160026101000a81548160ff02191690831515021790555050505061144e60056000896000191660001916815260200190815260200160002060040154600560008a600019166000191681526020019081526020016000206001015461482b90919063ffffffff16565b600560008960001916600019168152602001908152602001600020600101819055506114a26001600560008a600019166000191681526020019081526020016000206002015461482b90919063ffffffff16565b6005600089600019166000191681526020019081526020016000206002018190555081156115f257600460009054906101000a900473ffffffffffffffffffffffffffffffffffffffff1673ffffffffffffffffffffffffffffffffffffffff166323b872dd3330896000604051602001526040518463ffffffff167c0100000000000000000000000000000000000000000000000000000000028152600401808473ffffffffffffffffffffffffffffffffffffffff1673ffffffffffffffffffffffffffffffffffffffff1681526020018373ffffffffffffffffffffffffffffffffffffffff1673ffffffffffffffffffffffffffffffffffffffff1681526020018281526020019350505050602060405180830381600087803b15156115cb57600080fd5b6102c65a03f115156115dc57600080fd5b5050506040518051905015156115f157600080fd5b5b600190509695505050505050565b6000808383806000111580156116345750600660008360001916600019168152602001908152602001600020805490508111155b151561163f57600080fd5b3373ffffffffffffffffffffffffffffffffffffffff166006600084600019166000191681526020019081526020016000208281548110151561167e57fe5b906000526020600020906007020160010160009054906101000a900473ffffffffffffffffffffffffffffffffffffffff1673ffffffffffffffffffffffffffffffffffffffff161415156116d257600080fd5b60056000876000191660001916815260200190815260200160002060070160009054906101000a900460ff16151561170957600080fd5b600092506118856006600088600019166000191681526020019081526020016000208681548110151561173857fe5b906000526020600020906007020161012060405190810160405290816000820154600019166000191681526020016001820160009054906101000a900473ffffffffffffffffffffffffffffffffffffffff1673ffffffffffffffffffffffffffffffffffffffff1673ffffffffffffffffffffffffffffffffffffffff1681526020016002820160009054906101000a900473ffffffffffffffffffffffffffffffffffffffff1673ffffffffffffffffffffffffffffffffffffffff1673ffffffffffffffffffffffffffffffffffffffff1681526020016003820154815260200160048201548152602001600582015481526020016006820160009054906101000a900460ff161515151581526020016006820160019054906101000a900460ff161515151581526020016006820160029054906101000a900460ff161515151581525050614849565b925060008311151561189657600080fd5b600660008760001916600019168152602001908152602001600020858154811015156118be57fe5b906000526020600020906007020160060160029054906101000a900460ff161515156118e957600080fd5b60016006600088600019166000191681526020019081526020016000208681548110151561191357fe5b906000526020600020906007020160060160026101000a81548160ff021916908315150217905550611945338461491a565b151561195057600080fd5b85600019163373ffffffffffffffffffffffffffffffffffffffff167f794aa82b6db54e01dab1d1dfda90d863bf89a700f3fe0fc4f98bfd504f71bf5d856040518082815260200191505060405180910390a36001935050505092915050565b62278d0081565b600060056000846000191660001916815260200190815260200160002060070160009054906101000a900460ff1615156119f057600080fd5b81600011158015611a1f5750600660008460001916600019168152602001908152602001600020805490508211155b15611b9f57611b9c60066000856000191660001916815260200190815260200160002083815481101515611a4f57fe5b906000526020600020906007020161012060405190810160405290816000820154600019166000191681526020016001820160009054906101000a900473ffffffffffffffffffffffffffffffffffffffff1673ffffffffffffffffffffffffffffffffffffffff1673ffffffffffffffffffffffffffffffffffffffff1681526020016002820160009054906101000a900473ffffffffffffffffffffffffffffffffffffffff1673ffffffffffffffffffffffffffffffffffffffff1673ffffffffffffffffffffffffffffffffffffffff1681526020016003820154815260200160048201548152602001600582015481526020016006820160009054906101000a900460ff161515151581526020016006820160019054906101000a900460ff161515151581526020016006820160029054906101000a900460ff161515151581525050614a85565b90505b92915050565b6000808360056000826000191660001916815260200190815260200160002060070160009054906101000a900460ff161515611be057600080fd5b3373ffffffffffffffffffffffffffffffffffffffff1660056000836000191660001916815260200190815260200160002060000160009054906101000a900473ffffffffffffffffffffffffffffffffffffffff1673ffffffffffffffffffffffffffffffffffffffff16141515611c5857600080fd5b83600011158015611c875750600660008660001916600019168152602001908152602001600020805490508411155b1515611c9257600080fd5b60009150611e0e60066000876000191660001916815260200190815260200160002085815481101515611cc157fe5b906000526020600020906007020161012060405190810160405290816000820154600019166000191681526020016001820160009054906101000a900473ffffffffffffffffffffffffffffffffffffffff1673ffffffffffffffffffffffffffffffffffffffff1673ffffffffffffffffffffffffffffffffffffffff1681526020016002820160009054906101000a900473ffffffffffffffffffffffffffffffffffffffff1673ffffffffffffffffffffffffffffffffffffffff1673ffffffffffffffffffffffffffffffffffffffff1681526020016003820154815260200160048201548152602001600582015481526020016006820160009054906101000a900460ff161515151581526020016006820160019054906101000a900460ff161515151581526020016006820160029054906101000a900460ff161515151581525050614a85565b9150600082111515611e1f57600080fd5b60066000866000191660001916815260200190815260200160002084815481101515611e4757fe5b906000526020600020906007020160060160009054906101000a900460ff16151515611e7257600080fd5b600160066000876000191660001916815260200190815260200160002085815481101515611e9c57fe5b906000526020600020906007020160060160006101000a81548160ff021916908315150217905550611ece8583614b40565b1515611ed957600080fd5b846000191660056000876000191660001916815260200190815260200160002060000160009054906101000a900473ffffffffffffffffffffffffffffffffffffffff1673ffffffffffffffffffffffffffffffffffffffff167fceb5682fafb74ca2d33476486c7dee53205f9c8aff48d68f47456a90abd536a8846040518082815260200191505060405180910390a360019250505092915050565b60008060009054906101000a900473ffffffffffffffffffffffffffffffffffffffff1673ffffffffffffffffffffffffffffffffffffffff163373ffffffffffffffffffffffffffffffffffffffff16141515611fd357600080fd5b60056000846000191660001916815260200190815260200160002060070160009054906101000a900460ff16151561200a57600080fd5b8160056000856000191660001916815260200190815260200160002060050160006101000a81548160ff021916908315150217905550811561206e574260056000856000191660001916815260200190815260200160002060060181905550612093565b6000600560008560001916600019168152602001908152602001600020600601819055505b826000191660056000856000191660001916815260200190815260200160002060000160009054906101000a900473ffffffffffffffffffffffffffffffffffffffff1673ffffffffffffffffffffffffffffffffffffffff167fb5dd3ecc8eaa1fb9460a4088b3872f93a68855f913c6bfc3f3c6c7ebf0f326b684604051808215151515815260200191505060405180910390a36001905092915050565b600080600080600080600060056000896000191660001916815260200190815260200160002060000160009054906101000a900473ffffffffffffffffffffffffffffffffffffffff16965060056000896000191660001916815260200190815260200160002060040154955060056000896000191660001916815260200190815260200160002060010154945060056000896000191660001916815260200190815260200160002060020154935060056000896000191660001916815260200190815260200160002060070160009054906101000a900460ff16925060056000896000191660001916815260200190815260200160002060070160019054906101000a900460ff16915060056000896000191660001916815260200190815260200160002060050160009054906101000a900460ff169050919395979092949650565b60008160056000826000191660001916815260200190815260200160002060070160009054906101000a900460ff1615156122b057600080fd5b60056000826000191660001916815260200190815260200160002060070160019054906101000a900460ff1615156122e757600080fd5b60056000826000191660001916815260200190815260200160002060050160009054906101000a900460ff1615151561231f57600080fd5b612348333060056000876000191660001916815260200190815260200160002060040154614e6b565b151561235357600080fd5b60066000846000191660001916815260200190815260200160002080548060010182816123809190615661565b9160005260206000209060070201600061012060405190810160405280876000191681526020013373ffffffffffffffffffffffffffffffffffffffff16815260200160056000896000191660001916815260200190815260200160002060000160009054906101000a900473ffffffffffffffffffffffffffffffffffffffff1673ffffffffffffffffffffffffffffffffffffffff16815260200160056000896000191660001916815260200190815260200160002060040154815260200142815260200162278d00420181526020016000151581526020016001151581526020016000151581525090919091506000820151816000019060001916905560208201518160010160006101000a81548173ffffffffffffffffffffffffffffffffffffffff021916908373ffffffffffffffffffffffffffffffffffffffff16021790555060408201518160020160006101000a81548173ffffffffffffffffffffffffffffffffffffffff021916908373ffffffffffffffffffffffffffffffffffffffff160217905550606082015181600301556080820151816004015560a0820151816005015560c08201518160060160006101000a81548160ff02191690831515021790555060e08201518160060160016101000a81548160ff0219169083151502179055506101008201518160060160026101000a81548160ff0219169083151502179055505050506125df600560008560001916600019168152602001908152602001600020600401546005600086600019166000191681526020019081526020016000206001015461482b90919063ffffffff16565b6005600085600019166000191681526020019081526020016000206001018190555061263360016005600086600019166000191681526020019081526020016000206002015461482b90919063ffffffff16565b6005600085600019166000191681526020019081526020016000206002018190555060056000846000191660001916815260200190815260200160002060000160009054906101000a900473ffffffffffffffffffffffffffffffffffffffff1673ffffffffffffffffffffffffffffffffffffffff1683600019163373ffffffffffffffffffffffffffffffffffffffff167f7a3f54da83d294e3b226e50ae5a65e87cff0f43f8699003833a1ee6670c800e660056000886000191660001916815260200190815260200160002060040154600160405180838152602001821515151581526020019250505060405180910390a46001915050919050565b60035481565b60008260056000826000191660001916815260200190815260200160002060070160009054906101000a900460ff16151561277257600080fd5b3373ffffffffffffffffffffffffffffffffffffffff1660056000836000191660001916815260200190815260200160002060000160009054906101000a900473ffffffffffffffffffffffffffffffffffffffff1673ffffffffffffffffffffffffffffffffffffffff161415156127ea57600080fd5b828061280060018361482b90919063ffffffff16565b11151561280c57600080fd5b836005600087600019166000191681526020019081526020016000206004018190555084600019163373ffffffffffffffffffffffffffffffffffffffff167fd6d44e0931d3eff0a69c277b94480024f00d36b25216cf69d54965c1ecb7f4a3866040518082815260200191505060405180910390a360019250505092915050565b60008060008060008560056000826000191660001916815260200190815260200160002060070160009054906101000a900460ff1615156128ce57600080fd5b3373ffffffffffffffffffffffffffffffffffffffff1660056000836000191660001916815260200190815260200160002060000160009054906101000a900473ffffffffffffffffffffffffffffffffffffffff1673ffffffffffffffffffffffffffffffffffffffff1614151561294657600080fd5b60009450600660008860001916600019168152602001908152602001600020805490509350600092505b83831015612bc057612af0600660008960001916600019168152602001908152602001600020848154811015156129a357fe5b906000526020600020906007020161012060405190810160405290816000820154600019166000191681526020016001820160009054906101000a900473ffffffffffffffffffffffffffffffffffffffff1673ffffffffffffffffffffffffffffffffffffffff1673ffffffffffffffffffffffffffffffffffffffff1681526020016002820160009054906101000a900473ffffffffffffffffffffffffffffffffffffffff1673ffffffffffffffffffffffffffffffffffffffff1673ffffffffffffffffffffffffffffffffffffffff1681526020016003820154815260200160048201548152602001600582015481526020016006820160009054906101000a900460ff161515151581526020016006820160019054906101000a900460ff161515151581526020016006820160029054906101000a900460ff161515151581525050614a85565b9150600082118015612b46575060066000886000191660001916815260200190815260200160002083815481101515612b2557fe5b906000526020600020906007020160060160009054906101000a900460ff16155b15612bb357600160066000896000191660001916815260200190815260200160002084815481101515612b7557fe5b906000526020600020906007020160060160006101000a81548160ff021916908315150217905550612bb0828661482b90919063ffffffff16565b94505b8280600101935050612970565b612bca8786614b40565b1515612bd557600080fd5b866000191660056000896000191660001916815260200190815260200160002060000160009054906101000a900473ffffffffffffffffffffffffffffffffffffffff1673ffffffffffffffffffffffffffffffffffffffff167fceb5682fafb74ca2d33476486c7dee53205f9c8aff48d68f47456a90abd536a8876040518082815260200191505060405180910390a3600195505050505050919050565b612c7c615693565b612c84615693565b600080600354604051805910612c975750595b908082528060200260200182016040525092506001549150600090505b600354811015612d2f57600560008360001916600019168152602001908152602001600020600301548382815181101515612ceb57fe5b906020019060200201906000191690816000191681525050600560008360001916600019168152602001908152602001600020600801549150806001019050612cb4565b82935050505090565b6000600460009054906101000a900473ffffffffffffffffffffffffffffffffffffffff1673ffffffffffffffffffffffffffffffffffffffff166370a08231306000604051602001526040518263ffffffff167c0100000000000000000000000000000000000000000000000000000000028152600401808273ffffffffffffffffffffffffffffffffffffffff1673ffffffffffffffffffffffffffffffffffffffff168152602001915050602060405180830381600087803b1515612dff57600080fd5b6102c65a03f11515612e1057600080fd5b50505060405180519050905090565b600080600080600060056000876000191660001916815260200190815260200160002060070160009054906101000a900460ff161515612e5e57600080fd5b60009350600660008760001916600019168152602001908152602001600020805490509250600091505b82821015613166573373ffffffffffffffffffffffffffffffffffffffff1660066000886000191660001916815260200190815260200160002083815481101515612ecf57fe5b906000526020600020906007020160010160009054906101000a900473ffffffffffffffffffffffffffffffffffffffff1673ffffffffffffffffffffffffffffffffffffffff1614156131595761309560066000886000191660001916815260200190815260200160002083815481101515612f4857fe5b906000526020600020906007020161012060405190810160405290816000820154600019166000191681526020016001820160009054906101000a900473ffffffffffffffffffffffffffffffffffffffff1673ffffffffffffffffffffffffffffffffffffffff1673ffffffffffffffffffffffffffffffffffffffff1681526020016002820160009054906101000a900473ffffffffffffffffffffffffffffffffffffffff1673ffffffffffffffffffffffffffffffffffffffff1673ffffffffffffffffffffffffffffffffffffffff1681526020016003820154815260200160048201548152602001600582015481526020016006820160009054906101000a900460ff161515151581526020016006820160019054906101000a900460ff161515151581526020016006820160029054906101000a900460ff161515151581525050614849565b90506000811180156130eb5750600660008760001916600019168152602001908152602001600020828154811015156130ca57fe5b906000526020600020906007020160060160029054906101000a900460ff16155b156131585760016006600088600019166000191681526020019081526020016000208381548110151561311a57fe5b906000526020600020906007020160060160026101000a81548160ff021916908315150217905550613155818561482b90919063ffffffff16565b93505b5b8180600101925050612e88565b613170338561491a565b151561317b57600080fd5b85600019163373ffffffffffffffffffffffffffffffffffffffff167f794aa82b6db54e01dab1d1dfda90d863bf89a700f3fe0fc4f98bfd504f71bf5d866040518082815260200191505060405180910390a36001945050505050919050565b6000836000602060ff161115156131f157600080fd5b60056000826000191660001916815260200190815260200160002060070160009054906101000a900460ff1615151561322957600080fd5b838061323f60018361482b90919063ffffffff16565b11151561324b57600080fd5b6132568686866151bc565b151561326157600080fd5b6007805480600101828161327591906156a7565b9160005260206000209001600088909190915090600019169055506001925050509392505050565b60025481565b600080600060056000856000191660001916815260200190815260200160002060070160009054906101000a900460ff1615156132df57600080fd5b60009250600660008560001916600019168152602001908152602001600020805490509150600090505b818110156134aa5761349b61348c6006600087600019166000191681526020019081526020016000208381548110151561333f57fe5b906000526020600020906007020161012060405190810160405290816000820154600019166000191681526020016001820160009054906101000a900473ffffffffffffffffffffffffffffffffffffffff1673ffffffffffffffffffffffffffffffffffffffff1673ffffffffffffffffffffffffffffffffffffffff1681526020016002820160009054906101000a900473ffffffffffffffffffffffffffffffffffffffff1673ffffffffffffffffffffffffffffffffffffffff1673ffffffffffffffffffffffffffffffffffffffff1681526020016003820154815260200160048201548152602001600582015481526020016006820160009054906101000a900460ff161515151581526020016006820160019054906101000a900460ff161515151581526020016006820160029054906101000a900460ff161515151581525050614a85565b8461482b90919063ffffffff16565b92508080600101915050613309565b8292505050919050565b600060056000846000191660001916815260200190815260200160002060070160009054906101000a900460ff1615156134ed57600080fd5b60009050816000111580156135205750600660008460001916600019168152602001908152602001600020805490508211155b156136a05761369d6006600085600019166000191681526020019081526020016000208381548110151561355057fe5b906000526020600020906007020161012060405190810160405290816000820154600019166000191681526020016001820160009054906101000a900473ffffffffffffffffffffffffffffffffffffffff1673ffffffffffffffffffffffffffffffffffffffff1673ffffffffffffffffffffffffffffffffffffffff1681526020016002820160009054906101000a900473ffffffffffffffffffffffffffffffffffffffff1673ffffffffffffffffffffffffffffffffffffffff1673ffffffffffffffffffffffffffffffffffffffff1681526020016003820154815260200160048201548152602001600582015481526020016006820160009054906101000a900460ff161515151581526020016006820160019054906101000a900460ff161515151581526020016006820160029054906101000a900460ff161515151581525050614849565b90505b92915050565b6000600780549050905090565b6000806000806000806000806000806000600660008d600019166000191681526020019081526020016000208054905091508c73ffffffffffffffffffffffffffffffffffffffff16600073ffffffffffffffffffffffffffffffffffffffff161415151561372157600080fd5b600560008d6000191660001916815260200190815260200160002060070160009054906101000a900460ff16151561375857600080fd5b6000821115613a02576001820390505b600081101515613a01578c73ffffffffffffffffffffffffffffffffffffffff16600660008e60001916600019168152602001908152602001600020828154811015156137b157fe5b906000526020600020906007020160010160009054906101000a900473ffffffffffffffffffffffffffffffffffffffff1673ffffffffffffffffffffffffffffffffffffffff1614156139e557600660008d600019166000191681526020019081526020016000208181548110151561382757fe5b906000526020600020906007020160010160009054906101000a900473ffffffffffffffffffffffffffffffffffffffff169a50600660008d600019166000191681526020019081526020016000208181548110151561388357fe5b9060005260206000209060070201600301549850600660008d60001916600019168152602001908152602001600020818154811015156138bf57fe5b9060005260206000209060070201600401549750600660008d60001916600019168152602001908152602001600020818154811015156138fb57fe5b90600052602060002090600702016005015496506139198b8d614151565b159550600660008d600019166000191681526020019081526020016000208181548110151561394457fe5b906000526020600020906007020160060160009054906101000a900460ff169450600560008d6000191660001916815260200190815260200160002060050160009054906101000a900460ff169350600660008d60001916600019168152602001908152602001600020818154811015156139bb57fe5b906000526020600020906007020160060160019054906101000a900460ff16925060009050613a01565b60008114156139f357613a01565b808060019003915050613768565b5b8a8c8a8a8a8a8a8a8a9a509a509a509a509a509a509a509a509a5050509295985092959850929598565b60008260056000826000191660001916815260200190815260200160002060070160009054906101000a900460ff161515613a6657600080fd5b3373ffffffffffffffffffffffffffffffffffffffff1660056000836000191660001916815260200190815260200160002060000160009054906101000a900473ffffffffffffffffffffffffffffffffffffffff1673ffffffffffffffffffffffffffffffffffffffff16141515613ade57600080fd5b8260056000866000191660001916815260200190815260200160002060070160016101000a81548160ff02191690831515021790555083600019163373ffffffffffffffffffffffffffffffffffffffff167feb7e8fd639953c98dc1baecd9f72cc41075f4cf712755141cbbdd572181680c485604051808215151515815260200191505060405180910390a3600191505092915050565b600081600011158015613ba75750600660008460001916600019168152602001908152602001600020805490508211155b15613bec5760066000846000191660001916815260200190815260200160002082815481101515613bd457fe5b90600052602060002090600702016005015442101590505b92915050565b600781815481101515613c0157fe5b90600052602060002090016000915090505481565b60056020528060005260406000206000915090508060000160009054906101000a900473ffffffffffffffffffffffffffffffffffffffff16908060010154908060020154908060030154908060040154908060050160009054906101000a900460ff16908060060154908060070160009054906101000a900460ff16908060070160019054906101000a900460ff1690806008015490508a565b600660205281600052604060002081815481101515613ccc57fe5b9060005260206000209060070201600091509150508060000154908060010160009054906101000a900473ffffffffffffffffffffffffffffffffffffffff16908060020160009054906101000a900473ffffffffffffffffffffffffffffffffffffffff16908060030154908060040154908060050154908060060160009054906101000a900460ff16908060060160019054906101000a900460ff16908060060160029054906101000a900460ff16905089565b600460009054906101000a900473ffffffffffffffffffffffffffffffffffffffff1681565b600060056000836000191660001916815260200190815260200160002060000160009054906101000a900473ffffffffffffffffffffffffffffffffffffffff169050919050565b60008060008073ffffffffffffffffffffffffffffffffffffffff168573ffffffffffffffffffffffffffffffffffffffff1614151515613e3057600080fd5b60056000856000191660001916815260200190815260200160002060070160009054906101000a900460ff161515613e6757600080fd5b60009250600660008560001916600019168152602001908152602001600020805490509150600090505b818110156140c0578473ffffffffffffffffffffffffffffffffffffffff1660066000866000191660001916815260200190815260200160002082815481101515613ed857fe5b906000526020600020906007020160010160009054906101000a900473ffffffffffffffffffffffffffffffffffffffff1673ffffffffffffffffffffffffffffffffffffffff1614156140b3576140b06140a160066000876000191660001916815260200190815260200160002083815481101515613f5457fe5b906000526020600020906007020161012060405190810160405290816000820154600019166000191681526020016001820160009054906101000a900473ffffffffffffffffffffffffffffffffffffffff1673ffffffffffffffffffffffffffffffffffffffff1673ffffffffffffffffffffffffffffffffffffffff1681526020016002820160009054906101000a900473ffffffffffffffffffffffffffffffffffffffff1673ffffffffffffffffffffffffffffffffffffffff1673ffffffffffffffffffffffffffffffffffffffff1681526020016003820154815260200160048201548152602001600582015481526020016006820160009054906101000a900460ff161515151581526020016006820160019054906101000a900460ff161515151581526020016006820160029054906101000a900460ff161515151581525050614849565b8461482b90919063ffffffff16565b92505b8080600101915050613e91565b829250505092915050565b6000600660008360001916600019168152602001908152602001600020805490509050919050565b6000809054906101000a900473ffffffffffffffffffffffffffffffffffffffff1681565b6040805190810160405280600181526020017f310000000000000000000000000000000000000000000000000000000000000081525081565b600080600060066000856000191660001916815260200190815260200160002080549050915060056000856000191660001916815260200190815260200160002060070160009054906101000a900460ff1615156141ae57600080fd5b8473ffffffffffffffffffffffffffffffffffffffff16600073ffffffffffffffffffffffffffffffffffffffff16141515156141ea57600080fd5b60008211156142f2576001820390505b6000811015156142f1578473ffffffffffffffffffffffffffffffffffffffff166006600086600019166000191681526020019081526020016000208281548110151561424357fe5b906000526020600020906007020160010160009054906101000a900473ffffffffffffffffffffffffffffffffffffffff1673ffffffffffffffffffffffffffffffffffffffff1614156142d557600660008560001916600019168152602001908152602001600020818154811015156142b957fe5b90600052602060002090600702016005015442101592506142f7565b60008114156142e3576142f1565b8080600190039150506141fa565b5b600192505b505092915050565b6000809054906101000a900473ffffffffffffffffffffffffffffffffffffffff1673ffffffffffffffffffffffffffffffffffffffff163373ffffffffffffffffffffffffffffffffffffffff1614151561435a57600080fd5b600073ffffffffffffffffffffffffffffffffffffffff168173ffffffffffffffffffffffffffffffffffffffff161415151561439657600080fd5b8073ffffffffffffffffffffffffffffffffffffffff166000809054906101000a900473ffffffffffffffffffffffffffffffffffffffff1673ffffffffffffffffffffffffffffffffffffffff167f8be0079c531659141344cd1fd0a4f28419497f9722a3daafe3b4186f6b6457e060405160405180910390a3806000806101000a81548173ffffffffffffffffffffffffffffffffffffffff021916908373ffffffffffffffffffffffffffffffffffffffff16021790555050565b6000806000806000806000806000896000111580156144915750600660008c60001916600019168152602001908152602001600020805490508a11155b1561481e57600660008c600019166000191681526020019081526020016000208a8154811015156144be57fe5b906000526020600020906007020160010160009054906101000a900473ffffffffffffffffffffffffffffffffffffffff169850600660008c600019166000191681526020019081526020016000208a81548110151561451a57fe5b9060005260206000209060070201600001549750600660008c600019166000191681526020019081526020016000208a81548110151561455657fe5b9060005260206000209060070201600301549650600660008c600019166000191681526020019081526020016000208a81548110151561459257fe5b9060005260206000209060070201600401549550600660008c600019166000191681526020019081526020016000208a8154811015156145ce57fe5b906000526020600020906007020160050154945061475a600660008d600019166000191681526020019081526020016000208b81548110151561460d57fe5b906000526020600020906007020161012060405190810160405290816000820154600019166000191681526020016001820160009054906101000a900473ffffffffffffffffffffffffffffffffffffffff1673ffffffffffffffffffffffffffffffffffffffff1673ffffffffffffffffffffffffffffffffffffffff1681526020016002820160009054906101000a900473ffffffffffffffffffffffffffffffffffffffff1673ffffffffffffffffffffffffffffffffffffffff1673ffffffffffffffffffffffffffffffffffffffff1681526020016003820154815260200160048201548152602001600582015481526020016006820160009054906101000a900460ff161515151581526020016006820160019054906101000a900460ff161515151581526020016006820160029054906101000a900460ff161515151581525050615523565b159350600660008c600019166000191681526020019081526020016000208a81548110151561478557fe5b906000526020600020906007020160060160009054906101000a900460ff169250600560008c6000191660001916815260200190815260200160002060050160009054906101000a900460ff169150600660008c600019166000191681526020019081526020016000208a8154811015156147fc57fe5b906000526020600020906007020160060160019054906101000a900460ff1690505b9295985092959850929598565b600080828401905083811015151561483f57fe5b8091505092915050565b60008090508161010001511515614912576005600083600001516000191660001916815260200190815260200160002060050160009054906101000a900460ff161561491157816080015160056000846000015160001916600019168152602001908152602001600020600601541180156148e957508160a001516005600084600001516000191660001916815260200190815260200160002060060154105b156149105761490d6148fa83615534565b83606001516155fa90919063ffffffff16565b90505b5b5b809050919050565b6000818061493260018361482b90919063ffffffff16565b11151561493e57600080fd5b60008311151561494d57600080fd5b3373ffffffffffffffffffffffffffffffffffffffff168473ffffffffffffffffffffffffffffffffffffffff1614151561498757600080fd5b600460009054906101000a900473ffffffffffffffffffffffffffffffffffffffff1673ffffffffffffffffffffffffffffffffffffffff1663a9059cbb33856000604051602001526040518363ffffffff167c0100000000000000000000000000000000000000000000000000000000028152600401808373ffffffffffffffffffffffffffffffffffffffff1673ffffffffffffffffffffffffffffffffffffffff16815260200182815260200192505050602060405180830381600087803b1515614a5457600080fd5b6102c65a03f11515614a6557600080fd5b505050604051805190501515614a7a57600080fd5b600191505092915050565b60008090508160c001511515614b3757614a9e82615523565b15614b2f576005600083600001516000191660001916815260200190815260200160002060050160009054906101000a900460ff1615614b23578160a001516005600084600001516000191660001916815260200190815260200160002060060154101515614b135781606001519050614b3b565b614b1c82615534565b9050614b3b565b81606001519050614b3b565b809050614b3b565b8090505b919050565b60008180614b5860018361482b90919063ffffffff16565b111515614b6457600080fd5b8360056000826000191660001916815260200190815260200160002060070160009054906101000a900460ff161515614b9c57600080fd5b3373ffffffffffffffffffffffffffffffffffffffff1660056000836000191660001916815260200190815260200160002060000160009054906101000a900473ffffffffffffffffffffffffffffffffffffffff1673ffffffffffffffffffffffffffffffffffffffff16141515614c1457600080fd5b600084111515614c2357600080fd5b600073ffffffffffffffffffffffffffffffffffffffff1660056000876000191660001916815260200190815260200160002060000160009054906101000a900473ffffffffffffffffffffffffffffffffffffffff1673ffffffffffffffffffffffffffffffffffffffff1614151515614c9d57600080fd5b600460009054906101000a900473ffffffffffffffffffffffffffffffffffffffff1673ffffffffffffffffffffffffffffffffffffffff1663a9059cbb60056000886000191660001916815260200190815260200160002060000160009054906101000a900473ffffffffffffffffffffffffffffffffffffffff16866000604051602001526040518363ffffffff167c0100000000000000000000000000000000000000000000000000000000028152600401808373ffffffffffffffffffffffffffffffffffffffff1673ffffffffffffffffffffffffffffffffffffffff16815260200182815260200192505050602060405180830381600087803b1515614da857600080fd5b6102c65a03f11515614db957600080fd5b505050604051805190501515614dce57600080fd5b846000191660056000876000191660001916815260200190815260200160002060000160009054906101000a900473ffffffffffffffffffffffffffffffffffffffff1673ffffffffffffffffffffffffffffffffffffffff167f4b4186a4b549df09e37908f0b17747e961a0ecd8d675b2993e5933811870991b866040518082815260200191505060405180910390a360019250505092915050565b60008180614e8360018361482b90919063ffffffff16565b111515614e8f57600080fd5b600073ffffffffffffffffffffffffffffffffffffffff168573ffffffffffffffffffffffffffffffffffffffff1614158015614ef757503073ffffffffffffffffffffffffffffffffffffffff168473ffffffffffffffffffffffffffffffffffffffff16145b1515614f0257600080fd5b82600460009054906101000a900473ffffffffffffffffffffffffffffffffffffffff1673ffffffffffffffffffffffffffffffffffffffff1663dd62ed3e87876000604051602001526040518363ffffffff167c0100000000000000000000000000000000000000000000000000000000028152600401808373ffffffffffffffffffffffffffffffffffffffff1673ffffffffffffffffffffffffffffffffffffffff1681526020018273ffffffffffffffffffffffffffffffffffffffff1673ffffffffffffffffffffffffffffffffffffffff16815260200192505050602060405180830381600087803b1515614ffc57600080fd5b6102c65a03f1151561500d57600080fd5b505050604051805190501015151561502457600080fd5b600460009054906101000a900473ffffffffffffffffffffffffffffffffffffffff1673ffffffffffffffffffffffffffffffffffffffff166323b872dd8686866000604051602001526040518463ffffffff167c0100000000000000000000000000000000000000000000000000000000028152600401808473ffffffffffffffffffffffffffffffffffffffff1673ffffffffffffffffffffffffffffffffffffffff1681526020018373ffffffffffffffffffffffffffffffffffffffff1673ffffffffffffffffffffffffffffffffffffffff1681526020018281526020019350505050602060405180830381600087803b151561512557600080fd5b6102c65a03f1151561513657600080fd5b50505060405180519050151561514b57600080fd5b8373ffffffffffffffffffffffffffffffffffffffff168573ffffffffffffffffffffffffffffffffffffffff167f6f990e2a71bc9526905da97b737d1ccb2bf854118a41fee0eb7811bb22d3eea4856040518082815260200191505060405180910390a360019150509392505050565b6000836000602060ff161115156151d257600080fd5b60056000826000191660001916815260200190815260200160002060070160009054906101000a900460ff1615151561520a57600080fd5b838061522060018361482b90919063ffffffff16565b11151561522c57600080fd5b600073ffffffffffffffffffffffffffffffffffffffff168473ffffffffffffffffffffffffffffffffffffffff161415151561526857600080fd5b8360056000886000191660001916815260200190815260200160002060000160006101000a81548173ffffffffffffffffffffffffffffffffffffffff021916908373ffffffffffffffffffffffffffffffffffffffff1602179055506000600560008860001916600019168152602001908152602001600020600101819055506000600560008860001916600019168152602001908152602001600020600201819055508560056000886000191660001916815260200190815260200160002060030181600019169055508460056000886000191660001916815260200190815260200160002060040181905550600060056000886000191660001916815260200190815260200160002060050160006101000a81548160ff021916908315150217905550600060056000886000191660001916815260200190815260200160002060060181905550600160056000886000191660001916815260200190815260200160002060070160006101000a81548160ff021916908315150217905550600160056000886000191660001916815260200190815260200160002060070160016101000a81548160ff02191690831515021790555060006005600088600019166000191681526020019081526020016000206008018160001916905550856005600060025460001916600019168152602001908152602001600020600801816000191690555060056000876000191660001916815260200190815260200160002060030154600281600019169055506154b0600160035461482b90919063ffffffff16565b60038190555085600019168473ffffffffffffffffffffffffffffffffffffffff167f32362a6c8f018375704733c0f0c66d6e2d1d6a96d031af978ccc46aaf2d2547e87600160405180838152602001821515151581526020019250505060405180910390a36001925050509392505050565b6000428260a0015111159050919050565b6000806000806005600086600001516000191660001916815260200190815260200160002060050160009054906101000a900460ff16151561557557600080fd5b846060015192506155c7836155b98760800151600560008a6000015160001916600019168152602001908152602001600020600601546155fa90919063ffffffff16565b61561390919063ffffffff16565b91506155e485608001518660a001516155fa90919063ffffffff16565b90506155f08282615646565b9350505050919050565b600082821115151561560857fe5b818303905092915050565b60008082840290506000841480615634575082848281151561563157fe5b04145b151561563c57fe5b8091505092915050565b600080828481151561565457fe5b0490508091505092915050565b81548183558181151161568e5760070281600702836000526020600020918201910161568d91906156d3565b5b505050565b602060405190810160405280600081525090565b8154818355818115116156ce578183600052602060002091820191016156cd919061579c565b5b505050565b61579991905b80821115615795576000808201600090556001820160006101000a81549073ffffffffffffffffffffffffffffffffffffffff02191690556002820160006101000a81549073ffffffffffffffffffffffffffffffffffffffff02191690556003820160009055600482016000905560058201600090556006820160006101000a81549060ff02191690556006820160016101000a81549060ff02191690556006820160026101000a81549060ff0219169055506007016156d9565b5090565b90565b6157be91905b808211156157ba5760008160009055506001016157a2565b5090565b905600a165627a7a72305820c82e6458149c914e0303083381b12e927479a9a97a92d69d6a193f4e25ba0ac40029",
  "source": "pragma solidity 0.4.18;\n\n//\n//import \"../Marketplace.sol\";\nimport \"../RecoverableMarketplace.sol\";\n/*\n*@title mock MarketPlace contract\n*@dev unit testing \n*/\n\ncontract TestableMock is RecoverableMarketplace {// Marketplace{\n    function TestableMock(address _tokenAddress) RecoverableMarketplace(_tokenAddress){\n        \n    }\n        // mock temp func\n    function mockPayableProvider(bytes32 _dataSourceName, \n    \tuint _price, address _dataOwner, bool isPunished, uint relativePunish, bool withTransfer)\n    public returns(bool){\n        // add mock provider \n        mProviders[_dataSourceName].owner = _dataOwner;\n        mProviders[_dataSourceName].volume = 0;\n        mProviders[_dataSourceName].subscriptionsNum = 0;\n        mProviders[_dataSourceName].name = _dataSourceName;\n        mProviders[_dataSourceName].price = _price;\n        mProviders[_dataSourceName].isPunished = isPunished;\n        mProviders[_dataSourceName].punishTimeStamp = now/relativePunish - FIXED_SUBSCRIPTION_PERIOD/relativePunish;\n        mProviders[_dataSourceName].isProvider = true;\n        mProviders[_dataSourceName].isActive = true;\n        mProviders[_dataSourceName].nextProvider = \"\";\n        mProviders[mCurrent].nextProvider = _dataSourceName;\n        mCurrent = mProviders[_dataSourceName].name;\n        mProvidersSize = mProvidersSize.add(1);\n        // add order \n            mOrders[_dataSourceName].push(Order({\n            dataSourceName : _dataSourceName,\n            subscriber : msg.sender,\n            provider : mProviders[_dataSourceName].owner,\n            price : mProviders[_dataSourceName].price,\n            startTime : now/relativePunish - FIXED_SUBSCRIPTION_PERIOD,\n            endTime : now/relativePunish,\n            isPaid : false,\n            isOrder : true,\n            isRefundPaid : false\n            }));\n        // update provider data \n        mProviders[_dataSourceName].volume = mProviders[_dataSourceName].volume.add(mProviders[_dataSourceName].price);\n        mProviders[_dataSourceName].subscriptionsNum = mProviders[_dataSourceName].subscriptionsNum.add(1);\n       \tif(withTransfer){\n       \t\trequire(mToken.transferFrom(msg.sender,this,_price));\n       \t}\n        return true;\n    }\n    \n}\n\n\n\n\n",
  "sourcePath": "/home/wilder/Desktop/Enigma/DataMarketProject/marketPlace_WS/smart_contract_marketplace/contracts/mocks/TestableMock.sol",
  "compiler": {
    "name": "solc",
    "version": "0.4.18+commit.9cf6e910.Emscripten.clang"
  },
  "schemaVersion": "1.0.1",
  "updatedAt": "2018-02-10T15:34:53.176Z"
}