{
  "contractName": "TestableMock",
  "abi": [
    {
      "constant": true,
      "inputs": [
        {
          "name": "_dataSourceName",
          "type": "bytes32"
        }
      ],
      "name": "isActiveDataSource",
      "outputs": [
        {
          "name": "isActive",
          "type": "bool"
        }
      ],
      "payable": false,
      "stateMutability": "view",
      "type": "function"
    },
    {
      "constant": true,
      "inputs": [],
      "name": "mBegin",
      "outputs": [
        {
          "name": "",
          "type": "bytes32"
        }
      ],
      "payable": false,
      "stateMutability": "view",
      "type": "function"
    },
    {
      "constant": false,
      "inputs": [
        {
          "name": "_dataSourceName",
          "type": "bytes32"
        },
        {
          "name": "_price",
          "type": "uint256"
        },
        {
          "name": "_dataOwner",
          "type": "address"
        },
        {
          "name": "isPunished",
          "type": "bool"
        },
        {
          "name": "relativePunish",
          "type": "uint256"
        },
        {
          "name": "withTransfer",
          "type": "bool"
        }
      ],
      "name": "mockPayableProvider",
      "outputs": [
        {
          "name": "",
          "type": "bool"
        }
      ],
      "payable": false,
      "stateMutability": "nonpayable",
      "type": "function"
    },
    {
      "constant": true,
      "inputs": [],
      "name": "FIXED_SUBSCRIPTION_PERIOD",
      "outputs": [
        {
          "name": "",
          "type": "uint256"
        }
      ],
      "payable": false,
      "stateMutability": "view",
      "type": "function"
    },
    {
      "constant": false,
      "inputs": [
        {
          "name": "_dataSourceName",
          "type": "bytes32"
        },
        {
          "name": "_isPunished",
          "type": "bool"
        }
      ],
      "name": "setPunishProvider",
      "outputs": [
        {
          "name": "success",
          "type": "bool"
        }
      ],
      "payable": false,
      "stateMutability": "nonpayable",
      "type": "function"
    },
    {
      "constant": true,
      "inputs": [
        {
          "name": "_dataSourceName",
          "type": "bytes32"
        }
      ],
      "name": "getDataProviderInfo",
      "outputs": [
        {
          "name": "owner",
          "type": "address"
        },
        {
          "name": "price",
          "type": "uint256"
        },
        {
          "name": "volume",
          "type": "uint256"
        },
        {
          "name": "subscriptionsNum",
          "type": "uint256"
        },
        {
          "name": "isProvider",
          "type": "bool"
        },
        {
          "name": "isActive",
          "type": "bool"
        },
        {
          "name": "isPunished",
          "type": "bool"
        }
      ],
      "payable": false,
      "stateMutability": "view",
      "type": "function"
    },
    {
      "constant": false,
      "inputs": [
        {
          "name": "_dataSourceName",
          "type": "bytes32"
        }
      ],
      "name": "subscribe",
      "outputs": [
        {
          "name": "success",
          "type": "bool"
        }
      ],
      "payable": false,
      "stateMutability": "nonpayable",
      "type": "function"
    },
    {
      "constant": true,
      "inputs": [],
      "name": "mProvidersSize",
      "outputs": [
        {
          "name": "",
          "type": "uint256"
        }
      ],
      "payable": false,
      "stateMutability": "view",
      "type": "function"
    },
    {
      "constant": false,
      "inputs": [
        {
          "name": "_dataSourceName",
          "type": "bytes32"
        },
        {
          "name": "_newPrice",
          "type": "uint256"
        }
      ],
      "name": "updateDataSourcePrice",
      "outputs": [
        {
          "name": "success",
          "type": "bool"
        }
      ],
      "payable": false,
      "stateMutability": "nonpayable",
      "type": "function"
    },
    {
      "constant": false,
      "inputs": [
        {
          "name": "_dataSourceName",
          "type": "bytes32"
        }
      ],
      "name": "withdrawProvider",
      "outputs": [
        {
          "name": "success",
          "type": "bool"
        }
      ],
      "payable": false,
      "stateMutability": "nonpayable",
      "type": "function"
    },
    {
      "constant": true,
      "inputs": [],
      "name": "getAllProviders",
      "outputs": [
        {
          "name": "",
          "type": "bytes32[]"
        }
      ],
      "payable": false,
      "stateMutability": "view",
      "type": "function"
    },
    {
      "constant": true,
      "inputs": [],
      "name": "getMarketplaceTotalBalance",
      "outputs": [
        {
          "name": "totalBalance",
          "type": "uint256"
        }
      ],
      "payable": false,
      "stateMutability": "view",
      "type": "function"
    },
    {
      "constant": false,
      "inputs": [
        {
          "name": "_dataSourceName",
          "type": "bytes32"
        }
      ],
      "name": "refundSubscriber",
      "outputs": [
        {
          "name": "success",
          "type": "bool"
        }
      ],
      "payable": false,
      "stateMutability": "nonpayable",
      "type": "function"
    },
    {
      "constant": false,
      "inputs": [
        {
          "name": "_dataSourceName",
          "type": "bytes32"
        },
        {
          "name": "_price",
          "type": "uint256"
        },
        {
          "name": "_dataOwner",
          "type": "address"
        }
      ],
      "name": "register",
      "outputs": [
        {
          "name": "success",
          "type": "bool"
        }
      ],
      "payable": false,
      "stateMutability": "nonpayable",
      "type": "function"
    },
    {
      "constant": true,
      "inputs": [],
      "name": "mCurrent",
      "outputs": [
        {
          "name": "",
          "type": "bytes32"
        }
      ],
      "payable": false,
      "stateMutability": "view",
      "type": "function"
    },
    {
      "constant": true,
      "inputs": [
        {
          "name": "_dataSourceName",
          "type": "bytes32"
        }
      ],
      "name": "getWithdrawAmount",
      "outputs": [
        {
          "name": "withdrawAmount",
          "type": "uint256"
        }
      ],
      "payable": false,
      "stateMutability": "view",
      "type": "function"
    },
    {
      "constant": true,
      "inputs": [
        {
          "name": "_subscriber",
          "type": "address"
        },
        {
          "name": "_dataSourceName",
          "type": "bytes32"
        }
      ],
      "name": "checkAddressSubscription",
      "outputs": [
        {
          "name": "subscriber",
          "type": "address"
        },
        {
          "name": "dataSourceName",
          "type": "bytes32"
        },
        {
          "name": "price",
          "type": "uint256"
        },
        {
          "name": "startTime",
          "type": "uint256"
        },
        {
          "name": "endTime",
          "type": "uint256"
        },
        {
          "name": "isUnExpired",
          "type": "bool"
        },
        {
          "name": "isPaid",
          "type": "bool"
        },
        {
          "name": "isPunishedProvider",
          "type": "bool"
        },
        {
          "name": "isOrder",
          "type": "bool"
        }
      ],
      "payable": false,
      "stateMutability": "view",
      "type": "function"
    },
    {
      "constant": false,
      "inputs": [
        {
          "name": "_dataSourceName",
          "type": "bytes32"
        },
        {
          "name": "_isActive",
          "type": "bool"
        }
      ],
      "name": "changeDataSourceActivityStatus",
      "outputs": [
        {
          "name": "success",
          "type": "bool"
        }
      ],
      "payable": false,
      "stateMutability": "nonpayable",
      "type": "function"
    },
    {
      "constant": true,
      "inputs": [
        {
          "name": "",
          "type": "bytes32"
        }
      ],
      "name": "mProviders",
      "outputs": [
        {
          "name": "owner",
          "type": "address"
        },
        {
          "name": "volume",
          "type": "uint256"
        },
        {
          "name": "subscriptionsNum",
          "type": "uint256"
        },
        {
          "name": "name",
          "type": "bytes32"
        },
        {
          "name": "price",
          "type": "uint256"
        },
        {
          "name": "isPunished",
          "type": "bool"
        },
        {
          "name": "punishTimeStamp",
          "type": "uint256"
        },
        {
          "name": "isProvider",
          "type": "bool"
        },
        {
          "name": "isActive",
          "type": "bool"
        },
        {
          "name": "nextProvider",
          "type": "bytes32"
        }
      ],
      "payable": false,
      "stateMutability": "view",
      "type": "function"
    },
    {
      "constant": true,
      "inputs": [
        {
          "name": "",
          "type": "bytes32"
        },
        {
          "name": "",
          "type": "uint256"
        }
      ],
      "name": "mOrders",
      "outputs": [
        {
          "name": "dataSourceName",
          "type": "bytes32"
        },
        {
          "name": "subscriber",
          "type": "address"
        },
        {
          "name": "provider",
          "type": "address"
        },
        {
          "name": "price",
          "type": "uint256"
        },
        {
          "name": "startTime",
          "type": "uint256"
        },
        {
          "name": "endTime",
          "type": "uint256"
        },
        {
          "name": "isPaid",
          "type": "bool"
        },
        {
          "name": "isOrder",
          "type": "bool"
        },
        {
          "name": "isRefundPaid",
          "type": "bool"
        }
      ],
      "payable": false,
      "stateMutability": "view",
      "type": "function"
    },
    {
      "constant": true,
      "inputs": [],
      "name": "mToken",
      "outputs": [
        {
          "name": "",
          "type": "address"
        }
      ],
      "payable": false,
      "stateMutability": "view",
      "type": "function"
    },
    {
      "constant": true,
      "inputs": [
        {
          "name": "_dataSourceName",
          "type": "bytes32"
        }
      ],
      "name": "getOwnerFromName",
      "outputs": [
        {
          "name": "owner",
          "type": "address"
        }
      ],
      "payable": false,
      "stateMutability": "view",
      "type": "function"
    },
    {
      "constant": true,
      "inputs": [
        {
          "name": "_subscriber",
          "type": "address"
        },
        {
          "name": "_dataSourceName",
          "type": "bytes32"
        }
      ],
      "name": "getRefundAmount",
      "outputs": [
        {
          "name": "refundAmount",
          "type": "uint256"
        }
      ],
      "payable": false,
      "stateMutability": "view",
      "type": "function"
    },
    {
      "constant": true,
      "inputs": [],
      "name": "mOwner",
      "outputs": [
        {
          "name": "",
          "type": "address"
        }
      ],
      "payable": false,
      "stateMutability": "view",
      "type": "function"
    },
    {
      "constant": true,
      "inputs": [],
      "name": "MARKETPLACE_VERSION",
      "outputs": [
        {
          "name": "",
          "type": "string"
        }
      ],
      "payable": false,
      "stateMutability": "view",
      "type": "function"
    },
    {
      "constant": true,
      "inputs": [
        {
          "name": "_subscriber",
          "type": "address"
        },
        {
          "name": "_dataSourceName",
          "type": "bytes32"
        }
      ],
      "name": "isExpiredSubscription",
      "outputs": [
        {
          "name": "isExpired",
          "type": "bool"
        }
      ],
      "payable": false,
      "stateMutability": "view",
      "type": "function"
    },
    {
      "constant": false,
      "inputs": [
        {
          "name": "_newOwner",
          "type": "address"
        }
      ],
      "name": "transferOwnership",
      "outputs": [],
      "payable": false,
      "stateMutability": "nonpayable",
      "type": "function"
    },
    {
      "inputs": [
        {
          "name": "_tokenAddress",
          "type": "address"
        }
      ],
      "payable": false,
      "stateMutability": "nonpayable",
      "type": "constructor"
    },
    {
      "anonymous": false,
      "inputs": [
        {
          "indexed": true,
          "name": "previousOwner",
          "type": "address"
        },
        {
          "indexed": true,
          "name": "newOwner",
          "type": "address"
        }
      ],
      "name": "OwnershipTransferred",
      "type": "event"
    },
    {
      "anonymous": false,
      "inputs": [
        {
          "indexed": true,
          "name": "editor",
          "type": "address"
        },
        {
          "indexed": true,
          "name": "dataSourceName",
          "type": "bytes32"
        },
        {
          "indexed": false,
          "name": "newPrice",
          "type": "uint256"
        }
      ],
      "name": "PriceUpdate",
      "type": "event"
    },
    {
      "anonymous": false,
      "inputs": [
        {
          "indexed": true,
          "name": "editor",
          "type": "address"
        },
        {
          "indexed": true,
          "name": "dataSourceName",
          "type": "bytes32"
        },
        {
          "indexed": false,
          "name": "newStatus",
          "type": "bool"
        }
      ],
      "name": "ActivityUpdate",
      "type": "event"
    },
    {
      "anonymous": false,
      "inputs": [
        {
          "indexed": true,
          "name": "dataOwner",
          "type": "address"
        },
        {
          "indexed": true,
          "name": "dataSourceName",
          "type": "bytes32"
        },
        {
          "indexed": false,
          "name": "price",
          "type": "uint256"
        },
        {
          "indexed": false,
          "name": "success",
          "type": "bool"
        }
      ],
      "name": "Registered",
      "type": "event"
    },
    {
      "anonymous": false,
      "inputs": [
        {
          "indexed": true,
          "name": "from",
          "type": "address"
        },
        {
          "indexed": true,
          "name": "to",
          "type": "address"
        },
        {
          "indexed": false,
          "name": "value",
          "type": "uint256"
        }
      ],
      "name": "SubscriptionDeposited",
      "type": "event"
    },
    {
      "anonymous": false,
      "inputs": [
        {
          "indexed": true,
          "name": "subscriber",
          "type": "address"
        },
        {
          "indexed": true,
          "name": "dataSourceName",
          "type": "bytes32"
        },
        {
          "indexed": true,
          "name": "dataOwner",
          "type": "address"
        },
        {
          "indexed": false,
          "name": "price",
          "type": "uint256"
        },
        {
          "indexed": false,
          "name": "success",
          "type": "bool"
        }
      ],
      "name": "Subscribed",
      "type": "event"
    },
    {
      "anonymous": false,
      "inputs": [
        {
          "indexed": true,
          "name": "dataOwner",
          "type": "address"
        },
        {
          "indexed": true,
          "name": "dataSourceName",
          "type": "bytes32"
        },
        {
          "indexed": false,
          "name": "amount",
          "type": "uint256"
        }
      ],
      "name": "TransferToProvider",
      "type": "event"
    },
    {
      "anonymous": false,
      "inputs": [
        {
          "indexed": true,
          "name": "dataOwner",
          "type": "address"
        },
        {
          "indexed": true,
          "name": "dataSourceName",
          "type": "bytes32"
        },
        {
          "indexed": false,
          "name": "amount",
          "type": "uint256"
        }
      ],
      "name": "ProviderWithdraw",
      "type": "event"
    },
    {
      "anonymous": false,
      "inputs": [
        {
          "indexed": true,
          "name": "dataOwner",
          "type": "address"
        },
        {
          "indexed": true,
          "name": "dataSourceName",
          "type": "bytes32"
        },
        {
          "indexed": false,
          "name": "isPunished",
          "type": "bool"
        }
      ],
      "name": "ProviderPunishStatus",
      "type": "event"
    },
    {
      "anonymous": false,
      "inputs": [
        {
          "indexed": true,
          "name": "subscriber",
          "type": "address"
        },
        {
          "indexed": true,
          "name": "dataSourceName",
          "type": "bytes32"
        },
        {
          "indexed": false,
          "name": "refundAmount",
          "type": "uint256"
        }
      ],
      "name": "SubscriberRefund",
      "type": "event"
    }
  ],
  "bytecode": "0x6060604052341561000f57600080fd5b60405160208062004434833981016040528080519060200190919050508080336000806101000a81548173ffffffffffffffffffffffffffffffffffffffff021916908373ffffffffffffffffffffffffffffffffffffffff160217905550600073ffffffffffffffffffffffffffffffffffffffff168173ffffffffffffffffffffffffffffffffffffffff16141515156100aa57600080fd5b80600460006101000a81548173ffffffffffffffffffffffffffffffffffffffff021916908373ffffffffffffffffffffffffffffffffffffffff1602179055506000600560008060010260001916815260200190815260200160002060080181600019169055506000600102600560008060010260001916815260200190815260200160002060030181600019169055506005600080600102600019168152602001908152602001600020600301546002816000191690555060056000806001026000191681526020019081526020016000206003015460018160001916905550600160038190555050505061428d80620001a76000396000f30060606040526004361061015f576000357c0100000000000000000000000000000000000000000000000000000000900463ffffffff1680630cf23b1f146101645780631225318c146101a35780631d858280146101d457806326277bf21461025a5780632f10aabb146102835780632f95949a146102cd5780632faf44f61461036a57806332b9c88c146103a9578063340b4ed4146103d25780633b8f5dbd1461041a5780633bb4497c14610459578063445f0095146104c357806345e3f796146104ec5780635164fab41461052b57806352e0ca79146105925780636210c254146105c35780637b788613146105fe5780638d149e5c146106d4578063b618c7561461071e578063c216d4a8146107e0578063c3b6f939146108c8578063c94d14ad1461091d578063ca6a467b14610984578063dcda4bf3146109de578063e93818e414610a33578063ea97bac114610ac1578063f2fde38b14610b1f575b600080fd5b341561016f57600080fd5b610189600480803560001916906020019091905050610b58565b604051808215151515815260200191505060405180910390f35b34156101ae57600080fd5b6101b6610b8d565b60405180826000191660001916815260200191505060405180910390f35b34156101df57600080fd5b61024060048080356000191690602001909190803590602001909190803573ffffffffffffffffffffffffffffffffffffffff1690602001909190803515159060200190919080359060200190919080351515906020019091905050610b93565b604051808215151515815260200191505060405180910390f35b341561026557600080fd5b61026d611250565b6040518082815260200191505060405180910390f35b341561028e57600080fd5b6102b36004808035600019169060200190919080351515906020019091905050611257565b604051808215151515815260200191505060405180910390f35b34156102d857600080fd5b6102f2600480803560001916906020019091905050611413565b604051808873ffffffffffffffffffffffffffffffffffffffff1673ffffffffffffffffffffffffffffffffffffffff16815260200187815260200186815260200185815260200184151515158152602001831515151581526020018215151515815260200197505050505050505060405180910390f35b341561037557600080fd5b61038f600480803560001916906020019091905050611557565b604051808215151515815260200191505060405180910390f35b34156103b457600080fd5b6103bc611a13565b6040518082815260200191505060405180910390f35b34156103dd57600080fd5b610400600480803560001916906020019091908035906020019091905050611a19565b604051808215151515815260200191505060405180910390f35b341561042557600080fd5b61043f600480803560001916906020019091905050611b6f565b604051808215151515815260200191505060405180910390f35b341561046457600080fd5b61046c611f09565b6040518080602001828103825283818151815260200191508051906020019060200280838360005b838110156104af578082015181840152602081019050610494565b505050509050019250505060405180910390f35b34156104ce57600080fd5b6104d6611fcd565b6040518082815260200191505060405180910390f35b34156104f757600080fd5b6105116004808035600019169060200190919050506120b4565b604051808215151515815260200191505060405180910390f35b341561053657600080fd5b61057860048080356000191690602001909190803590602001909190803573ffffffffffffffffffffffffffffffffffffffff16906020019091905050612420565b604051808215151515815260200191505060405180910390f35b341561059d57600080fd5b6105a5612787565b60405180826000191660001916815260200191505060405180910390f35b34156105ce57600080fd5b6105e860048080356000191690602001909190505061278d565b6040518082815260200191505060405180910390f35b341561060957600080fd5b610642600480803573ffffffffffffffffffffffffffffffffffffffff169060200190919080356000191690602001909190505061299e565b604051808a73ffffffffffffffffffffffffffffffffffffffff1673ffffffffffffffffffffffffffffffffffffffff168152602001896000191660001916815260200188815260200187815260200186815260200185151515158152602001841515151581526020018315151515815260200182151515158152602001995050505050505050505060405180910390f35b34156106df57600080fd5b6107046004808035600019169060200190919080351515906020019091905050612d1c565b604051808215151515815260200191505060405180910390f35b341561072957600080fd5b610743600480803560001916906020019091905050612e66565b604051808b73ffffffffffffffffffffffffffffffffffffffff1673ffffffffffffffffffffffffffffffffffffffff1681526020018a8152602001898152602001886000191660001916815260200187815260200186151515158152602001858152602001841515151581526020018315151515815260200182600019166000191681526020019a505050505050505050505060405180910390f35b34156107eb57600080fd5b61080e600480803560001916906020019091908035906020019091905050612f01565b604051808a600019166000191681526020018973ffffffffffffffffffffffffffffffffffffffff1673ffffffffffffffffffffffffffffffffffffffff1681526020018873ffffffffffffffffffffffffffffffffffffffff1673ffffffffffffffffffffffffffffffffffffffff168152602001878152602001868152602001858152602001841515151581526020018315151515815260200182151515158152602001995050505050505050505060405180910390f35b34156108d357600080fd5b6108db612fd2565b604051808273ffffffffffffffffffffffffffffffffffffffff1673ffffffffffffffffffffffffffffffffffffffff16815260200191505060405180910390f35b341561092857600080fd5b610942600480803560001916906020019091905050612ff8565b604051808273ffffffffffffffffffffffffffffffffffffffff1673ffffffffffffffffffffffffffffffffffffffff16815260200191505060405180910390f35b341561098f57600080fd5b6109c8600480803573ffffffffffffffffffffffffffffffffffffffff1690602001909190803560001916906020019091905050613040565b6040518082815260200191505060405180910390f35b34156109e957600080fd5b6109f161331b565b604051808273ffffffffffffffffffffffffffffffffffffffff1673ffffffffffffffffffffffffffffffffffffffff16815260200191505060405180910390f35b3415610a3e57600080fd5b610a46613340565b6040518080602001828103825283818151815260200191508051906020019080838360005b83811015610a86578082015181840152602081019050610a6b565b50505050905090810190601f168015610ab35780820380516001836020036101000a031916815260200191505b509250505060405180910390f35b3415610acc57600080fd5b610b05600480803573ffffffffffffffffffffffffffffffffffffffff1690602001909190803560001916906020019091905050613379565b604051808215151515815260200191505060405180910390f35b3415610b2a57600080fd5b610b56600480803573ffffffffffffffffffffffffffffffffffffffff1690602001909190505061352c565b005b600060056000836000191660001916815260200190815260200160002060070160019054906101000a900460ff169050919050565b60015481565b60008460056000896000191660001916815260200190815260200160002060000160006101000a81548173ffffffffffffffffffffffffffffffffffffffff021916908373ffffffffffffffffffffffffffffffffffffffff16021790555060006005600089600019166000191681526020019081526020016000206001018190555060006005600089600019166000191681526020019081526020016000206002018190555086600560008960001916600019168152602001908152602001600020600301816000191690555085600560008960001916600019168152602001908152602001600020600401819055508360056000896000191660001916815260200190815260200160002060050160006101000a81548160ff0219169083151502179055508262278d00811515610cc857fe5b048342811515610cd457fe5b040360056000896000191660001916815260200190815260200160002060060181905550600160056000896000191660001916815260200190815260200160002060070160006101000a81548160ff021916908315150217905550600160056000896000191660001916815260200190815260200160002060070160016101000a81548160ff0219169083151502179055506000600560008960001916600019168152602001908152602001600020600801816000191690555086600560006002546000191660001916815260200190815260200160002060080181600019169055506005600088600019166000191681526020019081526020016000206003015460028160001916905550610df6600160035461368190919063ffffffff16565b6003819055506006600088600019166000191681526020019081526020016000208054806001018281610e299190614152565b91600052602060002090600702016000610120604051908101604052808b6000191681526020013373ffffffffffffffffffffffffffffffffffffffff168152602001600560008d6000191660001916815260200190815260200160002060000160009054906101000a900473ffffffffffffffffffffffffffffffffffffffff1673ffffffffffffffffffffffffffffffffffffffff168152602001600560008d6000191660001916815260200190815260200160002060040154815260200162278d008842811515610ef957fe5b040381526020018742811515610f0b57fe5b0481526020016000151581526020016001151581526020016000151581525090919091506000820151816000019060001916905560208201518160010160006101000a81548173ffffffffffffffffffffffffffffffffffffffff021916908373ffffffffffffffffffffffffffffffffffffffff16021790555060408201518160020160006101000a81548173ffffffffffffffffffffffffffffffffffffffff021916908373ffffffffffffffffffffffffffffffffffffffff160217905550606082015181600301556080820151816004015560a0820151816005015560c08201518160060160006101000a81548160ff02191690831515021790555060e08201518160060160016101000a81548160ff0219169083151502179055506101008201518160060160026101000a81548160ff02191690831515021790555050505061109e60056000896000191660001916815260200190815260200160002060040154600560008a600019166000191681526020019081526020016000206001015461368190919063ffffffff16565b600560008960001916600019168152602001908152602001600020600101819055506110f26001600560008a600019166000191681526020019081526020016000206002015461368190919063ffffffff16565b60056000896000191660001916815260200190815260200160002060020181905550811561124257600460009054906101000a900473ffffffffffffffffffffffffffffffffffffffff1673ffffffffffffffffffffffffffffffffffffffff166323b872dd3330896000604051602001526040518463ffffffff167c0100000000000000000000000000000000000000000000000000000000028152600401808473ffffffffffffffffffffffffffffffffffffffff1673ffffffffffffffffffffffffffffffffffffffff1681526020018373ffffffffffffffffffffffffffffffffffffffff1673ffffffffffffffffffffffffffffffffffffffff1681526020018281526020019350505050602060405180830381600087803b151561121b57600080fd5b6102c65a03f1151561122c57600080fd5b50505060405180519050151561124157600080fd5b5b600190509695505050505050565b62278d0081565b60008060009054906101000a900473ffffffffffffffffffffffffffffffffffffffff1673ffffffffffffffffffffffffffffffffffffffff163373ffffffffffffffffffffffffffffffffffffffff161415156112b457600080fd5b60056000846000191660001916815260200190815260200160002060070160009054906101000a900460ff1615156112eb57600080fd5b8160056000856000191660001916815260200190815260200160002060050160006101000a81548160ff021916908315150217905550811561134f574260056000856000191660001916815260200190815260200160002060060181905550611374565b6000600560008560001916600019168152602001908152602001600020600601819055505b826000191660056000856000191660001916815260200190815260200160002060000160009054906101000a900473ffffffffffffffffffffffffffffffffffffffff1673ffffffffffffffffffffffffffffffffffffffff167fb5dd3ecc8eaa1fb9460a4088b3872f93a68855f913c6bfc3f3c6c7ebf0f326b684604051808215151515815260200191505060405180910390a36001905092915050565b600080600080600080600060056000896000191660001916815260200190815260200160002060000160009054906101000a900473ffffffffffffffffffffffffffffffffffffffff16965060056000896000191660001916815260200190815260200160002060040154955060056000896000191660001916815260200190815260200160002060010154945060056000896000191660001916815260200190815260200160002060020154935060056000896000191660001916815260200190815260200160002060070160009054906101000a900460ff16925060056000896000191660001916815260200190815260200160002060070160019054906101000a900460ff16915060056000896000191660001916815260200190815260200160002060050160009054906101000a900460ff169050919395979092949650565b60008160056000826000191660001916815260200190815260200160002060070160009054906101000a900460ff16151561159157600080fd5b60056000826000191660001916815260200190815260200160002060070160019054906101000a900460ff1615156115c857600080fd5b60056000826000191660001916815260200190815260200160002060050160009054906101000a900460ff1615151561160057600080fd5b61162933306005600087600019166000191681526020019081526020016000206004015461369f565b151561163457600080fd5b60066000846000191660001916815260200190815260200160002080548060010182816116619190614152565b9160005260206000209060070201600061012060405190810160405280876000191681526020013373ffffffffffffffffffffffffffffffffffffffff16815260200160056000896000191660001916815260200190815260200160002060000160009054906101000a900473ffffffffffffffffffffffffffffffffffffffff1673ffffffffffffffffffffffffffffffffffffffff16815260200160056000896000191660001916815260200190815260200160002060040154815260200142815260200162278d00420181526020016000151581526020016001151581526020016000151581525090919091506000820151816000019060001916905560208201518160010160006101000a81548173ffffffffffffffffffffffffffffffffffffffff021916908373ffffffffffffffffffffffffffffffffffffffff16021790555060408201518160020160006101000a81548173ffffffffffffffffffffffffffffffffffffffff021916908373ffffffffffffffffffffffffffffffffffffffff160217905550606082015181600301556080820151816004015560a0820151816005015560c08201518160060160006101000a81548160ff02191690831515021790555060e08201518160060160016101000a81548160ff0219169083151502179055506101008201518160060160026101000a81548160ff0219169083151502179055505050506118c0600560008560001916600019168152602001908152602001600020600401546005600086600019166000191681526020019081526020016000206001015461368190919063ffffffff16565b6005600085600019166000191681526020019081526020016000206001018190555061191460016005600086600019166000191681526020019081526020016000206002015461368190919063ffffffff16565b6005600085600019166000191681526020019081526020016000206002018190555060056000846000191660001916815260200190815260200160002060000160009054906101000a900473ffffffffffffffffffffffffffffffffffffffff1673ffffffffffffffffffffffffffffffffffffffff1683600019163373ffffffffffffffffffffffffffffffffffffffff167f7a3f54da83d294e3b226e50ae5a65e87cff0f43f8699003833a1ee6670c800e660056000886000191660001916815260200190815260200160002060040154600160405180838152602001821515151581526020019250505060405180910390a46001915050919050565b60035481565b60008260056000826000191660001916815260200190815260200160002060070160009054906101000a900460ff161515611a5357600080fd5b3373ffffffffffffffffffffffffffffffffffffffff1660056000836000191660001916815260200190815260200160002060000160009054906101000a900473ffffffffffffffffffffffffffffffffffffffff1673ffffffffffffffffffffffffffffffffffffffff16141515611acb57600080fd5b8280611ae160018361368190919063ffffffff16565b111515611aed57600080fd5b836005600087600019166000191681526020019081526020016000206004018190555084600019163373ffffffffffffffffffffffffffffffffffffffff167fd6d44e0931d3eff0a69c277b94480024f00d36b25216cf69d54965c1ecb7f4a3866040518082815260200191505060405180910390a360019250505092915050565b60008060008060008560056000826000191660001916815260200190815260200160002060070160009054906101000a900460ff161515611baf57600080fd5b3373ffffffffffffffffffffffffffffffffffffffff1660056000836000191660001916815260200190815260200160002060000160009054906101000a900473ffffffffffffffffffffffffffffffffffffffff1673ffffffffffffffffffffffffffffffffffffffff16141515611c2757600080fd5b60009450600660008860001916600019168152602001908152602001600020805490509350600092505b83831015611e5557611dd160066000896000191660001916815260200190815260200160002084815481101515611c8457fe5b906000526020600020906007020161012060405190810160405290816000820154600019166000191681526020016001820160009054906101000a900473ffffffffffffffffffffffffffffffffffffffff1673ffffffffffffffffffffffffffffffffffffffff1673ffffffffffffffffffffffffffffffffffffffff1681526020016002820160009054906101000a900473ffffffffffffffffffffffffffffffffffffffff1673ffffffffffffffffffffffffffffffffffffffff1673ffffffffffffffffffffffffffffffffffffffff1681526020016003820154815260200160048201548152602001600582015481526020016006820160009054906101000a900460ff161515151581526020016006820160019054906101000a900460ff161515151581526020016006820160029054906101000a900460ff1615151515815250506139f2565b91506000821115611e2f57600160066000896000191660001916815260200190815260200160002084815481101515611e0657fe5b906000526020600020906007020160060160006101000a81548160ff0219169083151502179055505b611e42828661368190919063ffffffff16565b9450600195508280600101935050611c51565b611e5f8786613aad565b1515611e6a57600080fd5b866000191660056000896000191660001916815260200190815260200160002060000160009054906101000a900473ffffffffffffffffffffffffffffffffffffffff1673ffffffffffffffffffffffffffffffffffffffff167fceb5682fafb74ca2d33476486c7dee53205f9c8aff48d68f47456a90abd536a8876040518082815260200191505060405180910390a3600195505050505050919050565b611f11614184565b611f19614184565b600080600354604051805910611f2c5750595b908082528060200260200182016040525092506001549150600090505b600354811015611fc457600560008360001916600019168152602001908152602001600020600301548382815181101515611f8057fe5b906020019060200201906000191690816000191681525050600560008360001916600019168152602001908152602001600020600801549150806001019050611f49565b82935050505090565b6000600460009054906101000a900473ffffffffffffffffffffffffffffffffffffffff1673ffffffffffffffffffffffffffffffffffffffff166370a08231306000604051602001526040518263ffffffff167c0100000000000000000000000000000000000000000000000000000000028152600401808273ffffffffffffffffffffffffffffffffffffffff1673ffffffffffffffffffffffffffffffffffffffff168152602001915050602060405180830381600087803b151561209457600080fd5b6102c65a03f115156120a557600080fd5b50505060405180519050905090565b600080600080600060056000876000191660001916815260200190815260200160002060070160009054906101000a900460ff1615156120f357600080fd5b60009350600660008760001916600019168152602001908152602001600020805490509250600091505b828210156123ab573373ffffffffffffffffffffffffffffffffffffffff166006600088600019166000191681526020019081526020016000208381548110151561216457fe5b906000526020600020906007020160010160009054906101000a900473ffffffffffffffffffffffffffffffffffffffff1673ffffffffffffffffffffffffffffffffffffffff16141561239e5761232a600660008860001916600019168152602001908152602001600020838154811015156121dd57fe5b906000526020600020906007020161012060405190810160405290816000820154600019166000191681526020016001820160009054906101000a900473ffffffffffffffffffffffffffffffffffffffff1673ffffffffffffffffffffffffffffffffffffffff1673ffffffffffffffffffffffffffffffffffffffff1681526020016002820160009054906101000a900473ffffffffffffffffffffffffffffffffffffffff1673ffffffffffffffffffffffffffffffffffffffff1673ffffffffffffffffffffffffffffffffffffffff1681526020016003820154815260200160048201548152602001600582015481526020016006820160009054906101000a900460ff161515151581526020016006820160019054906101000a900460ff161515151581526020016006820160029054906101000a900460ff161515151581525050613dd8565b905060008111156123885760016006600088600019166000191681526020019081526020016000208381548110151561235f57fe5b906000526020600020906007020160060160026101000a81548160ff0219169083151502179055505b61239b818561368190919063ffffffff16565b93505b818060010192505061211d565b6123b53385613ea9565b15156123c057600080fd5b85600019163373ffffffffffffffffffffffffffffffffffffffff167f794aa82b6db54e01dab1d1dfda90d863bf89a700f3fe0fc4f98bfd504f71bf5d866040518082815260200191505060405180910390a36001945050505050919050565b6000836000602060ff1611151561243657600080fd5b60056000826000191660001916815260200190815260200160002060070160009054906101000a900460ff1615151561246e57600080fd5b838061248460018361368190919063ffffffff16565b11151561249057600080fd5b600073ffffffffffffffffffffffffffffffffffffffff168473ffffffffffffffffffffffffffffffffffffffff16141515156124cc57600080fd5b8360056000886000191660001916815260200190815260200160002060000160006101000a81548173ffffffffffffffffffffffffffffffffffffffff021916908373ffffffffffffffffffffffffffffffffffffffff1602179055506000600560008860001916600019168152602001908152602001600020600101819055506000600560008860001916600019168152602001908152602001600020600201819055508560056000886000191660001916815260200190815260200160002060030181600019169055508460056000886000191660001916815260200190815260200160002060040181905550600060056000886000191660001916815260200190815260200160002060050160006101000a81548160ff021916908315150217905550600060056000886000191660001916815260200190815260200160002060060181905550600160056000886000191660001916815260200190815260200160002060070160006101000a81548160ff021916908315150217905550600160056000886000191660001916815260200190815260200160002060070160016101000a81548160ff0219169083151502179055506000600560008860001916600019168152602001908152602001600020600801816000191690555085600560006002546000191660001916815260200190815260200160002060080181600019169055506005600087600019166000191681526020019081526020016000206003015460028160001916905550612714600160035461368190919063ffffffff16565b60038190555085600019168473ffffffffffffffffffffffffffffffffffffffff167f32362a6c8f018375704733c0f0c66d6e2d1d6a96d031af978ccc46aaf2d2547e87600160405180838152602001821515151581526020019250505060405180910390a36001925050509392505050565b60025481565b600080600060056000856000191660001916815260200190815260200160002060070160009054906101000a900460ff1615156127c957600080fd5b60009250600660008560001916600019168152602001908152602001600020805490509150600090505b81811015612994576129856129766006600087600019166000191681526020019081526020016000208381548110151561282957fe5b906000526020600020906007020161012060405190810160405290816000820154600019166000191681526020016001820160009054906101000a900473ffffffffffffffffffffffffffffffffffffffff1673ffffffffffffffffffffffffffffffffffffffff1673ffffffffffffffffffffffffffffffffffffffff1681526020016002820160009054906101000a900473ffffffffffffffffffffffffffffffffffffffff1673ffffffffffffffffffffffffffffffffffffffff1673ffffffffffffffffffffffffffffffffffffffff1681526020016003820154815260200160048201548152602001600582015481526020016006820160009054906101000a900460ff161515151581526020016006820160019054906101000a900460ff161515151581526020016006820160029054906101000a900460ff1615151515815250506139f2565b8461368190919063ffffffff16565b925080806001019150506127f3565b8292505050919050565b6000806000806000806000806000806000600660008d600019166000191681526020019081526020016000208054905091506000821115156129df57600080fd5b8c73ffffffffffffffffffffffffffffffffffffffff16600073ffffffffffffffffffffffffffffffffffffffff1614151515612a1b57600080fd5b600560008d6000191660001916815260200190815260200160002060070160009054906101000a900460ff161515612a5257600080fd5b6001820390505b600081101515612cf2578c73ffffffffffffffffffffffffffffffffffffffff16600660008e6000191660001916815260200190815260200160002082815481101515612aa257fe5b906000526020600020906007020160010160009054906101000a900473ffffffffffffffffffffffffffffffffffffffff1673ffffffffffffffffffffffffffffffffffffffff161415612cd657600660008d6000191660001916815260200190815260200160002081815481101515612b1857fe5b906000526020600020906007020160010160009054906101000a900473ffffffffffffffffffffffffffffffffffffffff169a50600660008d6000191660001916815260200190815260200160002081815481101515612b7457fe5b9060005260206000209060070201600301549850600660008d6000191660001916815260200190815260200160002081815481101515612bb057fe5b9060005260206000209060070201600401549750600660008d6000191660001916815260200190815260200160002081815481101515612bec57fe5b9060005260206000209060070201600501549650612c0a8b8d613379565b159550600660008d6000191660001916815260200190815260200160002081815481101515612c3557fe5b906000526020600020906007020160060160009054906101000a900460ff169450600560008d6000191660001916815260200190815260200160002060050160009054906101000a900460ff169350600660008d6000191660001916815260200190815260200160002081815481101515612cac57fe5b906000526020600020906007020160060160019054906101000a900460ff16925060009050612cf2565b6000811415612ce457612cf2565b808060019003915050612a59565b8a8c8a8a8a8a8a8a8a9a509a509a509a509a509a509a509a509a5050509295985092959850929598565b60008260056000826000191660001916815260200190815260200160002060070160009054906101000a900460ff161515612d5657600080fd5b3373ffffffffffffffffffffffffffffffffffffffff1660056000836000191660001916815260200190815260200160002060000160009054906101000a900473ffffffffffffffffffffffffffffffffffffffff1673ffffffffffffffffffffffffffffffffffffffff16141515612dce57600080fd5b8260056000866000191660001916815260200190815260200160002060070160016101000a81548160ff02191690831515021790555083600019163373ffffffffffffffffffffffffffffffffffffffff167feb7e8fd639953c98dc1baecd9f72cc41075f4cf712755141cbbdd572181680c485604051808215151515815260200191505060405180910390a3600191505092915050565b60056020528060005260406000206000915090508060000160009054906101000a900473ffffffffffffffffffffffffffffffffffffffff16908060010154908060020154908060030154908060040154908060050160009054906101000a900460ff16908060060154908060070160009054906101000a900460ff16908060070160019054906101000a900460ff1690806008015490508a565b600660205281600052604060002081815481101515612f1c57fe5b9060005260206000209060070201600091509150508060000154908060010160009054906101000a900473ffffffffffffffffffffffffffffffffffffffff16908060020160009054906101000a900473ffffffffffffffffffffffffffffffffffffffff16908060030154908060040154908060050154908060060160009054906101000a900460ff16908060060160019054906101000a900460ff16908060060160029054906101000a900460ff16905089565b600460009054906101000a900473ffffffffffffffffffffffffffffffffffffffff1681565b600060056000836000191660001916815260200190815260200160002060000160009054906101000a900473ffffffffffffffffffffffffffffffffffffffff169050919050565b60008060008073ffffffffffffffffffffffffffffffffffffffff168573ffffffffffffffffffffffffffffffffffffffff161415151561308057600080fd5b60056000856000191660001916815260200190815260200160002060070160009054906101000a900460ff1615156130b757600080fd5b60009250600660008560001916600019168152602001908152602001600020805490509150600090505b81811015613310578473ffffffffffffffffffffffffffffffffffffffff166006600086600019166000191681526020019081526020016000208281548110151561312857fe5b906000526020600020906007020160010160009054906101000a900473ffffffffffffffffffffffffffffffffffffffff1673ffffffffffffffffffffffffffffffffffffffff161415613303576133006132f1600660008760001916600019168152602001908152602001600020838154811015156131a457fe5b906000526020600020906007020161012060405190810160405290816000820154600019166000191681526020016001820160009054906101000a900473ffffffffffffffffffffffffffffffffffffffff1673ffffffffffffffffffffffffffffffffffffffff1673ffffffffffffffffffffffffffffffffffffffff1681526020016002820160009054906101000a900473ffffffffffffffffffffffffffffffffffffffff1673ffffffffffffffffffffffffffffffffffffffff1673ffffffffffffffffffffffffffffffffffffffff1681526020016003820154815260200160048201548152602001600582015481526020016006820160009054906101000a900460ff161515151581526020016006820160019054906101000a900460ff161515151581526020016006820160029054906101000a900460ff161515151581525050613dd8565b8461368190919063ffffffff16565b92505b80806001019150506130e1565b829250505092915050565b6000809054906101000a900473ffffffffffffffffffffffffffffffffffffffff1681565b6040805190810160405280600181526020017f310000000000000000000000000000000000000000000000000000000000000081525081565b60008060006006600085600019166000191681526020019081526020016000208054905091506000821115156133ae57600080fd5b60056000856000191660001916815260200190815260200160002060070160009054906101000a900460ff1615156133e557600080fd5b8473ffffffffffffffffffffffffffffffffffffffff16600073ffffffffffffffffffffffffffffffffffffffff161415151561342157600080fd5b6001820390505b60008110151561351f578473ffffffffffffffffffffffffffffffffffffffff166006600086600019166000191681526020019081526020016000208281548110151561347157fe5b906000526020600020906007020160010160009054906101000a900473ffffffffffffffffffffffffffffffffffffffff1673ffffffffffffffffffffffffffffffffffffffff16141561350357600660008560001916600019168152602001908152602001600020818154811015156134e757fe5b9060005260206000209060070201600501544210159250613524565b60008114156135115761351f565b808060019003915050613428565b600192505b505092915050565b6000809054906101000a900473ffffffffffffffffffffffffffffffffffffffff1673ffffffffffffffffffffffffffffffffffffffff163373ffffffffffffffffffffffffffffffffffffffff1614151561358757600080fd5b600073ffffffffffffffffffffffffffffffffffffffff168173ffffffffffffffffffffffffffffffffffffffff16141515156135c357600080fd5b8073ffffffffffffffffffffffffffffffffffffffff166000809054906101000a900473ffffffffffffffffffffffffffffffffffffffff1673ffffffffffffffffffffffffffffffffffffffff167f8be0079c531659141344cd1fd0a4f28419497f9722a3daafe3b4186f6b6457e060405160405180910390a3806000806101000a81548173ffffffffffffffffffffffffffffffffffffffff021916908373ffffffffffffffffffffffffffffffffffffffff16021790555050565b600080828401905083811015151561369557fe5b8091505092915050565b600081806136b760018361368190919063ffffffff16565b1115156136c357600080fd5b600073ffffffffffffffffffffffffffffffffffffffff168573ffffffffffffffffffffffffffffffffffffffff161415801561372d5750600073ffffffffffffffffffffffffffffffffffffffff168473ffffffffffffffffffffffffffffffffffffffff1614155b151561373857600080fd5b82600460009054906101000a900473ffffffffffffffffffffffffffffffffffffffff1673ffffffffffffffffffffffffffffffffffffffff1663dd62ed3e87306000604051602001526040518363ffffffff167c0100000000000000000000000000000000000000000000000000000000028152600401808373ffffffffffffffffffffffffffffffffffffffff1673ffffffffffffffffffffffffffffffffffffffff1681526020018273ffffffffffffffffffffffffffffffffffffffff1673ffffffffffffffffffffffffffffffffffffffff16815260200192505050602060405180830381600087803b151561383257600080fd5b6102c65a03f1151561384357600080fd5b505050604051805190501015151561385a57600080fd5b600460009054906101000a900473ffffffffffffffffffffffffffffffffffffffff1673ffffffffffffffffffffffffffffffffffffffff166323b872dd8686866000604051602001526040518463ffffffff167c0100000000000000000000000000000000000000000000000000000000028152600401808473ffffffffffffffffffffffffffffffffffffffff1673ffffffffffffffffffffffffffffffffffffffff1681526020018373ffffffffffffffffffffffffffffffffffffffff1673ffffffffffffffffffffffffffffffffffffffff1681526020018281526020019350505050602060405180830381600087803b151561395b57600080fd5b6102c65a03f1151561396c57600080fd5b50505060405180519050151561398157600080fd5b8373ffffffffffffffffffffffffffffffffffffffff168573ffffffffffffffffffffffffffffffffffffffff167f6f990e2a71bc9526905da97b737d1ccb2bf854118a41fee0eb7811bb22d3eea4856040518082815260200191505060405180910390a360019150509392505050565b60008090508160c001511515613aa457613a0b82614014565b15613a9c576005600083600001516000191660001916815260200190815260200160002060050160009054906101000a900460ff1615613a90578160a001516005600084600001516000191660001916815260200190815260200160002060060154101515613a805781606001519050613aa8565b613a8982614025565b9050613aa8565b81606001519050613aa8565b809050613aa8565b8090505b919050565b60008180613ac560018361368190919063ffffffff16565b111515613ad157600080fd5b8360056000826000191660001916815260200190815260200160002060070160009054906101000a900460ff161515613b0957600080fd5b3373ffffffffffffffffffffffffffffffffffffffff1660056000836000191660001916815260200190815260200160002060000160009054906101000a900473ffffffffffffffffffffffffffffffffffffffff1673ffffffffffffffffffffffffffffffffffffffff16141515613b8157600080fd5b600084111515613b9057600080fd5b600073ffffffffffffffffffffffffffffffffffffffff1660056000876000191660001916815260200190815260200160002060000160009054906101000a900473ffffffffffffffffffffffffffffffffffffffff1673ffffffffffffffffffffffffffffffffffffffff1614151515613c0a57600080fd5b600460009054906101000a900473ffffffffffffffffffffffffffffffffffffffff1673ffffffffffffffffffffffffffffffffffffffff1663a9059cbb60056000886000191660001916815260200190815260200160002060000160009054906101000a900473ffffffffffffffffffffffffffffffffffffffff16866000604051602001526040518363ffffffff167c0100000000000000000000000000000000000000000000000000000000028152600401808373ffffffffffffffffffffffffffffffffffffffff1673ffffffffffffffffffffffffffffffffffffffff16815260200182815260200192505050602060405180830381600087803b1515613d1557600080fd5b6102c65a03f11515613d2657600080fd5b505050604051805190501515613d3b57600080fd5b846000191660056000876000191660001916815260200190815260200160002060000160009054906101000a900473ffffffffffffffffffffffffffffffffffffffff1673ffffffffffffffffffffffffffffffffffffffff167f4b4186a4b549df09e37908f0b17747e961a0ecd8d675b2993e5933811870991b866040518082815260200191505060405180910390a360019250505092915050565b60008090508161010001511515613ea1576005600083600001516000191660001916815260200190815260200160002060050160009054906101000a900460ff1615613ea05781608001516005600084600001516000191660001916815260200190815260200160002060060154118015613e7857508160a001516005600084600001516000191660001916815260200190815260200160002060060154105b15613e9f57613e9c613e8983614025565b83606001516140eb90919063ffffffff16565b90505b5b5b809050919050565b60008180613ec160018361368190919063ffffffff16565b111515613ecd57600080fd5b600083111515613edc57600080fd5b3373ffffffffffffffffffffffffffffffffffffffff168473ffffffffffffffffffffffffffffffffffffffff16141515613f1657600080fd5b600460009054906101000a900473ffffffffffffffffffffffffffffffffffffffff1673ffffffffffffffffffffffffffffffffffffffff1663a9059cbb33856000604051602001526040518363ffffffff167c0100000000000000000000000000000000000000000000000000000000028152600401808373ffffffffffffffffffffffffffffffffffffffff1673ffffffffffffffffffffffffffffffffffffffff16815260200182815260200192505050602060405180830381600087803b1515613fe357600080fd5b6102c65a03f11515613ff457600080fd5b50505060405180519050151561400957600080fd5b600191505092915050565b6000428260a0015111159050919050565b6000806000806005600086600001516000191660001916815260200190815260200160002060050160009054906101000a900460ff16151561406657600080fd5b846060015192506140b8836140aa8760800151600560008a6000015160001916600019168152602001908152602001600020600601546140eb90919063ffffffff16565b61410490919063ffffffff16565b91506140d585608001518660a001516140eb90919063ffffffff16565b90506140e18282614137565b9350505050919050565b60008282111515156140f957fe5b818303905092915050565b60008082840290506000841480614125575082848281151561412257fe5b04145b151561412d57fe5b8091505092915050565b600080828481151561414557fe5b0490508091505092915050565b81548183558181151161417f5760070281600702836000526020600020918201910161417e9190614198565b5b505050565b602060405190810160405280600081525090565b61425e91905b8082111561425a576000808201600090556001820160006101000a81549073ffffffffffffffffffffffffffffffffffffffff02191690556002820160006101000a81549073ffffffffffffffffffffffffffffffffffffffff02191690556003820160009055600482016000905560058201600090556006820160006101000a81549060ff02191690556006820160016101000a81549060ff02191690556006820160026101000a81549060ff02191690555060070161419e565b5090565b905600a165627a7a72305820bddbdfdb266a232f13916b26065dd79db862055f2b7a3ed783ef607b57d675a10029",
  "source": "pragma solidity 0.4.18;\n\n//\nimport \"../Marketplace.sol\";\n\n/*\n*@title mock MarketPlace contract\n*@dev unit testing \n*/\n\ncontract TestableMock is Marketplace{\n    function TestableMock(address _tokenAddress) Marketplace(_tokenAddress){\n        \n    }\n        // mock temp func\n    function mockPayableProvider(bytes32 _dataSourceName, \n    \tuint _price, address _dataOwner, bool isPunished, uint relativePunish, bool withTransfer)\n    public returns(bool){\n        // add mock provider \n        mProviders[_dataSourceName].owner = _dataOwner;\n        mProviders[_dataSourceName].volume = 0;\n        mProviders[_dataSourceName].subscriptionsNum = 0;\n        mProviders[_dataSourceName].name = _dataSourceName;\n        mProviders[_dataSourceName].price = _price;\n        mProviders[_dataSourceName].isPunished = isPunished;\n        mProviders[_dataSourceName].punishTimeStamp = now/relativePunish - FIXED_SUBSCRIPTION_PERIOD/relativePunish;\n        mProviders[_dataSourceName].isProvider = true;\n        mProviders[_dataSourceName].isActive = true;\n        mProviders[_dataSourceName].nextProvider = \"\";\n        mProviders[mCurrent].nextProvider = _dataSourceName;\n        mCurrent = mProviders[_dataSourceName].name;\n        mProvidersSize = mProvidersSize.add(1);\n        // add order \n            mOrders[_dataSourceName].push(Order({\n            dataSourceName : _dataSourceName,\n            subscriber : msg.sender,\n            provider : mProviders[_dataSourceName].owner,\n            price : mProviders[_dataSourceName].price,\n            startTime : now/relativePunish - FIXED_SUBSCRIPTION_PERIOD,\n            endTime : now/relativePunish,\n            isPaid : false,\n            isOrder : true,\n            isRefundPaid : false\n            }));\n        // update provider data \n        mProviders[_dataSourceName].volume = mProviders[_dataSourceName].volume.add(mProviders[_dataSourceName].price);\n        mProviders[_dataSourceName].subscriptionsNum = mProviders[_dataSourceName].subscriptionsNum.add(1);\n       \tif(withTransfer){\n       \t\trequire(mToken.transferFrom(msg.sender,this,_price));\n       \t}\n        return true;\n    }\n    \n}\n\n\n\n\n",
  "sourcePath": "/home/wilder/Desktop/Enigma/DataMarketProject/marketPlace_WS/smart_contract_marketplace/contracts/mocks/TestableMock.sol",
  "compiler": {
    "name": "solc",
    "version": "0.4.18+commit.9cf6e910.Emscripten.clang"
  },
  "schemaVersion": "1.0.1",
  "updatedAt": "2018-02-03T18:16:04.443Z"
}